{
  "_format": "hh-sol-artifact-1",
  "contractName": "Burner",
  "sourceName": "contracts/core/Burner.sol",
  "abi": [
    {
      "inputs": [
        {
          "internalType": "contract IDawnStorageInterface",
          "name": "dawnStorageAddress",
          "type": "address"
        }
      ],
      "stateMutability": "nonpayable",
      "type": "constructor"
    },
    {
      "inputs": [],
      "name": "PEthNotEnough",
      "type": "error"
    },
    {
      "inputs": [],
      "name": "ZeroAddress",
      "type": "error"
    },
    {
      "inputs": [],
      "name": "ZeroBurnAmount",
      "type": "error"
    },
    {
      "anonymous": false,
      "inputs": [
        {
          "indexed": false,
          "internalType": "uint256",
          "name": "amount",
          "type": "uint256"
        }
      ],
      "name": "LogRequestBurnMyPEth",
      "type": "event"
    },
    {
      "anonymous": false,
      "inputs": [
        {
          "indexed": false,
          "internalType": "address",
          "name": "from",
          "type": "address"
        },
        {
          "indexed": false,
          "internalType": "uint256",
          "name": "amount",
          "type": "uint256"
        }
      ],
      "name": "LogRequestBurnPETH",
      "type": "event"
    },
    {
      "anonymous": false,
      "inputs": [
        {
          "indexed": false,
          "internalType": "uint256",
          "name": "burnedPEthAmount",
          "type": "uint256"
        },
        {
          "indexed": false,
          "internalType": "uint256",
          "name": "totalBurnedPEth",
          "type": "uint256"
        },
        {
          "indexed": false,
          "internalType": "uint256",
          "name": "currPEthBurnRequest",
          "type": "uint256"
        }
      ],
      "name": "LogSubmitBurnRequest",
      "type": "event"
    },
    {
      "inputs": [
        {
          "internalType": "uint256",
          "name": "burnedPEthAmount",
          "type": "uint256"
        }
      ],
      "name": "commitPEthToBurn",
      "outputs": [],
      "stateMutability": "nonpayable",
      "type": "function"
    },
    {
      "inputs": [],
      "name": "getPEthBurnRequest",
      "outputs": [
        {
          "internalType": "uint256",
          "name": "",
          "type": "uint256"
        }
      ],
      "stateMutability": "view",
      "type": "function"
    },
    {
      "inputs": [],
      "name": "getTotalBurnedPEth",
      "outputs": [
        {
          "internalType": "uint256",
          "name": "",
          "type": "uint256"
        }
      ],
      "stateMutability": "view",
      "type": "function"
    },
    {
      "inputs": [
        {
          "internalType": "uint256",
          "name": "amount",
          "type": "uint256"
        }
      ],
      "name": "requestBurnMyPEth",
      "outputs": [],
      "stateMutability": "nonpayable",
      "type": "function"
    },
    {
      "inputs": [
        {
          "internalType": "address",
          "name": "from",
          "type": "address"
        },
        {
          "internalType": "uint256",
          "name": "amount",
          "type": "uint256"
        }
      ],
      "name": "requestBurnPEth",
      "outputs": [],
      "stateMutability": "nonpayable",
      "type": "function"
    }
  ],
  "bytecode": "0x608060405260008060006101000a81548173ffffffffffffffffffffffffffffffffffffffff021916908373ffffffffffffffffffffffffffffffffffffffff1602179055503480156200005257600080fd5b50604051620010dd380380620010dd83398181016040528101906200007891906200013f565b80806000806101000a81548173ffffffffffffffffffffffffffffffffffffffff021916908373ffffffffffffffffffffffffffffffffffffffff160217905550505062000171565b600080fd5b600073ffffffffffffffffffffffffffffffffffffffff82169050919050565b6000620000f382620000c6565b9050919050565b60006200010782620000e6565b9050919050565b6200011981620000fa565b81146200012557600080fd5b50565b60008151905062000139816200010e565b92915050565b600060208284031215620001585762000157620000c1565b5b6000620001688482850162000128565b91505092915050565b610f5c80620001816000396000f3fe608060405234801561001057600080fd5b50600436106100575760003560e01c806318f1aa4e1461005c5780633e2c81321461007a57806343a526c1146100965780638d2e731c146100b2578063f22755d6146100d0575b600080fd5b6100646100ec565b6040516100719190610953565b60405180910390f35b610094600480360381019061008f919061099f565b6100fb565b005b6100b060048036038101906100ab919061099f565b61030e565b005b6100ba6104a3565b6040516100c79190610953565b60405180910390f35b6100ea60048036038101906100e59190610a2a565b6104b2565b005b60006100f66105c4565b905090565b60008103610135576040517f97b9d4c400000000000000000000000000000000000000000000000000000000815260040160405180910390fd5b60006101756040518060400160405280600b81526020017f4461776e4465706f7369740000000000000000000000000000000000000000008152506105f4565b9050818173ffffffffffffffffffffffffffffffffffffffff166370a08231336040518263ffffffff1660e01b81526004016101b19190610a79565b602060405180830381865afa1580156101ce573d6000803e3d6000fd5b505050506040513d601f19601f820116820180604052508101906101f29190610aa9565b101561022a576040517fa8bcec3e00000000000000000000000000000000000000000000000000000000815260040160405180910390fd5b8073ffffffffffffffffffffffffffffffffffffffff1663a9059cbb30846040518363ffffffff1660e01b8152600401610265929190610ad6565b6020604051808303816000875af1158015610284573d6000803e3d6000fd5b505050506040513d601f19601f820116820180604052508101906102a89190610b37565b506102d37f59622466a3f88c6867cb6356d0cabbad2953be423a425154acf46cedf4a0a0e3836106a0565b7fcb5ee3af1c3b7457ea31a26d40b7e8e36f8f9e6d9948489da2f8de7c348d6ca9826040516103029190610953565b60405180910390a15050565b61034c6040518060400160405280600b81526020017f4461776e4465706f7369740000000000000000000000000000000000000000008152506105f4565b73ffffffffffffffffffffffffffffffffffffffff163373ffffffffffffffffffffffffffffffffffffffff16146103b9576040517f08c379a00000000000000000000000000000000000000000000000000000000081526004016103b090610be7565b60405180910390fd5b6103c16105c4565b811115610403576040517f08c379a00000000000000000000000000000000000000000000000000000000081526004016103fa90610c79565b60405180910390fd5b61042d7f59622466a3f88c6867cb6356d0cabbad2953be423a425154acf46cedf4a0a0e382610731565b6104577f97c3d6a48a070e24ccda971ba58777ee490d67cba7e79cc37be81653e3bfe174826106a0565b7f718c2b788aa2ab4bba7d3267fa65f0436eb61e51004ddcbeac8fcf71eee8b5c3816104816107c2565b6104896105c4565b60405161049893929190610c99565b60405180910390a150565b60006104ad6107c2565b905090565b6104f06040518060400160405280600b81526020017f4461776e4465706f7369740000000000000000000000000000000000000000008152506105f4565b73ffffffffffffffffffffffffffffffffffffffff163373ffffffffffffffffffffffffffffffffffffffff161461055d576040517f08c379a000000000000000000000000000000000000000000000000000000000815260040161055490610d1c565b60405180910390fd5b6105877f59622466a3f88c6867cb6356d0cabbad2953be423a425154acf46cedf4a0a0e3826106a0565b7f19735e0bc78b2b1133759d4d4b3f2b34679596ffdd71adfe9529b89525664aad82826040516105b8929190610ad6565b60405180910390a15050565b60006105ef7f59622466a3f88c6867cb6356d0cabbad2953be423a425154acf46cedf4a0a0e36107f2565b905090565b6000806106268360405160200161060b9190610df9565b60405160208183030381529060405280519060200120610896565b9050600073ffffffffffffffffffffffffffffffffffffffff168173ffffffffffffffffffffffffffffffffffffffff1603610697576040517f08c379a000000000000000000000000000000000000000000000000000000000815260040161068e90610e67565b60405180910390fd5b80915050919050565b60008054906101000a900473ffffffffffffffffffffffffffffffffffffffff1673ffffffffffffffffffffffffffffffffffffffff1663adb353dc83836040518363ffffffff1660e01b81526004016106fb929190610ea0565b600060405180830381600087803b15801561071557600080fd5b505af1158015610729573d6000803e3d6000fd5b505050505050565b60008054906101000a900473ffffffffffffffffffffffffffffffffffffffff1673ffffffffffffffffffffffffffffffffffffffff1663ebb9d8c983836040518363ffffffff1660e01b815260040161078c929190610ea0565b600060405180830381600087803b1580156107a657600080fd5b505af11580156107ba573d6000803e3d6000fd5b505050505050565b60006107ed7f97c3d6a48a070e24ccda971ba58777ee490d67cba7e79cc37be81653e3bfe1746107f2565b905090565b60008060009054906101000a900473ffffffffffffffffffffffffffffffffffffffff1673ffffffffffffffffffffffffffffffffffffffff1663bd02d0f5836040518263ffffffff1660e01b815260040161084e9190610ec9565b602060405180830381865afa15801561086b573d6000803e3d6000fd5b505050506040513d601f19601f8201168201806040525081019061088f9190610aa9565b9050919050565b60008060009054906101000a900473ffffffffffffffffffffffffffffffffffffffff1673ffffffffffffffffffffffffffffffffffffffff166321f8a721836040518263ffffffff1660e01b81526004016108f29190610ec9565b602060405180830381865afa15801561090f573d6000803e3d6000fd5b505050506040513d601f19601f820116820180604052508101906109339190610ef9565b9050919050565b6000819050919050565b61094d8161093a565b82525050565b60006020820190506109686000830184610944565b92915050565b600080fd5b61097c8161093a565b811461098757600080fd5b50565b60008135905061099981610973565b92915050565b6000602082840312156109b5576109b461096e565b5b60006109c38482850161098a565b91505092915050565b600073ffffffffffffffffffffffffffffffffffffffff82169050919050565b60006109f7826109cc565b9050919050565b610a07816109ec565b8114610a1257600080fd5b50565b600081359050610a24816109fe565b92915050565b60008060408385031215610a4157610a4061096e565b5b6000610a4f85828601610a15565b9250506020610a608582860161098a565b9150509250929050565b610a73816109ec565b82525050565b6000602082019050610a8e6000830184610a6a565b92915050565b600081519050610aa381610973565b92915050565b600060208284031215610abf57610abe61096e565b5b6000610acd84828501610a94565b91505092915050565b6000604082019050610aeb6000830185610a6a565b610af86020830184610944565b9392505050565b60008115159050919050565b610b1481610aff565b8114610b1f57600080fd5b50565b600081519050610b3181610b0b565b92915050565b600060208284031215610b4d57610b4c61096e565b5b6000610b5b84828501610b22565b91505092915050565b600082825260208201905092915050565b7f63616c6c6572206973206e6f74204461776e4465706f73697420636f6e74726160008201527f6374000000000000000000000000000000000000000000000000000000000000602082015250565b6000610bd1602283610b64565b9150610bdc82610b75565b604082019050919050565b60006020820190508181036000830152610c0081610bc4565b9050919050565b7f6275726e656450457468416d6f756e74206d6f7265207468616e20746f74616c60008201527f504574684275726e526571756573746564000000000000000000000000000000602082015250565b6000610c63603183610b64565b9150610c6e82610c07565b604082019050919050565b60006020820190508181036000830152610c9281610c56565b9050919050565b6000606082019050610cae6000830186610944565b610cbb6020830185610944565b610cc86040830184610944565b949350505050565b7f4f6e6c792063616c6c206279206461776e4465706f7369740000000000000000600082015250565b6000610d06601883610b64565b9150610d1182610cd0565b602082019050919050565b60006020820190508181036000830152610d3581610cf9565b9050919050565b600081905092915050565b7f636f6e74726163742e6164647265737300000000000000000000000000000000600082015250565b6000610d7d601083610d3c565b9150610d8882610d47565b601082019050919050565b600081519050919050565b60005b83811015610dbc578082015181840152602081019050610da1565b60008484015250505050565b6000610dd382610d93565b610ddd8185610d3c565b9350610ded818560208601610d9e565b80840191505092915050565b6000610e0482610d70565b9150610e108284610dc8565b915081905092915050565b7f436f6e7472616374206e6f7420666f756e640000000000000000000000000000600082015250565b6000610e51601283610b64565b9150610e5c82610e1b565b602082019050919050565b60006020820190508181036000830152610e8081610e44565b9050919050565b6000819050919050565b610e9a81610e87565b82525050565b6000604082019050610eb56000830185610e91565b610ec26020830184610944565b9392505050565b6000602082019050610ede6000830184610e91565b92915050565b600081519050610ef3816109fe565b92915050565b600060208284031215610f0f57610f0e61096e565b5b6000610f1d84828501610ee4565b9150509291505056fea26469706673582212206b9d78ae53e7caf01628d5a444771b9f41108b4ca69304e5f55b444228b359de64736f6c63430008110033",
  "linkReferences": {},
  "deployedLinkReferences": {}
}