{
  "_format": "hh-sol-artifact-1",
  "contractName": "Burner",
  "sourceName": "contracts/core/Burner.sol",
  "abi": [
    {
      "inputs": [
        {
          "internalType": "contract IDawnStorageInterface",
          "name": "dawnStorageAddress",
          "type": "address"
        }
      ],
      "stateMutability": "nonpayable",
      "type": "constructor"
    },
    {
      "inputs": [],
      "name": "PEthNotEnough",
      "type": "error"
    },
    {
      "inputs": [],
      "name": "ZeroAddress",
      "type": "error"
    },
    {
      "inputs": [],
      "name": "ZeroBurnAmount",
      "type": "error"
    },
    {
      "anonymous": false,
      "inputs": [
        {
          "indexed": false,
          "internalType": "uint256",
          "name": "amount",
          "type": "uint256"
        }
      ],
      "name": "LogRequestBurnMyPEth",
      "type": "event"
    },
    {
      "anonymous": false,
      "inputs": [
        {
          "indexed": false,
          "internalType": "address",
          "name": "from",
          "type": "address"
        },
        {
          "indexed": false,
          "internalType": "uint256",
          "name": "amount",
          "type": "uint256"
        }
      ],
      "name": "LogRequestBurnPETH",
      "type": "event"
    },
    {
      "anonymous": false,
      "inputs": [
        {
          "indexed": false,
          "internalType": "uint256",
          "name": "burnedPEthAmount",
          "type": "uint256"
        },
        {
          "indexed": false,
          "internalType": "uint256",
          "name": "totalBurnedPEth",
          "type": "uint256"
        },
        {
          "indexed": false,
          "internalType": "uint256",
          "name": "currPEthBurnRequest",
          "type": "uint256"
        }
      ],
      "name": "LogSubmitBurnRequest",
      "type": "event"
    },
    {
      "inputs": [
        {
          "internalType": "uint256",
          "name": "burnedPEthAmount",
          "type": "uint256"
        }
      ],
      "name": "commitPEthToBurn",
      "outputs": [],
      "stateMutability": "nonpayable",
      "type": "function"
    },
    {
      "inputs": [],
      "name": "getPEthBurnRequest",
      "outputs": [
        {
          "internalType": "uint256",
          "name": "",
          "type": "uint256"
        }
      ],
      "stateMutability": "view",
      "type": "function"
    },
    {
      "inputs": [],
      "name": "getTotalBurnedPEth",
      "outputs": [
        {
          "internalType": "uint256",
          "name": "",
          "type": "uint256"
        }
      ],
      "stateMutability": "view",
      "type": "function"
    },
    {
      "inputs": [
        {
          "internalType": "uint256",
          "name": "amount",
          "type": "uint256"
        }
      ],
      "name": "requestBurnMyPEth",
      "outputs": [],
      "stateMutability": "nonpayable",
      "type": "function"
    },
    {
      "inputs": [
        {
          "internalType": "address",
          "name": "from",
          "type": "address"
        },
        {
          "internalType": "uint256",
          "name": "amount",
          "type": "uint256"
        }
      ],
      "name": "requestBurnPEth",
      "outputs": [],
      "stateMutability": "nonpayable",
      "type": "function"
    }
  ],
  "bytecode": "0x6080604052600080546001600160a01b031916905534801561002057600080fd5b50604051610bbd380380610bbd83398101604081905261003f91610064565b600080546001600160a01b0319166001600160a01b0392909216919091179055610094565b60006020828403121561007657600080fd5b81516001600160a01b038116811461008d57600080fd5b9392505050565b610b1a806100a36000396000f3fe608060405234801561001057600080fd5b50600436106100675760003560e01c806343a526c11161005057806343a526c11461009b5780638d2e731c146100ae578063f22755d6146100b657600080fd5b806318f1aa4e1461006c5780633e2c813214610086575b600080fd5b6100746100c9565b60405190815260200160405180910390f35b6100996100943660046109c3565b6100d8565b005b6100996100a93660046109c3565b610317565b610074610552565b6100996100c4366004610a01565b61055c565b60006100d36106a4565b905090565b80600003610112576040517f97b9d4c400000000000000000000000000000000000000000000000000000000815260040160405180910390fd5b60006101526040518060400160405280600b81526020017f4461776e4465706f7369740000000000000000000000000000000000000000008152506106cf565b6040517f70a08231000000000000000000000000000000000000000000000000000000008152336004820152909150829073ffffffffffffffffffffffffffffffffffffffff8316906370a0823190602401602060405180830381865afa1580156101c1573d6000803e3d6000fd5b505050506040513d601f19601f820116820180604052508101906101e59190610a2d565b101561021d576040517fa8bcec3e00000000000000000000000000000000000000000000000000000000815260040160405180910390fd5b6040517fa9059cbb0000000000000000000000000000000000000000000000000000000081523060048201526024810183905273ffffffffffffffffffffffffffffffffffffffff82169063a9059cbb906044016020604051808303816000875af1158015610290573d6000803e3d6000fd5b505050506040513d601f19601f820116820180604052508101906102b49190610a46565b506102df7f59622466a3f88c6867cb6356d0cabbad2953be423a425154acf46cedf4a0a0e383610786565b6040518281527fcb5ee3af1c3b7457ea31a26d40b7e8e36f8f9e6d9948489da2f8de7c348d6ca9906020015b60405180910390a15050565b6103556040518060400160405280600b81526020017f4461776e4465706f7369740000000000000000000000000000000000000000008152506106cf565b73ffffffffffffffffffffffffffffffffffffffff163373ffffffffffffffffffffffffffffffffffffffff1614610414576040517f08c379a000000000000000000000000000000000000000000000000000000000815260206004820152602260248201527f63616c6c6572206973206e6f74204461776e4465706f73697420636f6e74726160448201527f637400000000000000000000000000000000000000000000000000000000000060648201526084015b60405180910390fd5b61041c6106a4565b8111156104ab576040517f08c379a000000000000000000000000000000000000000000000000000000000815260206004820152603160248201527f6275726e656450457468416d6f756e74206d6f7265207468616e20746f74616c60448201527f504574684275726e526571756573746564000000000000000000000000000000606482015260840161040b565b6104d57f59622466a3f88c6867cb6356d0cabbad2953be423a425154acf46cedf4a0a0e382610816565b6104ff7f97c3d6a48a070e24ccda971ba58777ee490d67cba7e79cc37be81653e3bfe17482610786565b7f718c2b788aa2ab4bba7d3267fa65f0436eb61e51004ddcbeac8fcf71eee8b5c381610529610874565b6105316106a4565b6040805193845260208401929092529082015260600160405180910390a150565b60006100d3610874565b61059a6040518060400160405280600b81526020017f4461776e4465706f7369740000000000000000000000000000000000000000008152506106cf565b73ffffffffffffffffffffffffffffffffffffffff163373ffffffffffffffffffffffffffffffffffffffff161461062e576040517f08c379a000000000000000000000000000000000000000000000000000000000815260206004820152601860248201527f4f6e6c792063616c6c206279206461776e4465706f7369740000000000000000604482015260640161040b565b6106587f59622466a3f88c6867cb6356d0cabbad2953be423a425154acf46cedf4a0a0e382610786565b6040805173ffffffffffffffffffffffffffffffffffffffff84168152602081018390527f19735e0bc78b2b1133759d4d4b3f2b34679596ffdd71adfe9529b89525664aad910161030b565b60006100d37f59622466a3f88c6867cb6356d0cabbad2953be423a425154acf46cedf4a0a0e361089b565b600080610701836040516020016106e69190610a6f565b6040516020818303038152906040528051906020012061092f565b905073ffffffffffffffffffffffffffffffffffffffff8116610780576040517f08c379a000000000000000000000000000000000000000000000000000000000815260206004820152601260248201527f436f6e7472616374206e6f7420666f756e640000000000000000000000000000604482015260640161040b565b92915050565b6000546040517fadb353dc000000000000000000000000000000000000000000000000000000008152600481018490526024810183905273ffffffffffffffffffffffffffffffffffffffff9091169063adb353dc906044015b600060405180830381600087803b1580156107fa57600080fd5b505af115801561080e573d6000803e3d6000fd5b505050505050565b6000546040517febb9d8c9000000000000000000000000000000000000000000000000000000008152600481018490526024810183905273ffffffffffffffffffffffffffffffffffffffff9091169063ebb9d8c9906044016107e0565b60006100d37f97c3d6a48a070e24ccda971ba58777ee490d67cba7e79cc37be81653e3bfe1745b600080546040517fbd02d0f50000000000000000000000000000000000000000000000000000000081526004810184905273ffffffffffffffffffffffffffffffffffffffff9091169063bd02d0f590602401602060405180830381865afa15801561090b573d6000803e3d6000fd5b505050506040513d601f19601f820116820180604052508101906107809190610a2d565b600080546040517f21f8a7210000000000000000000000000000000000000000000000000000000081526004810184905273ffffffffffffffffffffffffffffffffffffffff909116906321f8a72190602401602060405180830381865afa15801561099f573d6000803e3d6000fd5b505050506040513d601f19601f820116820180604052508101906107809190610ac7565b6000602082840312156109d557600080fd5b5035919050565b73ffffffffffffffffffffffffffffffffffffffff811681146109fe57600080fd5b50565b60008060408385031215610a1457600080fd5b8235610a1f816109dc565b946020939093013593505050565b600060208284031215610a3f57600080fd5b5051919050565b600060208284031215610a5857600080fd5b81518015158114610a6857600080fd5b9392505050565b7f636f6e74726163742e616464726573730000000000000000000000000000000081526000825160005b81811015610ab65760208186018101516010868401015201610a99565b506000920160100191825250919050565b600060208284031215610ad957600080fd5b8151610a68816109dc56fea26469706673582212205522149ccf89f1dd88dbc1c3812a4a99f7d3a7effd7b8f40c99f447026265cfe64736f6c63430008110033",
  "linkReferences": {},
  "deployedLinkReferences": {}
}