{
  "_format": "hh-sol-artifact-1",
  "contractName": "DawnPoolOracle",
  "sourceName": "contracts/oracle/DawnPoolOracle.sol",
  "abi": [
    {
      "inputs": [
        {
          "internalType": "contract IDawnStorageInterface",
          "name": "dawnStorageAddress",
          "type": "address"
        }
      ],
      "stateMutability": "nonpayable",
      "type": "constructor"
    },
    {
      "anonymous": false,
      "inputs": [
        {
          "indexed": false,
          "internalType": "address",
          "name": "callback",
          "type": "address"
        }
      ],
      "name": "BeaconReportReceiverSet",
      "type": "event"
    },
    {
      "anonymous": false,
      "inputs": [
        {
          "indexed": false,
          "internalType": "uint256",
          "name": "epochId",
          "type": "uint256"
        },
        {
          "indexed": false,
          "internalType": "uint128",
          "name": "beaconBalance",
          "type": "uint128"
        },
        {
          "indexed": false,
          "internalType": "uint128",
          "name": "beaconValidators",
          "type": "uint128"
        },
        {
          "indexed": false,
          "internalType": "uint128",
          "name": "rewardsVaultBalance",
          "type": "uint128"
        },
        {
          "indexed": false,
          "internalType": "address",
          "name": "caller",
          "type": "address"
        }
      ],
      "name": "BeaconReported",
      "type": "event"
    },
    {
      "anonymous": false,
      "inputs": [
        {
          "indexed": false,
          "internalType": "uint64",
          "name": "epochsPerFrame",
          "type": "uint64"
        },
        {
          "indexed": false,
          "internalType": "uint64",
          "name": "slotsPerEpoch",
          "type": "uint64"
        },
        {
          "indexed": false,
          "internalType": "uint64",
          "name": "secondsPerSlot",
          "type": "uint64"
        },
        {
          "indexed": false,
          "internalType": "uint64",
          "name": "genesisTime",
          "type": "uint64"
        }
      ],
      "name": "BeaconSpecSet",
      "type": "event"
    },
    {
      "anonymous": false,
      "inputs": [
        {
          "indexed": false,
          "internalType": "uint256",
          "name": "epochId",
          "type": "uint256"
        },
        {
          "indexed": false,
          "internalType": "uint128",
          "name": "beaconBalance",
          "type": "uint128"
        },
        {
          "indexed": false,
          "internalType": "uint128",
          "name": "beaconValidators",
          "type": "uint128"
        },
        {
          "indexed": false,
          "internalType": "uint128",
          "name": "_rewardsVaultBalance",
          "type": "uint128"
        }
      ],
      "name": "Completed",
      "type": "event"
    },
    {
      "anonymous": false,
      "inputs": [
        {
          "indexed": false,
          "internalType": "uint256",
          "name": "epochId",
          "type": "uint256"
        }
      ],
      "name": "ExpectedEpochIdUpdated",
      "type": "event"
    },
    {
      "anonymous": false,
      "inputs": [
        {
          "indexed": false,
          "internalType": "address",
          "name": "member",
          "type": "address"
        }
      ],
      "name": "MemberAdded",
      "type": "event"
    },
    {
      "anonymous": false,
      "inputs": [
        {
          "indexed": false,
          "internalType": "address",
          "name": "member",
          "type": "address"
        }
      ],
      "name": "MemberRemoved",
      "type": "event"
    },
    {
      "anonymous": false,
      "inputs": [
        {
          "indexed": false,
          "internalType": "uint256",
          "name": "quorum",
          "type": "uint256"
        }
      ],
      "name": "QuorumChanged",
      "type": "event"
    },
    {
      "inputs": [],
      "name": "MAX_MEMBERS",
      "outputs": [
        {
          "internalType": "uint256",
          "name": "",
          "type": "uint256"
        }
      ],
      "stateMutability": "view",
      "type": "function"
    },
    {
      "inputs": [
        {
          "internalType": "address",
          "name": "_member",
          "type": "address"
        }
      ],
      "name": "addOracleMember",
      "outputs": [],
      "stateMutability": "nonpayable",
      "type": "function"
    },
    {
      "inputs": [],
      "name": "getBeaconReportReceiver",
      "outputs": [
        {
          "internalType": "address",
          "name": "",
          "type": "address"
        }
      ],
      "stateMutability": "view",
      "type": "function"
    },
    {
      "inputs": [],
      "name": "getBeaconSpec",
      "outputs": [
        {
          "internalType": "uint64",
          "name": "epochsPerFrame",
          "type": "uint64"
        },
        {
          "internalType": "uint64",
          "name": "slotsPerEpoch",
          "type": "uint64"
        },
        {
          "internalType": "uint64",
          "name": "secondsPerSlot",
          "type": "uint64"
        },
        {
          "internalType": "uint64",
          "name": "genesisTime",
          "type": "uint64"
        }
      ],
      "stateMutability": "view",
      "type": "function"
    },
    {
      "inputs": [],
      "name": "getCurrentEpochId",
      "outputs": [
        {
          "internalType": "uint256",
          "name": "",
          "type": "uint256"
        }
      ],
      "stateMutability": "view",
      "type": "function"
    },
    {
      "inputs": [],
      "name": "getCurrentFrame",
      "outputs": [
        {
          "internalType": "uint256",
          "name": "frameEpochId",
          "type": "uint256"
        },
        {
          "internalType": "uint256",
          "name": "frameStartTime",
          "type": "uint256"
        },
        {
          "internalType": "uint256",
          "name": "frameEndTime",
          "type": "uint256"
        }
      ],
      "stateMutability": "view",
      "type": "function"
    },
    {
      "inputs": [],
      "name": "getCurrentOraclesReportStatus",
      "outputs": [
        {
          "internalType": "uint256",
          "name": "",
          "type": "uint256"
        }
      ],
      "stateMutability": "view",
      "type": "function"
    },
    {
      "inputs": [
        {
          "internalType": "uint256",
          "name": "_index",
          "type": "uint256"
        }
      ],
      "name": "getCurrentReportVariant",
      "outputs": [
        {
          "internalType": "uint64",
          "name": "beaconBalance",
          "type": "uint64"
        },
        {
          "internalType": "uint32",
          "name": "beaconValidators",
          "type": "uint32"
        },
        {
          "internalType": "uint16",
          "name": "count",
          "type": "uint16"
        }
      ],
      "stateMutability": "view",
      "type": "function"
    },
    {
      "inputs": [],
      "name": "getCurrentReportVariantsSize",
      "outputs": [
        {
          "internalType": "uint256",
          "name": "",
          "type": "uint256"
        }
      ],
      "stateMutability": "view",
      "type": "function"
    },
    {
      "inputs": [],
      "name": "getDawnDeposit",
      "outputs": [
        {
          "internalType": "contract IDawnDeposit",
          "name": "",
          "type": "address"
        }
      ],
      "stateMutability": "view",
      "type": "function"
    },
    {
      "inputs": [],
      "name": "getExpectedEpochId",
      "outputs": [
        {
          "internalType": "uint256",
          "name": "",
          "type": "uint256"
        }
      ],
      "stateMutability": "view",
      "type": "function"
    },
    {
      "inputs": [],
      "name": "getLastCompletedEpochId",
      "outputs": [
        {
          "internalType": "uint256",
          "name": "",
          "type": "uint256"
        }
      ],
      "stateMutability": "view",
      "type": "function"
    },
    {
      "inputs": [],
      "name": "getLastCompletedReportDelta",
      "outputs": [
        {
          "internalType": "uint256",
          "name": "postTotalPooledEther",
          "type": "uint256"
        },
        {
          "internalType": "uint256",
          "name": "preTotalPooledEther",
          "type": "uint256"
        },
        {
          "internalType": "uint256",
          "name": "timeElapsed",
          "type": "uint256"
        }
      ],
      "stateMutability": "view",
      "type": "function"
    },
    {
      "inputs": [],
      "name": "getOracleMembers",
      "outputs": [
        {
          "internalType": "address[]",
          "name": "",
          "type": "address[]"
        }
      ],
      "stateMutability": "view",
      "type": "function"
    },
    {
      "inputs": [],
      "name": "getQuorum",
      "outputs": [
        {
          "internalType": "uint256",
          "name": "",
          "type": "uint256"
        }
      ],
      "stateMutability": "view",
      "type": "function"
    },
    {
      "inputs": [
        {
          "internalType": "address",
          "name": "_dawnpool",
          "type": "address"
        },
        {
          "internalType": "uint64",
          "name": "_epochsPerFrame",
          "type": "uint64"
        },
        {
          "internalType": "uint64",
          "name": "_slotsPerEpoch",
          "type": "uint64"
        },
        {
          "internalType": "uint64",
          "name": "_secondsPerSlot",
          "type": "uint64"
        },
        {
          "internalType": "uint64",
          "name": "_genesisTime",
          "type": "uint64"
        }
      ],
      "name": "initialize",
      "outputs": [],
      "stateMutability": "nonpayable",
      "type": "function"
    },
    {
      "inputs": [
        {
          "internalType": "address",
          "name": "_member",
          "type": "address"
        }
      ],
      "name": "removeOracleMember",
      "outputs": [],
      "stateMutability": "nonpayable",
      "type": "function"
    },
    {
      "inputs": [
        {
          "internalType": "uint256",
          "name": "_epochId",
          "type": "uint256"
        },
        {
          "internalType": "uint64",
          "name": "_beaconBalance",
          "type": "uint64"
        },
        {
          "internalType": "uint32",
          "name": "_beaconValidators",
          "type": "uint32"
        },
        {
          "internalType": "uint64",
          "name": "_rewardsVaultBalance",
          "type": "uint64"
        },
        {
          "internalType": "uint32",
          "name": "_exitedValidators",
          "type": "uint32"
        }
      ],
      "name": "reportBeacon",
      "outputs": [],
      "stateMutability": "nonpayable",
      "type": "function"
    },
    {
      "inputs": [
        {
          "internalType": "address",
          "name": "_addr",
          "type": "address"
        }
      ],
      "name": "setBeaconReportReceiver",
      "outputs": [],
      "stateMutability": "nonpayable",
      "type": "function"
    },
    {
      "inputs": [
        {
          "internalType": "uint64",
          "name": "_epochsPerFrame",
          "type": "uint64"
        },
        {
          "internalType": "uint64",
          "name": "_slotsPerEpoch",
          "type": "uint64"
        },
        {
          "internalType": "uint64",
          "name": "_secondsPerSlot",
          "type": "uint64"
        },
        {
          "internalType": "uint64",
          "name": "_genesisTime",
          "type": "uint64"
        }
      ],
      "name": "setBeaconSpec",
      "outputs": [],
      "stateMutability": "nonpayable",
      "type": "function"
    },
    {
      "inputs": [
        {
          "internalType": "uint256",
          "name": "_quorum",
          "type": "uint256"
        }
      ],
      "name": "setQuorum",
      "outputs": [],
      "stateMutability": "nonpayable",
      "type": "function"
    }
  ],
  "bytecode": "0x6080604052600080546001600160a01b03191690553480156200002157600080fd5b50604051620029583803806200295883398101604081905262000044916200006a565b600080546001600160a01b0319166001600160a01b03929092169190911790556200009c565b6000602082840312156200007d57600080fd5b81516001600160a01b03811681146200009557600080fd5b9392505050565b6128ac80620000ac6000396000f3fe608060405234801561001057600080fd5b50600436106101775760003560e01c8063b164e437116100d8578063e547c77c1161008c578063ed9767d911610066578063ed9767d91461031f578063f78ddf6414610327578063f98fae811461032f57600080fd5b8063e547c77c146102c7578063e90b2da114610303578063ea0e35b11461031657600080fd5b8063c1ba4e59116100bd578063c1ba4e5914610297578063c26c12eb146102aa578063dabb5757146102b257600080fd5b8063b164e43714610257578063b24806031461026a57600080fd5b80637ffb14721161012f5780639a3cb2ca116101145780639a3cb2ca146102295780639e1998f71461023c578063a29a839f1461024f57600080fd5b80637ffb1472146101df57806389896aef1461022157600080fd5b80634b47b74f116101605780634b47b74f146101ac578063534649c4146101b457806372f79b13146101d757600080fd5b806303cda9631461017c57806313e0945314610197575b600080fd5b610184610342565b6040519081526020015b60405180910390f35b6101aa6101a53660046124d8565b610372565b005b6101846106ae565b6101bc6106d9565b6040805193845260208401929092529082015260600161018e565b6101bc610764565b6101f26101ed36600461253f565b610830565b6040805167ffffffffffffffff909416845263ffffffff909216602084015261ffff169082015260600161018e565b610184610872565b6101aa610237366004612558565b61089d565b6101aa61024a366004612589565b610a5d565b610184610ef4565b6101aa610265366004612558565b610f10565b610272611279565b60405173ffffffffffffffffffffffffffffffffffffffff909116815260200161018e565b6101aa6102a536600461253f565b6112a4565b610184611501565b6102ba61152c565b60405161018e91906125db565b6102cf61159b565b6040805167ffffffffffffffff9586168152938516602085015291841691830191909152909116606082015260800161018e565b6101aa610311366004612635565b6115cc565b61018461010081565b600254610184565b610272611721565b6101aa61033d366004612558565b61174c565b600061036d7f3e18ba9f3239b5baf31871b5bab37245b867892997bc1a7d20fcc53d1e3cbd7e611aeb565b905090565b60008054906101000a900473ffffffffffffffffffffffffffffffffffffffff1673ffffffffffffffffffffffffffffffffffffffff1663a75b87d26040518163ffffffff1660e01b8152600401602060405180830381865afa1580156103dd573d6000803e3d6000fd5b505050506040513d601f19601f820116820180604052508101906104019190612689565b73ffffffffffffffffffffffffffffffffffffffff163373ffffffffffffffffffffffffffffffffffffffff16146104c0576040517f08c379a000000000000000000000000000000000000000000000000000000000815260206004820152602360248201527f4163636f756e74206973206e6f7420612074656d706f7261727920677561726460448201527f69616e000000000000000000000000000000000000000000000000000000000060648201526084015b60405180910390fd5b6104cd60016101006126d5565b6104da60016101006126d5565b6001901b901c6001146104ef576104ef6126e8565b6105187f2179f767b59758248e91b08444404b15efcb77cf4be2a83aaa5bacc558899e43611aeb565b1561057f576040517f08c379a000000000000000000000000000000000000000000000000000000000815260206004820152601960248201527f424153455f56455253494f4e5f4d5553545f42455f5a45524f0000000000000060448201526064016104b7565b61058b84848484611b85565b6105b57f37de319eeb37eb6769fa33d88332697a9d113bb3158fe24d56de9d474f418d7686611e45565b6105e07ff064c3f7bf779563757f466db66f710c7c26c3fdf38640e2366054ebe9c04a736001611ed6565b604051600181527f027863d12a407097e086a48e36475bfc859d0b200b7e6f65b5fd3b218e46632e9060200160405180910390a1600061061e611f34565b90506000816000015167ffffffffffffffff1661063c600084611fb2565b6106469190612717565b90506106727fdf92ec5a9a3f0d7666614cf95b62dc5e6d84faf6ea6c51b46daf4745c19157e782611ed6565b6040518181527fcdcd275f4d96ed683d684f3610a92beacdebcf1ee4d37e2df526fb9001e1ea639060200160405180910390a150505050505050565b600061036d7fdf92ec5a9a3f0d7666614cf95b62dc5e6d84faf6ea6c51b46daf4745c19157e7611aeb565b60008060006107077fb00b17de64bf880ca052700092783fce3b2b366df602345fca58eeae7cbd0e01611aeb565b92506107327fc8d2df748a367aa4c9ac5f3e989d6b5dd6d7c0649ac19632515e745b0129f46a611aeb565b915061075d7f998b2bead010fe55ca216911156a5cb2f62c34408faae8abb2cc9c79575bdf19611aeb565b9050909192565b600080600080610772611f34565b9050600081606001519050600082602001518360400151610793919061272a565b90506107a76107a184611fdc565b84611fb2565b95508167ffffffffffffffff168167ffffffffffffffff16876107ca9190612756565b6107d49190612717565b945060018267ffffffffffffffff168267ffffffffffffffff16856000015167ffffffffffffffff16896108089190612717565b6108129190612756565b61081c9190612717565b61082691906126d5565b9350505050909192565b60008060006108656002858154811061084b5761084b61276d565b9060005260206000200154603081901c91601082901c9190565b9250925092509193909250565b600061036d7f122df10d0388c5ec1168daefbb923fa103af061f804bfa030e1dd064644ca039611aeb565b60008054906101000a900473ffffffffffffffffffffffffffffffffffffffff1673ffffffffffffffffffffffffffffffffffffffff1663a75b87d26040518163ffffffff1660e01b8152600401602060405180830381865afa158015610908573d6000803e3d6000fd5b505050506040513d601f19601f8201168201806040525081019061092c9190612689565b73ffffffffffffffffffffffffffffffffffffffff163373ffffffffffffffffffffffffffffffffffffffff16146109e6576040517f08c379a000000000000000000000000000000000000000000000000000000000815260206004820152602360248201527f4163636f756e74206973206e6f7420612074656d706f7261727920677561726460448201527f69616e000000000000000000000000000000000000000000000000000000000060648201526084016104b7565b610a107f4d639ef200ee89d5ca903f329a42ba6f7caff7cdcb7606d374eb43dcb267448f82611e45565b60405173ffffffffffffffffffffffffffffffffffffffff821681527f10bdb8bba3913c9e1b7ffbf8759dfcf1c355d9796d58906b147ff0b4c3e31448906020015b60405180910390a150565b6000610a67611f34565b90506000610a947fdf92ec5a9a3f0d7666614cf95b62dc5e6d84faf6ea6c51b46daf4745c19157e7611aeb565b905080871015610b00576040517f08c379a000000000000000000000000000000000000000000000000000000000815260206004820152601060248201527f45504f43485f49535f544f4f5f4f4c440000000000000000000000000000000060448201526064016104b7565b80871115610b8b57610b1a610b1483611fdc565b83611fb2565b8714610b82576040517f08c379a000000000000000000000000000000000000000000000000000000000815260206004820152601060248201527f554e45585045435445445f45504f43480000000000000000000000000000000060448201526064016104b7565b610b8b87612026565b6000610ba567ffffffffffffffff8816633b9aca0061279c565b604080518a81526fffffffffffffffffffffffffffffffff8316602082015263ffffffff89168183015267ffffffffffffffff8816606082015233608082015290519192507fcb7f6be508e2881a9a5866eda3d0cf40453b962587670b865d6acda1f2dd98b0919081900360a00190a16000610c20336120b7565b90507fffffffffffffffffffffffffffffffffffffffffffffffffffffffffffffffff8103610cab576040517f08c379a000000000000000000000000000000000000000000000000000000000815260206004820152601060248201527f4d454d4245525f4e4f545f464f554e440000000000000000000000000000000060448201526064016104b7565b6000610cd67f3e18ba9f3239b5baf31871b5bab37245b867892997bc1a7d20fcc53d1e3cbd7e611aeb565b90506001821b80821615610d46576040517f08c379a000000000000000000000000000000000000000000000000000000000815260206004820152601160248201527f414c52454144595f5355424d495454454400000000000000000000000000000060448201526064016104b7565b610d727f3e18ba9f3239b5baf31871b5bab37245b867892997bc1a7d20fcc53d1e3cbd7e828417611ed6565b6dffffffffffffffff00000000000060308b901b1665ffffffff000060108b901b16176000610d9f611501565b905060005b60025481108015610de05750610de08360028381548110610dc757610dc761276d565b906000526020600020015461215890919063ffffffff16565b15610df557610dee816127c8565b9050610da4565b600254811015610e945781610e2460028381548110610e1657610e1661276d565b906000526020600020015490565b610e2f906001612800565b61ffff1610610e6157610e5c8e888e63ffffffff168e67ffffffffffffffff168e63ffffffff168e612170565b610ee4565b60028181548110610e7457610e7461276d565b9060005260206000200160008154610e8b906127c8565b90915550610ee4565b81600103610ec057610e5c8e888e63ffffffff168e67ffffffffffffffff168e63ffffffff168e612170565b6002610ecd846001612717565b815460018101835560009283526020909220909101555b5050505050505050505050505050565b600080610eff611f34565b9050610f0a81611fdc565b91505090565b60008054906101000a900473ffffffffffffffffffffffffffffffffffffffff1673ffffffffffffffffffffffffffffffffffffffff1663a75b87d26040518163ffffffff1660e01b8152600401602060405180830381865afa158015610f7b573d6000803e3d6000fd5b505050506040513d601f19601f82011682018060405250810190610f9f9190612689565b73ffffffffffffffffffffffffffffffffffffffff163373ffffffffffffffffffffffffffffffffffffffff1614611059576040517f08c379a000000000000000000000000000000000000000000000000000000000815260206004820152602360248201527f4163636f756e74206973206e6f7420612074656d706f7261727920677561726460448201527f69616e000000000000000000000000000000000000000000000000000000000060648201526084016104b7565b73ffffffffffffffffffffffffffffffffffffffff81166000036110d9576040517f08c379a000000000000000000000000000000000000000000000000000000000815260206004820152600c60248201527f4241445f415247554d454e54000000000000000000000000000000000000000060448201526064016104b7565b6110e2816120b7565b7fffffffffffffffffffffffffffffffffffffffffffffffffffffffffffffffff1461116a576040517f08c379a000000000000000000000000000000000000000000000000000000000815260206004820152600d60248201527f4d454d4245525f4558495354530000000000000000000000000000000000000060448201526064016104b7565b600154610100116111d7576040517f08c379a000000000000000000000000000000000000000000000000000000000815260206004820152601060248201527f544f4f5f4d414e595f4d454d424552530000000000000000000000000000000060448201526064016104b7565b6001805480820182556000919091527fb10e2d527612073b26eecdfd717e6a320cf44b4afac2b0732d9fcbe2b7fa0cf60180547fffffffffffffffffffffffff00000000000000000000000000000000000000001673ffffffffffffffffffffffffffffffffffffffff83169081179091556040519081527fb251eb052afc73ffd02ffe85ad79990a8b3fed60d76dbc2fa2fdd7123dffd91490602001610a52565b600061036d7f4d639ef200ee89d5ca903f329a42ba6f7caff7cdcb7606d374eb43dcb267448f6122af565b60008054906101000a900473ffffffffffffffffffffffffffffffffffffffff1673ffffffffffffffffffffffffffffffffffffffff1663a75b87d26040518163ffffffff1660e01b8152600401602060405180830381865afa15801561130f573d6000803e3d6000fd5b505050506040513d601f19601f820116820180604052508101906113339190612689565b73ffffffffffffffffffffffffffffffffffffffff163373ffffffffffffffffffffffffffffffffffffffff16146113ed576040517f08c379a000000000000000000000000000000000000000000000000000000000815260206004820152602360248201527f4163636f756e74206973206e6f7420612074656d706f7261727920677561726460448201527f69616e000000000000000000000000000000000000000000000000000000000060648201526084016104b7565b80600003611457576040517f08c379a000000000000000000000000000000000000000000000000000000000815260206004820152601360248201527f51554f52554d5f574f4e545f42455f4d4144450000000000000000000000000060448201526064016104b7565b60006114827ff064c3f7bf779563757f466db66f710c7c26c3fdf38640e2366054ebe9c04a73611aeb565b90506114ae7ff064c3f7bf779563757f466db66f710c7c26c3fdf38640e2366054ebe9c04a7383611ed6565b6040518281527f027863d12a407097e086a48e36475bfc859d0b200b7e6f65b5fd3b218e46632e9060200160405180910390a1818111156114fd576000806114f584612343565b915091505b50505b5050565b600061036d7ff064c3f7bf779563757f466db66f710c7c26c3fdf38640e2366054ebe9c04a73611aeb565b6060600180548060200260200160405190810160405280929190818152602001828054801561159157602002820191906000526020600020905b815473ffffffffffffffffffffffffffffffffffffffff168152600190910190602001808311611566575b5050505050905090565b60008060008060006115ab611f34565b80516020820151604083015160609093015191989097509195509350915050565b60008054906101000a900473ffffffffffffffffffffffffffffffffffffffff1673ffffffffffffffffffffffffffffffffffffffff1663a75b87d26040518163ffffffff1660e01b8152600401602060405180830381865afa158015611637573d6000803e3d6000fd5b505050506040513d601f19601f8201168201806040525081019061165b9190612689565b73ffffffffffffffffffffffffffffffffffffffff163373ffffffffffffffffffffffffffffffffffffffff1614611715576040517f08c379a000000000000000000000000000000000000000000000000000000000815260206004820152602360248201527f4163636f756e74206973206e6f7420612074656d706f7261727920677561726460448201527f69616e000000000000000000000000000000000000000000000000000000000060648201526084016104b7565b6114fa84848484611b85565b600061036d7f37de319eeb37eb6769fa33d88332697a9d113bb3158fe24d56de9d474f418d766122af565b60008054906101000a900473ffffffffffffffffffffffffffffffffffffffff1673ffffffffffffffffffffffffffffffffffffffff1663a75b87d26040518163ffffffff1660e01b8152600401602060405180830381865afa1580156117b7573d6000803e3d6000fd5b505050506040513d601f19601f820116820180604052508101906117db9190612689565b73ffffffffffffffffffffffffffffffffffffffff163373ffffffffffffffffffffffffffffffffffffffff1614611895576040517f08c379a000000000000000000000000000000000000000000000000000000000815260206004820152602360248201527f4163636f756e74206973206e6f7420612074656d706f7261727920677561726460448201527f69616e000000000000000000000000000000000000000000000000000000000060648201526084016104b7565b60006118a0826120b7565b90507fffffffffffffffffffffffffffffffffffffffffffffffffffffffffffffffff810361192b576040517f08c379a000000000000000000000000000000000000000000000000000000000815260206004820152601060248201527f4d454d4245525f4e4f545f464f554e440000000000000000000000000000000060448201526064016104b7565b6001805460009161193b916126d5565b90508082146119d957600181815481106119575761195761276d565b6000918252602090912001546001805473ffffffffffffffffffffffffffffffffffffffff90921691849081106119905761199061276d565b9060005260206000200160006101000a81548173ffffffffffffffffffffffffffffffffffffffff021916908373ffffffffffffffffffffffffffffffffffffffff1602179055505b600180546119e89082906126d5565b815481106119f8576119f861276d565b6000918252602090912001546001805473ffffffffffffffffffffffffffffffffffffffff9092169184908110611a3157611a3161276d565b60009182526020918290200180547fffffffffffffffffffffffff00000000000000000000000000000000000000001673ffffffffffffffffffffffffffffffffffffffff93841617905560405191851682527f6e76fb4c77256006d9c38ec7d82b45a8c8f3c27b1d6766fffc42dfb8de684492910160405180910390a1611ada7f3e18ba9f3239b5baf31871b5bab37245b867892997bc1a7d20fcc53d1e3cbd7e6000611ed6565b611ae66002600061245f565b505050565b600080546040517fbd02d0f50000000000000000000000000000000000000000000000000000000081526004810184905273ffffffffffffffffffffffffffffffffffffffff9091169063bd02d0f590602401602060405180830381865afa158015611b5b573d6000803e3d6000fd5b505050506040513d601f19601f82011682018060405250810190611b7f9190612822565b92915050565b60008467ffffffffffffffff1611611bf9576040517f08c379a000000000000000000000000000000000000000000000000000000000815260206004820152601460248201527f4241445f45504f4348535f5045525f4652414d4500000000000000000000000060448201526064016104b7565b60008367ffffffffffffffff1611611c6d576040517f08c379a000000000000000000000000000000000000000000000000000000000815260206004820152601360248201527f4241445f534c4f54535f5045525f45504f43480000000000000000000000000060448201526064016104b7565b60008267ffffffffffffffff1611611ce1576040517f08c379a000000000000000000000000000000000000000000000000000000000815260206004820152601460248201527f4241445f5345434f4e44535f5045525f534c4f5400000000000000000000000060448201526064016104b7565b60008167ffffffffffffffff1611611d55576040517f08c379a000000000000000000000000000000000000000000000000000000000815260206004820152601060248201527f4241445f47454e455349535f54494d450000000000000000000000000000000060448201526064016104b7565b7fffffffffffffffff00000000000000000000000000000000000000000000000060c085901b1677ffffffffffffffff00000000000000000000000000000000608085901b16176fffffffffffffffff0000000000000000604084901b161767ffffffffffffffff821617611dea7fcacf9575a57eab4c3e647bf9a4b1b010d06742555a9b8cd57cd4a0adbb849a5b82611ed6565b6040805167ffffffffffffffff87811682528681166020830152858116828401528416606082015290517fa15de8f88515e04da45ad2303c04e9f126945fd99e173d3d93ff6351e1f335ee9181900360800190a15050505050565b6000546040517fca446dd90000000000000000000000000000000000000000000000000000000081526004810184905273ffffffffffffffffffffffffffffffffffffffff83811660248301529091169063ca446dd9906044015b600060405180830381600087803b158015611eba57600080fd5b505af1158015611ece573d6000803e3d6000fd5b505050505050565b6000546040517fe2a4853a000000000000000000000000000000000000000000000000000000008152600481018490526024810183905273ffffffffffffffffffffffffffffffffffffffff9091169063e2a4853a90604401611ea0565b604080516080810182526000808252602082018190529181018290526060810182905290611f817fcacf9575a57eab4c3e647bf9a4b1b010d06742555a9b8cd57cd4a0adbb849a5b611aeb565b60c081901c835267ffffffffffffffff608082901c81166020850152604082811c8216908501521660608301525090565b805160009067ffffffffffffffff16611fcb818561283b565b611fd59190612756565b9392505050565b600081604001518260200151611ff2919061272a565b67ffffffffffffffff16826060015167ffffffffffffffff166120124290565b61201c91906126d5565b611b7f919061283b565b6120517f3e18ba9f3239b5baf31871b5bab37245b867892997bc1a7d20fcc53d1e3cbd7e6000611ed6565b61207b7fdf92ec5a9a3f0d7666614cf95b62dc5e6d84faf6ea6c51b46daf4745c19157e782611ed6565b6120876002600061245f565b6040518181527fcdcd275f4d96ed683d684f3610a92beacdebcf1ee4d37e2df526fb9001e1ea6390602001610a52565b600154600090815b8181101561212f578373ffffffffffffffffffffffffffffffffffffffff16600182815481106120f1576120f161276d565b60009182526020909120015473ffffffffffffffffffffffffffffffffffffffff160361211f579392505050565b612128816127c8565b90506120bf565b507fffffffffffffffffffffffffffffffffffffffffffffffffffffffffffffffff9392505050565b6dffffffffffffffffffffffff000091909116141590565b604080518781526fffffffffffffffffffffffffffffffff8781166020830152868116828401528516606082015290517f641e4a01bf2d860d3b927cdbc12b7781f24e8910dd176314f21e8e3e2350d1239181900360800190a180516121e9906121e49067ffffffffffffffff1688612717565b612026565b60006121f3611721565b6040517f46ed5869000000000000000000000000000000000000000000000000000000008152600481018990526fffffffffffffffffffffffffffffffff8088166024830152808916604483015280871660648301528516608482015290915073ffffffffffffffffffffffffffffffffffffffff8216906346ed58699060a401600060405180830381600087803b15801561228e57600080fd5b505af11580156122a2573d6000803e3d6000fd5b5050505050505050505050565b600080546040517f21f8a7210000000000000000000000000000000000000000000000000000000081526004810184905273ffffffffffffffffffffffffffffffffffffffff909116906321f8a72190602401602060405180830381865afa15801561231f573d6000803e3d6000fd5b505050506040513d601f19601f82011682018060405250810190611b7f9190612689565b6002546000908190600103612398578261236a6002600081548110610e1657610e1661276d565b61ffff16101560026000815481106123845761238461276d565b906000526020600020015491509150915091565b6002546000036123ad57506000928392509050565b60008060008060005b600254811015612421576123d660028281548110610e1657610e1661276d565b91508261ffff168261ffff1610612411578261ffff168261ffff1603612406576123ff846127c8565b9350612411565b809450819250600093505b61241a816127c8565b90506123b6565b50868261ffff1610158015612434575082155b600285815481106124475761244761276d565b90600052602060002001549550955050505050915091565b508054600082559060005260206000209081019061247d9190612480565b50565b5b808211156124955760008155600101612481565b5090565b73ffffffffffffffffffffffffffffffffffffffff8116811461247d57600080fd5b803567ffffffffffffffff811681146124d357600080fd5b919050565b600080600080600060a086880312156124f057600080fd5b85356124fb81612499565b9450612509602087016124bb565b9350612517604087016124bb565b9250612525606087016124bb565b9150612533608087016124bb565b90509295509295909350565b60006020828403121561255157600080fd5b5035919050565b60006020828403121561256a57600080fd5b8135611fd581612499565b803563ffffffff811681146124d357600080fd5b600080600080600060a086880312156125a157600080fd5b853594506125b1602087016124bb565b93506125bf60408701612575565b92506125cd606087016124bb565b915061253360808701612575565b6020808252825182820181905260009190848201906040850190845b8181101561262957835173ffffffffffffffffffffffffffffffffffffffff16835292840192918401916001016125f7565b50909695505050505050565b6000806000806080858703121561264b57600080fd5b612654856124bb565b9350612662602086016124bb565b9250612670604086016124bb565b915061267e606086016124bb565b905092959194509250565b60006020828403121561269b57600080fd5b8151611fd581612499565b7f4e487b7100000000000000000000000000000000000000000000000000000000600052601160045260246000fd5b81810381811115611b7f57611b7f6126a6565b7f4e487b7100000000000000000000000000000000000000000000000000000000600052600160045260246000fd5b80820180821115611b7f57611b7f6126a6565b67ffffffffffffffff81811683821602808216919082811461274e5761274e6126a6565b505092915050565b8082028115828204841417611b7f57611b7f6126a6565b7f4e487b7100000000000000000000000000000000000000000000000000000000600052603260045260246000fd5b6fffffffffffffffffffffffffffffffff81811683821602808216919082811461274e5761274e6126a6565b60007fffffffffffffffffffffffffffffffffffffffffffffffffffffffffffffffff82036127f9576127f96126a6565b5060010190565b61ffff81811683821601908082111561281b5761281b6126a6565b5092915050565b60006020828403121561283457600080fd5b5051919050565b600082612871577f4e487b7100000000000000000000000000000000000000000000000000000000600052601260045260246000fd5b50049056fea2646970667358221220068347a9eba9f50368c99d5ab32174bf7fcfec5283500edc9df61d4284c7258364736f6c63430008110033",
  "linkReferences": {},
  "deployedLinkReferences": {}
}