{
  "_format": "hh-sol-artifact-1",
  "contractName": "DawnDeposit",
  "sourceName": "contracts/core/DawnDeposit.sol",
  "abi": [
    {
      "inputs": [
        {
          "internalType": "contract IDawnStorageInterface",
          "name": "dawnStorageAddress",
          "type": "address"
        }
      ],
      "stateMutability": "nonpayable",
      "type": "constructor"
    },
    {
      "inputs": [],
      "name": "BufferedEtherNotEnough",
      "type": "error"
    },
    {
      "inputs": [
        {
          "internalType": "address",
          "name": "from",
          "type": "address"
        }
      ],
      "name": "CallerAuthFailed",
      "type": "error"
    },
    {
      "inputs": [
        {
          "internalType": "uint256",
          "name": "burnedPEthAmount",
          "type": "uint256"
        },
        {
          "internalType": "uint256",
          "name": "burnerBalance",
          "type": "uint256"
        }
      ],
      "name": "ErrorBurnedPEthAmount",
      "type": "error"
    },
    {
      "inputs": [
        {
          "internalType": "uint256",
          "name": "ethAmountToLock",
          "type": "uint256"
        }
      ],
      "name": "InvalidLockEth",
      "type": "error"
    },
    {
      "inputs": [
        {
          "internalType": "uint256",
          "name": "beaconValidators",
          "type": "uint256"
        },
        {
          "internalType": "uint256",
          "name": "exitedValidators",
          "type": "uint256"
        },
        {
          "internalType": "uint256",
          "name": "depositedValidators",
          "type": "uint256"
        }
      ],
      "name": "InvalidValidators",
      "type": "error"
    },
    {
      "inputs": [
        {
          "internalType": "address",
          "name": "nodeAddress",
          "type": "address"
        }
      ],
      "name": "NodeOperatorInactive",
      "type": "error"
    },
    {
      "inputs": [],
      "name": "PEthNotEnough",
      "type": "error"
    },
    {
      "inputs": [
        {
          "internalType": "address",
          "name": "from",
          "type": "address"
        }
      ],
      "name": "ReceiveNotFromInsurance",
      "type": "error"
    },
    {
      "inputs": [],
      "name": "RewardsVaultBalanceNotEnough",
      "type": "error"
    },
    {
      "inputs": [],
      "name": "StakeZeroEther",
      "type": "error"
    },
    {
      "inputs": [],
      "name": "Unprofitable",
      "type": "error"
    },
    {
      "inputs": [],
      "name": "ZeroAddress",
      "type": "error"
    },
    {
      "inputs": [],
      "name": "ZeroBurnAmount",
      "type": "error"
    },
    {
      "anonymous": false,
      "inputs": [
        {
          "indexed": true,
          "internalType": "address",
          "name": "owner",
          "type": "address"
        },
        {
          "indexed": true,
          "internalType": "address",
          "name": "spender",
          "type": "address"
        },
        {
          "indexed": false,
          "internalType": "uint256",
          "name": "value",
          "type": "uint256"
        }
      ],
      "name": "Approval",
      "type": "event"
    },
    {
      "anonymous": false,
      "inputs": [
        {
          "indexed": false,
          "internalType": "address",
          "name": "operator",
          "type": "address"
        },
        {
          "indexed": false,
          "internalType": "bytes",
          "name": "pubkey",
          "type": "bytes"
        },
        {
          "indexed": false,
          "internalType": "uint256",
          "name": "amount",
          "type": "uint256"
        }
      ],
      "name": "LogActivateValidator",
      "type": "event"
    },
    {
      "anonymous": false,
      "inputs": [
        {
          "indexed": false,
          "internalType": "address",
          "name": "burnAddress",
          "type": "address"
        },
        {
          "indexed": false,
          "internalType": "uint256",
          "name": "ethAmountToDecrease",
          "type": "uint256"
        }
      ],
      "name": "LogDecreaseEther",
      "type": "event"
    },
    {
      "anonymous": false,
      "inputs": [
        {
          "indexed": false,
          "internalType": "uint256",
          "name": "epochId",
          "type": "uint256"
        },
        {
          "indexed": false,
          "internalType": "uint256",
          "name": "preCLBalance",
          "type": "uint256"
        },
        {
          "indexed": false,
          "internalType": "uint256",
          "name": "postCLBalance",
          "type": "uint256"
        },
        {
          "indexed": false,
          "internalType": "uint256",
          "name": "rewardsVaultBalance",
          "type": "uint256"
        }
      ],
      "name": "LogETHRewards",
      "type": "event"
    },
    {
      "anonymous": false,
      "inputs": [
        {
          "indexed": false,
          "internalType": "address",
          "name": "operator",
          "type": "address"
        },
        {
          "indexed": false,
          "internalType": "bytes",
          "name": "pubkey",
          "type": "bytes"
        },
        {
          "indexed": false,
          "internalType": "uint256",
          "name": "amount",
          "type": "uint256"
        }
      ],
      "name": "LogPreActivateValidator",
      "type": "event"
    },
    {
      "anonymous": false,
      "inputs": [
        {
          "indexed": false,
          "internalType": "address",
          "name": "burnAddress",
          "type": "address"
        },
        {
          "indexed": false,
          "internalType": "uint256",
          "name": "pethAmountToBurn",
          "type": "uint256"
        }
      ],
      "name": "LogPunish",
      "type": "event"
    },
    {
      "anonymous": false,
      "inputs": [
        {
          "indexed": false,
          "internalType": "uint256",
          "name": "pEthAmount",
          "type": "uint256"
        }
      ],
      "name": "LogReceiveInsurance",
      "type": "event"
    },
    {
      "anonymous": false,
      "inputs": [
        {
          "indexed": false,
          "internalType": "uint256",
          "name": "ethAmount",
          "type": "uint256"
        }
      ],
      "name": "LogReceiveRewards",
      "type": "event"
    },
    {
      "anonymous": false,
      "inputs": [
        {
          "indexed": true,
          "internalType": "address",
          "name": "staker",
          "type": "address"
        },
        {
          "indexed": false,
          "internalType": "uint256",
          "name": "ethAmount",
          "type": "uint256"
        }
      ],
      "name": "LogStake",
      "type": "event"
    },
    {
      "anonymous": false,
      "inputs": [
        {
          "indexed": false,
          "internalType": "uint256",
          "name": "epochId",
          "type": "uint256"
        },
        {
          "indexed": false,
          "internalType": "uint256",
          "name": "preTotalEther",
          "type": "uint256"
        },
        {
          "indexed": false,
          "internalType": "uint256",
          "name": "preTotalPEth",
          "type": "uint256"
        },
        {
          "indexed": false,
          "internalType": "uint256",
          "name": "postTotalEther",
          "type": "uint256"
        },
        {
          "indexed": false,
          "internalType": "uint256",
          "name": "postTotalPEth",
          "type": "uint256"
        }
      ],
      "name": "LogTokenRebase",
      "type": "event"
    },
    {
      "anonymous": false,
      "inputs": [
        {
          "indexed": true,
          "internalType": "address",
          "name": "from",
          "type": "address"
        },
        {
          "indexed": true,
          "internalType": "address",
          "name": "to",
          "type": "address"
        },
        {
          "indexed": false,
          "internalType": "uint256",
          "name": "value",
          "type": "uint256"
        }
      ],
      "name": "Transfer",
      "type": "event"
    },
    {
      "inputs": [],
      "name": "DOMAIN_SEPARATOR",
      "outputs": [
        {
          "internalType": "bytes32",
          "name": "",
          "type": "bytes32"
        }
      ],
      "stateMutability": "view",
      "type": "function"
    },
    {
      "inputs": [
        {
          "internalType": "address",
          "name": "operator",
          "type": "address"
        },
        {
          "internalType": "bytes",
          "name": "pubkey",
          "type": "bytes"
        },
        {
          "internalType": "bytes",
          "name": "signature",
          "type": "bytes"
        }
      ],
      "name": "activateValidator",
      "outputs": [],
      "stateMutability": "nonpayable",
      "type": "function"
    },
    {
      "inputs": [
        {
          "internalType": "address",
          "name": "owner",
          "type": "address"
        },
        {
          "internalType": "address",
          "name": "spender",
          "type": "address"
        }
      ],
      "name": "allowance",
      "outputs": [
        {
          "internalType": "uint256",
          "name": "",
          "type": "uint256"
        }
      ],
      "stateMutability": "view",
      "type": "function"
    },
    {
      "inputs": [
        {
          "internalType": "address",
          "name": "spender",
          "type": "address"
        },
        {
          "internalType": "uint256",
          "name": "amount",
          "type": "uint256"
        }
      ],
      "name": "approve",
      "outputs": [
        {
          "internalType": "bool",
          "name": "",
          "type": "bool"
        }
      ],
      "stateMutability": "nonpayable",
      "type": "function"
    },
    {
      "inputs": [
        {
          "internalType": "address",
          "name": "account",
          "type": "address"
        }
      ],
      "name": "balanceOf",
      "outputs": [
        {
          "internalType": "uint256",
          "name": "",
          "type": "uint256"
        }
      ],
      "stateMutability": "view",
      "type": "function"
    },
    {
      "inputs": [],
      "name": "decimals",
      "outputs": [
        {
          "internalType": "uint8",
          "name": "",
          "type": "uint8"
        }
      ],
      "stateMutability": "view",
      "type": "function"
    },
    {
      "inputs": [
        {
          "internalType": "address",
          "name": "spender",
          "type": "address"
        },
        {
          "internalType": "uint256",
          "name": "subtractedValue",
          "type": "uint256"
        }
      ],
      "name": "decreaseAllowance",
      "outputs": [
        {
          "internalType": "bool",
          "name": "",
          "type": "bool"
        }
      ],
      "stateMutability": "nonpayable",
      "type": "function"
    },
    {
      "inputs": [],
      "name": "getBeaconStat",
      "outputs": [
        {
          "internalType": "uint256",
          "name": "preDepositValidators",
          "type": "uint256"
        },
        {
          "internalType": "uint256",
          "name": "depositedValidators",
          "type": "uint256"
        },
        {
          "internalType": "uint256",
          "name": "beaconValidators",
          "type": "uint256"
        },
        {
          "internalType": "uint256",
          "name": "beaconBalance",
          "type": "uint256"
        }
      ],
      "stateMutability": "view",
      "type": "function"
    },
    {
      "inputs": [],
      "name": "getBufferedEther",
      "outputs": [
        {
          "internalType": "uint256",
          "name": "",
          "type": "uint256"
        }
      ],
      "stateMutability": "view",
      "type": "function"
    },
    {
      "inputs": [
        {
          "internalType": "uint256",
          "name": "pEthAmount",
          "type": "uint256"
        }
      ],
      "name": "getEtherByPEth",
      "outputs": [
        {
          "internalType": "uint256",
          "name": "",
          "type": "uint256"
        }
      ],
      "stateMutability": "view",
      "type": "function"
    },
    {
      "inputs": [
        {
          "internalType": "uint256",
          "name": "ethAmount",
          "type": "uint256"
        }
      ],
      "name": "getPEthByEther",
      "outputs": [
        {
          "internalType": "uint256",
          "name": "",
          "type": "uint256"
        }
      ],
      "stateMutability": "view",
      "type": "function"
    },
    {
      "inputs": [],
      "name": "getTotalPooledEther",
      "outputs": [
        {
          "internalType": "uint256",
          "name": "",
          "type": "uint256"
        }
      ],
      "stateMutability": "view",
      "type": "function"
    },
    {
      "inputs": [],
      "name": "getWithdrawalCredentials",
      "outputs": [
        {
          "internalType": "bytes32",
          "name": "",
          "type": "bytes32"
        }
      ],
      "stateMutability": "view",
      "type": "function"
    },
    {
      "inputs": [
        {
          "internalType": "uint256",
          "name": "epochId",
          "type": "uint256"
        },
        {
          "internalType": "uint256",
          "name": "beaconValidators",
          "type": "uint256"
        },
        {
          "internalType": "uint256",
          "name": "beaconBalance",
          "type": "uint256"
        },
        {
          "internalType": "uint256",
          "name": "availableRewards",
          "type": "uint256"
        },
        {
          "internalType": "uint256",
          "name": "exitedValidators",
          "type": "uint256"
        },
        {
          "internalType": "uint256",
          "name": "burnedPEthAmount",
          "type": "uint256"
        },
        {
          "internalType": "uint256",
          "name": "lastRequestIdToBeFulfilled",
          "type": "uint256"
        },
        {
          "internalType": "uint256",
          "name": "ethAmountToLock",
          "type": "uint256"
        }
      ],
      "name": "handleOracleReport",
      "outputs": [],
      "stateMutability": "nonpayable",
      "type": "function"
    },
    {
      "inputs": [
        {
          "internalType": "address",
          "name": "spender",
          "type": "address"
        },
        {
          "internalType": "uint256",
          "name": "addedValue",
          "type": "uint256"
        }
      ],
      "name": "increaseAllowance",
      "outputs": [
        {
          "internalType": "bool",
          "name": "",
          "type": "bool"
        }
      ],
      "stateMutability": "nonpayable",
      "type": "function"
    },
    {
      "inputs": [],
      "name": "name",
      "outputs": [
        {
          "internalType": "string",
          "name": "",
          "type": "string"
        }
      ],
      "stateMutability": "view",
      "type": "function"
    },
    {
      "inputs": [
        {
          "internalType": "address",
          "name": "owner",
          "type": "address"
        }
      ],
      "name": "nonces",
      "outputs": [
        {
          "internalType": "uint256",
          "name": "",
          "type": "uint256"
        }
      ],
      "stateMutability": "view",
      "type": "function"
    },
    {
      "inputs": [
        {
          "internalType": "address",
          "name": "owner",
          "type": "address"
        },
        {
          "internalType": "address",
          "name": "spender",
          "type": "address"
        },
        {
          "internalType": "uint256",
          "name": "value",
          "type": "uint256"
        },
        {
          "internalType": "uint256",
          "name": "deadline",
          "type": "uint256"
        },
        {
          "internalType": "uint8",
          "name": "v",
          "type": "uint8"
        },
        {
          "internalType": "bytes32",
          "name": "r",
          "type": "bytes32"
        },
        {
          "internalType": "bytes32",
          "name": "s",
          "type": "bytes32"
        }
      ],
      "name": "permit",
      "outputs": [],
      "stateMutability": "nonpayable",
      "type": "function"
    },
    {
      "inputs": [
        {
          "internalType": "address",
          "name": "operator",
          "type": "address"
        },
        {
          "internalType": "bytes",
          "name": "pubkey",
          "type": "bytes"
        },
        {
          "internalType": "bytes",
          "name": "signature",
          "type": "bytes"
        }
      ],
      "name": "preActivateValidator",
      "outputs": [],
      "stateMutability": "nonpayable",
      "type": "function"
    },
    {
      "inputs": [
        {
          "internalType": "uint256",
          "name": "beaconValidators",
          "type": "uint256"
        },
        {
          "internalType": "uint256",
          "name": "beaconBalance",
          "type": "uint256"
        },
        {
          "internalType": "uint256",
          "name": "availableRewards",
          "type": "uint256"
        },
        {
          "internalType": "uint256",
          "name": "exitedValidators",
          "type": "uint256"
        }
      ],
      "name": "preCalculateExchangeRate",
      "outputs": [
        {
          "internalType": "uint256",
          "name": "totalEther",
          "type": "uint256"
        },
        {
          "internalType": "uint256",
          "name": "totalPEth",
          "type": "uint256"
        }
      ],
      "stateMutability": "view",
      "type": "function"
    },
    {
      "inputs": [
        {
          "internalType": "address",
          "name": "burnAddress",
          "type": "address"
        },
        {
          "internalType": "uint256",
          "name": "pethAmountToBurn",
          "type": "uint256"
        },
        {
          "internalType": "uint256",
          "name": "ethAmountToDecrease",
          "type": "uint256"
        }
      ],
      "name": "punish",
      "outputs": [],
      "stateMutability": "nonpayable",
      "type": "function"
    },
    {
      "inputs": [
        {
          "internalType": "address",
          "name": "burnAddress",
          "type": "address"
        },
        {
          "internalType": "uint256",
          "name": "pethAmountToBurn",
          "type": "uint256"
        }
      ],
      "name": "punish",
      "outputs": [],
      "stateMutability": "nonpayable",
      "type": "function"
    },
    {
      "inputs": [
        {
          "internalType": "uint256",
          "name": "pEthAmount",
          "type": "uint256"
        }
      ],
      "name": "receiveFromInsurance",
      "outputs": [],
      "stateMutability": "nonpayable",
      "type": "function"
    },
    {
      "inputs": [],
      "name": "receiveRewards",
      "outputs": [],
      "stateMutability": "payable",
      "type": "function"
    },
    {
      "inputs": [],
      "name": "stake",
      "outputs": [
        {
          "internalType": "uint256",
          "name": "",
          "type": "uint256"
        }
      ],
      "stateMutability": "payable",
      "type": "function"
    },
    {
      "inputs": [],
      "name": "symbol",
      "outputs": [
        {
          "internalType": "string",
          "name": "",
          "type": "string"
        }
      ],
      "stateMutability": "view",
      "type": "function"
    },
    {
      "inputs": [],
      "name": "totalSupply",
      "outputs": [
        {
          "internalType": "uint256",
          "name": "",
          "type": "uint256"
        }
      ],
      "stateMutability": "view",
      "type": "function"
    },
    {
      "inputs": [
        {
          "internalType": "address",
          "name": "to",
          "type": "address"
        },
        {
          "internalType": "uint256",
          "name": "amount",
          "type": "uint256"
        }
      ],
      "name": "transfer",
      "outputs": [
        {
          "internalType": "bool",
          "name": "",
          "type": "bool"
        }
      ],
      "stateMutability": "nonpayable",
      "type": "function"
    },
    {
      "inputs": [
        {
          "internalType": "address",
          "name": "from",
          "type": "address"
        },
        {
          "internalType": "address",
          "name": "to",
          "type": "address"
        },
        {
          "internalType": "uint256",
          "name": "amount",
          "type": "uint256"
        }
      ],
      "name": "transferFrom",
      "outputs": [
        {
          "internalType": "bool",
          "name": "",
          "type": "bool"
        }
      ],
      "stateMutability": "nonpayable",
      "type": "function"
    },
    {
      "stateMutability": "payable",
      "type": "receive"
    }
  ],
  "bytecode": "0x610140604052600780546001600160a01b03191690553480156200002257600080fd5b50604051620046283803806200462883398101604081905262000045916200019f565b80604051806040016040528060048152602001630e08aa8960e31b81525080604051806040016040528060018152602001603160f81b8152506040518060400160405280600d81526020016c088c2eedc40a0deded8408aa89609b1b815250604051806040016040528060048152602001630e08aa8960e31b8152508160039081620000d2919062000276565b506004620000e1828262000276565b5050825160208085019190912083518483012060e08290526101008190524660a0818152604080517f8b73c3c69bb8fe3d512ecc4cf759cc79239f7b179b0ffacaa9a75d522b39400f81880181905281830187905260608201869052608082019490945230818401528151808203909301835260c0019052805194019390932091935091906080523060c052610120525050600780546001600160a01b0319166001600160a01b039590951694909417909355506200034292505050565b600060208284031215620001b257600080fd5b81516001600160a01b0381168114620001ca57600080fd5b9392505050565b634e487b7160e01b600052604160045260246000fd5b600181811c90821680620001fc57607f821691505b6020821081036200021d57634e487b7160e01b600052602260045260246000fd5b50919050565b601f8211156200027157600081815260208120601f850160051c810160208610156200024c5750805b601f850160051c820191505b818110156200026d5782815560010162000258565b5050505b505050565b81516001600160401b03811115620002925762000292620001d1565b620002aa81620002a38454620001e7565b8462000223565b602080601f831160018114620002e25760008415620002c95750858301515b600019600386901b1c1916600185901b1785556200026d565b600085815260208120601f198616915b828110156200031357888601518255948401946001909101908401620002f2565b5085821015620003325787850151600019600388901b60f8161c191681555b5050505050600190811b01905550565b60805160a05160c05160e05161010051610120516142966200039260003960006128b401526000612903015260006128de01526000612837015260006128610152600061288b01526142966000f3fe6080604052600436106101c65760003560e01c806356396715116100f7578063a457c2d711610095578063b6460fb511610064578063b6460fb5146104f6578063d505accf14610516578063d8e423b214610536578063dd62ed3e1461055657600080fd5b8063a457c2d714610461578063a9059cbb14610481578063ae2e3538146104a1578063afe2621f146104d657600080fd5b806366f8cc62116100d157806366f8cc62146103c957806370a08231146103e95780637ecebe001461042c57806395d89b411461044c57600080fd5b8063563967151461038c57806361d1266c146103a1578063631cbe3c146103c157600080fd5b80633644e515116101645780633a4b66f11161013e5780633a4b66f11461032f578063426030031461033757806347b714e0146103575780634f5d12631461036c57600080fd5b80633644e515146102e557806337cfdaca146102fa578063395093511461030f57600080fd5b806318160ddd116101a057806318160ddd1461025557806323b872dd146102745780632ba428cb14610294578063313ce567146102c957600080fd5b806306fdde03146101da578063095ea7b314610205578063130b73bf1461023557600080fd5b366101d5576101d36105a9565b005b600080fd5b3480156101e657600080fd5b506101ef61066b565b6040516101fc9190613b5e565b60405180910390f35b34801561021157600080fd5b50610225610220366004613b93565b6106fd565b60405190151581526020016101fc565b34801561024157600080fd5b506101d3610250366004613bbf565b610717565b34801561026157600080fd5b506002545b6040519081526020016101fc565b34801561028057600080fd5b5061022561028f366004613bf4565b610848565b3480156102a057600080fd5b506102b46102af366004613c35565b61086c565b604080519283526020830191909152016101fc565b3480156102d557600080fd5b50604051601281526020016101fc565b3480156102f157600080fd5b50610266610a9b565b34801561030657600080fd5b50610266610aaa565b34801561031b57600080fd5b5061022561032a366004613b93565b610ab4565b610266610b00565b34801561034357600080fd5b506101d3610352366004613c67565b610b0a565b34801561036357600080fd5b50610266610cf8565b34801561037857600080fd5b50610266610387366004613c67565b610d23565b34801561039857600080fd5b50610266610d64565b3480156103ad57600080fd5b506101d36103bc366004613cc9565b610d6e565b6101d3611025565b3480156103d557600080fd5b506101d36103e4366004613cc9565b611084565b3480156103f557600080fd5b50610266610404366004613d4c565b73ffffffffffffffffffffffffffffffffffffffff1660009081526020819052604090205490565b34801561043857600080fd5b50610266610447366004613d4c565b6112f9565b34801561045857600080fd5b506101ef611324565b34801561046d57600080fd5b5061022561047c366004613b93565b611333565b34801561048d57600080fd5b5061022561049c366004613b93565b611404565b3480156104ad57600080fd5b506104b6611412565b6040805194855260208501939093529183015260608201526080016101fc565b3480156104e257600080fd5b506101d36104f1366004613d69565b6114c9565b34801561050257600080fd5b50610266610511366004613c67565b611a0c565b34801561052257600080fd5b506101d3610531366004613dbe565b611a35565b34801561054257600080fd5b506101d3610551366004613b93565b611bf4565b34801561056257600080fd5b50610266610571366004613e35565b73ffffffffffffffffffffffffffffffffffffffff918216600090815260016020908152604080832093909416825291909152205490565b6000346000036105e5576040517f72fb5d1e00000000000000000000000000000000000000000000000000000000815260040160405180910390fd5b60006105f034610d23565b9050806000036105fd5750345b6106073382611ca6565b6106317f341ddcafa8194c936a615f6da6d5b805b69e7968f858d37a246557ae89c0b10734611d99565b60405134815233907f3dbdcfd4c1f2e08931aae3d544e149a1e643143f5234d166fe3debb7833884959060200160405180910390a2919050565b60606003805461067a90613e6e565b80601f01602080910402602001604051908101604052809291908181526020018280546106a690613e6e565b80156106f35780601f106106c8576101008083540402835291602001916106f3565b820191906000526020600020905b8154815290600101906020018083116106d657829003601f168201915b5050505050905090565b60003361070b818585611e29565b60019150505b92915050565b6107556040518060400160405280601281526020017f4465706f7369744e6f64654d616e616765720000000000000000000000000000815250611fdc565b73ffffffffffffffffffffffffffffffffffffffff163373ffffffffffffffffffffffffffffffffffffffff16146107c0576040517f209e78870000000000000000000000000000000000000000000000000000000081523360048201526024015b60405180910390fd5b6107ca838361208d565b6107f47f3fc597f1b7beb62cf3766ffcf3c9b47c1969394fb25b999a9ae4e21357178c5282611d99565b6040805173ffffffffffffffffffffffffffffffffffffffff85168152602081018390527f78695245dea93a5b8a8d4291442395da1c7bb157b9ca7a45c05dd1deef2a43e6910160405180910390a1505050565b6000336108568582856122ed565b6108618585856123c4565b506001949350505050565b60008061095661089b7f3fc597f1b7beb62cf3766ffcf3c9b47c1969394fb25b999a9ae4e21357178c52612633565b6109196108d8670de0b6b3a76400006108d27e882f9dbc877242cea5e51b33b650bdc9bc6abdf4c3510a76084e9c3c033e78612633565b906126c7565b61095061091f6801bc16d674ec8000006108d28d6109198c6109197f0904604e7b52344a1cae14966ec1b6b446e7e01bbd34ed33c4ad6a30d44ea51e612633565b906126da565b6109508b6109508c6109507f341ddcafa8194c936a615f6da6d5b805b69e7968f858d37a246557ae89c0b107612633565b906126e6565b915060006109d66109cc6109a36801bc16d674ec8000006108d26109997f03c77f053088a575b9521a248e6981814a26c03c87460d925a0c240e5d2ef5a0612633565b6109198d8b6126e6565b6109507fbe8bf3644b3762cbffde125986a23a91ade7fddbc3442d865d5aaf508cda18c6612633565b61091988886126e6565b905060006109e26126f2565b905060006109ef60025490565b90506000610a80610a44610a38610a31610a287f705fe20ed35e7cce1159f49c90f9dab5c5ed67a8790e40ec4869b3d6be323b2b612633565b612710906126da565b87906126c7565b610950866127106126c7565b610a7a610a707f705fe20ed35e7cce1159f49c90f9dab5c5ed67a8790e40ec4869b3d6be323b2b612633565b6108d286896126c7565b90612811565b9050610a8c8183613eea565b94505050505094509492505050565b6000610aa561281d565b905090565b6000610aa56126f2565b33600081815260016020908152604080832073ffffffffffffffffffffffffffffffffffffffff8716845290915281205490919061070b9082908690610afb908790613eea565b611e29565b6000610aa56105a9565b610b486040518060400160405280600d81526020017f4461776e496e737572616e636500000000000000000000000000000000000000815250611fdc565b73ffffffffffffffffffffffffffffffffffffffff163373ffffffffffffffffffffffffffffffffffffffff1614610bae576040517f4910cc4a0000000000000000000000000000000000000000000000000000000081523360048201526024016107b7565b610bf633610bf06040518060400160405280600681526020017f4275726e65720000000000000000000000000000000000000000000000000000815250611fdc565b836123c4565b610c346040518060400160405280600681526020017f4275726e65720000000000000000000000000000000000000000000000000000815250611fdc565b6040517ff22755d60000000000000000000000000000000000000000000000000000000081523360048201526024810183905273ffffffffffffffffffffffffffffffffffffffff919091169063f22755d690604401600060405180830381600087803b158015610ca457600080fd5b505af1158015610cb8573d6000803e3d6000fd5b505050507f1fde49cb3db550a66f48bcd7c36f44448ed1a63a3ae9c4a9dffd4b1db607533081604051610ced91815260200190565b60405180910390a150565b6000610aa57f341ddcafa8194c936a615f6da6d5b805b69e7968f858d37a246557ae89c0b107612633565b600080610d2e6126f2565b905080600003610d415750600092915050565b6000610d4c60025490565b9050610d5c82610a7a83876126c7565b949350505050565b6000610aa5612951565b84600080610db06040518060400160405280601281526020017f4465706f7369744e6f64654d616e616765720000000000000000000000000000815250611fdc565b6040517f0e2c0b1000000000000000000000000000000000000000000000000000000000815273ffffffffffffffffffffffffffffffffffffffff85811660048301529190911690630e2c0b10906024016040805180830381865afa158015610e1d573d6000803e3d6000fd5b505050506040513d601f19601f82011682018060405250810190610e419190613efd565b90925090503373ffffffffffffffffffffffffffffffffffffffff831614610e97576040517f209e78870000000000000000000000000000000000000000000000000000000081523360048201526024016107b7565b80610ee6576040517f6a275ec600000000000000000000000000000000000000000000000000000000815273ffffffffffffffffffffffffffffffffffffffff831660048201526024016107b7565b6801ae361fc1451c0000471015610f29576040517f0441af0400000000000000000000000000000000000000000000000000000000815260040160405180910390fd5b6000610f33612951565b9050610f4c88888389896801ae361fc1451c0000612a0a565b610f777f0904604e7b52344a1cae14966ec1b6b446e7e01bbd34ed33c4ad6a30d44ea51e6001611d99565b610fa17e882f9dbc877242cea5e51b33b650bdc9bc6abdf4c3510a76084e9c3c033e786001612edb565b610fd47f341ddcafa8194c936a615f6da6d5b805b69e7968f858d37a246557ae89c0b1076801ae361fc1451c0000612edb565b7fb629260c74cea5e1861205e59a2b203e2dc93870354ed627176fd86bc6e30d408989896801ae361fc1451c00006040516110129493929190613f7a565b60405180910390a1505050505050505050565b61104f7f341ddcafa8194c936a615f6da6d5b805b69e7968f858d37a246557ae89c0b10734611d99565b6040513481527f0a54722b21b0f3a3bb18e77037f7705e2281aad44eef25231f961464cc619a6a9060200160405180910390a1565b846000806110c66040518060400160405280601281526020017f4465706f7369744e6f64654d616e616765720000000000000000000000000000815250611fdc565b6040517f0e2c0b1000000000000000000000000000000000000000000000000000000000815273ffffffffffffffffffffffffffffffffffffffff85811660048301529190911690630e2c0b10906024016040805180830381865afa158015611133573d6000803e3d6000fd5b505050506040513d601f19601f820116820180604052508101906111579190613efd565b90925090503373ffffffffffffffffffffffffffffffffffffffff8316146111ad576040517f209e78870000000000000000000000000000000000000000000000000000000081523360048201526024016107b7565b806111fc576040517f6a275ec600000000000000000000000000000000000000000000000000000000815273ffffffffffffffffffffffffffffffffffffffff831660048201526024016107b7565b670de0b6b3a764000047101561123e576040517f0441af0400000000000000000000000000000000000000000000000000000000815260040160405180910390fd5b6000611248612951565b90506112608888838989670de0b6b3a7640000612a0a565b61128a7e882f9dbc877242cea5e51b33b650bdc9bc6abdf4c3510a76084e9c3c033e786001611d99565b6112bc7f341ddcafa8194c936a615f6da6d5b805b69e7968f858d37a246557ae89c0b107670de0b6b3a7640000612edb565b7f8ad7785cb6530f76bdd547c0d530e0129b62aa92411aa6825d4c560bfee1e3a3898989670de0b6b3a76400006040516110129493929190613f7a565b73ffffffffffffffffffffffffffffffffffffffff8116600090815260056020526040812054610711565b60606004805461067a90613e6e565b33600081815260016020908152604080832073ffffffffffffffffffffffffffffffffffffffff87168452909152812054909190838110156113f7576040517f08c379a000000000000000000000000000000000000000000000000000000000815260206004820152602560248201527f45524332303a2064656372656173656420616c6c6f77616e63652062656c6f7760448201527f207a65726f00000000000000000000000000000000000000000000000000000060648201526084016107b7565b6108618286868403611e29565b60003361070b8185856123c4565b6000806000806114407e882f9dbc877242cea5e51b33b650bdc9bc6abdf4c3510a76084e9c3c033e78612633565b935061146b7f0904604e7b52344a1cae14966ec1b6b446e7e01bbd34ed33c4ad6a30d44ea51e612633565b92506114967f03c77f053088a575b9521a248e6981814a26c03c87460d925a0c240e5d2ef5a0612633565b91506114c17fbe8bf3644b3762cbffde125986a23a91ade7fddbc3442d865d5aaf508cda18c6612633565b905090919293565b6115076040518060400160405280600e81526020017f4461776e506f6f6c4f7261636c65000000000000000000000000000000000000815250611fdc565b73ffffffffffffffffffffffffffffffffffffffff163373ffffffffffffffffffffffffffffffffffffffff161461156d576040517f209e78870000000000000000000000000000000000000000000000000000000081523360048201526024016107b7565b6115967f0904604e7b52344a1cae14966ec1b6b446e7e01bbd34ed33c4ad6a30d44ea51e612633565b6115a08589613eea565b11156116145786846115d17f0904604e7b52344a1cae14966ec1b6b446e7e01bbd34ed33c4ad6a30d44ea51e612633565b6040517fa1bbbcbe0000000000000000000000000000000000000000000000000000000081526004810193909352602483019190915260448201526064016107b7565b6116526040518060400160405280600c81526020017f526577617264735661756c740000000000000000000000000000000000000000815250611fdc565b73ffffffffffffffffffffffffffffffffffffffff16318511156116a2576040517f4391bdd600000000000000000000000000000000000000000000000000000000815260040160405180910390fd5b6116e86109a36801bc16d674ec8000006108d26116de7f03c77f053088a575b9521a248e6981814a26c03c87460d925a0c240e5d2ef5a0612633565b6109198c8a6126e6565b6116f287876126e6565b11611729576040517f0b4cb19900000000000000000000000000000000000000000000000000000000815260040160405180910390fd5b600061177e6117746109a36801bc16d674ec8000006108d261176a7f03c77f053088a575b9521a248e6981814a26c03c87460d925a0c240e5d2ef5a0612633565b6109198e8c6126e6565b61091989896126e6565b9050600061178a6126f2565b9050600061179760025490565b90507fa92de0e3ab48f5b5761ef0076086acab633685a5d4b5800d3a2978690f2ca3a08b6117e47fbe8bf3644b3762cbffde125986a23a91ade7fddbc3442d865d5aaf508cda18c6612633565b60408051928352602083019190915281018b9052606081018a905260800160405180910390a16118347f03c77f053088a575b9521a248e6981814a26c03c87460d925a0c240e5d2ef5a08b612f39565b61185e7fbe8bf3644b3762cbffde125986a23a91ade7fddbc3442d865d5aaf508cda18c68a612f39565b6118887f0904604e7b52344a1cae14966ec1b6b446e7e01bbd34ed33c4ad6a30d44ea51e88612edb565b8715611939576118cc6040518060400160405280600c81526020017f526577617264735661756c740000000000000000000000000000000000000000815250611fdc565b73ffffffffffffffffffffffffffffffffffffffff16639342c8f4896040518263ffffffff1660e01b815260040161190691815260200190565b600060405180830381600087803b15801561192057600080fd5b505af1158015611934573d6000803e3d6000fd5b505050505b6000611970610a44610a38610a31610a287f705fe20ed35e7cce1159f49c90f9dab5c5ed67a8790e40ec4869b3d6be323b2b612633565b905061197c3082611ca6565b61198581612f97565b7f86237457616f971c15dde9cb79b7a30c5951b53b5cf9d82ffee650eec4923c2f8c84846119b16126f2565b600254604080519586526020860194909452928401919091526060830152608082015260a00160405180910390a184156119ef576119ef8686613046565b86156119fe576119fe87613249565b505050505050505050505050565b600080611a1860025490565b905080600003611a2b5750600092915050565b6000610d4c6126f2565b83421115611a9f576040517f08c379a000000000000000000000000000000000000000000000000000000000815260206004820152601d60248201527f45524332305065726d69743a206578706972656420646561646c696e6500000060448201526064016107b7565b60007f6e71edae12b1b97f4d1f60370fef10105fa2faae0126114a169c64845d6126c9888888611ace8c613383565b60408051602081019690965273ffffffffffffffffffffffffffffffffffffffff94851690860152929091166060840152608083015260a082015260c0810186905260e0016040516020818303038152906040528051906020012090506000611b36826133b8565b90506000611b4682878787613421565b90508973ffffffffffffffffffffffffffffffffffffffff168173ffffffffffffffffffffffffffffffffffffffff1614611bdd576040517f08c379a000000000000000000000000000000000000000000000000000000000815260206004820152601e60248201527f45524332305065726d69743a20696e76616c6964207369676e6174757265000060448201526064016107b7565b611be88a8a8a611e29565b50505050505050505050565b611c326040518060400160405280601281526020017f4465706f7369744e6f64654d616e616765720000000000000000000000000000815250611fdc565b73ffffffffffffffffffffffffffffffffffffffff163373ffffffffffffffffffffffffffffffffffffffff1614611c98576040517f209e78870000000000000000000000000000000000000000000000000000000081523360048201526024016107b7565b611ca2828261208d565b5050565b73ffffffffffffffffffffffffffffffffffffffff8216611d23576040517f08c379a000000000000000000000000000000000000000000000000000000000815260206004820152601f60248201527f45524332303a206d696e7420746f20746865207a65726f20616464726573730060448201526064016107b7565b8060026000828254611d359190613eea565b909155505073ffffffffffffffffffffffffffffffffffffffff8216600081815260208181526040808320805486019055518481527fddf252ad1be2c89b69c2b068fc378daa952ba7f163c4a11628f55a4df523b3ef910160405180910390a35050565b6007546040517fadb353dc000000000000000000000000000000000000000000000000000000008152600481018490526024810183905273ffffffffffffffffffffffffffffffffffffffff9091169063adb353dc906044015b600060405180830381600087803b158015611e0d57600080fd5b505af1158015611e21573d6000803e3d6000fd5b505050505050565b73ffffffffffffffffffffffffffffffffffffffff8316611ecb576040517f08c379a0000000000000000000000000000000000000000000000000000000008152602060048201526024808201527f45524332303a20617070726f76652066726f6d20746865207a65726f2061646460448201527f726573730000000000000000000000000000000000000000000000000000000060648201526084016107b7565b73ffffffffffffffffffffffffffffffffffffffff8216611f6e576040517f08c379a000000000000000000000000000000000000000000000000000000000815260206004820152602260248201527f45524332303a20617070726f766520746f20746865207a65726f20616464726560448201527f737300000000000000000000000000000000000000000000000000000000000060648201526084016107b7565b73ffffffffffffffffffffffffffffffffffffffff83811660008181526001602090815260408083209487168084529482529182902085905590518481527f8c5be1e5ebec7d5bd14f71427d1e84f3dd0314c0f7b2291e5b200ac8c7c3b925910160405180910390a3505050565b60008061200e83604051602001611ff39190613fbb565b60405160208183030381529060405280519060200120613449565b905073ffffffffffffffffffffffffffffffffffffffff8116610711576040517f08c379a000000000000000000000000000000000000000000000000000000000815260206004820152601260248201527f436f6e7472616374206e6f7420666f756e64000000000000000000000000000060448201526064016107b7565b806000036120c7576040517f97b9d4c400000000000000000000000000000000000000000000000000000000815260040160405180910390fd5b6040517f70a0823100000000000000000000000000000000000000000000000000000000815273ffffffffffffffffffffffffffffffffffffffff83166004820152819030906370a0823190602401602060405180830381865afa158015612133573d6000803e3d6000fd5b505050506040513d601f19601f820116820180604052508101906121579190614000565b101561218f576040517fa8bcec3e00000000000000000000000000000000000000000000000000000000815260040160405180910390fd5b6121d182610bf06040518060400160405280600681526020017f4275726e65720000000000000000000000000000000000000000000000000000815250611fdc565b61220f6040518060400160405280600681526020017f4275726e65720000000000000000000000000000000000000000000000000000815250611fdc565b6040517ff22755d600000000000000000000000000000000000000000000000000000000815273ffffffffffffffffffffffffffffffffffffffff848116600483015260248201849052919091169063f22755d690604401600060405180830381600087803b15801561228157600080fd5b505af1158015612295573d6000803e3d6000fd5b50506040805173ffffffffffffffffffffffffffffffffffffffff86168152602081018590527f221b27e1882df41842823342c6cd01b7e60161c390c08c83d8b5a2712448352b935001905060405180910390a15050565b73ffffffffffffffffffffffffffffffffffffffff8381166000908152600160209081526040808320938616835292905220547fffffffffffffffffffffffffffffffffffffffffffffffffffffffffffffffff81146123be57818110156123b1576040517f08c379a000000000000000000000000000000000000000000000000000000000815260206004820152601d60248201527f45524332303a20696e73756666696369656e7420616c6c6f77616e636500000060448201526064016107b7565b6123be8484848403611e29565b50505050565b73ffffffffffffffffffffffffffffffffffffffff8316612467576040517f08c379a000000000000000000000000000000000000000000000000000000000815260206004820152602560248201527f45524332303a207472616e736665722066726f6d20746865207a65726f20616460448201527f647265737300000000000000000000000000000000000000000000000000000060648201526084016107b7565b73ffffffffffffffffffffffffffffffffffffffff821661250a576040517f08c379a000000000000000000000000000000000000000000000000000000000815260206004820152602360248201527f45524332303a207472616e7366657220746f20746865207a65726f206164647260448201527f657373000000000000000000000000000000000000000000000000000000000060648201526084016107b7565b73ffffffffffffffffffffffffffffffffffffffff8316600090815260208190526040902054818110156125c0576040517f08c379a000000000000000000000000000000000000000000000000000000000815260206004820152602660248201527f45524332303a207472616e7366657220616d6f756e742065786365656473206260448201527f616c616e6365000000000000000000000000000000000000000000000000000060648201526084016107b7565b73ffffffffffffffffffffffffffffffffffffffff848116600081815260208181526040808320878703905593871680835291849020805487019055925185815290927fddf252ad1be2c89b69c2b068fc378daa952ba7f163c4a11628f55a4df523b3ef910160405180910390a36123be565b6007546040517fbd02d0f50000000000000000000000000000000000000000000000000000000081526004810183905260009173ffffffffffffffffffffffffffffffffffffffff169063bd02d0f590602401602060405180830381865afa1580156126a3573d6000803e3d6000fd5b505050506040513d601f19601f820116820180604052508101906107119190614000565b60006126d38284614019565b9392505050565b60006126d38284614030565b60006126d38284613eea565b6000610aa56127207f3fc597f1b7beb62cf3766ffcf3c9b47c1969394fb25b999a9ae4e21357178c52612633565b610919612757670de0b6b3a76400006108d27e882f9dbc877242cea5e51b33b650bdc9bc6abdf4c3510a76084e9c3c033e78612633565b6109506127bc6801bc16d674ec8000006108d26127937f03c77f053088a575b9521a248e6981814a26c03c87460d925a0c240e5d2ef5a0612633565b6109197f0904604e7b52344a1cae14966ec1b6b446e7e01bbd34ed33c4ad6a30d44ea51e612633565b6109506127e87fbe8bf3644b3762cbffde125986a23a91ade7fddbc3442d865d5aaf508cda18c6612633565b6109507f341ddcafa8194c936a615f6da6d5b805b69e7968f858d37a246557ae89c0b107612633565b60006126d38284614043565b60003073ffffffffffffffffffffffffffffffffffffffff7f00000000000000000000000000000000000000000000000000000000000000001614801561288357507f000000000000000000000000000000000000000000000000000000000000000046145b156128ad57507f000000000000000000000000000000000000000000000000000000000000000090565b50604080517f00000000000000000000000000000000000000000000000000000000000000006020808301919091527f0000000000000000000000000000000000000000000000000000000000000000828401527f000000000000000000000000000000000000000000000000000000000000000060608301524660808301523060a0808401919091528351808403909101815260c0909201909252805191012090565b6000806129926040518060400160405280600c81526020017f526577617264735661756c740000000000000000000000000000000000000000815250611fdc565b604080517f010000000000000000000000000000000000000000000000000000000000000060208201527fffffffffffffffffffffffffffffffffffffffff000000000000000000000000606084901b16602c82015291925001604051602081830303815290604052612a049061407e565b91505090565b6000612a1a633b9aca0083614043565b9050600060028888600060801b604051602001612a39939291906140c0565b604080517fffffffffffffffffffffffffffffffffffffffffffffffffffffffffffffffe081840301815290829052612a71916140f6565b602060405180830381855afa158015612a8e573d6000803e3d6000fd5b5050506040513d601f19601f82011682018060405250810190612ab19190614000565b90506000600280612ac5604084898b614112565b604051602001612ad692919061413c565b604080517fffffffffffffffffffffffffffffffffffffffffffffffffffffffffffffffe081840301815290829052612b0e916140f6565b602060405180830381855afa158015612b2b573d6000803e3d6000fd5b5050506040513d601f19601f82011682018060405250810190612b4e9190614000565b6002612b5d886040818c614112565b604051612b7192919060009060200161414c565b604080517fffffffffffffffffffffffffffffffffffffffffffffffffffffffffffffffe081840301815290829052612ba9916140f6565b602060405180830381855afa158015612bc6573d6000803e3d6000fd5b5050506040513d601f19601f82011682018060405250810190612be99190614000565b604080516020810193909352820152606001604080517fffffffffffffffffffffffffffffffffffffffffffffffffffffffffffffffe081840301815290829052612c33916140f6565b602060405180830381855afa158015612c50573d6000803e3d6000fd5b5050506040513d601f19601f82011682018060405250810190612c739190614000565b90506000600280848a604051602001612c96929190918252602082015260400190565b604080517fffffffffffffffffffffffffffffffffffffffffffffffffffffffffffffffe081840301815290829052612cce916140f6565b602060405180830381855afa158015612ceb573d6000803e3d6000fd5b5050506040513d601f19601f82011682018060405250810190612d0e9190614000565b6002612d19876134dd565b6040805160208101929092528101869052606001604080517fffffffffffffffffffffffffffffffffffffffffffffffffffffffffffffffe081840301815290829052612d65916140f6565b602060405180830381855afa158015612d82573d6000803e3d6000fd5b5050506040513d601f19601f82011682018060405250810190612da59190614000565b604080516020810193909352820152606001604080517fffffffffffffffffffffffffffffffffffffffffffffffffffffffffffffffe081840301815290829052612def916140f6565b602060405180830381855afa158015612e0c573d6000803e3d6000fd5b5050506040513d601f19601f82011682018060405250810190612e2f9190614000565b9050612e39613523565b73ffffffffffffffffffffffffffffffffffffffff166322895118868c8c8c604051602001612e6a91815260200190565b6040516020818303038152906040528c8c886040518863ffffffff1660e01b8152600401612e9d9695949392919061415e565b6000604051808303818588803b158015612eb657600080fd5b505af1158015612eca573d6000803e3d6000fd5b505050505050505050505050505050565b6007546040517febb9d8c9000000000000000000000000000000000000000000000000000000008152600481018490526024810183905273ffffffffffffffffffffffffffffffffffffffff9091169063ebb9d8c990604401611df3565b6007546040517fe2a4853a000000000000000000000000000000000000000000000000000000008152600481018490526024810183905273ffffffffffffffffffffffffffffffffffffffff9091169063e2a4853a90604401611df3565b6000612fc27f1d649dfd1ac2f55b17a0c168c704b9b3629d73ac6c6e8c97767d3085f9d56c98612633565b90506000612fef7f4dbc752aaee941f10a8af495d9a572b807fb5d6d10ba310788b106444b4ee2c8612633565b90506000613003612710610a7a86856126c7565b90506000613017612710610a7a87876126c7565b905060006130298261091988866126da565b905061303482613563565b61303d816135a8565b611e21836135ea565b61306f7f341ddcafa8194c936a615f6da6d5b805b69e7968f858d37a246557ae89c0b107612633565b8111156130ab576040517f098fa5c2000000000000000000000000000000000000000000000000000000008152600481018290526024016107b7565b6130e96040518060400160405280600c81526020017f4461776e57697468647261770000000000000000000000000000000000000000815250611fdc565b6040517fd29d3b0b000000000000000000000000000000000000000000000000000000008152600481018490526024810183905273ffffffffffffffffffffffffffffffffffffffff919091169063d29d3b0b9060440160006040518083038186803b15801561315857600080fd5b505afa15801561316c573d6000803e3d6000fd5b5050505061319a7f341ddcafa8194c936a615f6da6d5b805b69e7968f858d37a246557ae89c0b10782612edb565b6131d86040518060400160405280600c81526020017f4461776e57697468647261770000000000000000000000000000000000000000815250611fdc565b73ffffffffffffffffffffffffffffffffffffffff1663d7cb6eb682846040518363ffffffff1660e01b815260040161321391815260200190565b6000604051808303818588803b15801561322c57600080fd5b505af1158015613240573d6000803e3d6000fd5b50505050505050565b60006132896040518060400160405280600681526020017f4275726e65720000000000000000000000000000000000000000000000000000815250611fdc565b90506132b78173ffffffffffffffffffffffffffffffffffffffff1660009081526020819052604090205490565b82101561332657816132eb8273ffffffffffffffffffffffffffffffffffffffff1660009081526020819052604090205490565b6040517f04b54f95000000000000000000000000000000000000000000000000000000008152600481019290925260248201526044016107b7565b613330818361368a565b6040517f43a526c10000000000000000000000000000000000000000000000000000000081526004810183905273ffffffffffffffffffffffffffffffffffffffff8216906343a526c190602401611df3565b73ffffffffffffffffffffffffffffffffffffffff811660009081526005602052604090208054600181018255905b50919050565b60006107116133c561281d565b836040517f19010000000000000000000000000000000000000000000000000000000000006020820152602281018390526042810182905260009060620160405160208183030381529060405280519060200120905092915050565b60008060006134328787878761384e565b9150915061343f8161393d565b5095945050505050565b6007546040517f21f8a7210000000000000000000000000000000000000000000000000000000081526004810183905260009173ffffffffffffffffffffffffffffffffffffffff16906321f8a72190602401602060405180830381865afa1580156134b9573d6000803e3d6000fd5b505050506040513d601f19601f8201168201806040525081019061071191906141ad565b600081815b600881101561350b57600892831b60ff831617929190911c90613504816141ca565b90506134e2565b50801561351a5761351a614202565b5060c01b919050565b6000610aa56040518060400160405280600f81526020017f4465706f736974436f6e74726163740000000000000000000000000000000000815250611fdc565b6135a530610bf06040518060400160405280600d81526020017f4461776e496e737572616e636500000000000000000000000000000000000000815250611fdc565b50565b6135a530610bf06040518060400160405280600c81526020017f4461776e54726561737572790000000000000000000000000000000000000000815250611fdc565b600061362a6040518060400160405280601281526020017f4465706f7369744e6f64654d616e616765720000000000000000000000000000815250611fdc565b90506136373082846123c4565b6040517f09b861590000000000000000000000000000000000000000000000000000000081526004810183905273ffffffffffffffffffffffffffffffffffffffff8216906309b8615990602401611df3565b73ffffffffffffffffffffffffffffffffffffffff821661372d576040517f08c379a000000000000000000000000000000000000000000000000000000000815260206004820152602160248201527f45524332303a206275726e2066726f6d20746865207a65726f2061646472657360448201527f730000000000000000000000000000000000000000000000000000000000000060648201526084016107b7565b73ffffffffffffffffffffffffffffffffffffffff8216600090815260208190526040902054818110156137e3576040517f08c379a000000000000000000000000000000000000000000000000000000000815260206004820152602260248201527f45524332303a206275726e20616d6f756e7420657863656564732062616c616e60448201527f636500000000000000000000000000000000000000000000000000000000000060648201526084016107b7565b73ffffffffffffffffffffffffffffffffffffffff83166000818152602081815260408083208686039055600280548790039055518581529192917fddf252ad1be2c89b69c2b068fc378daa952ba7f163c4a11628f55a4df523b3ef910160405180910390a3505050565b6000807f7fffffffffffffffffffffffffffffff5d576e7357a4501ddfe92f46681b20a08311156138855750600090506003613934565b6040805160008082526020820180845289905260ff881692820192909252606081018690526080810185905260019060a0016020604051602081039080840390855afa1580156138d9573d6000803e3d6000fd5b50506040517fffffffffffffffffffffffffffffffffffffffffffffffffffffffffffffffe0015191505073ffffffffffffffffffffffffffffffffffffffff811661392d57600060019250925050613934565b9150600090505b94509492505050565b600081600481111561395157613951614231565b036139595750565b600181600481111561396d5761396d614231565b036139d4576040517f08c379a000000000000000000000000000000000000000000000000000000000815260206004820152601860248201527f45434453413a20696e76616c6964207369676e6174757265000000000000000060448201526064016107b7565b60028160048111156139e8576139e8614231565b03613a4f576040517f08c379a000000000000000000000000000000000000000000000000000000000815260206004820152601f60248201527f45434453413a20696e76616c6964207369676e6174757265206c656e6774680060448201526064016107b7565b6003816004811115613a6357613a63614231565b036135a5576040517f08c379a000000000000000000000000000000000000000000000000000000000815260206004820152602260248201527f45434453413a20696e76616c6964207369676e6174757265202773272076616c60448201527f756500000000000000000000000000000000000000000000000000000000000060648201526084016107b7565b60005b83811015613b0b578181015183820152602001613af3565b50506000910152565b60008151808452613b2c816020860160208601613af0565b601f017fffffffffffffffffffffffffffffffffffffffffffffffffffffffffffffffe0169290920160200192915050565b6020815260006126d36020830184613b14565b73ffffffffffffffffffffffffffffffffffffffff811681146135a557600080fd5b60008060408385031215613ba657600080fd5b8235613bb181613b71565b946020939093013593505050565b600080600060608486031215613bd457600080fd5b8335613bdf81613b71565b95602085013595506040909401359392505050565b600080600060608486031215613c0957600080fd5b8335613c1481613b71565b92506020840135613c2481613b71565b929592945050506040919091013590565b60008060008060808587031215613c4b57600080fd5b5050823594602084013594506040840135936060013592509050565b600060208284031215613c7957600080fd5b5035919050565b60008083601f840112613c9257600080fd5b50813567ffffffffffffffff811115613caa57600080fd5b602083019150836020828501011115613cc257600080fd5b9250929050565b600080600080600060608688031215613ce157600080fd5b8535613cec81613b71565b9450602086013567ffffffffffffffff80821115613d0957600080fd5b613d1589838a01613c80565b90965094506040880135915080821115613d2e57600080fd5b50613d3b88828901613c80565b969995985093965092949392505050565b600060208284031215613d5e57600080fd5b81356126d381613b71565b600080600080600080600080610100898b031215613d8657600080fd5b505086359860208801359850604088013597606081013597506080810135965060a0810135955060c0810135945060e0013592509050565b600080600080600080600060e0888a031215613dd957600080fd5b8735613de481613b71565b96506020880135613df481613b71565b95506040880135945060608801359350608088013560ff81168114613e1857600080fd5b9699959850939692959460a0840135945060c09093013592915050565b60008060408385031215613e4857600080fd5b8235613e5381613b71565b91506020830135613e6381613b71565b809150509250929050565b600181811c90821680613e8257607f821691505b6020821081036133b2577f4e487b7100000000000000000000000000000000000000000000000000000000600052602260045260246000fd5b7f4e487b7100000000000000000000000000000000000000000000000000000000600052601160045260246000fd5b8082018082111561071157610711613ebb565b60008060408385031215613f1057600080fd5b8251613f1b81613b71565b60208401519092508015158114613e6357600080fd5b8183528181602085013750600060208284010152600060207fffffffffffffffffffffffffffffffffffffffffffffffffffffffffffffffe0601f840116840101905092915050565b73ffffffffffffffffffffffffffffffffffffffff85168152606060208201526000613faa606083018587613f31565b905082604083015295945050505050565b7f636f6e74726163742e6164647265737300000000000000000000000000000000815260008251613ff3816010850160208701613af0565b9190910160100192915050565b60006020828403121561401257600080fd5b5051919050565b808202811582820484141761071157610711613ebb565b8181038181111561071157610711613ebb565b600082614079577f4e487b7100000000000000000000000000000000000000000000000000000000600052601260045260246000fd5b500490565b805160208083015191908110156133b2577fffffffffffffffffffffffffffffffffffffffffffffffffffffffffffffffff60209190910360031b1b16919050565b828482377fffffffffffffffffffffffffffffffff00000000000000000000000000000000919091169101908152601001919050565b60008251614108818460208701613af0565b9190910192915050565b6000808585111561412257600080fd5b8386111561412f57600080fd5b5050820193919092039150565b8183823760009101908152919050565b82848237909101908152602001919050565b60808152600061417260808301888a613f31565b82810360208401526141848188613b14565b90508281036040840152614199818688613f31565b915050826060830152979650505050505050565b6000602082840312156141bf57600080fd5b81516126d381613b71565b60007fffffffffffffffffffffffffffffffffffffffffffffffffffffffffffffffff82036141fb576141fb613ebb565b5060010190565b7f4e487b7100000000000000000000000000000000000000000000000000000000600052600160045260246000fd5b7f4e487b7100000000000000000000000000000000000000000000000000000000600052602160045260246000fdfea264697066735822122005ff16704697c7aac91f2e00e7168adeac8f243642b676de854fbd227bfc049e64736f6c63430008110033",
  "linkReferences": {},
  "deployedLinkReferences": {}
}