{
  "_format": "hh-sol-artifact-1",
  "contractName": "DawnDeposit",
  "sourceName": "contracts/core/DawnDeposit.sol",
  "abi": [
    {
      "inputs": [
        {
          "internalType": "contract IDawnStorageInterface",
          "name": "dawnStorageAddress",
          "type": "address"
        }
      ],
      "stateMutability": "nonpayable",
      "type": "constructor"
    },
    {
      "inputs": [
        {
          "internalType": "uint256",
          "name": "burnedPEthAmount",
          "type": "uint256"
        },
        {
          "internalType": "uint256",
          "name": "burnerBalance",
          "type": "uint256"
        }
      ],
      "name": "ErrorBurnedPEthAmount",
      "type": "error"
    },
    {
      "inputs": [],
      "name": "PEthNotEnough",
      "type": "error"
    },
    {
      "inputs": [],
      "name": "ZeroAddress",
      "type": "error"
    },
    {
      "inputs": [],
      "name": "ZeroBurnAmount",
      "type": "error"
    },
    {
      "anonymous": false,
      "inputs": [
        {
          "indexed": true,
          "internalType": "address",
          "name": "owner",
          "type": "address"
        },
        {
          "indexed": true,
          "internalType": "address",
          "name": "spender",
          "type": "address"
        },
        {
          "indexed": false,
          "internalType": "uint256",
          "name": "value",
          "type": "uint256"
        }
      ],
      "name": "Approval",
      "type": "event"
    },
    {
      "anonymous": false,
      "inputs": [
        {
          "indexed": false,
          "internalType": "address",
          "name": "operator",
          "type": "address"
        },
        {
          "indexed": false,
          "internalType": "bytes",
          "name": "pubkey",
          "type": "bytes"
        },
        {
          "indexed": false,
          "internalType": "uint256",
          "name": "amount",
          "type": "uint256"
        }
      ],
      "name": "LogActivateValidator",
      "type": "event"
    },
    {
      "anonymous": false,
      "inputs": [
        {
          "indexed": false,
          "internalType": "address",
          "name": "burnAddress",
          "type": "address"
        },
        {
          "indexed": false,
          "internalType": "uint256",
          "name": "ethAmountToDecrease",
          "type": "uint256"
        }
      ],
      "name": "LogDecreaseEther",
      "type": "event"
    },
    {
      "anonymous": false,
      "inputs": [
        {
          "indexed": false,
          "internalType": "uint256",
          "name": "epochId",
          "type": "uint256"
        },
        {
          "indexed": false,
          "internalType": "uint256",
          "name": "preCLBalance",
          "type": "uint256"
        },
        {
          "indexed": false,
          "internalType": "uint256",
          "name": "postCLBalance",
          "type": "uint256"
        },
        {
          "indexed": false,
          "internalType": "uint256",
          "name": "rewardsVaultBalance",
          "type": "uint256"
        }
      ],
      "name": "LogETHRewards",
      "type": "event"
    },
    {
      "anonymous": false,
      "inputs": [
        {
          "indexed": false,
          "internalType": "address",
          "name": "operator",
          "type": "address"
        },
        {
          "indexed": false,
          "internalType": "bytes",
          "name": "pubkey",
          "type": "bytes"
        },
        {
          "indexed": false,
          "internalType": "uint256",
          "name": "amount",
          "type": "uint256"
        }
      ],
      "name": "LogPreActivateValidator",
      "type": "event"
    },
    {
      "anonymous": false,
      "inputs": [
        {
          "indexed": false,
          "internalType": "address",
          "name": "burnAddress",
          "type": "address"
        },
        {
          "indexed": false,
          "internalType": "uint256",
          "name": "pethAmountToBurn",
          "type": "uint256"
        }
      ],
      "name": "LogPunish",
      "type": "event"
    },
    {
      "anonymous": false,
      "inputs": [
        {
          "indexed": false,
          "internalType": "uint256",
          "name": "pEthAmount",
          "type": "uint256"
        }
      ],
      "name": "LogReceiveInsurance",
      "type": "event"
    },
    {
      "anonymous": false,
      "inputs": [
        {
          "indexed": false,
          "internalType": "uint256",
          "name": "ethAmount",
          "type": "uint256"
        }
      ],
      "name": "LogReceiveRewards",
      "type": "event"
    },
    {
      "anonymous": false,
      "inputs": [
        {
          "indexed": true,
          "internalType": "address",
          "name": "staker",
          "type": "address"
        },
        {
          "indexed": false,
          "internalType": "uint256",
          "name": "ethAmount",
          "type": "uint256"
        }
      ],
      "name": "LogStake",
      "type": "event"
    },
    {
      "anonymous": false,
      "inputs": [
        {
          "indexed": false,
          "internalType": "uint256",
          "name": "epochId",
          "type": "uint256"
        },
        {
          "indexed": false,
          "internalType": "uint256",
          "name": "preTotalEther",
          "type": "uint256"
        },
        {
          "indexed": false,
          "internalType": "uint256",
          "name": "preTotalPEth",
          "type": "uint256"
        },
        {
          "indexed": false,
          "internalType": "uint256",
          "name": "postTotalEther",
          "type": "uint256"
        },
        {
          "indexed": false,
          "internalType": "uint256",
          "name": "postTotalPEth",
          "type": "uint256"
        }
      ],
      "name": "LogTokenRebase",
      "type": "event"
    },
    {
      "anonymous": false,
      "inputs": [
        {
          "indexed": true,
          "internalType": "address",
          "name": "from",
          "type": "address"
        },
        {
          "indexed": true,
          "internalType": "address",
          "name": "to",
          "type": "address"
        },
        {
          "indexed": false,
          "internalType": "uint256",
          "name": "value",
          "type": "uint256"
        }
      ],
      "name": "Transfer",
      "type": "event"
    },
    {
      "inputs": [],
      "name": "DEPOSIT_VALUE_PER_VALIDATOR",
      "outputs": [
        {
          "internalType": "uint256",
          "name": "",
          "type": "uint256"
        }
      ],
      "stateMutability": "view",
      "type": "function"
    },
    {
      "inputs": [],
      "name": "DOMAIN_SEPARATOR",
      "outputs": [
        {
          "internalType": "bytes32",
          "name": "",
          "type": "bytes32"
        }
      ],
      "stateMutability": "view",
      "type": "function"
    },
    {
      "inputs": [],
      "name": "POST_DEPOSIT_VALUE",
      "outputs": [
        {
          "internalType": "uint256",
          "name": "",
          "type": "uint256"
        }
      ],
      "stateMutability": "view",
      "type": "function"
    },
    {
      "inputs": [],
      "name": "PRE_DEPOSIT_VALUE",
      "outputs": [
        {
          "internalType": "uint256",
          "name": "",
          "type": "uint256"
        }
      ],
      "stateMutability": "view",
      "type": "function"
    },
    {
      "inputs": [
        {
          "internalType": "address",
          "name": "operator",
          "type": "address"
        },
        {
          "internalType": "bytes",
          "name": "pubkey",
          "type": "bytes"
        },
        {
          "internalType": "bytes",
          "name": "signature",
          "type": "bytes"
        }
      ],
      "name": "activateValidator",
      "outputs": [],
      "stateMutability": "nonpayable",
      "type": "function"
    },
    {
      "inputs": [
        {
          "internalType": "address",
          "name": "owner",
          "type": "address"
        },
        {
          "internalType": "address",
          "name": "spender",
          "type": "address"
        }
      ],
      "name": "allowance",
      "outputs": [
        {
          "internalType": "uint256",
          "name": "",
          "type": "uint256"
        }
      ],
      "stateMutability": "view",
      "type": "function"
    },
    {
      "inputs": [
        {
          "internalType": "address",
          "name": "spender",
          "type": "address"
        },
        {
          "internalType": "uint256",
          "name": "amount",
          "type": "uint256"
        }
      ],
      "name": "approve",
      "outputs": [
        {
          "internalType": "bool",
          "name": "",
          "type": "bool"
        }
      ],
      "stateMutability": "nonpayable",
      "type": "function"
    },
    {
      "inputs": [
        {
          "internalType": "address",
          "name": "account",
          "type": "address"
        }
      ],
      "name": "balanceOf",
      "outputs": [
        {
          "internalType": "uint256",
          "name": "",
          "type": "uint256"
        }
      ],
      "stateMutability": "view",
      "type": "function"
    },
    {
      "inputs": [],
      "name": "decimals",
      "outputs": [
        {
          "internalType": "uint8",
          "name": "",
          "type": "uint8"
        }
      ],
      "stateMutability": "view",
      "type": "function"
    },
    {
      "inputs": [
        {
          "internalType": "address",
          "name": "spender",
          "type": "address"
        },
        {
          "internalType": "uint256",
          "name": "subtractedValue",
          "type": "uint256"
        }
      ],
      "name": "decreaseAllowance",
      "outputs": [
        {
          "internalType": "bool",
          "name": "",
          "type": "bool"
        }
      ],
      "stateMutability": "nonpayable",
      "type": "function"
    },
    {
      "inputs": [],
      "name": "getBeaconStat",
      "outputs": [
        {
          "internalType": "uint256",
          "name": "preDepositValidators",
          "type": "uint256"
        },
        {
          "internalType": "uint256",
          "name": "depositedValidators",
          "type": "uint256"
        },
        {
          "internalType": "uint256",
          "name": "beaconValidators",
          "type": "uint256"
        },
        {
          "internalType": "uint256",
          "name": "beaconBalance",
          "type": "uint256"
        }
      ],
      "stateMutability": "view",
      "type": "function"
    },
    {
      "inputs": [],
      "name": "getBufferedEther",
      "outputs": [
        {
          "internalType": "uint256",
          "name": "",
          "type": "uint256"
        }
      ],
      "stateMutability": "view",
      "type": "function"
    },
    {
      "inputs": [
        {
          "internalType": "uint256",
          "name": "pEthAmount",
          "type": "uint256"
        }
      ],
      "name": "getEtherByPEth",
      "outputs": [
        {
          "internalType": "uint256",
          "name": "",
          "type": "uint256"
        }
      ],
      "stateMutability": "view",
      "type": "function"
    },
    {
      "inputs": [
        {
          "internalType": "uint256",
          "name": "ethAmount",
          "type": "uint256"
        }
      ],
      "name": "getPEthByEther",
      "outputs": [
        {
          "internalType": "uint256",
          "name": "",
          "type": "uint256"
        }
      ],
      "stateMutability": "view",
      "type": "function"
    },
    {
      "inputs": [],
      "name": "getTotalPooledEther",
      "outputs": [
        {
          "internalType": "uint256",
          "name": "",
          "type": "uint256"
        }
      ],
      "stateMutability": "view",
      "type": "function"
    },
    {
      "inputs": [],
      "name": "getWithdrawalCredentials",
      "outputs": [
        {
          "internalType": "bytes32",
          "name": "",
          "type": "bytes32"
        }
      ],
      "stateMutability": "view",
      "type": "function"
    },
    {
      "inputs": [
        {
          "internalType": "uint256",
          "name": "epochId",
          "type": "uint256"
        },
        {
          "internalType": "uint256",
          "name": "beaconValidators",
          "type": "uint256"
        },
        {
          "internalType": "uint256",
          "name": "beaconBalance",
          "type": "uint256"
        },
        {
          "internalType": "uint256",
          "name": "availableRewards",
          "type": "uint256"
        },
        {
          "internalType": "uint256",
          "name": "exitedValidators",
          "type": "uint256"
        },
        {
          "internalType": "uint256",
          "name": "burnedPEthAmount",
          "type": "uint256"
        },
        {
          "internalType": "uint256",
          "name": "lastRequestIdToBeFulfilled",
          "type": "uint256"
        },
        {
          "internalType": "uint256",
          "name": "ethAmountToLock",
          "type": "uint256"
        }
      ],
      "name": "handleOracleReport",
      "outputs": [],
      "stateMutability": "nonpayable",
      "type": "function"
    },
    {
      "inputs": [
        {
          "internalType": "address",
          "name": "spender",
          "type": "address"
        },
        {
          "internalType": "uint256",
          "name": "addedValue",
          "type": "uint256"
        }
      ],
      "name": "increaseAllowance",
      "outputs": [
        {
          "internalType": "bool",
          "name": "",
          "type": "bool"
        }
      ],
      "stateMutability": "nonpayable",
      "type": "function"
    },
    {
      "inputs": [],
      "name": "name",
      "outputs": [
        {
          "internalType": "string",
          "name": "",
          "type": "string"
        }
      ],
      "stateMutability": "view",
      "type": "function"
    },
    {
      "inputs": [
        {
          "internalType": "address",
          "name": "owner",
          "type": "address"
        }
      ],
      "name": "nonces",
      "outputs": [
        {
          "internalType": "uint256",
          "name": "",
          "type": "uint256"
        }
      ],
      "stateMutability": "view",
      "type": "function"
    },
    {
      "inputs": [
        {
          "internalType": "address",
          "name": "owner",
          "type": "address"
        },
        {
          "internalType": "address",
          "name": "spender",
          "type": "address"
        },
        {
          "internalType": "uint256",
          "name": "value",
          "type": "uint256"
        },
        {
          "internalType": "uint256",
          "name": "deadline",
          "type": "uint256"
        },
        {
          "internalType": "uint8",
          "name": "v",
          "type": "uint8"
        },
        {
          "internalType": "bytes32",
          "name": "r",
          "type": "bytes32"
        },
        {
          "internalType": "bytes32",
          "name": "s",
          "type": "bytes32"
        }
      ],
      "name": "permit",
      "outputs": [],
      "stateMutability": "nonpayable",
      "type": "function"
    },
    {
      "inputs": [
        {
          "internalType": "address",
          "name": "operator",
          "type": "address"
        },
        {
          "internalType": "bytes",
          "name": "pubkey",
          "type": "bytes"
        },
        {
          "internalType": "bytes",
          "name": "signature",
          "type": "bytes"
        }
      ],
      "name": "preActivateValidator",
      "outputs": [],
      "stateMutability": "nonpayable",
      "type": "function"
    },
    {
      "inputs": [
        {
          "internalType": "uint256",
          "name": "beaconValidators",
          "type": "uint256"
        },
        {
          "internalType": "uint256",
          "name": "beaconBalance",
          "type": "uint256"
        },
        {
          "internalType": "uint256",
          "name": "availableRewards",
          "type": "uint256"
        },
        {
          "internalType": "uint256",
          "name": "exitedValidators",
          "type": "uint256"
        }
      ],
      "name": "preCalculateExchangeRate",
      "outputs": [
        {
          "internalType": "uint256",
          "name": "totalEther",
          "type": "uint256"
        },
        {
          "internalType": "uint256",
          "name": "totalPEth",
          "type": "uint256"
        }
      ],
      "stateMutability": "view",
      "type": "function"
    },
    {
      "inputs": [
        {
          "internalType": "address",
          "name": "burnAddress",
          "type": "address"
        },
        {
          "internalType": "uint256",
          "name": "pethAmountToBurn",
          "type": "uint256"
        },
        {
          "internalType": "uint256",
          "name": "ethAmountToDecrease",
          "type": "uint256"
        }
      ],
      "name": "punish",
      "outputs": [],
      "stateMutability": "nonpayable",
      "type": "function"
    },
    {
      "inputs": [
        {
          "internalType": "address",
          "name": "burnAddress",
          "type": "address"
        },
        {
          "internalType": "uint256",
          "name": "pethAmountToBurn",
          "type": "uint256"
        }
      ],
      "name": "punish",
      "outputs": [],
      "stateMutability": "nonpayable",
      "type": "function"
    },
    {
      "inputs": [
        {
          "internalType": "uint256",
          "name": "pEthAmount",
          "type": "uint256"
        }
      ],
      "name": "receiveFromInsurance",
      "outputs": [],
      "stateMutability": "nonpayable",
      "type": "function"
    },
    {
      "inputs": [],
      "name": "receiveRewards",
      "outputs": [],
      "stateMutability": "payable",
      "type": "function"
    },
    {
      "inputs": [],
      "name": "stake",
      "outputs": [
        {
          "internalType": "uint256",
          "name": "",
          "type": "uint256"
        }
      ],
      "stateMutability": "payable",
      "type": "function"
    },
    {
      "inputs": [],
      "name": "symbol",
      "outputs": [
        {
          "internalType": "string",
          "name": "",
          "type": "string"
        }
      ],
      "stateMutability": "view",
      "type": "function"
    },
    {
      "inputs": [],
      "name": "totalSupply",
      "outputs": [
        {
          "internalType": "uint256",
          "name": "",
          "type": "uint256"
        }
      ],
      "stateMutability": "view",
      "type": "function"
    },
    {
      "inputs": [
        {
          "internalType": "address",
          "name": "to",
          "type": "address"
        },
        {
          "internalType": "uint256",
          "name": "amount",
          "type": "uint256"
        }
      ],
      "name": "transfer",
      "outputs": [
        {
          "internalType": "bool",
          "name": "",
          "type": "bool"
        }
      ],
      "stateMutability": "nonpayable",
      "type": "function"
    },
    {
      "inputs": [
        {
          "internalType": "address",
          "name": "from",
          "type": "address"
        },
        {
          "internalType": "address",
          "name": "to",
          "type": "address"
        },
        {
          "internalType": "uint256",
          "name": "amount",
          "type": "uint256"
        }
      ],
      "name": "transferFrom",
      "outputs": [
        {
          "internalType": "bool",
          "name": "",
          "type": "bool"
        }
      ],
      "stateMutability": "nonpayable",
      "type": "function"
    },
    {
      "stateMutability": "payable",
      "type": "receive"
    }
  ],
  "bytecode": "0x610140604052600780546001600160a01b03191690553480156200002257600080fd5b50604051620048de380380620048de83398101604081905262000045916200019f565b80604051806040016040528060048152602001630e08aa8960e31b81525080604051806040016040528060018152602001603160f81b8152506040518060400160405280600d81526020016c088c2eedc40a0deded8408aa89609b1b815250604051806040016040528060048152602001630e08aa8960e31b8152508160039081620000d2919062000276565b506004620000e1828262000276565b5050825160208085019190912083518483012060e08290526101008190524660a0818152604080517f8b73c3c69bb8fe3d512ecc4cf759cc79239f7b179b0ffacaa9a75d522b39400f81880181905281830187905260608201869052608082019490945230818401528151808203909301835260c0019052805194019390932091935091906080523060c052610120525050600780546001600160a01b0319166001600160a01b039590951694909417909355506200034292505050565b600060208284031215620001b257600080fd5b81516001600160a01b0381168114620001ca57600080fd5b9392505050565b634e487b7160e01b600052604160045260246000fd5b600181811c90821680620001fc57607f821691505b6020821081036200021d57634e487b7160e01b600052602260045260246000fd5b50919050565b601f8211156200027157600081815260208120601f850160051c810160208610156200024c5750805b601f850160051c820191505b818110156200026d5782815560010162000258565b5050505b505050565b81516001600160401b03811115620002925762000292620001d1565b620002aa81620002a38454620001e7565b8462000223565b602080601f831160018114620002e25760008415620002c95750858301515b600019600386901b1c1916600185901b1785556200026d565b600085815260208120601f198616915b828110156200031357888601518255948401946001909101908401620002f2565b5085821015620003325787850151600019600388901b60f8161c191681555b5050505050600190811b01905550565b60805160a05160c05160e051610100516101205161454c620003926000396000612b2501526000612b7401526000612b4f01526000612aa801526000612ad201526000612afc015261454c6000f3fe6080604052600436106101e75760003560e01c806361d1266c11610102578063a9059cbb11610095578063bd7ef16d11610064578063bd7ef16d14610571578063d505accf1461058d578063d8e423b2146105ad578063dd62ed3e146105cd57600080fd5b8063a9059cbb146104dc578063ae2e3538146104fc578063afe2621f14610531578063b6460fb51461055157600080fd5b80637ecebe00116100d15780637ecebe001461046a57806395d89b411461048a578063a457c2d71461049f578063a73a8e65146104bf57600080fd5b806361d1266c146103df578063631cbe3c146103ff57806366f8cc621461040757806370a082311461042757600080fd5b80633644e5151161017a5780634260300311610149578063426030031461037557806347b714e0146103955780634f5d1263146103aa57806356396715146103ca57600080fd5b80633644e5151461032357806337cfdaca14610338578063395093511461034d5780633a4b66f11461036d57600080fd5b806323b872dd116101b657806323b872dd146102955780632ba428cb146102b5578063313ce567146102ea578063361b55d91461030657600080fd5b806306fdde03146101fb578063095ea7b314610226578063130b73bf1461025657806318160ddd1461027657600080fd5b366101f6576101f4610620565b005b600080fd5b34801561020757600080fd5b50610210610717565b60405161021d9190613e14565b60405180910390f35b34801561023257600080fd5b50610246610241366004613e49565b6107a9565b604051901515815260200161021d565b34801561026257600080fd5b506101f4610271366004613e75565b6107c3565b34801561028257600080fd5b506002545b60405190815260200161021d565b3480156102a157600080fd5b506102466102b0366004613eaa565b61091d565b3480156102c157600080fd5b506102d56102d0366004613eeb565b610941565b6040805192835260208301919091520161021d565b3480156102f657600080fd5b506040516012815260200161021d565b34801561031257600080fd5b506102876801ae361fc1451c000081565b34801561032f57600080fd5b50610287610b70565b34801561034457600080fd5b50610287610b7f565b34801561035957600080fd5b50610246610368366004613e49565b610b89565b610287610bd5565b34801561038157600080fd5b506101f4610390366004613f1d565b610bdf565b3480156103a157600080fd5b50610287610d2e565b3480156103b657600080fd5b506102876103c5366004613f1d565b610d59565b3480156103d657600080fd5b50610287610d9a565b3480156103eb57600080fd5b506101f46103fa366004613f7f565b610da4565b6101f46110f7565b34801561041357600080fd5b506101f4610422366004613f7f565b611156565b34801561043357600080fd5b50610287610442366004614002565b73ffffffffffffffffffffffffffffffffffffffff1660009081526020819052604090205490565b34801561047657600080fd5b50610287610485366004614002565b611467565b34801561049657600080fd5b50610210611492565b3480156104ab57600080fd5b506102466104ba366004613e49565b6114a1565b3480156104cb57600080fd5b506102876801bc16d674ec80000081565b3480156104e857600080fd5b506102466104f7366004613e49565b611572565b34801561050857600080fd5b50610511611580565b60408051948552602085019390935291830152606082015260800161021d565b34801561053d57600080fd5b506101f461054c36600461401f565b611637565b34801561055d57600080fd5b5061028761056c366004613f1d565b611c48565b34801561057d57600080fd5b50610287670de0b6b3a764000081565b34801561059957600080fd5b506101f46105a8366004614074565b611c71565b3480156105b957600080fd5b506101f46105c8366004613e49565b611e30565b3480156105d957600080fd5b506102876105e83660046140eb565b73ffffffffffffffffffffffffffffffffffffffff918216600090815260016020908152604080832093909416825291909152205490565b600034600003610691576040517f08c379a000000000000000000000000000000000000000000000000000000000815260206004820152601060248201527f5354414b455f5a45524f5f45544845520000000000000000000000000000000060448201526064015b60405180910390fd5b600061069c34610d59565b9050806000036106a95750345b6106b33382611f10565b6106dd7f341ddcafa8194c936a615f6da6d5b805b69e7968f858d37a246557ae89c0b10734612003565b60405134815233907f3dbdcfd4c1f2e08931aae3d544e149a1e643143f5234d166fe3debb7833884959060200160405180910390a2919050565b60606003805461072690614124565b80601f016020809104026020016040519081016040528092919081815260200182805461075290614124565b801561079f5780601f106107745761010080835404028352916020019161079f565b820191906000526020600020905b81548152906001019060200180831161078257829003601f168201915b5050505050905090565b6000336107b7818585612093565b60019150505b92915050565b6108016040518060400160405280601281526020017f4465706f7369744e6f64654d616e616765720000000000000000000000000000815250612247565b73ffffffffffffffffffffffffffffffffffffffff163373ffffffffffffffffffffffffffffffffffffffff1614610895576040517f08c379a000000000000000000000000000000000000000000000000000000000815260206004820152601860248201527f4f6e6c792063616c6c206279206e6f64654d616e6167657200000000000000006044820152606401610688565b61089f83836122f8565b6108c97f3fc597f1b7beb62cf3766ffcf3c9b47c1969394fb25b999a9ae4e21357178c5282612003565b6040805173ffffffffffffffffffffffffffffffffffffffff85168152602081018390527f78695245dea93a5b8a8d4291442395da1c7bb157b9ca7a45c05dd1deef2a43e6910160405180910390a1505050565b60003361092b85828561255e565b610936858585612635565b506001949350505050565b600080610a2b6109707f3fc597f1b7beb62cf3766ffcf3c9b47c1969394fb25b999a9ae4e21357178c526128a4565b6109ee6109ad670de0b6b3a76400006109a77e882f9dbc877242cea5e51b33b650bdc9bc6abdf4c3510a76084e9c3c033e786128a4565b90612938565b610a256109f46801bc16d674ec8000006109a78d6109ee8c6109ee7f0904604e7b52344a1cae14966ec1b6b446e7e01bbd34ed33c4ad6a30d44ea51e6128a4565b9061294b565b610a258b610a258c610a257f341ddcafa8194c936a615f6da6d5b805b69e7968f858d37a246557ae89c0b1076128a4565b90612957565b91506000610aab610aa1610a786801bc16d674ec8000006109a7610a6e7f03c77f053088a575b9521a248e6981814a26c03c87460d925a0c240e5d2ef5a06128a4565b6109ee8d8b612957565b610a257fbe8bf3644b3762cbffde125986a23a91ade7fddbc3442d865d5aaf508cda18c66128a4565b6109ee8888612957565b90506000610ab7612963565b90506000610ac460025490565b90506000610b55610b19610b0d610b06610afd7f705fe20ed35e7cce1159f49c90f9dab5c5ed67a8790e40ec4869b3d6be323b2b6128a4565b6127109061294b565b8790612938565b610a2586612710612938565b610b4f610b457f705fe20ed35e7cce1159f49c90f9dab5c5ed67a8790e40ec4869b3d6be323b2b6128a4565b6109a78689612938565b90612a82565b9050610b6181836141a0565b94505050505094509492505050565b6000610b7a612a8e565b905090565b6000610b7a612963565b33600081815260016020908152604080832073ffffffffffffffffffffffffffffffffffffffff871684529091528120549091906107b79082908690610bd09087906141a0565b612093565b6000610b7a610620565b610c1d6040518060400160405280600d81526020017f4461776e496e737572616e636500000000000000000000000000000000000000815250612247565b73ffffffffffffffffffffffffffffffffffffffff163373ffffffffffffffffffffffffffffffffffffffff1614610cb1576040517f08c379a000000000000000000000000000000000000000000000000000000000815260206004820152601a60248201527f72656365697665206e6f742066726f6d20696e737572616e63650000000000006044820152606401610688565b610cf8610cf26040518060400160405280600d81526020017f4461776e496e737572616e636500000000000000000000000000000000000000815250612247565b82612bc2565b6040518181527f1fde49cb3db550a66f48bcd7c36f44448ed1a63a3ae9c4a9dffd4b1db60753309060200160405180910390a150565b6000610b7a7f341ddcafa8194c936a615f6da6d5b805b69e7968f858d37a246557ae89c0b1076128a4565b600080610d64612963565b905080600003610d775750600092915050565b6000610d8260025490565b9050610d9282610b4f8387612938565b949350505050565b6000610b7a612d7e565b84600080610de66040518060400160405280601281526020017f4465706f7369744e6f64654d616e616765720000000000000000000000000000815250612247565b6040517f0e2c0b1000000000000000000000000000000000000000000000000000000000815273ffffffffffffffffffffffffffffffffffffffff85811660048301529190911690630e2c0b10906024016040805180830381865afa158015610e53573d6000803e3d6000fd5b505050506040513d601f19601f82011682018060405250810190610e7791906141b3565b90925090503373ffffffffffffffffffffffffffffffffffffffff831614610f21576040517f08c379a000000000000000000000000000000000000000000000000000000000815260206004820152602b60248201527f4f6e6c79206e6f6465206f70657261746f722063616e2072656769737465722060448201527f76616c696461746f7273210000000000000000000000000000000000000000006064820152608401610688565b80610f88576040517f08c379a000000000000000000000000000000000000000000000000000000000815260206004820152601a60248201527f4e6f6465206f70657261746f7220697320696e616374697665210000000000006044820152606401610688565b6801ae361fc1451c0000471015610ffb576040517f08c379a000000000000000000000000000000000000000000000000000000000815260206004820152601760248201527f627566666572206574686572206e6f7420656e6f7567680000000000000000006044820152606401610688565b6000611005612d7e565b905061101e88888389896801ae361fc1451c0000612e37565b6110497f0904604e7b52344a1cae14966ec1b6b446e7e01bbd34ed33c4ad6a30d44ea51e6001612003565b6110737e882f9dbc877242cea5e51b33b650bdc9bc6abdf4c3510a76084e9c3c033e786001613308565b6110a67f341ddcafa8194c936a615f6da6d5b805b69e7968f858d37a246557ae89c0b1076801ae361fc1451c0000613308565b7fb629260c74cea5e1861205e59a2b203e2dc93870354ed627176fd86bc6e30d408989896801ae361fc1451c00006040516110e49493929190614230565b60405180910390a1505050505050505050565b6111217f341ddcafa8194c936a615f6da6d5b805b69e7968f858d37a246557ae89c0b10734612003565b6040513481527f0a54722b21b0f3a3bb18e77037f7705e2281aad44eef25231f961464cc619a6a9060200160405180910390a1565b846000806111986040518060400160405280601281526020017f4465706f7369744e6f64654d616e616765720000000000000000000000000000815250612247565b6040517f0e2c0b1000000000000000000000000000000000000000000000000000000000815273ffffffffffffffffffffffffffffffffffffffff85811660048301529190911690630e2c0b10906024016040805180830381865afa158015611205573d6000803e3d6000fd5b505050506040513d601f19601f8201168201806040525081019061122991906141b3565b90925090503373ffffffffffffffffffffffffffffffffffffffff8316146112d3576040517f08c379a000000000000000000000000000000000000000000000000000000000815260206004820152602b60248201527f4f6e6c79206e6f6465206f70657261746f722063616e2072656769737465722060448201527f76616c696461746f7273210000000000000000000000000000000000000000006064820152608401610688565b8061133a576040517f08c379a000000000000000000000000000000000000000000000000000000000815260206004820152601a60248201527f4e6f6465206f70657261746f7220697320696e616374697665210000000000006044820152606401610688565b670de0b6b3a76400004710156113ac576040517f08c379a000000000000000000000000000000000000000000000000000000000815260206004820152601760248201527f627566666572206574686572206e6f7420656e6f7567680000000000000000006044820152606401610688565b60006113b6612d7e565b90506113ce8888838989670de0b6b3a7640000612e37565b6113f87e882f9dbc877242cea5e51b33b650bdc9bc6abdf4c3510a76084e9c3c033e786001612003565b61142a7f341ddcafa8194c936a615f6da6d5b805b69e7968f858d37a246557ae89c0b107670de0b6b3a7640000613308565b7f8ad7785cb6530f76bdd547c0d530e0129b62aa92411aa6825d4c560bfee1e3a3898989670de0b6b3a76400006040516110e49493929190614230565b73ffffffffffffffffffffffffffffffffffffffff81166000908152600560205260408120546107bd565b60606004805461072690614124565b33600081815260016020908152604080832073ffffffffffffffffffffffffffffffffffffffff8716845290915281205490919083811015611565576040517f08c379a000000000000000000000000000000000000000000000000000000000815260206004820152602560248201527f45524332303a2064656372656173656420616c6c6f77616e63652062656c6f7760448201527f207a65726f0000000000000000000000000000000000000000000000000000006064820152608401610688565b6109368286868403612093565b6000336107b7818585612635565b6000806000806115ae7e882f9dbc877242cea5e51b33b650bdc9bc6abdf4c3510a76084e9c3c033e786128a4565b93506115d97f0904604e7b52344a1cae14966ec1b6b446e7e01bbd34ed33c4ad6a30d44ea51e6128a4565b92506116047f03c77f053088a575b9521a248e6981814a26c03c87460d925a0c240e5d2ef5a06128a4565b915061162f7fbe8bf3644b3762cbffde125986a23a91ade7fddbc3442d865d5aaf508cda18c66128a4565b905090919293565b6116756040518060400160405280600e81526020017f4461776e506f6f6c4f7261636c65000000000000000000000000000000000000815250612247565b73ffffffffffffffffffffffffffffffffffffffff163373ffffffffffffffffffffffffffffffffffffffff1614611709576040517f08c379a000000000000000000000000000000000000000000000000000000000815260206004820152601b60248201527f6f6e6c792063616c6c206279204461776e506f6f6c4f7261636c6500000000006044820152606401610688565b6117327f0904604e7b52344a1cae14966ec1b6b446e7e01bbd34ed33c4ad6a30d44ea51e6128a4565b61173c85896141a0565b11156117ca576040517f08c379a000000000000000000000000000000000000000000000000000000000815260206004820152603260248201527f696e76616c696420706172616d733a20626561636f6e56616c696461746f727360448201527f2c2065786974656456616c696461746f727300000000000000000000000000006064820152608401610688565b6118086040518060400160405280600c81526020017f526577617264735661756c740000000000000000000000000000000000000000815250612247565b73ffffffffffffffffffffffffffffffffffffffff16318511156118ae576040517f08c379a000000000000000000000000000000000000000000000000000000000815260206004820152602160248201527f526577617264735661756c7420696e73756666696369656e742062616c616e6360448201527f65000000000000000000000000000000000000000000000000000000000000006064820152608401610688565b6118f4610a786801bc16d674ec8000006109a76118ea7f03c77f053088a575b9521a248e6981814a26c03c87460d925a0c240e5d2ef5a06128a4565b6109ee8c8a612957565b6118fe8787612957565b11611965576040517f08c379a000000000000000000000000000000000000000000000000000000000815260206004820152600c60248201527f756e70726f66697461626c6500000000000000000000000000000000000000006044820152606401610688565b60006119ba6119b0610a786801bc16d674ec8000006109a76119a67f03c77f053088a575b9521a248e6981814a26c03c87460d925a0c240e5d2ef5a06128a4565b6109ee8e8c612957565b6109ee8989612957565b905060006119c6612963565b905060006119d360025490565b90507fa92de0e3ab48f5b5761ef0076086acab633685a5d4b5800d3a2978690f2ca3a08b611a207fbe8bf3644b3762cbffde125986a23a91ade7fddbc3442d865d5aaf508cda18c66128a4565b60408051928352602083019190915281018b9052606081018a905260800160405180910390a1611a707f03c77f053088a575b9521a248e6981814a26c03c87460d925a0c240e5d2ef5a08b613366565b611a9a7fbe8bf3644b3762cbffde125986a23a91ade7fddbc3442d865d5aaf508cda18c68a613366565b611ac47f0904604e7b52344a1cae14966ec1b6b446e7e01bbd34ed33c4ad6a30d44ea51e88613308565b8715611b7557611b086040518060400160405280600c81526020017f526577617264735661756c740000000000000000000000000000000000000000815250612247565b73ffffffffffffffffffffffffffffffffffffffff16639342c8f4896040518263ffffffff1660e01b8152600401611b4291815260200190565b600060405180830381600087803b158015611b5c57600080fd5b505af1158015611b70573d6000803e3d6000fd5b505050505b6000611bac610b19610b0d610b06610afd7f705fe20ed35e7cce1159f49c90f9dab5c5ed67a8790e40ec4869b3d6be323b2b6128a4565b9050611bb83082611f10565b611bc1816133c4565b7f86237457616f971c15dde9cb79b7a30c5951b53b5cf9d82ffee650eec4923c2f8c8484611bed612963565b600254604080519586526020860194909452928401919091526060830152608082015260a00160405180910390a18415611c2b57611c2b8686613493565b8615611c3a57611c3a876136c3565b505050505050505050505050565b600080611c5460025490565b905080600003611c675750600092915050565b6000610d82612963565b83421115611cdb576040517f08c379a000000000000000000000000000000000000000000000000000000000815260206004820152601d60248201527f45524332305065726d69743a206578706972656420646561646c696e650000006044820152606401610688565b60007f6e71edae12b1b97f4d1f60370fef10105fa2faae0126114a169c64845d6126c9888888611d0a8c6137fd565b60408051602081019690965273ffffffffffffffffffffffffffffffffffffffff94851690860152929091166060840152608083015260a082015260c0810186905260e0016040516020818303038152906040528051906020012090506000611d7282613832565b90506000611d828287878761389b565b90508973ffffffffffffffffffffffffffffffffffffffff168173ffffffffffffffffffffffffffffffffffffffff1614611e19576040517f08c379a000000000000000000000000000000000000000000000000000000000815260206004820152601e60248201527f45524332305065726d69743a20696e76616c6964207369676e617475726500006044820152606401610688565b611e248a8a8a612093565b50505050505050505050565b611e6e6040518060400160405280601281526020017f4465706f7369744e6f64654d616e616765720000000000000000000000000000815250612247565b73ffffffffffffffffffffffffffffffffffffffff163373ffffffffffffffffffffffffffffffffffffffff1614611f02576040517f08c379a000000000000000000000000000000000000000000000000000000000815260206004820152601860248201527f4f6e6c792063616c6c206279206e6f64654d616e6167657200000000000000006044820152606401610688565b611f0c82826122f8565b5050565b73ffffffffffffffffffffffffffffffffffffffff8216611f8d576040517f08c379a000000000000000000000000000000000000000000000000000000000815260206004820152601f60248201527f45524332303a206d696e7420746f20746865207a65726f2061646472657373006044820152606401610688565b8060026000828254611f9f91906141a0565b909155505073ffffffffffffffffffffffffffffffffffffffff8216600081815260208181526040808320805486019055518481527fddf252ad1be2c89b69c2b068fc378daa952ba7f163c4a11628f55a4df523b3ef910160405180910390a35050565b6007546040517fadb353dc000000000000000000000000000000000000000000000000000000008152600481018490526024810183905273ffffffffffffffffffffffffffffffffffffffff9091169063adb353dc906044015b600060405180830381600087803b15801561207757600080fd5b505af115801561208b573d6000803e3d6000fd5b505050505050565b73ffffffffffffffffffffffffffffffffffffffff8316612135576040517f08c379a0000000000000000000000000000000000000000000000000000000008152602060048201526024808201527f45524332303a20617070726f76652066726f6d20746865207a65726f2061646460448201527f72657373000000000000000000000000000000000000000000000000000000006064820152608401610688565b73ffffffffffffffffffffffffffffffffffffffff82166121d8576040517f08c379a000000000000000000000000000000000000000000000000000000000815260206004820152602260248201527f45524332303a20617070726f766520746f20746865207a65726f20616464726560448201527f73730000000000000000000000000000000000000000000000000000000000006064820152608401610688565b73ffffffffffffffffffffffffffffffffffffffff83811660008181526001602090815260408083209487168084529482529182902085905590518481527f8c5be1e5ebec7d5bd14f71427d1e84f3dd0314c0f7b2291e5b200ac8c7c3b92591015b60405180910390a3505050565b6000806122798360405160200161225e9190614271565b604051602081830303815290604052805190602001206138c3565b905073ffffffffffffffffffffffffffffffffffffffff81166107bd576040517f08c379a000000000000000000000000000000000000000000000000000000000815260206004820152601260248201527f436f6e7472616374206e6f7420666f756e6400000000000000000000000000006044820152606401610688565b80600003612332576040517f97b9d4c400000000000000000000000000000000000000000000000000000000815260040160405180910390fd5b6040517f70a0823100000000000000000000000000000000000000000000000000000000815273ffffffffffffffffffffffffffffffffffffffff83166004820152819030906370a0823190602401602060405180830381865afa15801561239e573d6000803e3d6000fd5b505050506040513d601f19601f820116820180604052508101906123c291906142b6565b10156123fa576040517fa8bcec3e00000000000000000000000000000000000000000000000000000000815260040160405180910390fd5b6124428261243c6040518060400160405280600681526020017f4275726e65720000000000000000000000000000000000000000000000000000815250612247565b83612635565b6124806040518060400160405280600681526020017f4275726e65720000000000000000000000000000000000000000000000000000815250612247565b6040517ff22755d600000000000000000000000000000000000000000000000000000000815273ffffffffffffffffffffffffffffffffffffffff848116600483015260248201849052919091169063f22755d690604401600060405180830381600087803b1580156124f257600080fd5b505af1158015612506573d6000803e3d6000fd5b50506040805173ffffffffffffffffffffffffffffffffffffffff86168152602081018590527f221b27e1882df41842823342c6cd01b7e60161c390c08c83d8b5a2712448352b935001905060405180910390a15050565b73ffffffffffffffffffffffffffffffffffffffff8381166000908152600160209081526040808320938616835292905220547fffffffffffffffffffffffffffffffffffffffffffffffffffffffffffffffff811461262f5781811015612622576040517f08c379a000000000000000000000000000000000000000000000000000000000815260206004820152601d60248201527f45524332303a20696e73756666696369656e7420616c6c6f77616e63650000006044820152606401610688565b61262f8484848403612093565b50505050565b73ffffffffffffffffffffffffffffffffffffffff83166126d8576040517f08c379a000000000000000000000000000000000000000000000000000000000815260206004820152602560248201527f45524332303a207472616e736665722066726f6d20746865207a65726f20616460448201527f64726573730000000000000000000000000000000000000000000000000000006064820152608401610688565b73ffffffffffffffffffffffffffffffffffffffff821661277b576040517f08c379a000000000000000000000000000000000000000000000000000000000815260206004820152602360248201527f45524332303a207472616e7366657220746f20746865207a65726f206164647260448201527f65737300000000000000000000000000000000000000000000000000000000006064820152608401610688565b73ffffffffffffffffffffffffffffffffffffffff831660009081526020819052604090205481811015612831576040517f08c379a000000000000000000000000000000000000000000000000000000000815260206004820152602660248201527f45524332303a207472616e7366657220616d6f756e742065786365656473206260448201527f616c616e636500000000000000000000000000000000000000000000000000006064820152608401610688565b73ffffffffffffffffffffffffffffffffffffffff848116600081815260208181526040808320878703905593871680835291849020805487019055925185815290927fddf252ad1be2c89b69c2b068fc378daa952ba7f163c4a11628f55a4df523b3ef910160405180910390a361262f565b6007546040517fbd02d0f50000000000000000000000000000000000000000000000000000000081526004810183905260009173ffffffffffffffffffffffffffffffffffffffff169063bd02d0f590602401602060405180830381865afa158015612914573d6000803e3d6000fd5b505050506040513d601f19601f820116820180604052508101906107bd91906142b6565b600061294482846142cf565b9392505050565b600061294482846142e6565b600061294482846141a0565b6000610b7a6129917f3fc597f1b7beb62cf3766ffcf3c9b47c1969394fb25b999a9ae4e21357178c526128a4565b6109ee6129c8670de0b6b3a76400006109a77e882f9dbc877242cea5e51b33b650bdc9bc6abdf4c3510a76084e9c3c033e786128a4565b610a25612a2d6801bc16d674ec8000006109a7612a047f03c77f053088a575b9521a248e6981814a26c03c87460d925a0c240e5d2ef5a06128a4565b6109ee7f0904604e7b52344a1cae14966ec1b6b446e7e01bbd34ed33c4ad6a30d44ea51e6128a4565b610a25612a597fbe8bf3644b3762cbffde125986a23a91ade7fddbc3442d865d5aaf508cda18c66128a4565b610a257f341ddcafa8194c936a615f6da6d5b805b69e7968f858d37a246557ae89c0b1076128a4565b600061294482846142f9565b60003073ffffffffffffffffffffffffffffffffffffffff7f000000000000000000000000000000000000000000000000000000000000000016148015612af457507f000000000000000000000000000000000000000000000000000000000000000046145b15612b1e57507f000000000000000000000000000000000000000000000000000000000000000090565b50604080517f00000000000000000000000000000000000000000000000000000000000000006020808301919091527f0000000000000000000000000000000000000000000000000000000000000000828401527f000000000000000000000000000000000000000000000000000000000000000060608301524660808301523060a0808401919091528351808403909101815260c0909201909252805191012090565b73ffffffffffffffffffffffffffffffffffffffff8216612c65576040517f08c379a000000000000000000000000000000000000000000000000000000000815260206004820152602160248201527f45524332303a206275726e2066726f6d20746865207a65726f2061646472657360448201527f73000000000000000000000000000000000000000000000000000000000000006064820152608401610688565b73ffffffffffffffffffffffffffffffffffffffff821660009081526020819052604090205481811015612d1b576040517f08c379a000000000000000000000000000000000000000000000000000000000815260206004820152602260248201527f45524332303a206275726e20616d6f756e7420657863656564732062616c616e60448201527f63650000000000000000000000000000000000000000000000000000000000006064820152608401610688565b73ffffffffffffffffffffffffffffffffffffffff83166000818152602081815260408083208686039055600280548790039055518581529192917fddf252ad1be2c89b69c2b068fc378daa952ba7f163c4a11628f55a4df523b3ef910161223a565b600080612dbf6040518060400160405280600c81526020017f526577617264735661756c740000000000000000000000000000000000000000815250612247565b604080517f010000000000000000000000000000000000000000000000000000000000000060208201527fffffffffffffffffffffffffffffffffffffffff000000000000000000000000606084901b16602c82015291925001604051602081830303815290604052612e3190614334565b91505090565b6000612e47633b9aca00836142f9565b9050600060028888600060801b604051602001612e6693929190614376565b604080517fffffffffffffffffffffffffffffffffffffffffffffffffffffffffffffffe081840301815290829052612e9e916143ac565b602060405180830381855afa158015612ebb573d6000803e3d6000fd5b5050506040513d601f19601f82011682018060405250810190612ede91906142b6565b90506000600280612ef2604084898b6143c8565b604051602001612f039291906143f2565b604080517fffffffffffffffffffffffffffffffffffffffffffffffffffffffffffffffe081840301815290829052612f3b916143ac565b602060405180830381855afa158015612f58573d6000803e3d6000fd5b5050506040513d601f19601f82011682018060405250810190612f7b91906142b6565b6002612f8a886040818c6143c8565b604051612f9e929190600090602001614402565b604080517fffffffffffffffffffffffffffffffffffffffffffffffffffffffffffffffe081840301815290829052612fd6916143ac565b602060405180830381855afa158015612ff3573d6000803e3d6000fd5b5050506040513d601f19601f8201168201806040525081019061301691906142b6565b604080516020810193909352820152606001604080517fffffffffffffffffffffffffffffffffffffffffffffffffffffffffffffffe081840301815290829052613060916143ac565b602060405180830381855afa15801561307d573d6000803e3d6000fd5b5050506040513d601f19601f820116820180604052508101906130a091906142b6565b90506000600280848a6040516020016130c3929190918252602082015260400190565b604080517fffffffffffffffffffffffffffffffffffffffffffffffffffffffffffffffe0818403018152908290526130fb916143ac565b602060405180830381855afa158015613118573d6000803e3d6000fd5b5050506040513d601f19601f8201168201806040525081019061313b91906142b6565b600261314687613957565b6040805160208101929092528101869052606001604080517fffffffffffffffffffffffffffffffffffffffffffffffffffffffffffffffe081840301815290829052613192916143ac565b602060405180830381855afa1580156131af573d6000803e3d6000fd5b5050506040513d601f19601f820116820180604052508101906131d291906142b6565b604080516020810193909352820152606001604080517fffffffffffffffffffffffffffffffffffffffffffffffffffffffffffffffe08184030181529082905261321c916143ac565b602060405180830381855afa158015613239573d6000803e3d6000fd5b5050506040513d601f19601f8201168201806040525081019061325c91906142b6565b905061326661399d565b73ffffffffffffffffffffffffffffffffffffffff166322895118868c8c8c60405160200161329791815260200190565b6040516020818303038152906040528c8c886040518863ffffffff1660e01b81526004016132ca96959493929190614414565b6000604051808303818588803b1580156132e357600080fd5b505af11580156132f7573d6000803e3d6000fd5b505050505050505050505050505050565b6007546040517febb9d8c9000000000000000000000000000000000000000000000000000000008152600481018490526024810183905273ffffffffffffffffffffffffffffffffffffffff9091169063ebb9d8c99060440161205d565b6007546040517fe2a4853a000000000000000000000000000000000000000000000000000000008152600481018490526024810183905273ffffffffffffffffffffffffffffffffffffffff9091169063e2a4853a9060440161205d565b60006133ef7f1d649dfd1ac2f55b17a0c168c704b9b3629d73ac6c6e8c97767d3085f9d56c986128a4565b9050600061341c7f893aa071fa7eec9b27e5269e98813b6730589d738b900aefadf4101e45600f686128a4565b905060006134497f4dbc752aaee941f10a8af495d9a572b807fb5d6d10ba310788b106444b4ee2c86128a4565b905061346361345e612710610b4f8787612938565b6139dd565b61347b613476612710610b4f8786612938565b613a22565b61262f61348e612710610b4f8785612938565b613a64565b6134bc7f341ddcafa8194c936a615f6da6d5b805b69e7968f858d37a246557ae89c0b1076128a4565b811115613525576040517f08c379a000000000000000000000000000000000000000000000000000000000815260206004820152601a60248201527f696e76616c69642065746820616d6f756e7420746f206c6f636b0000000000006044820152606401610688565b6135636040518060400160405280600c81526020017f4461776e57697468647261770000000000000000000000000000000000000000815250612247565b6040517fd29d3b0b000000000000000000000000000000000000000000000000000000008152600481018490526024810183905273ffffffffffffffffffffffffffffffffffffffff919091169063d29d3b0b9060440160006040518083038186803b1580156135d257600080fd5b505afa1580156135e6573d6000803e3d6000fd5b505050506136147f341ddcafa8194c936a615f6da6d5b805b69e7968f858d37a246557ae89c0b10782613308565b6136526040518060400160405280600c81526020017f4461776e57697468647261770000000000000000000000000000000000000000815250612247565b73ffffffffffffffffffffffffffffffffffffffff1663d7cb6eb682846040518363ffffffff1660e01b815260040161368d91815260200190565b6000604051808303818588803b1580156136a657600080fd5b505af11580156136ba573d6000803e3d6000fd5b50505050505050565b60006137036040518060400160405280600681526020017f4275726e65720000000000000000000000000000000000000000000000000000815250612247565b90506137318173ffffffffffffffffffffffffffffffffffffffff1660009081526020819052604090205490565b8210156137a057816137658273ffffffffffffffffffffffffffffffffffffffff1660009081526020819052604090205490565b6040517f04b54f9500000000000000000000000000000000000000000000000000000000815260048101929092526024820152604401610688565b6137aa8183612bc2565b6040517f43a526c10000000000000000000000000000000000000000000000000000000081526004810183905273ffffffffffffffffffffffffffffffffffffffff8216906343a526c19060240161205d565b73ffffffffffffffffffffffffffffffffffffffff811660009081526005602052604090208054600181018255905b50919050565b60006107bd61383f612a8e565b836040517f19010000000000000000000000000000000000000000000000000000000000006020820152602281018390526042810182905260009060620160405160208183030381529060405280519060200120905092915050565b60008060006138ac87878787613b04565b915091506138b981613bf3565b5095945050505050565b6007546040517f21f8a7210000000000000000000000000000000000000000000000000000000081526004810183905260009173ffffffffffffffffffffffffffffffffffffffff16906321f8a72190602401602060405180830381865afa158015613933573d6000803e3d6000fd5b505050506040513d601f19601f820116820180604052508101906107bd9190614463565b600081815b600881101561398557600892831b60ff831617929190911c9061397e81614480565b905061395c565b508015613994576139946144b8565b5060c01b919050565b6000610b7a6040518060400160405280600f81526020017f4465706f736974436f6e74726163740000000000000000000000000000000000815250612247565b613a1f3061243c6040518060400160405280600d81526020017f4461776e496e737572616e636500000000000000000000000000000000000000815250612247565b50565b613a1f3061243c6040518060400160405280600c81526020017f4461776e54726561737572790000000000000000000000000000000000000000815250612247565b6000613aa46040518060400160405280601281526020017f4465706f7369744e6f64654d616e616765720000000000000000000000000000815250612247565b9050613ab1308284612635565b6040517f09b861590000000000000000000000000000000000000000000000000000000081526004810183905273ffffffffffffffffffffffffffffffffffffffff8216906309b861599060240161205d565b6000807f7fffffffffffffffffffffffffffffff5d576e7357a4501ddfe92f46681b20a0831115613b3b5750600090506003613bea565b6040805160008082526020820180845289905260ff881692820192909252606081018690526080810185905260019060a0016020604051602081039080840390855afa158015613b8f573d6000803e3d6000fd5b50506040517fffffffffffffffffffffffffffffffffffffffffffffffffffffffffffffffe0015191505073ffffffffffffffffffffffffffffffffffffffff8116613be357600060019250925050613bea565b9150600090505b94509492505050565b6000816004811115613c0757613c076144e7565b03613c0f5750565b6001816004811115613c2357613c236144e7565b03613c8a576040517f08c379a000000000000000000000000000000000000000000000000000000000815260206004820152601860248201527f45434453413a20696e76616c6964207369676e617475726500000000000000006044820152606401610688565b6002816004811115613c9e57613c9e6144e7565b03613d05576040517f08c379a000000000000000000000000000000000000000000000000000000000815260206004820152601f60248201527f45434453413a20696e76616c6964207369676e6174757265206c656e677468006044820152606401610688565b6003816004811115613d1957613d196144e7565b03613a1f576040517f08c379a000000000000000000000000000000000000000000000000000000000815260206004820152602260248201527f45434453413a20696e76616c6964207369676e6174757265202773272076616c60448201527f75650000000000000000000000000000000000000000000000000000000000006064820152608401610688565b60005b83811015613dc1578181015183820152602001613da9565b50506000910152565b60008151808452613de2816020860160208601613da6565b601f017fffffffffffffffffffffffffffffffffffffffffffffffffffffffffffffffe0169290920160200192915050565b6020815260006129446020830184613dca565b73ffffffffffffffffffffffffffffffffffffffff81168114613a1f57600080fd5b60008060408385031215613e5c57600080fd5b8235613e6781613e27565b946020939093013593505050565b600080600060608486031215613e8a57600080fd5b8335613e9581613e27565b95602085013595506040909401359392505050565b600080600060608486031215613ebf57600080fd5b8335613eca81613e27565b92506020840135613eda81613e27565b929592945050506040919091013590565b60008060008060808587031215613f0157600080fd5b5050823594602084013594506040840135936060013592509050565b600060208284031215613f2f57600080fd5b5035919050565b60008083601f840112613f4857600080fd5b50813567ffffffffffffffff811115613f6057600080fd5b602083019150836020828501011115613f7857600080fd5b9250929050565b600080600080600060608688031215613f9757600080fd5b8535613fa281613e27565b9450602086013567ffffffffffffffff80821115613fbf57600080fd5b613fcb89838a01613f36565b90965094506040880135915080821115613fe457600080fd5b50613ff188828901613f36565b969995985093965092949392505050565b60006020828403121561401457600080fd5b813561294481613e27565b600080600080600080600080610100898b03121561403c57600080fd5b505086359860208801359850604088013597606081013597506080810135965060a0810135955060c0810135945060e0013592509050565b600080600080600080600060e0888a03121561408f57600080fd5b873561409a81613e27565b965060208801356140aa81613e27565b95506040880135945060608801359350608088013560ff811681146140ce57600080fd5b9699959850939692959460a0840135945060c09093013592915050565b600080604083850312156140fe57600080fd5b823561410981613e27565b9150602083013561411981613e27565b809150509250929050565b600181811c9082168061413857607f821691505b60208210810361382c577f4e487b7100000000000000000000000000000000000000000000000000000000600052602260045260246000fd5b7f4e487b7100000000000000000000000000000000000000000000000000000000600052601160045260246000fd5b808201808211156107bd576107bd614171565b600080604083850312156141c657600080fd5b82516141d181613e27565b6020840151909250801515811461411957600080fd5b8183528181602085013750600060208284010152600060207fffffffffffffffffffffffffffffffffffffffffffffffffffffffffffffffe0601f840116840101905092915050565b73ffffffffffffffffffffffffffffffffffffffff851681526060602082015260006142606060830185876141e7565b905082604083015295945050505050565b7f636f6e74726163742e61646472657373000000000000000000000000000000008152600082516142a9816010850160208701613da6565b9190910160100192915050565b6000602082840312156142c857600080fd5b5051919050565b80820281158282048414176107bd576107bd614171565b818103818111156107bd576107bd614171565b60008261432f577f4e487b7100000000000000000000000000000000000000000000000000000000600052601260045260246000fd5b500490565b8051602080830151919081101561382c577fffffffffffffffffffffffffffffffffffffffffffffffffffffffffffffffff60209190910360031b1b16919050565b828482377fffffffffffffffffffffffffffffffff00000000000000000000000000000000919091169101908152601001919050565b600082516143be818460208701613da6565b9190910192915050565b600080858511156143d857600080fd5b838611156143e557600080fd5b5050820193919092039150565b8183823760009101908152919050565b82848237909101908152602001919050565b60808152600061442860808301888a6141e7565b828103602084015261443a8188613dca565b9050828103604084015261444f8186886141e7565b915050826060830152979650505050505050565b60006020828403121561447557600080fd5b815161294481613e27565b60007fffffffffffffffffffffffffffffffffffffffffffffffffffffffffffffffff82036144b1576144b1614171565b5060010190565b7f4e487b7100000000000000000000000000000000000000000000000000000000600052600160045260246000fd5b7f4e487b7100000000000000000000000000000000000000000000000000000000600052602160045260246000fdfea2646970667358221220fd1a65f11fa2a05c797872c8f632ce23bdd72f87ff6a570cf2c90d98289557ae64736f6c63430008110033",
  "linkReferences": {},
  "deployedLinkReferences": {}
}