{
  "_format": "hh-sol-artifact-1",
  "contractName": "DawnDeposit",
  "sourceName": "contracts/core/DawnDeposit.sol",
  "abi": [
    {
      "inputs": [
        {
          "internalType": "contract IDawnStorageInterface",
          "name": "dawnStorageAddress",
          "type": "address"
        }
      ],
      "stateMutability": "nonpayable",
      "type": "constructor"
    },
    {
      "anonymous": false,
      "inputs": [
        {
          "indexed": true,
          "internalType": "address",
          "name": "owner",
          "type": "address"
        },
        {
          "indexed": true,
          "internalType": "address",
          "name": "spender",
          "type": "address"
        },
        {
          "indexed": false,
          "internalType": "uint256",
          "name": "value",
          "type": "uint256"
        }
      ],
      "name": "Approval",
      "type": "event"
    },
    {
      "anonymous": false,
      "inputs": [
        {
          "indexed": false,
          "internalType": "address",
          "name": "operator",
          "type": "address"
        },
        {
          "indexed": false,
          "internalType": "bytes",
          "name": "pubkey",
          "type": "bytes"
        },
        {
          "indexed": false,
          "internalType": "uint256",
          "name": "amount",
          "type": "uint256"
        }
      ],
      "name": "LogActivateValidator",
      "type": "event"
    },
    {
      "anonymous": false,
      "inputs": [
        {
          "indexed": false,
          "internalType": "address",
          "name": "operator",
          "type": "address"
        },
        {
          "indexed": false,
          "internalType": "bytes",
          "name": "pubkey",
          "type": "bytes"
        },
        {
          "indexed": false,
          "internalType": "uint256",
          "name": "amount",
          "type": "uint256"
        }
      ],
      "name": "LogPreActivateValidator",
      "type": "event"
    },
    {
      "anonymous": false,
      "inputs": [
        {
          "indexed": false,
          "internalType": "uint256",
          "name": "pEthAmount",
          "type": "uint256"
        }
      ],
      "name": "LogReceiveInsurance",
      "type": "event"
    },
    {
      "anonymous": false,
      "inputs": [
        {
          "indexed": false,
          "internalType": "uint256",
          "name": "ethAmount",
          "type": "uint256"
        }
      ],
      "name": "LogReceiveRewards",
      "type": "event"
    },
    {
      "anonymous": false,
      "inputs": [
        {
          "indexed": true,
          "internalType": "address",
          "name": "staker",
          "type": "address"
        },
        {
          "indexed": false,
          "internalType": "uint256",
          "name": "ethAmount",
          "type": "uint256"
        }
      ],
      "name": "LogStake",
      "type": "event"
    },
    {
      "anonymous": false,
      "inputs": [
        {
          "indexed": true,
          "internalType": "address",
          "name": "from",
          "type": "address"
        },
        {
          "indexed": true,
          "internalType": "address",
          "name": "to",
          "type": "address"
        },
        {
          "indexed": false,
          "internalType": "uint256",
          "name": "value",
          "type": "uint256"
        }
      ],
      "name": "Transfer",
      "type": "event"
    },
    {
      "inputs": [],
      "name": "DEPOSIT_VALUE_PER_VALIDATOR",
      "outputs": [
        {
          "internalType": "uint256",
          "name": "",
          "type": "uint256"
        }
      ],
      "stateMutability": "view",
      "type": "function"
    },
    {
      "inputs": [],
      "name": "DOMAIN_SEPARATOR",
      "outputs": [
        {
          "internalType": "bytes32",
          "name": "",
          "type": "bytes32"
        }
      ],
      "stateMutability": "view",
      "type": "function"
    },
    {
      "inputs": [],
      "name": "POST_DEPOSIT_VALUE",
      "outputs": [
        {
          "internalType": "uint256",
          "name": "",
          "type": "uint256"
        }
      ],
      "stateMutability": "view",
      "type": "function"
    },
    {
      "inputs": [],
      "name": "PRE_DEPOSIT_VALUE",
      "outputs": [
        {
          "internalType": "uint256",
          "name": "",
          "type": "uint256"
        }
      ],
      "stateMutability": "view",
      "type": "function"
    },
    {
      "inputs": [
        {
          "internalType": "address",
          "name": "operator",
          "type": "address"
        },
        {
          "internalType": "bytes",
          "name": "pubkey",
          "type": "bytes"
        },
        {
          "internalType": "bytes",
          "name": "signature",
          "type": "bytes"
        }
      ],
      "name": "activateValidator",
      "outputs": [],
      "stateMutability": "nonpayable",
      "type": "function"
    },
    {
      "inputs": [
        {
          "internalType": "address",
          "name": "owner",
          "type": "address"
        },
        {
          "internalType": "address",
          "name": "spender",
          "type": "address"
        }
      ],
      "name": "allowance",
      "outputs": [
        {
          "internalType": "uint256",
          "name": "",
          "type": "uint256"
        }
      ],
      "stateMutability": "view",
      "type": "function"
    },
    {
      "inputs": [
        {
          "internalType": "address",
          "name": "spender",
          "type": "address"
        },
        {
          "internalType": "uint256",
          "name": "amount",
          "type": "uint256"
        }
      ],
      "name": "approve",
      "outputs": [
        {
          "internalType": "bool",
          "name": "",
          "type": "bool"
        }
      ],
      "stateMutability": "nonpayable",
      "type": "function"
    },
    {
      "inputs": [
        {
          "internalType": "address",
          "name": "account",
          "type": "address"
        }
      ],
      "name": "balanceOf",
      "outputs": [
        {
          "internalType": "uint256",
          "name": "",
          "type": "uint256"
        }
      ],
      "stateMutability": "view",
      "type": "function"
    },
    {
      "inputs": [],
      "name": "decimals",
      "outputs": [
        {
          "internalType": "uint8",
          "name": "",
          "type": "uint8"
        }
      ],
      "stateMutability": "view",
      "type": "function"
    },
    {
      "inputs": [
        {
          "internalType": "address",
          "name": "spender",
          "type": "address"
        },
        {
          "internalType": "uint256",
          "name": "subtractedValue",
          "type": "uint256"
        }
      ],
      "name": "decreaseAllowance",
      "outputs": [
        {
          "internalType": "bool",
          "name": "",
          "type": "bool"
        }
      ],
      "stateMutability": "nonpayable",
      "type": "function"
    },
    {
      "inputs": [
        {
          "internalType": "uint256",
          "name": "pEthAmount",
          "type": "uint256"
        }
      ],
      "name": "getEtherByPEth",
      "outputs": [
        {
          "internalType": "uint256",
          "name": "",
          "type": "uint256"
        }
      ],
      "stateMutability": "view",
      "type": "function"
    },
    {
      "inputs": [
        {
          "internalType": "uint256",
          "name": "ethAmount",
          "type": "uint256"
        }
      ],
      "name": "getPEthByEther",
      "outputs": [
        {
          "internalType": "uint256",
          "name": "",
          "type": "uint256"
        }
      ],
      "stateMutability": "view",
      "type": "function"
    },
    {
      "inputs": [],
      "name": "getTotalPooledEther",
      "outputs": [
        {
          "internalType": "uint256",
          "name": "",
          "type": "uint256"
        }
      ],
      "stateMutability": "view",
      "type": "function"
    },
    {
      "inputs": [
        {
          "internalType": "uint256",
          "name": "epochId",
          "type": "uint256"
        },
        {
          "internalType": "uint256",
          "name": "beaconValidators",
          "type": "uint256"
        },
        {
          "internalType": "uint256",
          "name": "beaconBalance",
          "type": "uint256"
        },
        {
          "internalType": "uint256",
          "name": "availableRewards",
          "type": "uint256"
        },
        {
          "internalType": "uint256",
          "name": "exitedValidators",
          "type": "uint256"
        }
      ],
      "name": "handleOracleReport",
      "outputs": [],
      "stateMutability": "nonpayable",
      "type": "function"
    },
    {
      "inputs": [
        {
          "internalType": "address",
          "name": "spender",
          "type": "address"
        },
        {
          "internalType": "uint256",
          "name": "addedValue",
          "type": "uint256"
        }
      ],
      "name": "increaseAllowance",
      "outputs": [
        {
          "internalType": "bool",
          "name": "",
          "type": "bool"
        }
      ],
      "stateMutability": "nonpayable",
      "type": "function"
    },
    {
      "inputs": [],
      "name": "name",
      "outputs": [
        {
          "internalType": "string",
          "name": "",
          "type": "string"
        }
      ],
      "stateMutability": "view",
      "type": "function"
    },
    {
      "inputs": [
        {
          "internalType": "address",
          "name": "owner",
          "type": "address"
        }
      ],
      "name": "nonces",
      "outputs": [
        {
          "internalType": "uint256",
          "name": "",
          "type": "uint256"
        }
      ],
      "stateMutability": "view",
      "type": "function"
    },
    {
      "inputs": [
        {
          "internalType": "address",
          "name": "owner",
          "type": "address"
        },
        {
          "internalType": "address",
          "name": "spender",
          "type": "address"
        },
        {
          "internalType": "uint256",
          "name": "value",
          "type": "uint256"
        },
        {
          "internalType": "uint256",
          "name": "deadline",
          "type": "uint256"
        },
        {
          "internalType": "uint8",
          "name": "v",
          "type": "uint8"
        },
        {
          "internalType": "bytes32",
          "name": "r",
          "type": "bytes32"
        },
        {
          "internalType": "bytes32",
          "name": "s",
          "type": "bytes32"
        }
      ],
      "name": "permit",
      "outputs": [],
      "stateMutability": "nonpayable",
      "type": "function"
    },
    {
      "inputs": [
        {
          "internalType": "address",
          "name": "operator",
          "type": "address"
        },
        {
          "internalType": "bytes",
          "name": "pubkey",
          "type": "bytes"
        },
        {
          "internalType": "bytes",
          "name": "signature",
          "type": "bytes"
        }
      ],
      "name": "preActivateValidator",
      "outputs": [],
      "stateMutability": "nonpayable",
      "type": "function"
    },
    {
      "inputs": [
        {
          "internalType": "uint256",
          "name": "pEthAmount",
          "type": "uint256"
        }
      ],
      "name": "receiveFromInsurance",
      "outputs": [],
      "stateMutability": "nonpayable",
      "type": "function"
    },
    {
      "inputs": [],
      "name": "receiveRewards",
      "outputs": [],
      "stateMutability": "payable",
      "type": "function"
    },
    {
      "inputs": [],
      "name": "stake",
      "outputs": [
        {
          "internalType": "uint256",
          "name": "",
          "type": "uint256"
        }
      ],
      "stateMutability": "payable",
      "type": "function"
    },
    {
      "inputs": [],
      "name": "symbol",
      "outputs": [
        {
          "internalType": "string",
          "name": "",
          "type": "string"
        }
      ],
      "stateMutability": "view",
      "type": "function"
    },
    {
      "inputs": [],
      "name": "totalSupply",
      "outputs": [
        {
          "internalType": "uint256",
          "name": "",
          "type": "uint256"
        }
      ],
      "stateMutability": "view",
      "type": "function"
    },
    {
      "inputs": [
        {
          "internalType": "address",
          "name": "to",
          "type": "address"
        },
        {
          "internalType": "uint256",
          "name": "amount",
          "type": "uint256"
        }
      ],
      "name": "transfer",
      "outputs": [
        {
          "internalType": "bool",
          "name": "",
          "type": "bool"
        }
      ],
      "stateMutability": "nonpayable",
      "type": "function"
    },
    {
      "inputs": [
        {
          "internalType": "address",
          "name": "from",
          "type": "address"
        },
        {
          "internalType": "address",
          "name": "to",
          "type": "address"
        },
        {
          "internalType": "uint256",
          "name": "amount",
          "type": "uint256"
        }
      ],
      "name": "transferFrom",
      "outputs": [
        {
          "internalType": "bool",
          "name": "",
          "type": "bool"
        }
      ],
      "stateMutability": "nonpayable",
      "type": "function"
    },
    {
      "inputs": [
        {
          "internalType": "uint256",
          "name": "pEthAmount",
          "type": "uint256"
        }
      ],
      "name": "unstake",
      "outputs": [
        {
          "internalType": "uint256",
          "name": "",
          "type": "uint256"
        }
      ],
      "stateMutability": "nonpayable",
      "type": "function"
    },
    {
      "stateMutability": "payable",
      "type": "receive"
    }
  ],
  "bytecode": "0x6101406040526000600760006101000a81548173ffffffffffffffffffffffffffffffffffffffff021916908373ffffffffffffffffffffffffffffffffffffffff1602179055503480156200005457600080fd5b5060405162004d3238038062004d3283398181016040528101906200007a919062000330565b806040518060400160405280600481526020017f7045544800000000000000000000000000000000000000000000000000000000815250806040518060400160405280600181526020017f31000000000000000000000000000000000000000000000000000000000000008152506040518060400160405280600d81526020017f4461776e20506f6f6c20455448000000000000000000000000000000000000008152506040518060400160405280600481526020017f70455448000000000000000000000000000000000000000000000000000000008152508160039081620001659190620005dc565b508060049081620001779190620005dc565b50505060008280519060200120905060008280519060200120905060007f8b73c3c69bb8fe3d512ecc4cf759cc79239f7b179b0ffacaa9a75d522b39400f90508260e081815250508161010081815250504660a08181525050620001e38184846200027660201b60201c565b608081815250503073ffffffffffffffffffffffffffffffffffffffff1660c08173ffffffffffffffffffffffffffffffffffffffff168152505080610120818152505050505050505080600760006101000a81548173ffffffffffffffffffffffffffffffffffffffff021916908373ffffffffffffffffffffffffffffffffffffffff16021790555050506200075d565b600083838346306040516020016200029395949392919062000700565b6040516020818303038152906040528051906020012090509392505050565b600080fd5b600073ffffffffffffffffffffffffffffffffffffffff82169050919050565b6000620002e482620002b7565b9050919050565b6000620002f882620002d7565b9050919050565b6200030a81620002eb565b81146200031657600080fd5b50565b6000815190506200032a81620002ff565b92915050565b600060208284031215620003495762000348620002b2565b5b6000620003598482850162000319565b91505092915050565b600081519050919050565b7f4e487b7100000000000000000000000000000000000000000000000000000000600052604160045260246000fd5b7f4e487b7100000000000000000000000000000000000000000000000000000000600052602260045260246000fd5b60006002820490506001821680620003e457607f821691505b602082108103620003fa57620003f96200039c565b5b50919050565b60008190508160005260206000209050919050565b60006020601f8301049050919050565b600082821b905092915050565b600060088302620004647fffffffffffffffffffffffffffffffffffffffffffffffffffffffffffffffff8262000425565b62000470868362000425565b95508019841693508086168417925050509392505050565b6000819050919050565b6000819050919050565b6000620004bd620004b7620004b18462000488565b62000492565b62000488565b9050919050565b6000819050919050565b620004d9836200049c565b620004f1620004e882620004c4565b84845462000432565b825550505050565b600090565b62000508620004f9565b62000515818484620004ce565b505050565b5b818110156200053d5762000531600082620004fe565b6001810190506200051b565b5050565b601f8211156200058c57620005568162000400565b620005618462000415565b8101602085101562000571578190505b62000589620005808562000415565b8301826200051a565b50505b505050565b600082821c905092915050565b6000620005b16000198460080262000591565b1980831691505092915050565b6000620005cc83836200059e565b9150826002028217905092915050565b620005e78262000362565b67ffffffffffffffff8111156200060357620006026200036d565b5b6200060f8254620003cb565b6200061c82828562000541565b600060209050601f8311600181146200065457600084156200063f578287015190505b6200064b8582620005be565b865550620006bb565b601f198416620006648662000400565b60005b828110156200068e5784890151825560018201915060208501945060208101905062000667565b86831015620006ae5784890151620006aa601f8916826200059e565b8355505b6001600288020188555050505b505050505050565b6000819050919050565b620006d881620006c3565b82525050565b620006e98162000488565b82525050565b620006fa81620002d7565b82525050565b600060a082019050620007176000830188620006cd565b620007266020830187620006cd565b620007356040830186620006cd565b620007446060830185620006de565b620007536080830184620006ef565b9695505050505050565b60805160a05160c05160e0516101005161012051614585620007ad6000396000611ccd01526000611d0f01526000611cee01526000611c2301526000611c7901526000611ca201526145856000f3fe6080604052600436106101a05760003560e01c80634f5d1263116100ec578063a457c2d71161008a578063b6460fb511610064578063b6460fb5146105fd578063bd7ef16d1461063a578063d505accf14610665578063dd62ed3e1461068e576101af565b8063a457c2d714610558578063a73a8e6514610595578063a9059cbb146105c0576101af565b806366f8cc62116100c657806366f8cc621461048a57806370a08231146104b35780637ecebe00146104f057806395d89b411461052d576101af565b80634f5d12631461041a57806361d1266c14610457578063631cbe3c14610480576101af565b8063361b55d9116101595780633950935111610133578063395093511461036d5780633a4b66f1146103aa57806342603003146103c857806346ed5869146103f1576101af565b8063361b55d9146102ec5780633644e5151461031757806337cfdaca14610342576101af565b806306fdde03146101b4578063095ea7b3146101df57806318160ddd1461021c57806323b872dd146102475780632e17de7814610284578063313ce567146102c1576101af565b366101af576101ad6106cb565b005b600080fd5b3480156101c057600080fd5b506101c96107b1565b6040516101d69190612b2c565b60405180910390f35b3480156101eb57600080fd5b5061020660048036038101906102019190612bec565b610843565b6040516102139190612c47565b60405180910390f35b34801561022857600080fd5b50610231610866565b60405161023e9190612c71565b60405180910390f35b34801561025357600080fd5b5061026e60048036038101906102699190612c8c565b610870565b60405161027b9190612c47565b60405180910390f35b34801561029057600080fd5b506102ab60048036038101906102a69190612cdf565b61089f565b6040516102b89190612c71565b60405180910390f35b3480156102cd57600080fd5b506102d66108a9565b6040516102e39190612d28565b60405180910390f35b3480156102f857600080fd5b506103016108b2565b60405161030e9190612c71565b60405180910390f35b34801561032357600080fd5b5061032c6108bf565b6040516103399190612d5c565b60405180910390f35b34801561034e57600080fd5b506103576108ce565b6040516103649190612c71565b60405180910390f35b34801561037957600080fd5b50610394600480360381019061038f9190612bec565b610a1a565b6040516103a19190612c47565b60405180910390f35b6103b2610a51565b6040516103bf9190612c71565b60405180910390f35b3480156103d457600080fd5b506103ef60048036038101906103ea9190612cdf565b610a60565b005b3480156103fd57600080fd5b5061041860048036038101906104139190612d77565b610b8c565b005b34801561042657600080fd5b50610441600480360381019061043c9190612cdf565b610b93565b60405161044e9190612c71565b60405180910390f35b34801561046357600080fd5b5061047e60048036038101906104799190612e57565b610bed565b005b610488610ea3565b005b34801561049657600080fd5b506104b160048036038101906104ac9190612e57565b610edc565b005b3480156104bf57600080fd5b506104da60048036038101906104d59190612eec565b611163565b6040516104e79190612c71565b60405180910390f35b3480156104fc57600080fd5b5061051760048036038101906105129190612eec565b6111ab565b6040516105249190612c71565b60405180910390f35b34801561053957600080fd5b506105426111fb565b60405161054f9190612b2c565b60405180910390f35b34801561056457600080fd5b5061057f600480360381019061057a9190612bec565b61128d565b60405161058c9190612c47565b60405180910390f35b3480156105a157600080fd5b506105aa611304565b6040516105b79190612c71565b60405180910390f35b3480156105cc57600080fd5b506105e760048036038101906105e29190612bec565b611311565b6040516105f49190612c47565b60405180910390f35b34801561060957600080fd5b50610624600480360381019061061f9190612cdf565b611334565b6040516106319190612c71565b60405180910390f35b34801561064657600080fd5b5061064f61138e565b60405161065c9190612c71565b60405180910390f35b34801561067157600080fd5b5061068c60048036038101906106879190612f71565b61139a565b005b34801561069a57600080fd5b506106b560048036038101906106b09190613013565b6114dc565b6040516106c29190612c71565b60405180910390f35b600080340361070f576040517f08c379a00000000000000000000000000000000000000000000000000000000081526004016107069061309f565b60405180910390fd5b600061071a34610b93565b905060008103610728573490505b6107323382611563565b61075c7f341ddcafa8194c936a615f6da6d5b805b69e7968f858d37a246557ae89c0b107346116b9565b3373ffffffffffffffffffffffffffffffffffffffff167f3dbdcfd4c1f2e08931aae3d544e149a1e643143f5234d166fe3debb783388495346040516107a29190612c71565b60405180910390a28091505090565b6060600380546107c0906130ee565b80601f01602080910402602001604051908101604052809291908181526020018280546107ec906130ee565b80156108395780601f1061080e57610100808354040283529160200191610839565b820191906000526020600020905b81548152906001019060200180831161081c57829003601f168201915b5050505050905090565b60008061084e61174c565b905061085b818585611754565b600191505092915050565b6000600254905090565b60008061087b61174c565b905061088885828561191d565b6108938585856119a9565b60019150509392505050565b6000819050919050565b60006012905090565b6801ae361fc1451c000081565b60006108c9611c1f565b905090565b6000610a15610915670de0b6b3a76400006109077e882f9dbc877242cea5e51b33b650bdc9bc6abdf4c3510a76084e9c3c033e78611d39565b611dde90919063ffffffff16565b610a076109966801bc16d674ec8000006109886109517f03c77f053088a575b9521a248e6981814a26c03c87460d925a0c240e5d2ef5a0611d39565b61097a7f0904604e7b52344a1cae14966ec1b6b446e7e01bbd34ed33c4ad6a30d44ea51e611d39565b611df490919063ffffffff16565b611dde90919063ffffffff16565b6109f96109c27fbe8bf3644b3762cbffde125986a23a91ade7fddbc3442d865d5aaf508cda18c6611d39565b6109eb7f341ddcafa8194c936a615f6da6d5b805b69e7968f858d37a246557ae89c0b107611d39565b611e0a90919063ffffffff16565b611e0a90919063ffffffff16565b611e0a90919063ffffffff16565b905090565b600080610a2561174c565b9050610a46818585610a3785896114dc565b610a41919061314e565b611754565b600191505092915050565b6000610a5b6106cb565b905090565b610a9e6040518060400160405280600d81526020017f4461776e496e737572616e636500000000000000000000000000000000000000815250611e20565b73ffffffffffffffffffffffffffffffffffffffff163373ffffffffffffffffffffffffffffffffffffffff1614610b0b576040517f08c379a0000000000000000000000000000000000000000000000000000000008152600401610b02906131ce565b60405180910390fd5b610b52610b4c6040518060400160405280600d81526020017f4461776e496e737572616e636500000000000000000000000000000000000000815250611e20565b82611ecc565b7f1fde49cb3db550a66f48bcd7c36f44448ed1a63a3ae9c4a9dffd4b1db607533081604051610b819190612c71565b60405180910390a150565b5050505050565b600080610b9e6108ce565b905060008103610bb2576000915050610be8565b6000610bbc610866565b9050610be382610bd58684611dde90919063ffffffff16565b61209990919063ffffffff16565b925050505b919050565b84600080610c2f6040518060400160405280601281526020017f4465706f7369744e6f64654d616e616765720000000000000000000000000000815250611e20565b73ffffffffffffffffffffffffffffffffffffffff16630e2c0b10846040518263ffffffff1660e01b8152600401610c6791906131fd565b60408051808303816000875af1158015610c85573d6000803e3d6000fd5b505050506040513d601f19601f82011682018060405250810190610ca99190613259565b915091508173ffffffffffffffffffffffffffffffffffffffff163373ffffffffffffffffffffffffffffffffffffffff1614610d1b576040517f08c379a0000000000000000000000000000000000000000000000000000000008152600401610d129061330b565b60405180910390fd5b80610d5b576040517f08c379a0000000000000000000000000000000000000000000000000000000008152600401610d5290613377565b60405180910390fd5b6801ae361fc1451c0000471015610da7576040517f08c379a0000000000000000000000000000000000000000000000000000000008152600401610d9e906133e3565b60405180910390fd5b6000610db16120af565b9050610dca88888389896801ae361fc1451c0000612135565b610df57f0904604e7b52344a1cae14966ec1b6b446e7e01bbd34ed33c4ad6a30d44ea51e60016116b9565b610e1f7e882f9dbc877242cea5e51b33b650bdc9bc6abdf4c3510a76084e9c3c033e786001612544565b610e527f341ddcafa8194c936a615f6da6d5b805b69e7968f858d37a246557ae89c0b1076801ae361fc1451c0000612544565b7fb629260c74cea5e1861205e59a2b203e2dc93870354ed627176fd86bc6e30d408989896801ae361fc1451c0000604051610e909493929190613450565b60405180910390a1505050505050505050565b7f0a54722b21b0f3a3bb18e77037f7705e2281aad44eef25231f961464cc619a6a34604051610ed29190612c71565b60405180910390a1565b84600080610f1e6040518060400160405280601281526020017f4465706f7369744e6f64654d616e616765720000000000000000000000000000815250611e20565b73ffffffffffffffffffffffffffffffffffffffff16630e2c0b10846040518263ffffffff1660e01b8152600401610f5691906131fd565b60408051808303816000875af1158015610f74573d6000803e3d6000fd5b505050506040513d601f19601f82011682018060405250810190610f989190613259565b915091508173ffffffffffffffffffffffffffffffffffffffff163373ffffffffffffffffffffffffffffffffffffffff161461100a576040517f08c379a00000000000000000000000000000000000000000000000000000000081526004016110019061330b565b60405180910390fd5b8061104a576040517f08c379a000000000000000000000000000000000000000000000000000000000815260040161104190613377565b60405180910390fd5b670de0b6b3a7640000471015611095576040517f08c379a000000000000000000000000000000000000000000000000000000000815260040161108c906133e3565b60405180910390fd5b600061109f6120af565b90506110b78888838989670de0b6b3a7640000612135565b6110e17e882f9dbc877242cea5e51b33b650bdc9bc6abdf4c3510a76084e9c3c033e7860016116b9565b6111137f341ddcafa8194c936a615f6da6d5b805b69e7968f858d37a246557ae89c0b107670de0b6b3a7640000612544565b7f8ad7785cb6530f76bdd547c0d530e0129b62aa92411aa6825d4c560bfee1e3a3898989670de0b6b3a76400006040516111509493929190613450565b60405180910390a1505050505050505050565b60008060008373ffffffffffffffffffffffffffffffffffffffff1673ffffffffffffffffffffffffffffffffffffffff168152602001908152602001600020549050919050565b60006111f4600560008473ffffffffffffffffffffffffffffffffffffffff1673ffffffffffffffffffffffffffffffffffffffff1681526020019081526020016000206125d7565b9050919050565b60606004805461120a906130ee565b80601f0160208091040260200160405190810160405280929190818152602001828054611236906130ee565b80156112835780601f1061125857610100808354040283529160200191611283565b820191906000526020600020905b81548152906001019060200180831161126657829003601f168201915b5050505050905090565b60008061129861174c565b905060006112a682866114dc565b9050838110156112eb576040517f08c379a00000000000000000000000000000000000000000000000000000000081526004016112e290613502565b60405180910390fd5b6112f88286868403611754565b60019250505092915050565b6801bc16d674ec80000081565b60008061131c61174c565b90506113298185856119a9565b600191505092915050565b60008061133f610866565b905060008103611353576000915050611389565b600061135d6108ce565b9050611384826113768684611dde90919063ffffffff16565b61209990919063ffffffff16565b925050505b919050565b670de0b6b3a764000081565b834211156113dd576040517f08c379a00000000000000000000000000000000000000000000000000000000081526004016113d49061356e565b60405180910390fd5b60007f6e71edae12b1b97f4d1f60370fef10105fa2faae0126114a169c64845d6126c988888861140c8c6125e5565b896040516020016114229695949392919061358e565b604051602081830303815290604052805190602001209050600061144582612643565b905060006114558287878761265d565b90508973ffffffffffffffffffffffffffffffffffffffff168173ffffffffffffffffffffffffffffffffffffffff16146114c5576040517f08c379a00000000000000000000000000000000000000000000000000000000081526004016114bc9061363b565b60405180910390fd5b6114d08a8a8a611754565b50505050505050505050565b6000600160008473ffffffffffffffffffffffffffffffffffffffff1673ffffffffffffffffffffffffffffffffffffffff16815260200190815260200160002060008373ffffffffffffffffffffffffffffffffffffffff1673ffffffffffffffffffffffffffffffffffffffff16815260200190815260200160002054905092915050565b600073ffffffffffffffffffffffffffffffffffffffff168273ffffffffffffffffffffffffffffffffffffffff16036115d2576040517f08c379a00000000000000000000000000000000000000000000000000000000081526004016115c9906136a7565b60405180910390fd5b6115de60008383612688565b80600260008282546115f0919061314e565b92505081905550806000808473ffffffffffffffffffffffffffffffffffffffff1673ffffffffffffffffffffffffffffffffffffffff168152602001908152602001600020600082825401925050819055508173ffffffffffffffffffffffffffffffffffffffff16600073ffffffffffffffffffffffffffffffffffffffff167fddf252ad1be2c89b69c2b068fc378daa952ba7f163c4a11628f55a4df523b3ef836040516116a19190612c71565b60405180910390a36116b56000838361268d565b5050565b600760009054906101000a900473ffffffffffffffffffffffffffffffffffffffff1673ffffffffffffffffffffffffffffffffffffffff1663adb353dc83836040518363ffffffff1660e01b81526004016117169291906136c7565b600060405180830381600087803b15801561173057600080fd5b505af1158015611744573d6000803e3d6000fd5b505050505050565b600033905090565b600073ffffffffffffffffffffffffffffffffffffffff168373ffffffffffffffffffffffffffffffffffffffff16036117c3576040517f08c379a00000000000000000000000000000000000000000000000000000000081526004016117ba90613762565b60405180910390fd5b600073ffffffffffffffffffffffffffffffffffffffff168273ffffffffffffffffffffffffffffffffffffffff1603611832576040517f08c379a0000000000000000000000000000000000000000000000000000000008152600401611829906137f4565b60405180910390fd5b80600160008573ffffffffffffffffffffffffffffffffffffffff1673ffffffffffffffffffffffffffffffffffffffff16815260200190815260200160002060008473ffffffffffffffffffffffffffffffffffffffff1673ffffffffffffffffffffffffffffffffffffffff168152602001908152602001600020819055508173ffffffffffffffffffffffffffffffffffffffff168373ffffffffffffffffffffffffffffffffffffffff167f8c5be1e5ebec7d5bd14f71427d1e84f3dd0314c0f7b2291e5b200ac8c7c3b925836040516119109190612c71565b60405180910390a3505050565b600061192984846114dc565b90507fffffffffffffffffffffffffffffffffffffffffffffffffffffffffffffffff81146119a35781811015611995576040517f08c379a000000000000000000000000000000000000000000000000000000000815260040161198c90613860565b60405180910390fd5b6119a28484848403611754565b5b50505050565b600073ffffffffffffffffffffffffffffffffffffffff168373ffffffffffffffffffffffffffffffffffffffff1603611a18576040517f08c379a0000000000000000000000000000000000000000000000000000000008152600401611a0f906138f2565b60405180910390fd5b600073ffffffffffffffffffffffffffffffffffffffff168273ffffffffffffffffffffffffffffffffffffffff1603611a87576040517f08c379a0000000000000000000000000000000000000000000000000000000008152600401611a7e90613984565b60405180910390fd5b611a92838383612688565b60008060008573ffffffffffffffffffffffffffffffffffffffff1673ffffffffffffffffffffffffffffffffffffffff16815260200190815260200160002054905081811015611b18576040517f08c379a0000000000000000000000000000000000000000000000000000000008152600401611b0f90613a16565b60405180910390fd5b8181036000808673ffffffffffffffffffffffffffffffffffffffff1673ffffffffffffffffffffffffffffffffffffffff16815260200190815260200160002081905550816000808573ffffffffffffffffffffffffffffffffffffffff1673ffffffffffffffffffffffffffffffffffffffff168152602001908152602001600020600082825401925050819055508273ffffffffffffffffffffffffffffffffffffffff168473ffffffffffffffffffffffffffffffffffffffff167fddf252ad1be2c89b69c2b068fc378daa952ba7f163c4a11628f55a4df523b3ef84604051611c069190612c71565b60405180910390a3611c1984848461268d565b50505050565b60007f000000000000000000000000000000000000000000000000000000000000000073ffffffffffffffffffffffffffffffffffffffff163073ffffffffffffffffffffffffffffffffffffffff16148015611c9b57507f000000000000000000000000000000000000000000000000000000000000000046145b15611cc8577f00000000000000000000000000000000000000000000000000000000000000009050611d36565b611d337f00000000000000000000000000000000000000000000000000000000000000007f00000000000000000000000000000000000000000000000000000000000000007f0000000000000000000000000000000000000000000000000000000000000000612692565b90505b90565b6000600760009054906101000a900473ffffffffffffffffffffffffffffffffffffffff1673ffffffffffffffffffffffffffffffffffffffff1663bd02d0f5836040518263ffffffff1660e01b8152600401611d969190612d5c565b602060405180830381865afa158015611db3573d6000803e3d6000fd5b505050506040513d601f19601f82011682018060405250810190611dd79190613a4b565b9050919050565b60008183611dec9190613a78565b905092915050565b60008183611e029190613aba565b905092915050565b60008183611e18919061314e565b905092915050565b600080611e5283604051602001611e379190613b76565b604051602081830303815290604052805190602001206126cc565b9050600073ffffffffffffffffffffffffffffffffffffffff168173ffffffffffffffffffffffffffffffffffffffff1603611ec3576040517f08c379a0000000000000000000000000000000000000000000000000000000008152600401611eba90613be4565b60405180910390fd5b80915050919050565b600073ffffffffffffffffffffffffffffffffffffffff168273ffffffffffffffffffffffffffffffffffffffff1603611f3b576040517f08c379a0000000000000000000000000000000000000000000000000000000008152600401611f3290613c76565b60405180910390fd5b611f4782600083612688565b60008060008473ffffffffffffffffffffffffffffffffffffffff1673ffffffffffffffffffffffffffffffffffffffff16815260200190815260200160002054905081811015611fcd576040517f08c379a0000000000000000000000000000000000000000000000000000000008152600401611fc490613d08565b60405180910390fd5b8181036000808573ffffffffffffffffffffffffffffffffffffffff1673ffffffffffffffffffffffffffffffffffffffff1681526020019081526020016000208190555081600260008282540392505081905550600073ffffffffffffffffffffffffffffffffffffffff168373ffffffffffffffffffffffffffffffffffffffff167fddf252ad1be2c89b69c2b068fc378daa952ba7f163c4a11628f55a4df523b3ef846040516120809190612c71565b60405180910390a36120948360008461268d565b505050565b600081836120a79190613d57565b905092915050565b6000806120f06040518060400160405280600c81526020017f526577617264735661756c740000000000000000000000000000000000000000815250611e20565b90506b01000000000000000000000060a01b8160601b604051602001612117929190613e22565b60405160208183030381529060405261212f90613e8b565b91505090565b6000633b9aca00826121479190613d57565b9050600060028888600060801b60405160200161216693929190613f6f565b6040516020818303038152906040526040516121829190613fca565b602060405180830381855afa15801561219f573d6000803e3d6000fd5b5050506040513d601f19601f820116820180604052508101906121c29190613ff6565b9050600060028087876000906040926121dd9392919061402d565b6040516020016121ee929190614068565b60405160208183030381529060405260405161220a9190613fca565b602060405180830381855afa158015612227573d6000803e3d6000fd5b5050506040513d601f19601f8201168201806040525081019061224a9190613ff6565b60028888604090809261225f9392919061402d565b6000801b604051602001612275939291906140a2565b6040516020818303038152906040526040516122919190613fca565b602060405180830381855afa1580156122ae573d6000803e3d6000fd5b5050506040513d601f19601f820116820180604052508101906122d19190613ff6565b6040516020016122e29291906140cc565b6040516020818303038152906040526040516122fe9190613fca565b602060405180830381855afa15801561231b573d6000803e3d6000fd5b5050506040513d601f19601f8201168201806040525081019061233e9190613ff6565b90506000600280848a6040516020016123589291906140cc565b6040516020818303038152906040526040516123749190613fca565b602060405180830381855afa158015612391573d6000803e3d6000fd5b5050506040513d601f19601f820116820180604052508101906123b49190613ff6565b60026123bf87612771565b856040516020016123d1929190614119565b6040516020818303038152906040526040516123ed9190613fca565b602060405180830381855afa15801561240a573d6000803e3d6000fd5b5050506040513d601f19601f8201168201806040525081019061242d9190613ff6565b60405160200161243e9291906140cc565b60405160208183030381529060405260405161245a9190613fca565b602060405180830381855afa158015612477573d6000803e3d6000fd5b5050506040513d601f19601f8201168201806040525081019061249a9190613ff6565b90506124a46127c6565b73ffffffffffffffffffffffffffffffffffffffff166322895118868c8c8c6040516020016124d39190614145565b6040516020818303038152906040528c8c886040518863ffffffff1660e01b815260040161250696959493929190614199565b6000604051808303818588803b15801561251f57600080fd5b505af1158015612533573d6000803e3d6000fd5b505050505050505050505050505050565b600760009054906101000a900473ffffffffffffffffffffffffffffffffffffffff1673ffffffffffffffffffffffffffffffffffffffff1663ebb9d8c983836040518363ffffffff1660e01b81526004016125a19291906136c7565b600060405180830381600087803b1580156125bb57600080fd5b505af11580156125cf573d6000803e3d6000fd5b505050505050565b600081600001549050919050565b600080600560008473ffffffffffffffffffffffffffffffffffffffff1673ffffffffffffffffffffffffffffffffffffffff1681526020019081526020016000209050612632816125d7565b915061263d8161280b565b50919050565b6000612656612650611c1f565b83612821565b9050919050565b600080600061266e87878787612854565b9150915061267b81612936565b8192505050949350505050565b505050565b505050565b600083838346306040516020016126ad9594939291906141f7565b6040516020818303038152906040528051906020012090509392505050565b6000600760009054906101000a900473ffffffffffffffffffffffffffffffffffffffff1673ffffffffffffffffffffffffffffffffffffffff166321f8a721836040518263ffffffff1660e01b81526004016127299190612d5c565b602060405180830381865afa158015612746573d6000803e3d6000fd5b505050506040513d601f19601f8201168201806040525081019061276a919061424a565b9050919050565b60008082905060005b60088110156127a75760ff8216600884901b179250600882901c9150806127a090614277565b905061277a565b50806000146127b9576127b86142bf565b5b60c082901b915050919050565b60006128066040518060400160405280600f81526020017f4465706f736974436f6e74726163740000000000000000000000000000000000815250611e20565b905090565b6001816000016000828254019250508190555050565b6000828260405160200161283692919061433a565b60405160208183030381529060405280519060200120905092915050565b6000807f7fffffffffffffffffffffffffffffff5d576e7357a4501ddfe92f46681b20a08360001c111561288f57600060039150915061292d565b6000600187878787604051600081526020016040526040516128b49493929190614371565b6020604051602081039080840390855afa1580156128d6573d6000803e3d6000fd5b505050602060405103519050600073ffffffffffffffffffffffffffffffffffffffff168173ffffffffffffffffffffffffffffffffffffffff16036129245760006001925092505061292d565b80600092509250505b94509492505050565b6000600481111561294a576129496143b6565b5b81600481111561295d5761295c6143b6565b5b0315612a995760016004811115612977576129766143b6565b5b81600481111561298a576129896143b6565b5b036129ca576040517f08c379a00000000000000000000000000000000000000000000000000000000081526004016129c190614431565b60405180910390fd5b600260048111156129de576129dd6143b6565b5b8160048111156129f1576129f06143b6565b5b03612a31576040517f08c379a0000000000000000000000000000000000000000000000000000000008152600401612a289061449d565b60405180910390fd5b60036004811115612a4557612a446143b6565b5b816004811115612a5857612a576143b6565b5b03612a98576040517f08c379a0000000000000000000000000000000000000000000000000000000008152600401612a8f9061452f565b60405180910390fd5b5b50565b600081519050919050565b600082825260208201905092915050565b60005b83811015612ad6578082015181840152602081019050612abb565b60008484015250505050565b6000601f19601f8301169050919050565b6000612afe82612a9c565b612b088185612aa7565b9350612b18818560208601612ab8565b612b2181612ae2565b840191505092915050565b60006020820190508181036000830152612b468184612af3565b905092915050565b600080fd5b600080fd5b600073ffffffffffffffffffffffffffffffffffffffff82169050919050565b6000612b8382612b58565b9050919050565b612b9381612b78565b8114612b9e57600080fd5b50565b600081359050612bb081612b8a565b92915050565b6000819050919050565b612bc981612bb6565b8114612bd457600080fd5b50565b600081359050612be681612bc0565b92915050565b60008060408385031215612c0357612c02612b4e565b5b6000612c1185828601612ba1565b9250506020612c2285828601612bd7565b9150509250929050565b60008115159050919050565b612c4181612c2c565b82525050565b6000602082019050612c5c6000830184612c38565b92915050565b612c6b81612bb6565b82525050565b6000602082019050612c866000830184612c62565b92915050565b600080600060608486031215612ca557612ca4612b4e565b5b6000612cb386828701612ba1565b9350506020612cc486828701612ba1565b9250506040612cd586828701612bd7565b9150509250925092565b600060208284031215612cf557612cf4612b4e565b5b6000612d0384828501612bd7565b91505092915050565b600060ff82169050919050565b612d2281612d0c565b82525050565b6000602082019050612d3d6000830184612d19565b92915050565b6000819050919050565b612d5681612d43565b82525050565b6000602082019050612d716000830184612d4d565b92915050565b600080600080600060a08688031215612d9357612d92612b4e565b5b6000612da188828901612bd7565b9550506020612db288828901612bd7565b9450506040612dc388828901612bd7565b9350506060612dd488828901612bd7565b9250506080612de588828901612bd7565b9150509295509295909350565b600080fd5b600080fd5b600080fd5b60008083601f840112612e1757612e16612df2565b5b8235905067ffffffffffffffff811115612e3457612e33612df7565b5b602083019150836001820283011115612e5057612e4f612dfc565b5b9250929050565b600080600080600060608688031215612e7357612e72612b4e565b5b6000612e8188828901612ba1565b955050602086013567ffffffffffffffff811115612ea257612ea1612b53565b5b612eae88828901612e01565b9450945050604086013567ffffffffffffffff811115612ed157612ed0612b53565b5b612edd88828901612e01565b92509250509295509295909350565b600060208284031215612f0257612f01612b4e565b5b6000612f1084828501612ba1565b91505092915050565b612f2281612d0c565b8114612f2d57600080fd5b50565b600081359050612f3f81612f19565b92915050565b612f4e81612d43565b8114612f5957600080fd5b50565b600081359050612f6b81612f45565b92915050565b600080600080600080600060e0888a031215612f9057612f8f612b4e565b5b6000612f9e8a828b01612ba1565b9750506020612faf8a828b01612ba1565b9650506040612fc08a828b01612bd7565b9550506060612fd18a828b01612bd7565b9450506080612fe28a828b01612f30565b93505060a0612ff38a828b01612f5c565b92505060c06130048a828b01612f5c565b91505092959891949750929550565b6000806040838503121561302a57613029612b4e565b5b600061303885828601612ba1565b925050602061304985828601612ba1565b9150509250929050565b7f5354414b455f5a45524f5f455448455200000000000000000000000000000000600082015250565b6000613089601083612aa7565b915061309482613053565b602082019050919050565b600060208201905081810360008301526130b88161307c565b9050919050565b7f4e487b7100000000000000000000000000000000000000000000000000000000600052602260045260246000fd5b6000600282049050600182168061310657607f821691505b602082108103613119576131186130bf565b5b50919050565b7f4e487b7100000000000000000000000000000000000000000000000000000000600052601160045260246000fd5b600061315982612bb6565b915061316483612bb6565b925082820190508082111561317c5761317b61311f565b5b92915050565b7f72656365697665206e6f742066726f6d20696e737572616e6365000000000000600082015250565b60006131b8601a83612aa7565b91506131c382613182565b602082019050919050565b600060208201905081810360008301526131e7816131ab565b9050919050565b6131f781612b78565b82525050565b600060208201905061321260008301846131ee565b92915050565b60008151905061322781612b8a565b92915050565b61323681612c2c565b811461324157600080fd5b50565b6000815190506132538161322d565b92915050565b600080604083850312156132705761326f612b4e565b5b600061327e85828601613218565b925050602061328f85828601613244565b9150509250929050565b7f4f6e6c79206e6f6465206f70657261746f722063616e2072656769737465722060008201527f76616c696461746f727321000000000000000000000000000000000000000000602082015250565b60006132f5602b83612aa7565b915061330082613299565b604082019050919050565b60006020820190508181036000830152613324816132e8565b9050919050565b7f4e6f6465206f70657261746f7220697320696e61637469766521000000000000600082015250565b6000613361601a83612aa7565b915061336c8261332b565b602082019050919050565b6000602082019050818103600083015261339081613354565b9050919050565b7f627566666572206574686572206e6f7420656e6f756768000000000000000000600082015250565b60006133cd601783612aa7565b91506133d882613397565b602082019050919050565b600060208201905081810360008301526133fc816133c0565b9050919050565b600082825260208201905092915050565b82818337600083830152505050565b600061342f8385613403565b935061343c838584613414565b61344583612ae2565b840190509392505050565b600060608201905061346560008301876131ee565b8181036020830152613478818587613423565b90506134876040830184612c62565b95945050505050565b7f45524332303a2064656372656173656420616c6c6f77616e63652062656c6f7760008201527f207a65726f000000000000000000000000000000000000000000000000000000602082015250565b60006134ec602583612aa7565b91506134f782613490565b604082019050919050565b6000602082019050818103600083015261351b816134df565b9050919050565b7f45524332305065726d69743a206578706972656420646561646c696e65000000600082015250565b6000613558601d83612aa7565b915061356382613522565b602082019050919050565b600060208201905081810360008301526135878161354b565b9050919050565b600060c0820190506135a36000830189612d4d565b6135b060208301886131ee565b6135bd60408301876131ee565b6135ca6060830186612c62565b6135d76080830185612c62565b6135e460a0830184612c62565b979650505050505050565b7f45524332305065726d69743a20696e76616c6964207369676e61747572650000600082015250565b6000613625601e83612aa7565b9150613630826135ef565b602082019050919050565b6000602082019050818103600083015261365481613618565b9050919050565b7f45524332303a206d696e7420746f20746865207a65726f206164647265737300600082015250565b6000613691601f83612aa7565b915061369c8261365b565b602082019050919050565b600060208201905081810360008301526136c081613684565b9050919050565b60006040820190506136dc6000830185612d4d565b6136e96020830184612c62565b9392505050565b7f45524332303a20617070726f76652066726f6d20746865207a65726f2061646460008201527f7265737300000000000000000000000000000000000000000000000000000000602082015250565b600061374c602483612aa7565b9150613757826136f0565b604082019050919050565b6000602082019050818103600083015261377b8161373f565b9050919050565b7f45524332303a20617070726f766520746f20746865207a65726f20616464726560008201527f7373000000000000000000000000000000000000000000000000000000000000602082015250565b60006137de602283612aa7565b91506137e982613782565b604082019050919050565b6000602082019050818103600083015261380d816137d1565b9050919050565b7f45524332303a20696e73756666696369656e7420616c6c6f77616e6365000000600082015250565b600061384a601d83612aa7565b915061385582613814565b602082019050919050565b600060208201905081810360008301526138798161383d565b9050919050565b7f45524332303a207472616e736665722066726f6d20746865207a65726f20616460008201527f6472657373000000000000000000000000000000000000000000000000000000602082015250565b60006138dc602583612aa7565b91506138e782613880565b604082019050919050565b6000602082019050818103600083015261390b816138cf565b9050919050565b7f45524332303a207472616e7366657220746f20746865207a65726f206164647260008201527f6573730000000000000000000000000000000000000000000000000000000000602082015250565b600061396e602383612aa7565b915061397982613912565b604082019050919050565b6000602082019050818103600083015261399d81613961565b9050919050565b7f45524332303a207472616e7366657220616d6f756e742065786365656473206260008201527f616c616e63650000000000000000000000000000000000000000000000000000602082015250565b6000613a00602683612aa7565b9150613a0b826139a4565b604082019050919050565b60006020820190508181036000830152613a2f816139f3565b9050919050565b600081519050613a4581612bc0565b92915050565b600060208284031215613a6157613a60612b4e565b5b6000613a6f84828501613a36565b91505092915050565b6000613a8382612bb6565b9150613a8e83612bb6565b9250828202613a9c81612bb6565b91508282048414831517613ab357613ab261311f565b5b5092915050565b6000613ac582612bb6565b9150613ad083612bb6565b9250828203905081811115613ae857613ae761311f565b5b92915050565b600081905092915050565b7f636f6e74726163742e6164647265737300000000000000000000000000000000600082015250565b6000613b2f601083613aee565b9150613b3a82613af9565b601082019050919050565b6000613b5082612a9c565b613b5a8185613aee565b9350613b6a818560208601612ab8565b80840191505092915050565b6000613b8182613b22565b9150613b8d8284613b45565b915081905092915050565b7f436f6e7472616374206e6f7420666f756e640000000000000000000000000000600082015250565b6000613bce601283612aa7565b9150613bd982613b98565b602082019050919050565b60006020820190508181036000830152613bfd81613bc1565b9050919050565b7f45524332303a206275726e2066726f6d20746865207a65726f2061646472657360008201527f7300000000000000000000000000000000000000000000000000000000000000602082015250565b6000613c60602183612aa7565b9150613c6b82613c04565b604082019050919050565b60006020820190508181036000830152613c8f81613c53565b9050919050565b7f45524332303a206275726e20616d6f756e7420657863656564732062616c616e60008201527f6365000000000000000000000000000000000000000000000000000000000000602082015250565b6000613cf2602283612aa7565b9150613cfd82613c96565b604082019050919050565b60006020820190508181036000830152613d2181613ce5565b9050919050565b7f4e487b7100000000000000000000000000000000000000000000000000000000600052601260045260246000fd5b6000613d6282612bb6565b9150613d6d83612bb6565b925082613d7d57613d7c613d28565b5b828204905092915050565b60007fffffffffffffffffffffffff000000000000000000000000000000000000000082169050919050565b6000819050919050565b613dcf613dca82613d88565b613db4565b82525050565b60007fffffffffffffffffffffffffffffffffffffffff00000000000000000000000082169050919050565b6000819050919050565b613e1c613e1782613dd5565b613e01565b82525050565b6000613e2e8285613dbe565b600c82019150613e3e8284613e0b565b6014820191508190509392505050565b600081519050919050565b6000819050602082019050919050565b6000613e758251612d43565b80915050919050565b600082821b905092915050565b6000613e9682613e4e565b82613ea084613e59565b9050613eab81613e69565b92506020821015613eeb57613ee67fffffffffffffffffffffffffffffffffffffffffffffffffffffffffffffffff83602003600802613e7e565b831692505b5050919050565b600081905092915050565b6000613f098385613ef2565b9350613f16838584613414565b82840190509392505050565b60007fffffffffffffffffffffffffffffffff0000000000000000000000000000000082169050919050565b6000819050919050565b613f69613f6482613f22565b613f4e565b82525050565b6000613f7c828587613efd565b9150613f888284613f58565b601082019150819050949350505050565b6000613fa482613e4e565b613fae8185613ef2565b9350613fbe818560208601612ab8565b80840191505092915050565b6000613fd68284613f99565b915081905092915050565b600081519050613ff081612f45565b92915050565b60006020828403121561400c5761400b612b4e565b5b600061401a84828501613fe1565b91505092915050565b600080fd5b600080fd5b6000808585111561404157614040614023565b5b8386111561405257614051614028565b5b6001850283019150848603905094509492505050565b6000614075828486613efd565b91508190509392505050565b6000819050919050565b61409c61409782612d43565b614081565b82525050565b60006140af828587613efd565b91506140bb828461408b565b602082019150819050949350505050565b60006140d8828561408b565b6020820191506140e8828461408b565b6020820191508190509392505050565b6000819050919050565b61411361410e82612bb6565b6140f8565b82525050565b60006141258285614102565b602082019150614135828461408b565b6020820191508190509392505050565b6000614151828461408b565b60208201915081905092915050565b600061416b82613e4e565b6141758185613403565b9350614185818560208601612ab8565b61418e81612ae2565b840191505092915050565b600060808201905081810360008301526141b481888a613423565b905081810360208301526141c88187614160565b905081810360408301526141dd818587613423565b90506141ec6060830184612d4d565b979650505050505050565b600060a08201905061420c6000830188612d4d565b6142196020830187612d4d565b6142266040830186612d4d565b6142336060830185612c62565b61424060808301846131ee565b9695505050505050565b6000602082840312156142605761425f612b4e565b5b600061426e84828501613218565b91505092915050565b600061428282612bb6565b91507fffffffffffffffffffffffffffffffffffffffffffffffffffffffffffffffff82036142b4576142b361311f565b5b600182019050919050565b7f4e487b7100000000000000000000000000000000000000000000000000000000600052600160045260246000fd5b7f1901000000000000000000000000000000000000000000000000000000000000600082015250565b6000614324600283613aee565b915061432f826142ee565b600282019050919050565b600061434582614317565b9150614351828561408b565b602082019150614361828461408b565b6020820191508190509392505050565b60006080820190506143866000830187612d4d565b6143936020830186612d19565b6143a06040830185612d4d565b6143ad6060830184612d4d565b95945050505050565b7f4e487b7100000000000000000000000000000000000000000000000000000000600052602160045260246000fd5b7f45434453413a20696e76616c6964207369676e61747572650000000000000000600082015250565b600061441b601883612aa7565b9150614426826143e5565b602082019050919050565b6000602082019050818103600083015261444a8161440e565b9050919050565b7f45434453413a20696e76616c6964207369676e6174757265206c656e67746800600082015250565b6000614487601f83612aa7565b915061449282614451565b602082019050919050565b600060208201905081810360008301526144b68161447a565b9050919050565b7f45434453413a20696e76616c6964207369676e6174757265202773272076616c60008201527f7565000000000000000000000000000000000000000000000000000000000000602082015250565b6000614519602283612aa7565b9150614524826144bd565b604082019050919050565b600060208201905081810360008301526145488161450c565b905091905056fea2646970667358221220c99a5e8206a12ab62e8aac3dcc8b8ef334c8951a70e300a6a0a7da95fcb1d87f64736f6c63430008110033",
  "linkReferences": {},
  "deployedLinkReferences": {}
}