{
  "_format": "hh-sol-artifact-1",
  "contractName": "DawnWithdraw",
  "sourceName": "contracts/core/DawnWithdraw.sol",
  "abi": [
    {
      "inputs": [
        {
          "internalType": "contract IDawnStorageInterface",
          "name": "dawnStorageAddress",
          "type": "address"
        }
      ],
      "stateMutability": "nonpayable",
      "type": "constructor"
    },
    {
      "inputs": [
        {
          "internalType": "uint256",
          "name": "requestId",
          "type": "uint256"
        }
      ],
      "name": "AlreadyClaimed",
      "type": "error"
    },
    {
      "inputs": [
        {
          "internalType": "uint256",
          "name": "expectEth",
          "type": "uint256"
        },
        {
          "internalType": "uint256",
          "name": "ethAmountToLock",
          "type": "uint256"
        }
      ],
      "name": "EthNotExpect",
      "type": "error"
    },
    {
      "inputs": [
        {
          "internalType": "uint256",
          "name": "preLastFulfilledRequestId",
          "type": "uint256"
        },
        {
          "internalType": "uint256",
          "name": "lastRequestId",
          "type": "uint256"
        },
        {
          "internalType": "uint256",
          "name": "requestId",
          "type": "uint256"
        }
      ],
      "name": "InvalidRequestIdToBeFulfilled",
      "type": "error"
    },
    {
      "inputs": [
        {
          "internalType": "uint256",
          "name": "requestId",
          "type": "uint256"
        },
        {
          "internalType": "address",
          "name": "owner",
          "type": "address"
        },
        {
          "internalType": "address",
          "name": "sender",
          "type": "address"
        }
      ],
      "name": "NotWithdrawOwner",
      "type": "error"
    },
    {
      "inputs": [
        {
          "internalType": "uint256",
          "name": "sent",
          "type": "uint256"
        },
        {
          "internalType": "uint256",
          "name": "maxExpected",
          "type": "uint256"
        }
      ],
      "name": "TooMuchEtherToLocked",
      "type": "error"
    },
    {
      "anonymous": false,
      "inputs": [
        {
          "indexed": false,
          "internalType": "address",
          "name": "owner",
          "type": "address"
        },
        {
          "indexed": false,
          "internalType": "uint256",
          "name": "ethAmount",
          "type": "uint256"
        }
      ],
      "name": "LogClaimed",
      "type": "event"
    },
    {
      "anonymous": false,
      "inputs": [
        {
          "indexed": false,
          "internalType": "uint256",
          "name": "ethValue",
          "type": "uint256"
        },
        {
          "indexed": false,
          "internalType": "uint256",
          "name": "lastRequestIdToBeFulfilled",
          "type": "uint256"
        },
        {
          "indexed": false,
          "internalType": "uint256",
          "name": "checkpointIndex",
          "type": "uint256"
        }
      ],
      "name": "LogFulfillment",
      "type": "event"
    },
    {
      "anonymous": false,
      "inputs": [
        {
          "indexed": true,
          "internalType": "uint256",
          "name": "requestId",
          "type": "uint256"
        },
        {
          "indexed": true,
          "internalType": "address",
          "name": "owner",
          "type": "address"
        },
        {
          "indexed": false,
          "internalType": "uint256",
          "name": "pEthAmount",
          "type": "uint256"
        },
        {
          "indexed": false,
          "internalType": "uint256",
          "name": "maxClaimableEtherAmount",
          "type": "uint256"
        }
      ],
      "name": "LogWithdrawalRequested",
      "type": "event"
    },
    {
      "inputs": [
        {
          "internalType": "uint256",
          "name": "lastRequestIdToBeFulfilled",
          "type": "uint256"
        },
        {
          "internalType": "uint256",
          "name": "ethAmountToLock",
          "type": "uint256"
        }
      ],
      "name": "checkFulfillment",
      "outputs": [],
      "stateMutability": "view",
      "type": "function"
    },
    {
      "inputs": [
        {
          "internalType": "uint256",
          "name": "",
          "type": "uint256"
        }
      ],
      "name": "checkPoints",
      "outputs": [
        {
          "internalType": "uint256",
          "name": "totalEther",
          "type": "uint256"
        },
        {
          "internalType": "uint256",
          "name": "totalPEth",
          "type": "uint256"
        },
        {
          "internalType": "uint256",
          "name": "endRequestId",
          "type": "uint256"
        }
      ],
      "stateMutability": "view",
      "type": "function"
    },
    {
      "inputs": [
        {
          "internalType": "uint256",
          "name": "requestId",
          "type": "uint256"
        }
      ],
      "name": "claimEther",
      "outputs": [],
      "stateMutability": "nonpayable",
      "type": "function"
    },
    {
      "inputs": [
        {
          "internalType": "uint256",
          "name": "lastRequestIdToBeFulfilled",
          "type": "uint256"
        }
      ],
      "name": "fulfillment",
      "outputs": [],
      "stateMutability": "payable",
      "type": "function"
    },
    {
      "inputs": [],
      "name": "getUnfulfilledTotalEth",
      "outputs": [
        {
          "internalType": "uint256",
          "name": "",
          "type": "uint256"
        }
      ],
      "stateMutability": "view",
      "type": "function"
    },
    {
      "inputs": [],
      "name": "getUnfulfilledTotalPEth",
      "outputs": [
        {
          "internalType": "uint256",
          "name": "",
          "type": "uint256"
        }
      ],
      "stateMutability": "view",
      "type": "function"
    },
    {
      "inputs": [],
      "name": "getUnfulfilledWithdrawRequestQueue",
      "outputs": [
        {
          "components": [
            {
              "internalType": "address",
              "name": "owner",
              "type": "address"
            },
            {
              "internalType": "uint256",
              "name": "cumulativePEth",
              "type": "uint256"
            },
            {
              "internalType": "uint256",
              "name": "maxCumulativeClaimableEther",
              "type": "uint256"
            },
            {
              "internalType": "uint256",
              "name": "createdTime",
              "type": "uint256"
            },
            {
              "internalType": "bool",
              "name": "claimed",
              "type": "bool"
            }
          ],
          "internalType": "struct WithdrawRequest[]",
          "name": "unfulfilledWithdrawRequestQueue",
          "type": "tuple[]"
        }
      ],
      "stateMutability": "view",
      "type": "function"
    },
    {
      "inputs": [],
      "name": "getWithdrawQueueStat",
      "outputs": [
        {
          "internalType": "uint256",
          "name": "lastFulfillmentRequestId",
          "type": "uint256"
        },
        {
          "internalType": "uint256",
          "name": "lastRequestId",
          "type": "uint256"
        },
        {
          "internalType": "uint256",
          "name": "lastCheckpointIndex",
          "type": "uint256"
        }
      ],
      "stateMutability": "view",
      "type": "function"
    },
    {
      "inputs": [
        {
          "internalType": "uint256",
          "name": "pEthAmount",
          "type": "uint256"
        }
      ],
      "name": "requestWithdraw",
      "outputs": [
        {
          "internalType": "uint256",
          "name": "requestId",
          "type": "uint256"
        }
      ],
      "stateMutability": "nonpayable",
      "type": "function"
    },
    {
      "inputs": [
        {
          "internalType": "uint256",
          "name": "",
          "type": "uint256"
        }
      ],
      "name": "withdrawRequestQueue",
      "outputs": [
        {
          "internalType": "address",
          "name": "owner",
          "type": "address"
        },
        {
          "internalType": "uint256",
          "name": "cumulativePEth",
          "type": "uint256"
        },
        {
          "internalType": "uint256",
          "name": "maxCumulativeClaimableEther",
          "type": "uint256"
        },
        {
          "internalType": "uint256",
          "name": "createdTime",
          "type": "uint256"
        },
        {
          "internalType": "bool",
          "name": "claimed",
          "type": "bool"
        }
      ],
      "stateMutability": "view",
      "type": "function"
    }
  ],
  "bytecode": "0x608060405260008060006101000a81548173ffffffffffffffffffffffffffffffffffffffff021916908373ffffffffffffffffffffffffffffffffffffffff1602179055503480156200005257600080fd5b50604051620029843803806200298483398181016040528101906200007891906200013f565b80806000806101000a81548173ffffffffffffffffffffffffffffffffffffffff021916908373ffffffffffffffffffffffffffffffffffffffff160217905550505062000171565b600080fd5b600073ffffffffffffffffffffffffffffffffffffffff82169050919050565b6000620000f382620000c6565b9050919050565b60006200010782620000e6565b9050919050565b6200011981620000fa565b81146200012557600080fd5b50565b60008151905062000139816200010e565b92915050565b600060208284031215620001585762000157620000c1565b5b6000620001688482850162000128565b91505092915050565b61280380620001816000396000f3fe6080604052600436106100915760003560e01c8063c204943a11610059578063c204943a14610195578063d29d3b0b146101d4578063d653e134146101fd578063d7cb6eb614610228578063fdd798af1461024457610091565b80630142e87a14610096578063311b1d9e146100c157806349407a44146100ee578063745400c9146101175780639bd0ebb514610154575b600080fd5b3480156100a257600080fd5b506100ab61026f565b6040516100b89190611cce565b60405180910390f35b3480156100cd57600080fd5b506100d661031c565b6040516100e593929190611ce9565b60405180910390f35b3480156100fa57600080fd5b5061011560048036038101906101109190611d51565b6103a7565b005b34801561012357600080fd5b5061013e60048036038101906101399190611d51565b6107d7565b60405161014b9190611cce565b60405180910390f35b34801561016057600080fd5b5061017b60048036038101906101769190611d51565b610c4d565b60405161018c959493929190611dda565b60405180910390f35b3480156101a157600080fd5b506101bc60048036038101906101b79190611d51565b610cb0565b6040516101cb93929190611ce9565b60405180910390f35b3480156101e057600080fd5b506101fb60048036038101906101f69190611e2d565b610cda565b005b34801561020957600080fd5b50610212610f4a565b60405161021f9190611cce565b60405180910390f35b610242600480360381019061023d9190611d51565b610ff7565b005b34801561025057600080fd5b506102596115ba565b6040516102669190611fb1565b60405180910390f35b60008061029b7fd6bab910388c26c3fac79e47634bcc38e5fd763414e3f686243de58853e61686611785565b905060006102c87f30ffab0c1a94adfb4579170c8b5b1e6a1fe5314588994cb20aafffe6751be821611785565b90508082036102dc57600092505050610319565b600160008381526020019081526020016000206001015460016000838152602001908152602001600020600101546103149190612002565b925050505b90565b600080600061034a7fd6bab910388c26c3fac79e47634bcc38e5fd763414e3f686243de58853e61686611785565b92506103757f30ffab0c1a94adfb4579170c8b5b1e6a1fe5314588994cb20aafffe6751be821611785565b91506103a07fd28680a8ade84eae81bbdf3edb1dd492fedc91bc2317173b71c5148121868b50611785565b9050909192565b600081116103ea576040517f08c379a00000000000000000000000000000000000000000000000000000000081526004016103e190612093565b60405180910390fd5b6104137fd6bab910388c26c3fac79e47634bcc38e5fd763414e3f686243de58853e61686611785565b811115610455576040517f08c379a000000000000000000000000000000000000000000000000000000000815260040161044c906120ff565b60405180910390fd5b6000600160008381526020019081526020016000206040518060a00160405290816000820160009054906101000a900473ffffffffffffffffffffffffffffffffffffffff1673ffffffffffffffffffffffffffffffffffffffff1673ffffffffffffffffffffffffffffffffffffffff1681526020016001820154815260200160028201548152602001600382015481526020016004820160009054906101000a900460ff161515151581525050905080608001511561054d57816040517fb3167bfa0000000000000000000000000000000000000000000000000000000081526004016105449190611cce565b60405180910390fd5b3373ffffffffffffffffffffffffffffffffffffffff16816000015173ffffffffffffffffffffffffffffffffffffffff16146105c957818160000151336040517fa57dcbcc0000000000000000000000000000000000000000000000000000000081526004016105c09392919061211f565b60405180910390fd5b60018160800190151590811515815250506000600160006001856105ed9190612002565b81526020019081526020016000206040518060a00160405290816000820160009054906101000a900473ffffffffffffffffffffffffffffffffffffffff1673ffffffffffffffffffffffffffffffffffffffff1673ffffffffffffffffffffffffffffffffffffffff1681526020016001820154815260200160028201548152602001600382015481526020016004820160009054906101000a900460ff16151515158152505090506000816040015183604001516106ad9190612002565b90506000826020015184602001516106c59190612002565b905060006106fd8660006106f87fd28680a8ade84eae81bbdf3edb1dd492fedc91bc2317173b71c5148121868b50611785565b611829565b905061074d8361074884600260008681526020019081526020016000206040518060600160405290816000820154815260200160018201548152602001600282015481525050611980565b6119b7565b92503373ffffffffffffffffffffffffffffffffffffffff166108fc849081150290604051600060405180830381858888f19350505050158015610795573d6000803e3d6000fd5b507f9cf52b285ad8ad610008b7734bb4bd9904fec60e4c6ee55100f19b3d50f9ec9933846040516107c7929190612156565b60405180910390a1505050505050565b600080821161081b576040517f08c379a0000000000000000000000000000000000000000000000000000000008152600401610812906121cb565b60405180910390fd5b8161085a6040518060400160405280600b81526020017f4461776e4465706f7369740000000000000000000000000000000000000000008152506119d0565b73ffffffffffffffffffffffffffffffffffffffff166370a08231336040518263ffffffff1660e01b815260040161089291906121eb565b602060405180830381865afa1580156108af573d6000803e3d6000fd5b505050506040513d601f19601f820116820180604052508101906108d3919061221b565b1015610914576040517f08c379a000000000000000000000000000000000000000000000000000000000815260040161090b90612294565b60405180910390fd5b60006109546040518060400160405280600b81526020017f4461776e4465706f7369740000000000000000000000000000000000000000008152506119d0565b73ffffffffffffffffffffffffffffffffffffffff1663b6460fb5846040518263ffffffff1660e01b815260040161098c9190611cce565b602060405180830381865afa1580156109a9573d6000803e3d6000fd5b505050506040513d601f19601f820116820180604052508101906109cd919061221b565b9050600081036109e0576109df6122b4565b5b6000610a0b7f30ffab0c1a94adfb4579170c8b5b1e6a1fe5314588994cb20aafffe6751be821611785565b90506000600160008381526020019081526020016000206040518060a00160405290816000820160009054906101000a900473ffffffffffffffffffffffffffffffffffffffff1673ffffffffffffffffffffffffffffffffffffffff1673ffffffffffffffffffffffffffffffffffffffff1681526020016001820154815260200160028201548152602001600382015481526020016004820160009054906101000a900460ff161515151581525050905060006040518060a001604052803373ffffffffffffffffffffffffffffffffffffffff168152602001878460200151610af791906122e3565b8152602001858460400151610b0c91906122e3565b81526020014281526020016000151581525090508060016000600186610b3291906122e3565b815260200190815260200160002060008201518160000160006101000a81548173ffffffffffffffffffffffffffffffffffffffff021916908373ffffffffffffffffffffffffffffffffffffffff16021790555060208201518160010155604082015181600201556060820151816003015560808201518160040160006101000a81548160ff021916908315150217905550905050610bf37f30ffab0c1a94adfb4579170c8b5b1e6a1fe5314588994cb20aafffe6751be8216001611a7c565b3373ffffffffffffffffffffffffffffffffffffffff16857fc591308e64b810a347e1b483ed1b5567d87bbca118cf1622ece683c6dd5850b78887604051610c3c929190612317565b60405180910390a350505050919050565b60016020528060005260406000206000915090508060000160009054906101000a900473ffffffffffffffffffffffffffffffffffffffff16908060010154908060020154908060030154908060040160009054906101000a900460ff16905085565b60026020528060005260406000206000915090508060000154908060010154908060020154905083565b6000610d057fd6bab910388c26c3fac79e47634bcc38e5fd763414e3f686243de58853e61686611785565b90506000610d327f30ffab0c1a94adfb4579170c8b5b1e6a1fe5314588994cb20aafffe6751be821611785565b90508084111580610d4257508184115b15610d88578181856040517f2681e14e000000000000000000000000000000000000000000000000000000008152600401610d7f93929190611ce9565b60405180910390fd5b6000808390505b858111610efc57610edc60016000600184610daa9190612002565b8152602001908152602001600020600201546001600084815260200190815260200160002060020154610ddd9190612002565b610e1b6040518060400160405280600b81526020017f4461776e4465706f7369740000000000000000000000000000000000000000008152506119d0565b73ffffffffffffffffffffffffffffffffffffffff1663b6460fb560016000600187610e479190612002565b8152602001908152602001600020600101546001600087815260200190815260200160002060010154610e7a9190612002565b6040518263ffffffff1660e01b8152600401610e969190611cce565b602060405180830381865afa158015610eb3573d6000803e3d6000fd5b505050506040513d601f19601f82011682018060405250810190610ed7919061221b565b6119b7565b82610ee791906122e3565b91508080610ef490612340565b915050610d8f565b50838114610f435780846040517f8f9c3a02000000000000000000000000000000000000000000000000000000008152600401610f3a929190612317565b60405180910390fd5b5050505050565b600080610f767fd6bab910388c26c3fac79e47634bcc38e5fd763414e3f686243de58853e61686611785565b90506000610fa37f30ffab0c1a94adfb4579170c8b5b1e6a1fe5314588994cb20aafffe6751be821611785565b9050808203610fb757600092505050610ff4565b60016000838152602001908152602001600020600201546001600083815260200190815260200160002060020154610fef9190612002565b925050505b90565b6110356040518060400160405280600b81526020017f4461776e4465706f7369740000000000000000000000000000000000000000008152506119d0565b73ffffffffffffffffffffffffffffffffffffffff163373ffffffffffffffffffffffffffffffffffffffff16146110a2576040517f08c379a0000000000000000000000000000000000000000000000000000000008152600401611099906123d4565b60405180910390fd5b60006110cd7f30ffab0c1a94adfb4579170c8b5b1e6a1fe5314588994cb20aafffe6751be821611785565b905060006110fa7fd6bab910388c26c3fac79e47634bcc38e5fd763414e3f686243de58853e61686611785565b90508183111561113f576040517f08c379a000000000000000000000000000000000000000000000000000000000815260040161113690612440565b60405180910390fd5b808311611181576040517f08c379a0000000000000000000000000000000000000000000000000000000008152600401611178906124ac565b60405180910390fd5b6000600160008381526020019081526020016000206040518060a00160405290816000820160009054906101000a900473ffffffffffffffffffffffffffffffffffffffff1673ffffffffffffffffffffffffffffffffffffffff1673ffffffffffffffffffffffffffffffffffffffff1681526020016001820154815260200160028201548152602001600382015481526020016004820160009054906101000a900460ff16151515158152505090506000600160008681526020019081526020016000206040518060a00160405290816000820160009054906101000a900473ffffffffffffffffffffffffffffffffffffffff1673ffffffffffffffffffffffffffffffffffffffff1673ffffffffffffffffffffffffffffffffffffffff1681526020016001820154815260200160028201548152602001600382015481526020016004820160009054906101000a900460ff1615151515815250509050816040015181604001516112f79190612002565b3411156113505734826040015182604001516113139190612002565b6040517fe7682193000000000000000000000000000000000000000000000000000000008152600401611347929190612317565b60405180910390fd5b600061137b7fd28680a8ade84eae81bbdf3edb1dd492fedc91bc2317173b71c5148121868b50611785565b905060405180606001604052806113c66040518060400160405280600b81526020017f4461776e4465706f7369740000000000000000000000000000000000000000008152506119d0565b73ffffffffffffffffffffffffffffffffffffffff166337cfdaca6040518163ffffffff1660e01b8152600401602060405180830381865afa158015611410573d6000803e3d6000fd5b505050506040513d601f19601f82011682018060405250810190611434919061221b565b81526020016114776040518060400160405280600b81526020017f4461776e4465706f7369740000000000000000000000000000000000000000008152506119d0565b73ffffffffffffffffffffffffffffffffffffffff166318160ddd6040518163ffffffff1660e01b8152600401602060405180830381865afa1580156114c1573d6000803e3d6000fd5b505050506040513d601f19601f820116820180604052508101906114e5919061221b565b8152602001878152506002600083815260200190815260200160002060008201518160000155602082015181600101556040820151816002015590505061154d7fd28680a8ade84eae81bbdf3edb1dd492fedc91bc2317173b71c5148121868b506001611a7c565b6115777fd6bab910388c26c3fac79e47634bcc38e5fd763414e3f686243de58853e6168687611b0d565b7f5a6a1fc1e70e3790130695fb3e2cf3022ed82f288bbfd10ecc7096c90bbe3ce13487836040516115aa93929190611ce9565b60405180910390a1505050505050565b606060006115e77fd6bab910388c26c3fac79e47634bcc38e5fd763414e3f686243de58853e61686611785565b905060006116147f30ffab0c1a94adfb4579170c8b5b1e6a1fe5314588994cb20aafffe6751be821611785565b90506000600183836116269190612002565b61163091906122e3565b90508067ffffffffffffffff81111561164c5761164b6124cc565b5b60405190808252806020026020018201604052801561168557816020015b611672611c6e565b81526020019060019003908161166a5790505b50935060008390505b82811161177e57600160008281526020019081526020016000206040518060a00160405290816000820160009054906101000a900473ffffffffffffffffffffffffffffffffffffffff1673ffffffffffffffffffffffffffffffffffffffff1673ffffffffffffffffffffffffffffffffffffffff1681526020016001820154815260200160028201548152602001600382015481526020016004820160009054906101000a900460ff16151515158152505085858361174f9190612002565b815181106117605761175f6124fb565b5b6020026020010181905250808061177690612340565b91505061168e565b5050505090565b60008060009054906101000a900473ffffffffffffffffffffffffffffffffffffffff1673ffffffffffffffffffffffffffffffffffffffff1663bd02d0f5836040518263ffffffff1660e01b81526004016117e19190612543565b602060405180830381865afa1580156117fe573d6000803e3d6000fd5b505050506040513d601f19601f82011682018060405250810190611822919061221b565b9050919050565b60006118547fd6bab910388c26c3fac79e47634bcc38e5fd763414e3f686243de58853e61686611785565b841115611896576040517f08c379a000000000000000000000000000000000000000000000000000000000815260040161188d906120ff565b60405180910390fd5b600090506000600284846118aa9190612002565b6118b4919061258d565b846118bf91906122e3565b905060005b838510156119775760026000838152602001908152602001600020600201548611156118fe576001826118f791906122e3565b9450611972565b6000820361190b57600090505b6002600060018461191c9190612002565b81526020019081526020016000206002015490508086118015611955575060026000838152602001908152602001600020600201548611155b1561196257819250611977565b60018261196f9190612002565b93505b6118c4565b50509392505050565b60006119af82602001516119a1846000015186611b9e90919063ffffffff16565b611bb490919063ffffffff16565b905092915050565b60008183106119c657816119c8565b825b905092915050565b600080611a02836040516020016119e7919061267b565b60405160208183030381529060405280519060200120611bca565b9050600073ffffffffffffffffffffffffffffffffffffffff168173ffffffffffffffffffffffffffffffffffffffff1603611a73576040517f08c379a0000000000000000000000000000000000000000000000000000000008152600401611a6a906126e9565b60405180910390fd5b80915050919050565b60008054906101000a900473ffffffffffffffffffffffffffffffffffffffff1673ffffffffffffffffffffffffffffffffffffffff1663adb353dc83836040518363ffffffff1660e01b8152600401611ad7929190612709565b600060405180830381600087803b158015611af157600080fd5b505af1158015611b05573d6000803e3d6000fd5b505050505050565b60008054906101000a900473ffffffffffffffffffffffffffffffffffffffff1673ffffffffffffffffffffffffffffffffffffffff1663e2a4853a83836040518363ffffffff1660e01b8152600401611b68929190612709565b600060405180830381600087803b158015611b8257600080fd5b505af1158015611b96573d6000803e3d6000fd5b505050505050565b60008183611bac9190612732565b905092915050565b60008183611bc2919061258d565b905092915050565b60008060009054906101000a900473ffffffffffffffffffffffffffffffffffffffff1673ffffffffffffffffffffffffffffffffffffffff166321f8a721836040518263ffffffff1660e01b8152600401611c269190612543565b602060405180830381865afa158015611c43573d6000803e3d6000fd5b505050506040513d601f19601f82011682018060405250810190611c6791906127a0565b9050919050565b6040518060a00160405280600073ffffffffffffffffffffffffffffffffffffffff1681526020016000815260200160008152602001600081526020016000151581525090565b6000819050919050565b611cc881611cb5565b82525050565b6000602082019050611ce36000830184611cbf565b92915050565b6000606082019050611cfe6000830186611cbf565b611d0b6020830185611cbf565b611d186040830184611cbf565b949350505050565b600080fd5b611d2e81611cb5565b8114611d3957600080fd5b50565b600081359050611d4b81611d25565b92915050565b600060208284031215611d6757611d66611d20565b5b6000611d7584828501611d3c565b91505092915050565b600073ffffffffffffffffffffffffffffffffffffffff82169050919050565b6000611da982611d7e565b9050919050565b611db981611d9e565b82525050565b60008115159050919050565b611dd481611dbf565b82525050565b600060a082019050611def6000830188611db0565b611dfc6020830187611cbf565b611e096040830186611cbf565b611e166060830185611cbf565b611e236080830184611dcb565b9695505050505050565b60008060408385031215611e4457611e43611d20565b5b6000611e5285828601611d3c565b9250506020611e6385828601611d3c565b9150509250929050565b600081519050919050565b600082825260208201905092915050565b6000819050602082019050919050565b611ea281611d9e565b82525050565b611eb181611cb5565b82525050565b611ec081611dbf565b82525050565b60a082016000820151611edc6000850182611e99565b506020820151611eef6020850182611ea8565b506040820151611f026040850182611ea8565b506060820151611f156060850182611ea8565b506080820151611f286080850182611eb7565b50505050565b6000611f3a8383611ec6565b60a08301905092915050565b6000602082019050919050565b6000611f5e82611e6d565b611f688185611e78565b9350611f7383611e89565b8060005b83811015611fa4578151611f8b8882611f2e565b9750611f9683611f46565b925050600181019050611f77565b5085935050505092915050565b60006020820190508181036000830152611fcb8184611f53565b905092915050565b7f4e487b7100000000000000000000000000000000000000000000000000000000600052601160045260246000fd5b600061200d82611cb5565b915061201883611cb5565b92508282039050818111156120305761202f611fd3565b5b92915050565b600082825260208201905092915050565b7f5a65726f20776974686472617720726571756573744964000000000000000000600082015250565b600061207d601783612036565b915061208882612047565b602082019050919050565b600060208201905081810360008301526120ac81612070565b9050919050565b7f4e6f742066756c66696c6c6d656e740000000000000000000000000000000000600082015250565b60006120e9600f83612036565b91506120f4826120b3565b602082019050919050565b60006020820190508181036000830152612118816120dc565b9050919050565b60006060820190506121346000830186611cbf565b6121416020830185611db0565b61214e6040830184611db0565b949350505050565b600060408201905061216b6000830185611db0565b6121786020830184611cbf565b9392505050565b7f5a65726f20704574680000000000000000000000000000000000000000000000600082015250565b60006121b5600983612036565b91506121c08261217f565b602082019050919050565b600060208201905081810360008301526121e4816121a8565b9050919050565b60006020820190506122006000830184611db0565b92915050565b60008151905061221581611d25565b92915050565b60006020828403121561223157612230611d20565b5b600061223f84828501612206565b91505092915050565b7f50457468206e6f7420656e6f7567680000000000000000000000000000000000600082015250565b600061227e600f83612036565b915061228982612248565b602082019050919050565b600060208201905081810360008301526122ad81612271565b9050919050565b7f4e487b7100000000000000000000000000000000000000000000000000000000600052600160045260246000fd5b60006122ee82611cb5565b91506122f983611cb5565b925082820190508082111561231157612310611fd3565b5b92915050565b600060408201905061232c6000830185611cbf565b6123396020830184611cbf565b9392505050565b600061234b82611cb5565b91507fffffffffffffffffffffffffffffffffffffffffffffffffffffffffffffffff820361237d5761237c611fd3565b5b600182019050919050565b7f4f6e6c7920616c6c6f77204461776e4465706f73697400000000000000000000600082015250565b60006123be601683612036565b91506123c982612388565b602082019050919050565b600060208201905081810360008301526123ed816123b1565b9050919050565b7f496e76616c696420726571756573744964000000000000000000000000000000600082015250565b600061242a601183612036565b9150612435826123f4565b602082019050919050565b600060208201905081810360008301526124598161241d565b9050919050565b7f416c72656164792066756c66696c6c6d656e7400000000000000000000000000600082015250565b6000612496601383612036565b91506124a182612460565b602082019050919050565b600060208201905081810360008301526124c581612489565b9050919050565b7f4e487b7100000000000000000000000000000000000000000000000000000000600052604160045260246000fd5b7f4e487b7100000000000000000000000000000000000000000000000000000000600052603260045260246000fd5b6000819050919050565b61253d8161252a565b82525050565b60006020820190506125586000830184612534565b92915050565b7f4e487b7100000000000000000000000000000000000000000000000000000000600052601260045260246000fd5b600061259882611cb5565b91506125a383611cb5565b9250826125b3576125b261255e565b5b828204905092915050565b600081905092915050565b7f636f6e74726163742e6164647265737300000000000000000000000000000000600082015250565b60006125ff6010836125be565b915061260a826125c9565b601082019050919050565b600081519050919050565b60005b8381101561263e578082015181840152602081019050612623565b60008484015250505050565b600061265582612615565b61265f81856125be565b935061266f818560208601612620565b80840191505092915050565b6000612686826125f2565b9150612692828461264a565b915081905092915050565b7f436f6e7472616374206e6f7420666f756e640000000000000000000000000000600082015250565b60006126d3601283612036565b91506126de8261269d565b602082019050919050565b60006020820190508181036000830152612702816126c6565b9050919050565b600060408201905061271e6000830185612534565b61272b6020830184611cbf565b9392505050565b600061273d82611cb5565b915061274883611cb5565b925082820261275681611cb5565b9150828204841483151761276d5761276c611fd3565b5b5092915050565b61277d81611d9e565b811461278857600080fd5b50565b60008151905061279a81612774565b92915050565b6000602082840312156127b6576127b5611d20565b5b60006127c48482850161278b565b9150509291505056fea26469706673582212204a3a84fda7f1acee01c8f86e67d16234a74161f2807b5ded1055f2269de5cefb64736f6c63430008110033",
  "linkReferences": {},
  "deployedLinkReferences": {}
}