{
  "_format": "hh-sol-artifact-1",
  "contractName": "DawnWithdraw",
  "sourceName": "contracts/core/DawnWithdraw.sol",
  "abi": [
    {
      "inputs": [
        {
          "internalType": "contract IDawnStorageInterface",
          "name": "dawnStorageAddress",
          "type": "address"
        }
      ],
      "stateMutability": "nonpayable",
      "type": "constructor"
    },
    {
      "inputs": [
        {
          "internalType": "uint256",
          "name": "requestId",
          "type": "uint256"
        }
      ],
      "name": "AlreadyClaimed",
      "type": "error"
    },
    {
      "inputs": [
        {
          "internalType": "uint256",
          "name": "expectEth",
          "type": "uint256"
        },
        {
          "internalType": "uint256",
          "name": "ethAmountToLock",
          "type": "uint256"
        }
      ],
      "name": "EthNotExpect",
      "type": "error"
    },
    {
      "inputs": [
        {
          "internalType": "uint256",
          "name": "preLastFulfilledRequestId",
          "type": "uint256"
        },
        {
          "internalType": "uint256",
          "name": "lastRequestId",
          "type": "uint256"
        },
        {
          "internalType": "uint256",
          "name": "requestId",
          "type": "uint256"
        }
      ],
      "name": "InvalidRequestIdToBeFulfilled",
      "type": "error"
    },
    {
      "inputs": [
        {
          "internalType": "uint256",
          "name": "requestId",
          "type": "uint256"
        },
        {
          "internalType": "address",
          "name": "owner",
          "type": "address"
        },
        {
          "internalType": "address",
          "name": "sender",
          "type": "address"
        }
      ],
      "name": "NotWithdrawOwner",
      "type": "error"
    },
    {
      "inputs": [
        {
          "internalType": "uint256",
          "name": "sent",
          "type": "uint256"
        },
        {
          "internalType": "uint256",
          "name": "maxExpected",
          "type": "uint256"
        }
      ],
      "name": "TooMuchEtherToLocked",
      "type": "error"
    },
    {
      "anonymous": false,
      "inputs": [
        {
          "indexed": false,
          "internalType": "address",
          "name": "owner",
          "type": "address"
        },
        {
          "indexed": false,
          "internalType": "uint256",
          "name": "ethAmount",
          "type": "uint256"
        }
      ],
      "name": "LogClaimed",
      "type": "event"
    },
    {
      "anonymous": false,
      "inputs": [
        {
          "indexed": false,
          "internalType": "uint256",
          "name": "ethValue",
          "type": "uint256"
        },
        {
          "indexed": false,
          "internalType": "uint256",
          "name": "lastRequestIdToBeFulfilled",
          "type": "uint256"
        },
        {
          "indexed": false,
          "internalType": "uint256",
          "name": "checkpointIndex",
          "type": "uint256"
        }
      ],
      "name": "LogFulfillment",
      "type": "event"
    },
    {
      "anonymous": false,
      "inputs": [
        {
          "indexed": true,
          "internalType": "uint256",
          "name": "requestId",
          "type": "uint256"
        },
        {
          "indexed": true,
          "internalType": "address",
          "name": "owner",
          "type": "address"
        },
        {
          "indexed": false,
          "internalType": "uint256",
          "name": "pEthAmount",
          "type": "uint256"
        },
        {
          "indexed": false,
          "internalType": "uint256",
          "name": "maxClaimableEtherAmount",
          "type": "uint256"
        }
      ],
      "name": "LogWithdrawalRequested",
      "type": "event"
    },
    {
      "inputs": [
        {
          "internalType": "uint256",
          "name": "lastRequestIdToBeFulfilled",
          "type": "uint256"
        },
        {
          "internalType": "uint256",
          "name": "ethAmountToLock",
          "type": "uint256"
        }
      ],
      "name": "checkFulfillment",
      "outputs": [],
      "stateMutability": "view",
      "type": "function"
    },
    {
      "inputs": [
        {
          "internalType": "uint256",
          "name": "requestId",
          "type": "uint256"
        }
      ],
      "name": "claimEther",
      "outputs": [],
      "stateMutability": "nonpayable",
      "type": "function"
    },
    {
      "inputs": [
        {
          "internalType": "uint256",
          "name": "lastRequestIdToBeFulfilled",
          "type": "uint256"
        }
      ],
      "name": "fulfillment",
      "outputs": [],
      "stateMutability": "payable",
      "type": "function"
    },
    {
      "inputs": [],
      "name": "getCheckPoints",
      "outputs": [
        {
          "components": [
            {
              "internalType": "uint256",
              "name": "totalEther",
              "type": "uint256"
            },
            {
              "internalType": "uint256",
              "name": "totalPEth",
              "type": "uint256"
            },
            {
              "internalType": "uint256",
              "name": "endRequestId",
              "type": "uint256"
            }
          ],
          "internalType": "struct CheckPoint[]",
          "name": "",
          "type": "tuple[]"
        }
      ],
      "stateMutability": "view",
      "type": "function"
    },
    {
      "inputs": [],
      "name": "getUnfulfilledTotalEth",
      "outputs": [
        {
          "internalType": "uint256",
          "name": "",
          "type": "uint256"
        }
      ],
      "stateMutability": "view",
      "type": "function"
    },
    {
      "inputs": [],
      "name": "getUnfulfilledTotalPEth",
      "outputs": [
        {
          "internalType": "uint256",
          "name": "",
          "type": "uint256"
        }
      ],
      "stateMutability": "view",
      "type": "function"
    },
    {
      "inputs": [],
      "name": "getUnfulfilledWithdrawRequestQueue",
      "outputs": [
        {
          "components": [
            {
              "internalType": "address",
              "name": "owner",
              "type": "address"
            },
            {
              "internalType": "uint256",
              "name": "cumulativePEth",
              "type": "uint256"
            },
            {
              "internalType": "uint256",
              "name": "maxCumulativeClaimableEther",
              "type": "uint256"
            },
            {
              "internalType": "uint256",
              "name": "createdTime",
              "type": "uint256"
            },
            {
              "internalType": "bool",
              "name": "claimed",
              "type": "bool"
            }
          ],
          "internalType": "struct WithdrawRequest[]",
          "name": "unfulfilledWithdrawRequestQueue",
          "type": "tuple[]"
        }
      ],
      "stateMutability": "view",
      "type": "function"
    },
    {
      "inputs": [],
      "name": "getWithdrawQueueStat",
      "outputs": [
        {
          "internalType": "uint256",
          "name": "lastFulfillmentRequestId",
          "type": "uint256"
        },
        {
          "internalType": "uint256",
          "name": "lastRequestId",
          "type": "uint256"
        },
        {
          "internalType": "uint256",
          "name": "lastCheckpointIndex",
          "type": "uint256"
        }
      ],
      "stateMutability": "view",
      "type": "function"
    },
    {
      "inputs": [],
      "name": "getWithdrawRequestQueue",
      "outputs": [
        {
          "components": [
            {
              "internalType": "address",
              "name": "owner",
              "type": "address"
            },
            {
              "internalType": "uint256",
              "name": "cumulativePEth",
              "type": "uint256"
            },
            {
              "internalType": "uint256",
              "name": "maxCumulativeClaimableEther",
              "type": "uint256"
            },
            {
              "internalType": "uint256",
              "name": "createdTime",
              "type": "uint256"
            },
            {
              "internalType": "bool",
              "name": "claimed",
              "type": "bool"
            }
          ],
          "internalType": "struct WithdrawRequest[]",
          "name": "",
          "type": "tuple[]"
        }
      ],
      "stateMutability": "view",
      "type": "function"
    },
    {
      "inputs": [
        {
          "internalType": "uint256",
          "name": "pEthAmount",
          "type": "uint256"
        }
      ],
      "name": "requestWithdraw",
      "outputs": [
        {
          "internalType": "uint256",
          "name": "requestId",
          "type": "uint256"
        }
      ],
      "stateMutability": "nonpayable",
      "type": "function"
    }
  ],
  "bytecode": "0x6080604052600080546001600160a01b031916905534801561002057600080fd5b5060405161205f38038061205f83398101604081905261003f91610064565b600080546001600160a01b0319166001600160a01b0392909216919091179055610094565b60006020828403121561007657600080fd5b81516001600160a01b038116811461008d57600080fd5b9392505050565b611fbc806100a36000396000f3fe6080604052600436106100b15760003560e01c8063a5680ed411610069578063d653e1341161004e578063d653e134146101b4578063d7cb6eb6146101c9578063fdd798af146101dc57600080fd5b8063a5680ed414610172578063d29d3b0b1461019457600080fd5b806349407a441161009a57806349407a441461010e578063745400c914610130578063830beb2c1461015057600080fd5b80630142e87a146100b6578063311b1d9e146100de575b600080fd5b3480156100c257600080fd5b506100cb6101f1565b6040519081526020015b60405180910390f35b3480156100ea57600080fd5b506100f36102b7565b604080519384526020840192909252908201526060016100d5565b34801561011a57600080fd5b5061012e610129366004611c66565b610342565b005b34801561013c57600080fd5b506100cb61014b366004611c66565b610730565b34801561015c57600080fd5b50610165610bc8565b6040516100d59190611c7f565b34801561017e57600080fd5b50610187610c6e565b6040516100d59190611d05565b3480156101a057600080fd5b5061012e6101af366004611d51565b610ce2565b3480156101c057600080fd5b506100cb610f7b565b61012e6101d7366004611c66565b61103a565b3480156101e857600080fd5b5061016561160c565b60008061021d7fd6bab910388c26c3fac79e47634bcc38e5fd763414e3f686243de58853e616866117aa565b9050600061024a7f30ffab0c1a94adfb4579170c8b5b1e6a1fe5314588994cb20aafffe6751be8216117aa565b905080820361025c5760009250505090565b6001828154811061026f5761026f611d73565b9060005260206000209060050201600101546001828154811061029457610294611d73565b9060005260206000209060050201600101546102b09190611dd1565b9250505090565b60008060006102e57fd6bab910388c26c3fac79e47634bcc38e5fd763414e3f686243de58853e616866117aa565b92506103107f30ffab0c1a94adfb4579170c8b5b1e6a1fe5314588994cb20aafffe6751be8216117aa565b915061033b7fd28680a8ade84eae81bbdf3edb1dd492fedc91bc2317173b71c5148121868b506117aa565b9050909192565b600081116103b1576040517f08c379a000000000000000000000000000000000000000000000000000000000815260206004820152601760248201527f5a65726f2077697468647261772072657175657374496400000000000000000060448201526064015b60405180910390fd5b6103da7fd6bab910388c26c3fac79e47634bcc38e5fd763414e3f686243de58853e616866117aa565b811115610443576040517f08c379a000000000000000000000000000000000000000000000000000000000815260206004820152600f60248201527f4e6f742066756c66696c6c6d656e74000000000000000000000000000000000060448201526064016103a8565b60006001828154811061045857610458611d73565b60009182526020918290206040805160a0810182526005909302909101805473ffffffffffffffffffffffffffffffffffffffff1683526001810154938301939093526002830154908201526003820154606082015260049091015460ff1615801560808301529091506104fb576040517fb3167bfa000000000000000000000000000000000000000000000000000000008152600481018390526024016103a8565b805173ffffffffffffffffffffffffffffffffffffffff1633146105735780516040517fa57dcbcc0000000000000000000000000000000000000000000000000000000081526004810184905273ffffffffffffffffffffffffffffffffffffffff90911660248201523360448201526064016103a8565b6001608082018190526000906105898185611dd1565b8154811061059957610599611d73565b600091825260208083206040805160a0810182526005909402909101805473ffffffffffffffffffffffffffffffffffffffff16845260018101549284019290925260028201548382018190526003830154606085015260049092015460ff161515608084015285015191935061060f91611dd1565b90506000826020015184602001516106279190611dd1565b9050600061065f86600061065a7fd28680a8ade84eae81bbdf3edb1dd492fedc91bc2317173b71c5148121868b506117aa565b611844565b90506106bd836106b8846002858154811061067c5761067c611d73565b906000526020600020906003020160405180606001604052908160008201548152602001600182015481526020016002820154815250506119df565b611a05565b604051909350339084156108fc029085906000818181858888f193505050501580156106ed573d6000803e3d6000fd5b5060408051338152602081018590527f9cf52b285ad8ad610008b7734bb4bd9904fec60e4c6ee55100f19b3d50f9ec9991015b60405180910390a1505050505050565b600080821161079b576040517f08c379a000000000000000000000000000000000000000000000000000000000815260206004820152600960248201527f5a65726f2070457468000000000000000000000000000000000000000000000060448201526064016103a8565b816107da6040518060400160405280600b81526020017f4461776e4465706f736974000000000000000000000000000000000000000000815250611a1b565b6040517f70a0823100000000000000000000000000000000000000000000000000000000815233600482015273ffffffffffffffffffffffffffffffffffffffff91909116906370a0823190602401602060405180830381865afa158015610846573d6000803e3d6000fd5b505050506040513d601f19601f8201168201806040525081019061086a9190611de4565b10156108d2576040517f08c379a000000000000000000000000000000000000000000000000000000000815260206004820152600f60248201527f50457468206e6f7420656e6f756768000000000000000000000000000000000060448201526064016103a8565b60006109126040518060400160405280600b81526020017f4461776e4465706f736974000000000000000000000000000000000000000000815250611a1b565b73ffffffffffffffffffffffffffffffffffffffff1663b6460fb5846040518263ffffffff1660e01b815260040161094c91815260200190565b602060405180830381865afa158015610969573d6000803e3d6000fd5b505050506040513d601f19601f8201168201806040525081019061098d9190611de4565b90508060000361099f5761099f611dfd565b60006109ca7f30ffab0c1a94adfb4579170c8b5b1e6a1fe5314588994cb20aafffe6751be8216117aa565b90506000600182815481106109e1576109e1611d73565b600091825260208083206040805160a080820183526005909502909201805473ffffffffffffffffffffffffffffffffffffffff16835260018101548385019081526002820154848401526003820154606085015260049091015460ff161515608084015281519485019091523384525190945090820190610a64908990611e2c565b8152602001858460400151610a799190611e2c565b815242602082015260006040909101529050806001610a988582611e2c565b81548110610aa857610aa8611d73565b600091825260209182902083516005929092020180547fffffffffffffffffffffffff00000000000000000000000000000000000000001673ffffffffffffffffffffffffffffffffffffffff909216919091178155908201516001808301919091556040830151600283015560608301516003830155608090920151600490910180547fffffffffffffffffffffffffffffffffffffffffffffffffffffffffffffff0016911515919091179055610b82907f30ffab0c1a94adfb4579170c8b5b1e6a1fe5314588994cb20aafffe6751be82190611acc565b6040805187815260208101869052339187917fc591308e64b810a347e1b483ed1b5567d87bbca118cf1622ece683c6dd5850b7910160405180910390a350505050919050565b60606001805480602002602001604051908101604052809291908181526020016000905b82821015610c655760008481526020908190206040805160a08101825260058602909201805473ffffffffffffffffffffffffffffffffffffffff16835260018082015484860152600282015492840192909252600381015460608401526004015460ff16151560808301529083529092019101610bec565b50505050905090565b60606002805480602002602001604051908101604052809291908181526020016000905b82821015610c655783829060005260206000209060030201604051806060016040529081600082015481526020016001820154815260200160028201548152505081526020019060010190610c92565b6000610d0d7fd6bab910388c26c3fac79e47634bcc38e5fd763414e3f686243de58853e616866117aa565b90506000610d3a7f30ffab0c1a94adfb4579170c8b5b1e6a1fe5314588994cb20aafffe6751be8216117aa565b90508084111580610d4a57508184115b15610d92576040517f2681e14e0000000000000000000000000000000000000000000000000000000081526004810183905260248101829052604481018590526064016103a8565b6000825b858111610f3057610f126001610dac8184611dd1565b81548110610dbc57610dbc611d73565b90600052602060002090600502016002015460018381548110610de157610de1611d73565b906000526020600020906005020160020154610dfd9190611dd1565b610e3b6040518060400160405280600b81526020017f4461776e4465706f736974000000000000000000000000000000000000000000815250611a1b565b73ffffffffffffffffffffffffffffffffffffffff1663b6460fb56001610e628187611dd1565b81548110610e7257610e72611d73565b90600052602060002090600502016001015460018681548110610e9757610e97611d73565b906000526020600020906005020160010154610eb39190611dd1565b6040518263ffffffff1660e01b8152600401610ed191815260200190565b602060405180830381865afa158015610eee573d6000803e3d6000fd5b505050506040513d601f19601f820116820180604052508101906106b89190611de4565b610f1c9083611e2c565b915080610f2881611e3f565b915050610d96565b50838114610f74576040517f8f9c3a0200000000000000000000000000000000000000000000000000000000815260048101829052602481018590526044016103a8565b5050505050565b600080610fa77fd6bab910388c26c3fac79e47634bcc38e5fd763414e3f686243de58853e616866117aa565b90506000610fd47f30ffab0c1a94adfb4579170c8b5b1e6a1fe5314588994cb20aafffe6751be8216117aa565b9050808203610fe65760009250505090565b60018281548110610ff957610ff9611d73565b9060005260206000209060050201600201546001828154811061101e5761101e611d73565b9060005260206000209060050201600201546102b09190611dd1565b6110786040518060400160405280600b81526020017f4461776e4465706f736974000000000000000000000000000000000000000000815250611a1b565b73ffffffffffffffffffffffffffffffffffffffff163373ffffffffffffffffffffffffffffffffffffffff161461110c576040517f08c379a000000000000000000000000000000000000000000000000000000000815260206004820152601660248201527f4f6e6c7920616c6c6f77204461776e4465706f7369740000000000000000000060448201526064016103a8565b60006111377f30ffab0c1a94adfb4579170c8b5b1e6a1fe5314588994cb20aafffe6751be8216117aa565b905060006111647fd6bab910388c26c3fac79e47634bcc38e5fd763414e3f686243de58853e616866117aa565b9050818311156111d0576040517f08c379a000000000000000000000000000000000000000000000000000000000815260206004820152601160248201527f496e76616c69642072657175657374496400000000000000000000000000000060448201526064016103a8565b808311611239576040517f08c379a000000000000000000000000000000000000000000000000000000000815260206004820152601360248201527f416c72656164792066756c66696c6c6d656e740000000000000000000000000060448201526064016103a8565b60006001828154811061124e5761124e611d73565b600091825260208083206040805160a0810182526005909402909101805473ffffffffffffffffffffffffffffffffffffffff16845260018082015493850193909352600281015491840191909152600381015460608401526004015460ff1615156080830152805491935090869081106112cb576112cb611d73565b60009182526020918290206040805160a0810182526005909302909101805473ffffffffffffffffffffffffffffffffffffffff16835260018101549383019390935260028301548282018190526003840154606084015260049093015460ff161515608083015284015190925061134291611dd1565b34111561139957348260400151826040015161135e9190611dd1565b6040517fe7682193000000000000000000000000000000000000000000000000000000008152600481019290925260248201526044016103a8565b60006113c47fd28680a8ade84eae81bbdf3edb1dd492fedc91bc2317173b71c5148121868b506117aa565b9050604051806060016040528061140f6040518060400160405280600b81526020017f4461776e4465706f736974000000000000000000000000000000000000000000815250611a1b565b73ffffffffffffffffffffffffffffffffffffffff166337cfdaca6040518163ffffffff1660e01b8152600401602060405180830381865afa158015611459573d6000803e3d6000fd5b505050506040513d601f19601f8201168201806040525081019061147d9190611de4565b81526020016114c06040518060400160405280600b81526020017f4461776e4465706f736974000000000000000000000000000000000000000000815250611a1b565b73ffffffffffffffffffffffffffffffffffffffff166318160ddd6040518163ffffffff1660e01b8152600401602060405180830381865afa15801561150a573d6000803e3d6000fd5b505050506040513d601f19601f8201168201806040525081019061152e9190611de4565b8152602001878152506002828154811061154a5761154a611d73565b90600052602060002090600302016000820151816000015560208201518160010155604082015181600201559050506115a47fd28680a8ade84eae81bbdf3edb1dd492fedc91bc2317173b71c5148121868b506001611acc565b6115ce7fd6bab910388c26c3fac79e47634bcc38e5fd763414e3f686243de58853e6168687611b5c565b60408051348152602081018890529081018290527f5a6a1fc1e70e3790130695fb3e2cf3022ed82f288bbfd10ecc7096c90bbe3ce190606001610720565b606060006116397fd6bab910388c26c3fac79e47634bcc38e5fd763414e3f686243de58853e616866117aa565b60015490915060009061164d908390611dd1565b90508067ffffffffffffffff81111561166857611668611e77565b6040519080825280602002602001820160405280156116e357816020015b6116d06040518060a00160405280600073ffffffffffffffffffffffffffffffffffffffff1681526020016000815260200160008152602001600081526020016000151581525090565b8152602001906001900390816116865790505b509250815b6001548110156117a4576001818154811061170557611705611d73565b60009182526020918290206040805160a0810182526005909302909101805473ffffffffffffffffffffffffffffffffffffffff1683526001810154938301939093526002830154908201526003820154606082015260049091015460ff1615156080820152846117768584611dd1565b8151811061178657611786611d73565b6020026020010181905250808061179c90611e3f565b9150506116e8565b50505090565b600080546040517fbd02d0f50000000000000000000000000000000000000000000000000000000081526004810184905273ffffffffffffffffffffffffffffffffffffffff9091169063bd02d0f590602401602060405180830381865afa15801561181a573d6000803e3d6000fd5b505050506040513d601f19601f8201168201806040525081019061183e9190611de4565b92915050565b600061186f7fd6bab910388c26c3fac79e47634bcc38e5fd763414e3f686243de58853e616866117aa565b8411156118d8576040517f08c379a000000000000000000000000000000000000000000000000000000000815260206004820152600f60248201527f4e6f742066756c66696c6c6d656e74000000000000000000000000000000000060448201526064016103a8565b5060008060026118e88585611dd1565b6118f29190611ea6565b6118fc9085611e2c565b905060005b838510156119d6576002828154811061191c5761191c611d73565b90600052602060002090600302016002015486111561194757611940826001611e2c565b9450611901565b81600003611953575060005b6002611960600184611dd1565b8154811061197057611970611d73565b906000526020600020906003020160020154905080861180156119b75750600282815481106119a1576119a1611d73565b9060005260206000209060030201600201548611155b156119c4578192506119d6565b6119cf600183611dd1565b9350611901565b50509392505050565b602081015181516000916119fe916119f8908690611bba565b90611bc6565b9392505050565b6000818310611a1457816119fe565b5090919050565b600080611a4d83604051602001611a329190611ee1565b60405160208183030381529060405280519060200120611bd2565b905073ffffffffffffffffffffffffffffffffffffffff811661183e576040517f08c379a000000000000000000000000000000000000000000000000000000000815260206004820152601260248201527f436f6e7472616374206e6f7420666f756e64000000000000000000000000000060448201526064016103a8565b6000546040517fadb353dc000000000000000000000000000000000000000000000000000000008152600481018490526024810183905273ffffffffffffffffffffffffffffffffffffffff9091169063adb353dc906044015b600060405180830381600087803b158015611b4057600080fd5b505af1158015611b54573d6000803e3d6000fd5b505050505050565b6000546040517fe2a4853a000000000000000000000000000000000000000000000000000000008152600481018490526024810183905273ffffffffffffffffffffffffffffffffffffffff9091169063e2a4853a90604401611b26565b60006119fe8284611f39565b60006119fe8284611ea6565b600080546040517f21f8a7210000000000000000000000000000000000000000000000000000000081526004810184905273ffffffffffffffffffffffffffffffffffffffff909116906321f8a72190602401602060405180830381865afa158015611c42573d6000803e3d6000fd5b505050506040513d601f19601f8201168201806040525081019061183e9190611f50565b600060208284031215611c7857600080fd5b5035919050565b602080825282518282018190526000919060409081850190868401855b82811015611cf8578151805173ffffffffffffffffffffffffffffffffffffffff168552868101518786015285810151868601526060808201519086015260809081015115159085015260a09093019290850190600101611c9c565b5091979650505050505050565b602080825282518282018190526000919060409081850190868401855b82811015611cf85781518051855286810151878601528501518585015260609093019290850190600101611d22565b60008060408385031215611d6457600080fd5b50508035926020909101359150565b7f4e487b7100000000000000000000000000000000000000000000000000000000600052603260045260246000fd5b7f4e487b7100000000000000000000000000000000000000000000000000000000600052601160045260246000fd5b8181038181111561183e5761183e611da2565b600060208284031215611df657600080fd5b5051919050565b7f4e487b7100000000000000000000000000000000000000000000000000000000600052600160045260246000fd5b8082018082111561183e5761183e611da2565b60007fffffffffffffffffffffffffffffffffffffffffffffffffffffffffffffffff8203611e7057611e70611da2565b5060010190565b7f4e487b7100000000000000000000000000000000000000000000000000000000600052604160045260246000fd5b600082611edc577f4e487b7100000000000000000000000000000000000000000000000000000000600052601260045260246000fd5b500490565b7f636f6e74726163742e616464726573730000000000000000000000000000000081526000825160005b81811015611f285760208186018101516010868401015201611f0b565b506000920160100191825250919050565b808202811582820484141761183e5761183e611da2565b600060208284031215611f6257600080fd5b815173ffffffffffffffffffffffffffffffffffffffff811681146119fe57600080fdfea264697066735822122074cdeaf49b08e8782540564ef7d358752eac852f36280eff22edae55373095ab64736f6c63430008110033",
  "linkReferences": {},
  "deployedLinkReferences": {}
}