{
  "_format": "hh-sol-artifact-1",
  "contractName": "DawnPoolOracle",
  "sourceName": "contracts/oracle/DawnPoolOracle.sol",
  "abi": [
    {
      "inputs": [
        {
          "internalType": "contract IDawnStorageInterface",
          "name": "dawnStorageAddress",
          "type": "address"
        }
      ],
      "stateMutability": "nonpayable",
      "type": "constructor"
    },
    {
      "anonymous": false,
      "inputs": [
        {
          "indexed": false,
          "internalType": "address",
          "name": "callback",
          "type": "address"
        }
      ],
      "name": "BeaconReportReceiverSet",
      "type": "event"
    },
    {
      "anonymous": false,
      "inputs": [
        {
          "indexed": false,
          "internalType": "uint256",
          "name": "epochId",
          "type": "uint256"
        },
        {
          "indexed": false,
          "internalType": "uint128",
          "name": "beaconBalance",
          "type": "uint128"
        },
        {
          "indexed": false,
          "internalType": "uint128",
          "name": "beaconValidators",
          "type": "uint128"
        },
        {
          "indexed": false,
          "internalType": "uint128",
          "name": "rewardsVaultBalance",
          "type": "uint128"
        },
        {
          "indexed": false,
          "internalType": "address",
          "name": "caller",
          "type": "address"
        }
      ],
      "name": "BeaconReported",
      "type": "event"
    },
    {
      "anonymous": false,
      "inputs": [
        {
          "indexed": false,
          "internalType": "uint64",
          "name": "epochsPerFrame",
          "type": "uint64"
        },
        {
          "indexed": false,
          "internalType": "uint64",
          "name": "slotsPerEpoch",
          "type": "uint64"
        },
        {
          "indexed": false,
          "internalType": "uint64",
          "name": "secondsPerSlot",
          "type": "uint64"
        },
        {
          "indexed": false,
          "internalType": "uint64",
          "name": "genesisTime",
          "type": "uint64"
        }
      ],
      "name": "BeaconSpecSet",
      "type": "event"
    },
    {
      "anonymous": false,
      "inputs": [
        {
          "indexed": false,
          "internalType": "uint256",
          "name": "epochId",
          "type": "uint256"
        },
        {
          "indexed": false,
          "internalType": "uint128",
          "name": "beaconBalance",
          "type": "uint128"
        },
        {
          "indexed": false,
          "internalType": "uint128",
          "name": "beaconValidators",
          "type": "uint128"
        },
        {
          "indexed": false,
          "internalType": "uint128",
          "name": "rewardsVaultBalance",
          "type": "uint128"
        },
        {
          "indexed": false,
          "internalType": "uint128",
          "name": "exitedValidators",
          "type": "uint128"
        }
      ],
      "name": "Completed",
      "type": "event"
    },
    {
      "anonymous": false,
      "inputs": [
        {
          "indexed": false,
          "internalType": "uint256",
          "name": "epochId",
          "type": "uint256"
        }
      ],
      "name": "ExpectedEpochIdUpdated",
      "type": "event"
    },
    {
      "anonymous": false,
      "inputs": [
        {
          "indexed": false,
          "internalType": "address",
          "name": "member",
          "type": "address"
        }
      ],
      "name": "MemberAdded",
      "type": "event"
    },
    {
      "anonymous": false,
      "inputs": [
        {
          "indexed": false,
          "internalType": "address",
          "name": "member",
          "type": "address"
        }
      ],
      "name": "MemberRemoved",
      "type": "event"
    },
    {
      "anonymous": false,
      "inputs": [
        {
          "indexed": false,
          "internalType": "uint256",
          "name": "quorum",
          "type": "uint256"
        }
      ],
      "name": "QuorumChanged",
      "type": "event"
    },
    {
      "inputs": [],
      "name": "MAX_MEMBERS",
      "outputs": [
        {
          "internalType": "uint256",
          "name": "",
          "type": "uint256"
        }
      ],
      "stateMutability": "view",
      "type": "function"
    },
    {
      "inputs": [
        {
          "internalType": "address",
          "name": "_member",
          "type": "address"
        }
      ],
      "name": "addOracleMember",
      "outputs": [],
      "stateMutability": "nonpayable",
      "type": "function"
    },
    {
      "inputs": [],
      "name": "getBeaconReportReceiver",
      "outputs": [
        {
          "internalType": "address",
          "name": "",
          "type": "address"
        }
      ],
      "stateMutability": "view",
      "type": "function"
    },
    {
      "inputs": [],
      "name": "getBeaconSpec",
      "outputs": [
        {
          "internalType": "uint64",
          "name": "epochsPerFrame",
          "type": "uint64"
        },
        {
          "internalType": "uint64",
          "name": "slotsPerEpoch",
          "type": "uint64"
        },
        {
          "internalType": "uint64",
          "name": "secondsPerSlot",
          "type": "uint64"
        },
        {
          "internalType": "uint64",
          "name": "genesisTime",
          "type": "uint64"
        }
      ],
      "stateMutability": "view",
      "type": "function"
    },
    {
      "inputs": [],
      "name": "getCurrentEpochId",
      "outputs": [
        {
          "internalType": "uint256",
          "name": "",
          "type": "uint256"
        }
      ],
      "stateMutability": "view",
      "type": "function"
    },
    {
      "inputs": [],
      "name": "getCurrentFrame",
      "outputs": [
        {
          "internalType": "uint256",
          "name": "frameEpochId",
          "type": "uint256"
        },
        {
          "internalType": "uint256",
          "name": "frameStartTime",
          "type": "uint256"
        },
        {
          "internalType": "uint256",
          "name": "frameEndTime",
          "type": "uint256"
        }
      ],
      "stateMutability": "view",
      "type": "function"
    },
    {
      "inputs": [],
      "name": "getCurrentOraclesReportStatus",
      "outputs": [
        {
          "internalType": "uint256",
          "name": "",
          "type": "uint256"
        }
      ],
      "stateMutability": "view",
      "type": "function"
    },
    {
      "inputs": [
        {
          "internalType": "uint256",
          "name": "_index",
          "type": "uint256"
        }
      ],
      "name": "getCurrentReportVariant",
      "outputs": [
        {
          "internalType": "uint64",
          "name": "beaconBalance",
          "type": "uint64"
        },
        {
          "internalType": "uint32",
          "name": "beaconValidators",
          "type": "uint32"
        },
        {
          "internalType": "uint16",
          "name": "count",
          "type": "uint16"
        }
      ],
      "stateMutability": "view",
      "type": "function"
    },
    {
      "inputs": [],
      "name": "getCurrentReportVariantsSize",
      "outputs": [
        {
          "internalType": "uint256",
          "name": "",
          "type": "uint256"
        }
      ],
      "stateMutability": "view",
      "type": "function"
    },
    {
      "inputs": [],
      "name": "getDawnDeposit",
      "outputs": [
        {
          "internalType": "contract IDawnDeposit",
          "name": "",
          "type": "address"
        }
      ],
      "stateMutability": "view",
      "type": "function"
    },
    {
      "inputs": [],
      "name": "getExpectedEpochId",
      "outputs": [
        {
          "internalType": "uint256",
          "name": "",
          "type": "uint256"
        }
      ],
      "stateMutability": "view",
      "type": "function"
    },
    {
      "inputs": [],
      "name": "getFrameFirstEpochId",
      "outputs": [
        {
          "internalType": "uint256",
          "name": "",
          "type": "uint256"
        }
      ],
      "stateMutability": "view",
      "type": "function"
    },
    {
      "inputs": [],
      "name": "getLastCompletedEpochId",
      "outputs": [
        {
          "internalType": "uint256",
          "name": "",
          "type": "uint256"
        }
      ],
      "stateMutability": "view",
      "type": "function"
    },
    {
      "inputs": [],
      "name": "getLastCompletedReportDelta",
      "outputs": [
        {
          "internalType": "uint256",
          "name": "postTotalPooledEther",
          "type": "uint256"
        },
        {
          "internalType": "uint256",
          "name": "preTotalPooledEther",
          "type": "uint256"
        },
        {
          "internalType": "uint256",
          "name": "timeElapsed",
          "type": "uint256"
        }
      ],
      "stateMutability": "view",
      "type": "function"
    },
    {
      "inputs": [],
      "name": "getOracleMembers",
      "outputs": [
        {
          "internalType": "address[]",
          "name": "",
          "type": "address[]"
        }
      ],
      "stateMutability": "view",
      "type": "function"
    },
    {
      "inputs": [],
      "name": "getQuorum",
      "outputs": [
        {
          "internalType": "uint256",
          "name": "",
          "type": "uint256"
        }
      ],
      "stateMutability": "view",
      "type": "function"
    },
    {
      "inputs": [
        {
          "internalType": "uint64",
          "name": "_epochsPerFrame",
          "type": "uint64"
        },
        {
          "internalType": "uint64",
          "name": "_slotsPerEpoch",
          "type": "uint64"
        },
        {
          "internalType": "uint64",
          "name": "_secondsPerSlot",
          "type": "uint64"
        },
        {
          "internalType": "uint64",
          "name": "_genesisTime",
          "type": "uint64"
        }
      ],
      "name": "initialize",
      "outputs": [],
      "stateMutability": "nonpayable",
      "type": "function"
    },
    {
      "inputs": [
        {
          "internalType": "address",
          "name": "_member",
          "type": "address"
        }
      ],
      "name": "removeOracleMember",
      "outputs": [],
      "stateMutability": "nonpayable",
      "type": "function"
    },
    {
      "inputs": [
        {
          "internalType": "uint256",
          "name": "_epochId",
          "type": "uint256"
        },
        {
          "internalType": "uint64",
          "name": "_beaconBalance",
          "type": "uint64"
        },
        {
          "internalType": "uint32",
          "name": "_beaconValidators",
          "type": "uint32"
        },
        {
          "internalType": "uint64",
          "name": "_rewardsVaultBalance",
          "type": "uint64"
        },
        {
          "internalType": "uint32",
          "name": "_exitedValidators",
          "type": "uint32"
        }
      ],
      "name": "reportBeacon",
      "outputs": [],
      "stateMutability": "nonpayable",
      "type": "function"
    },
    {
      "inputs": [
        {
          "internalType": "address",
          "name": "_addr",
          "type": "address"
        }
      ],
      "name": "setBeaconReportReceiver",
      "outputs": [],
      "stateMutability": "nonpayable",
      "type": "function"
    },
    {
      "inputs": [
        {
          "internalType": "uint64",
          "name": "_epochsPerFrame",
          "type": "uint64"
        },
        {
          "internalType": "uint64",
          "name": "_slotsPerEpoch",
          "type": "uint64"
        },
        {
          "internalType": "uint64",
          "name": "_secondsPerSlot",
          "type": "uint64"
        },
        {
          "internalType": "uint64",
          "name": "_genesisTime",
          "type": "uint64"
        }
      ],
      "name": "setBeaconSpec",
      "outputs": [],
      "stateMutability": "nonpayable",
      "type": "function"
    },
    {
      "inputs": [
        {
          "internalType": "uint256",
          "name": "_quorum",
          "type": "uint256"
        }
      ],
      "name": "setQuorum",
      "outputs": [],
      "stateMutability": "nonpayable",
      "type": "function"
    }
  ],
  "bytecode": "0x608060405260008060006101000a81548173ffffffffffffffffffffffffffffffffffffffff021916908373ffffffffffffffffffffffffffffffffffffffff1602179055503480156200005257600080fd5b50604051620037683803806200376883398181016040528101906200007891906200013f565b80806000806101000a81548173ffffffffffffffffffffffffffffffffffffffff021916908373ffffffffffffffffffffffffffffffffffffffff160217905550505062000171565b600080fd5b600073ffffffffffffffffffffffffffffffffffffffff82169050919050565b6000620000f382620000c6565b9050919050565b60006200010782620000e6565b9050919050565b6200011981620000fa565b81146200012557600080fd5b50565b60008151905062000139816200010e565b92915050565b600060208284031215620001585762000157620000c1565b5b6000620001688482850162000128565b91505092915050565b6135e780620001816000396000f3fe608060405234801561001057600080fd5b50600436106101425760003560e01c8063b2480603116100b8578063e547c77c1161007c578063e547c77c14610335578063e90b2da114610356578063ea0e35b114610372578063ed9767d914610390578063f78ddf64146103ae578063f98fae81146103cc57610142565b8063b2480603146102a1578063bb0cd4f6146102bf578063c1ba4e59146102dd578063c26c12eb146102f9578063dabb57571461031757610142565b80637ffb14721161010a5780637ffb1472146101df57806389896aef146102115780639a3cb2ca1461022f5780639e1998f71461024b578063a29a839f14610267578063b164e4371461028557610142565b806303cda963146101475780633366ff72146101655780634b47b74f14610181578063534649c41461019f57806372f79b13146101bf575b600080fd5b61014f6103e8565b60405161015c91906123cd565b60405180910390f35b61017f600480360381019061017a919061242d565b610418565b005b6101896106bf565b60405161019691906123cd565b60405180910390f35b6101a76106ef565b6040516101b693929190612494565b60405180910390f35b6101c761077a565b6040516101d693929190612494565b60405180910390f35b6101f960048036038101906101f491906124f7565b610846565b6040516102089392919061256f565b60405180910390f35b61021961087f565b60405161022691906123cd565b60405180910390f35b61024960048036038101906102449190612604565b6108af565b005b6102656004803603810190610260919061265d565b610a0f565b005b61026f610e0b565b60405161027c91906123cd565b60405180910390f35b61029f600480360381019061029a9190612604565b610e27565b005b6102a96110e2565b6040516102b691906126e7565b60405180910390f35b6102c7611112565b6040516102d491906123cd565b60405180910390f35b6102f760048036038101906102f291906124f7565b611137565b005b61030161133c565b60405161030e91906123cd565b60405180910390f35b61031f61136c565b60405161032c91906127c0565b60405180910390f35b61033d6113fa565b60405161034d94939291906127e2565b60405180910390f35b610370600480360381019061036b919061242d565b61142f565b005b61037a61153d565b60405161038791906123cd565b60405180910390f35b610398611543565b6040516103a591906123cd565b60405180910390f35b6103b6611550565b6040516103c39190612886565b60405180910390f35b6103e660048036038101906103e19190612604565b611595565b005b60006104137f3e18ba9f3239b5baf31871b5bab37245b867892997bc1a7d20fcc53d1e3cbd7e6118d7565b905090565b60008054906101000a900473ffffffffffffffffffffffffffffffffffffffff1673ffffffffffffffffffffffffffffffffffffffff1663a75b87d26040518163ffffffff1660e01b8152600401602060405180830381865afa158015610483573d6000803e3d6000fd5b505050506040513d601f19601f820116820180604052508101906104a791906128b6565b73ffffffffffffffffffffffffffffffffffffffff163373ffffffffffffffffffffffffffffffffffffffff1614610514576040517f08c379a000000000000000000000000000000000000000000000000000000000815260040161050b90612966565b60405180910390fd5b600161010061052391906129b5565b600161010061053291906129b5565b6001901b901c600114610548576105476129e9565b5b60006105737f2179f767b59758248e91b08444404b15efcb77cf4be2a83aaa5bacc558899e436118d7565b146105b3576040517f08c379a00000000000000000000000000000000000000000000000000000000081526004016105aa90612a64565b60405180910390fd5b6105bf8484848461197b565b6105ea7ff064c3f7bf779563757f466db66f710c7c26c3fdf38640e2366054ebe9c04a736001611b5c565b7f027863d12a407097e086a48e36475bfc859d0b200b7e6f65b5fd3b218e46632e600160405161061a9190612abf565b60405180910390a1600061062c611bed565b90506000816000015167ffffffffffffffff1661064a600084611cb2565b6106549190612ada565b90506106807fdf92ec5a9a3f0d7666614cf95b62dc5e6d84faf6ea6c51b46daf4745c19157e782611b5c565b7fcdcd275f4d96ed683d684f3610a92beacdebcf1ee4d37e2df526fb9001e1ea63816040516106af91906123cd565b60405180910390a1505050505050565b60006106ea7fdf92ec5a9a3f0d7666614cf95b62dc5e6d84faf6ea6c51b46daf4745c19157e76118d7565b905090565b600080600061071d7fb00b17de64bf880ca052700092783fce3b2b366df602345fca58eeae7cbd0e016118d7565b92506107487fc8d2df748a367aa4c9ac5f3e989d6b5dd6d7c0649ac19632515e745b0129f46a6118d7565b91506107737f998b2bead010fe55ca216911156a5cb2f62c34408faae8abb2cc9c79575bdf196118d7565b9050909192565b600080600080610788611bed565b90506000816060015190506000826020015183604001516107a99190612b0e565b90506107bd6107b784611cef565b84611cb2565b95508167ffffffffffffffff168167ffffffffffffffff16876107e09190612b4b565b6107ea9190612ada565b945060018267ffffffffffffffff168267ffffffffffffffff16856000015167ffffffffffffffff168961081e9190612ada565b6108289190612b4b565b6108329190612ada565b61083c91906129b5565b9350505050909192565b60008060006108726002858154811061086257610861612b8d565b5b9060005260206000200154611d41565b9250925092509193909250565b60006108aa7f122df10d0388c5ec1168daefbb923fa103af061f804bfa030e1dd064644ca0396118d7565b905090565b60008054906101000a900473ffffffffffffffffffffffffffffffffffffffff1673ffffffffffffffffffffffffffffffffffffffff1663a75b87d26040518163ffffffff1660e01b8152600401602060405180830381865afa15801561091a573d6000803e3d6000fd5b505050506040513d601f19601f8201168201806040525081019061093e91906128b6565b73ffffffffffffffffffffffffffffffffffffffff163373ffffffffffffffffffffffffffffffffffffffff16146109ab576040517f08c379a00000000000000000000000000000000000000000000000000000000081526004016109a290612966565b60405180910390fd5b6109d57f4d639ef200ee89d5ca903f329a42ba6f7caff7cdcb7606d374eb43dcb267448f82611d5e565b7f10bdb8bba3913c9e1b7ffbf8759dfcf1c355d9796d58906b147ff0b4c3e3144881604051610a0491906126e7565b60405180910390a150565b6000610a19611bed565b90506000610a467fdf92ec5a9a3f0d7666614cf95b62dc5e6d84faf6ea6c51b46daf4745c19157e76118d7565b905080871015610a8b576040517f08c379a0000000000000000000000000000000000000000000000000000000008152600401610a8290612c08565b60405180910390fd5b80871115610af057610aa5610a9f83611cef565b83611cb2565b8714610ae6576040517f08c379a0000000000000000000000000000000000000000000000000000000008152600401610add90612c74565b60405180910390fd5b610aef87611def565b5b60008667ffffffffffffffff16633b9aca00610b0c9190612cb0565b90507fcb7f6be508e2881a9a5866eda3d0cf40453b962587670b865d6acda1f2dd98b08882888833604051610b45959493929190612d5e565b60405180910390a16000610b5833611e8c565b90507fffffffffffffffffffffffffffffffffffffffffffffffffffffffffffffffff8103610bbc576040517f08c379a0000000000000000000000000000000000000000000000000000000008152600401610bb390612dfd565b60405180910390fd5b6000610be77f3e18ba9f3239b5baf31871b5bab37245b867892997bc1a7d20fcc53d1e3cbd7e6118d7565b90506000826001901b9050600081831614610c37576040517f08c379a0000000000000000000000000000000000000000000000000000000008152600401610c2e90612e69565b60405180910390fd5b610c637f3e18ba9f3239b5baf31871b5bab37245b867892997bc1a7d20fcc53d1e3cbd7e828417611b5c565b600060108a63ffffffff16901b60308c67ffffffffffffffff16901b1790506000610c8c61133c565b905060005b60028054905081108015610cd25750610cd18360028381548110610cb857610cb7612b8d565b5b9060005260206000200154611f5990919063ffffffff16565b5b15610ce85780610ce190612e89565b9050610c91565b600280549050811015610d9357816001610d1f60028481548110610d0f57610d0e612b8d565b5b9060005260206000200154611f77565b610d299190612ed1565b61ffff1610610d5b57610d568e888e63ffffffff168e67ffffffffffffffff168e63ffffffff168e611f81565b610d8e565b60028181548110610d6f57610d6e612b8d565b5b9060005260206000200160008154610d8690612e89565b919050819055505b610dfb565b60018203610dc457610dbf8e888e63ffffffff168e67ffffffffffffffff168e63ffffffff168e611f81565b610dfa565b6002600184610dd39190612ada565b90806001815401808255809150506001900390600052602060002001600090919091909150555b5b5050505050505050505050505050565b600080610e16611bed565b9050610e2181611cef565b91505090565b60008054906101000a900473ffffffffffffffffffffffffffffffffffffffff1673ffffffffffffffffffffffffffffffffffffffff1663a75b87d26040518163ffffffff1660e01b8152600401602060405180830381865afa158015610e92573d6000803e3d6000fd5b505050506040513d601f19601f82011682018060405250810190610eb691906128b6565b73ffffffffffffffffffffffffffffffffffffffff163373ffffffffffffffffffffffffffffffffffffffff1614610f23576040517f08c379a0000000000000000000000000000000000000000000000000000000008152600401610f1a90612966565b60405180910390fd5b8073ffffffffffffffffffffffffffffffffffffffff16600073ffffffffffffffffffffffffffffffffffffffff1603610f92576040517f08c379a0000000000000000000000000000000000000000000000000000000008152600401610f8990612f53565b60405180910390fd5b610f9b81611e8c565b7fffffffffffffffffffffffffffffffffffffffffffffffffffffffffffffffff14610ffc576040517f08c379a0000000000000000000000000000000000000000000000000000000008152600401610ff390612fbf565b60405180910390fd5b61010060018054905010611045576040517f08c379a000000000000000000000000000000000000000000000000000000000815260040161103c9061302b565b60405180910390fd5b6001819080600181540180825580915050600190039060005260206000200160009091909190916101000a81548173ffffffffffffffffffffffffffffffffffffffff021916908373ffffffffffffffffffffffffffffffffffffffff1602179055507fb251eb052afc73ffd02ffe85ad79990a8b3fed60d76dbc2fa2fdd7123dffd914816040516110d791906126e7565b60405180910390a150565b600061110d7f4d639ef200ee89d5ca903f329a42ba6f7caff7cdcb7606d374eb43dcb267448f61206a565b905090565b60008061111d611bed565b905061113161112b82611cef565b82611cb2565b91505090565b60008054906101000a900473ffffffffffffffffffffffffffffffffffffffff1673ffffffffffffffffffffffffffffffffffffffff1663a75b87d26040518163ffffffff1660e01b8152600401602060405180830381865afa1580156111a2573d6000803e3d6000fd5b505050506040513d601f19601f820116820180604052508101906111c691906128b6565b73ffffffffffffffffffffffffffffffffffffffff163373ffffffffffffffffffffffffffffffffffffffff1614611233576040517f08c379a000000000000000000000000000000000000000000000000000000000815260040161122a90612966565b60405180910390fd5b80600003611276576040517f08c379a000000000000000000000000000000000000000000000000000000000815260040161126d90613097565b60405180910390fd5b60006112a17ff064c3f7bf779563757f466db66f710c7c26c3fdf38640e2366054ebe9c04a736118d7565b90506112cd7ff064c3f7bf779563757f466db66f710c7c26c3fdf38640e2366054ebe9c04a7383611b5c565b7f027863d12a407097e086a48e36475bfc859d0b200b7e6f65b5fd3b218e46632e826040516112fc91906123cd565b60405180910390a181811115611338576000806113188461210e565b9150915081156113355760008061132e8361225c565b9150915050505b50505b5050565b60006113677ff064c3f7bf779563757f466db66f710c7c26c3fdf38640e2366054ebe9c04a736118d7565b905090565b606060018054806020026020016040519081016040528092919081815260200182805480156113f057602002820191906000526020600020905b8160009054906101000a900473ffffffffffffffffffffffffffffffffffffffff1673ffffffffffffffffffffffffffffffffffffffff16815260200190600101908083116113a6575b5050505050905090565b600080600080600061140a611bed565b9050806000015181602001518260400151836060015194509450945094505090919293565b60008054906101000a900473ffffffffffffffffffffffffffffffffffffffff1673ffffffffffffffffffffffffffffffffffffffff1663a75b87d26040518163ffffffff1660e01b8152600401602060405180830381865afa15801561149a573d6000803e3d6000fd5b505050506040513d601f19601f820116820180604052508101906114be91906128b6565b73ffffffffffffffffffffffffffffffffffffffff163373ffffffffffffffffffffffffffffffffffffffff161461152b576040517f08c379a000000000000000000000000000000000000000000000000000000000815260040161152290612966565b60405180910390fd5b6115378484848461197b565b50505050565b61010081565b6000600280549050905090565b60006115906040518060400160405280600b81526020017f4461776e4465706f736974000000000000000000000000000000000000000000815250612272565b905090565b60008054906101000a900473ffffffffffffffffffffffffffffffffffffffff1673ffffffffffffffffffffffffffffffffffffffff1663a75b87d26040518163ffffffff1660e01b8152600401602060405180830381865afa158015611600573d6000803e3d6000fd5b505050506040513d601f19601f8201168201806040525081019061162491906128b6565b73ffffffffffffffffffffffffffffffffffffffff163373ffffffffffffffffffffffffffffffffffffffff1614611691576040517f08c379a000000000000000000000000000000000000000000000000000000000815260040161168890612966565b60405180910390fd5b600061169c82611e8c565b90507fffffffffffffffffffffffffffffffffffffffffffffffffffffffffffffffff8103611700576040517f08c379a00000000000000000000000000000000000000000000000000000000081526004016116f790612dfd565b60405180910390fd5b60006001808054905061171391906129b5565b90508082146117b857600181815481106117305761172f612b8d565b5b9060005260206000200160009054906101000a900473ffffffffffffffffffffffffffffffffffffffff166001838154811061176f5761176e612b8d565b5b9060005260206000200160006101000a81548173ffffffffffffffffffffffffffffffffffffffff021916908373ffffffffffffffffffffffffffffffffffffffff1602179055505b60018080805490506117ca91906129b5565b815481106117db576117da612b8d565b5b9060005260206000200160009054906101000a900473ffffffffffffffffffffffffffffffffffffffff166001838154811061181a57611819612b8d565b5b9060005260206000200160006101000a81548173ffffffffffffffffffffffffffffffffffffffff021916908373ffffffffffffffffffffffffffffffffffffffff1602179055507f6e76fb4c77256006d9c38ec7d82b45a8c8f3c27b1d6766fffc42dfb8de6844928360405161189191906126e7565b60405180910390a16118c47f3e18ba9f3239b5baf31871b5bab37245b867892997bc1a7d20fcc53d1e3cbd7e6000611b5c565b600260006118d29190612326565b505050565b60008060009054906101000a900473ffffffffffffffffffffffffffffffffffffffff1673ffffffffffffffffffffffffffffffffffffffff1663bd02d0f5836040518263ffffffff1660e01b815260040161193391906130d0565b602060405180830381865afa158015611950573d6000803e3d6000fd5b505050506040513d601f19601f820116820180604052508101906119749190613100565b9050919050565b60008467ffffffffffffffff16116119c8576040517f08c379a00000000000000000000000000000000000000000000000000000000081526004016119bf90613179565b60405180910390fd5b60008367ffffffffffffffff1611611a15576040517f08c379a0000000000000000000000000000000000000000000000000000000008152600401611a0c906131e5565b60405180910390fd5b60008267ffffffffffffffff1611611a62576040517f08c379a0000000000000000000000000000000000000000000000000000000008152600401611a5990613251565b60405180910390fd5b60008167ffffffffffffffff1611611aaf576040517f08c379a0000000000000000000000000000000000000000000000000000000008152600401611aa6906132bd565b60405180910390fd5b60008167ffffffffffffffff1660408467ffffffffffffffff16901b60808667ffffffffffffffff16901b60c08867ffffffffffffffff16901b1717179050611b187fcacf9575a57eab4c3e647bf9a4b1b010d06742555a9b8cd57cd4a0adbb849a5b82611b5c565b7fa15de8f88515e04da45ad2303c04e9f126945fd99e173d3d93ff6351e1f335ee85858585604051611b4d94939291906127e2565b60405180910390a15050505050565b60008054906101000a900473ffffffffffffffffffffffffffffffffffffffff1673ffffffffffffffffffffffffffffffffffffffff1663e2a4853a83836040518363ffffffff1660e01b8152600401611bb79291906132dd565b600060405180830381600087803b158015611bd157600080fd5b505af1158015611be5573d6000803e3d6000fd5b505050505050565b611bf5612347565b6000611c207fcacf9575a57eab4c3e647bf9a4b1b010d06742555a9b8cd57cd4a0adbb849a5b6118d7565b905060c081901c826000019067ffffffffffffffff16908167ffffffffffffffff1681525050608081901c826020019067ffffffffffffffff16908167ffffffffffffffff1681525050604081901c826040019067ffffffffffffffff16908167ffffffffffffffff168152505080826060019067ffffffffffffffff16908167ffffffffffffffff16815250505090565b6000816000015167ffffffffffffffff16826000015167ffffffffffffffff1684611cdd9190613335565b611ce79190612b4b565b905092915050565b600081604001518260200151611d059190612b0e565b67ffffffffffffffff16826060015167ffffffffffffffff16611d2661231e565b611d3091906129b5565b611d3a9190613335565b9050919050565b6000806000603084901c9250601084901c91508390509193909250565b60008054906101000a900473ffffffffffffffffffffffffffffffffffffffff1673ffffffffffffffffffffffffffffffffffffffff1663ca446dd983836040518363ffffffff1660e01b8152600401611db9929190613366565b600060405180830381600087803b158015611dd357600080fd5b505af1158015611de7573d6000803e3d6000fd5b505050505050565b611e1a7f3e18ba9f3239b5baf31871b5bab37245b867892997bc1a7d20fcc53d1e3cbd7e6000611b5c565b611e447fdf92ec5a9a3f0d7666614cf95b62dc5e6d84faf6ea6c51b46daf4745c19157e782611b5c565b60026000611e529190612326565b7fcdcd275f4d96ed683d684f3610a92beacdebcf1ee4d37e2df526fb9001e1ea6381604051611e8191906123cd565b60405180910390a150565b600080600180549050905060005b81811015611f2e578373ffffffffffffffffffffffffffffffffffffffff1660018281548110611ecd57611ecc612b8d565b5b9060005260206000200160009054906101000a900473ffffffffffffffffffffffffffffffffffffffff1673ffffffffffffffffffffffffffffffffffffffff1603611f1d578092505050611f54565b80611f2790612e89565b9050611e9a565b507fffffffffffffffffffffffffffffffffffffffffffffffffffffffffffffffff9150505b919050565b6000816dffffffffffffffffffffffff000084161415905092915050565b6000819050919050565b7f76d411fd2f7fae2b1dc4ca3de630a18f2dcddba0f437b642dc11ba14c24663348686868686604051611fb895949392919061338f565b60405180910390a1611fe2816000015167ffffffffffffffff1687611fdd9190612ada565b611def565b6000611fec611550565b90508073ffffffffffffffffffffffffffffffffffffffff166346ed586988878988886040518663ffffffff1660e01b815260040161202f959493929190613413565b600060405180830381600087803b15801561204957600080fd5b505af115801561205d573d6000803e3d6000fd5b5050505050505050505050565b60008060009054906101000a900473ffffffffffffffffffffffffffffffffffffffff1673ffffffffffffffffffffffffffffffffffffffff166321f8a721836040518263ffffffff1660e01b81526004016120c691906130d0565b602060405180830381865afa1580156120e3573d6000803e3d6000fd5b505050506040513d601f19601f8201168201806040525081019061210791906128b6565b9050919050565b6000806001600280549050036121765782612147600260008154811061213757612136612b8d565b5b9060005260206000200154611f77565b61ffff161015600260008154811061216257612161612b8d565b5b906000526020600020015491509150612257565b60006002805490500361218f5760008091509150612257565b60008060008060005b60028054905081101561221a576121cc600282815481106121bc576121bb612b8d565b5b9060005260206000200154611f77565b91508261ffff168261ffff1610612209578261ffff168261ffff16036121fd57836121f690612e89565b9350612208565b809450819250600093505b5b8061221390612e89565b9050612198565b50868261ffff161015801561222f5750600083145b6002858154811061224357612242612b8d565b5b906000526020600020015495509550505050505b915091565b600080603083901c9150601083901c9050915091565b6000806122a4836040516020016122899190613523565b6040516020818303038152906040528051906020012061206a565b9050600073ffffffffffffffffffffffffffffffffffffffff168173ffffffffffffffffffffffffffffffffffffffff1603612315576040517f08c379a000000000000000000000000000000000000000000000000000000000815260040161230c90613591565b60405180910390fd5b80915050919050565b600042905090565b50805460008255906000526020600020908101906123449190612397565b50565b6040518060800160405280600067ffffffffffffffff168152602001600067ffffffffffffffff168152602001600067ffffffffffffffff168152602001600067ffffffffffffffff1681525090565b5b808211156123b0576000816000905550600101612398565b5090565b6000819050919050565b6123c7816123b4565b82525050565b60006020820190506123e260008301846123be565b92915050565b600080fd5b600067ffffffffffffffff82169050919050565b61240a816123ed565b811461241557600080fd5b50565b60008135905061242781612401565b92915050565b60008060008060808587031215612447576124466123e8565b5b600061245587828801612418565b945050602061246687828801612418565b935050604061247787828801612418565b925050606061248887828801612418565b91505092959194509250565b60006060820190506124a960008301866123be565b6124b660208301856123be565b6124c360408301846123be565b949350505050565b6124d4816123b4565b81146124df57600080fd5b50565b6000813590506124f1816124cb565b92915050565b60006020828403121561250d5761250c6123e8565b5b600061251b848285016124e2565b91505092915050565b61252d816123ed565b82525050565b600063ffffffff82169050919050565b61254c81612533565b82525050565b600061ffff82169050919050565b61256981612552565b82525050565b60006060820190506125846000830186612524565b6125916020830185612543565b61259e6040830184612560565b949350505050565b600073ffffffffffffffffffffffffffffffffffffffff82169050919050565b60006125d1826125a6565b9050919050565b6125e1816125c6565b81146125ec57600080fd5b50565b6000813590506125fe816125d8565b92915050565b60006020828403121561261a576126196123e8565b5b6000612628848285016125ef565b91505092915050565b61263a81612533565b811461264557600080fd5b50565b60008135905061265781612631565b92915050565b600080600080600060a08688031215612679576126786123e8565b5b6000612687888289016124e2565b955050602061269888828901612418565b94505060406126a988828901612648565b93505060606126ba88828901612418565b92505060806126cb88828901612648565b9150509295509295909350565b6126e1816125c6565b82525050565b60006020820190506126fc60008301846126d8565b92915050565b600081519050919050565b600082825260208201905092915050565b6000819050602082019050919050565b612737816125c6565b82525050565b6000612749838361272e565b60208301905092915050565b6000602082019050919050565b600061276d82612702565b612777818561270d565b93506127828361271e565b8060005b838110156127b357815161279a888261273d565b97506127a583612755565b925050600181019050612786565b5085935050505092915050565b600060208201905081810360008301526127da8184612762565b905092915050565b60006080820190506127f76000830187612524565b6128046020830186612524565b6128116040830185612524565b61281e6060830184612524565b95945050505050565b6000819050919050565b600061284c612847612842846125a6565b612827565b6125a6565b9050919050565b600061285e82612831565b9050919050565b600061287082612853565b9050919050565b61288081612865565b82525050565b600060208201905061289b6000830184612877565b92915050565b6000815190506128b0816125d8565b92915050565b6000602082840312156128cc576128cb6123e8565b5b60006128da848285016128a1565b91505092915050565b600082825260208201905092915050565b7f4163636f756e74206973206e6f7420612074656d706f7261727920677561726460008201527f69616e0000000000000000000000000000000000000000000000000000000000602082015250565b60006129506023836128e3565b915061295b826128f4565b604082019050919050565b6000602082019050818103600083015261297f81612943565b9050919050565b7f4e487b7100000000000000000000000000000000000000000000000000000000600052601160045260246000fd5b60006129c0826123b4565b91506129cb836123b4565b92508282039050818111156129e3576129e2612986565b5b92915050565b7f4e487b7100000000000000000000000000000000000000000000000000000000600052600160045260246000fd5b7f424153455f56455253494f4e5f4d5553545f42455f5a45524f00000000000000600082015250565b6000612a4e6019836128e3565b9150612a5982612a18565b602082019050919050565b60006020820190508181036000830152612a7d81612a41565b9050919050565b6000819050919050565b6000612aa9612aa4612a9f84612a84565b612827565b6123b4565b9050919050565b612ab981612a8e565b82525050565b6000602082019050612ad46000830184612ab0565b92915050565b6000612ae5826123b4565b9150612af0836123b4565b9250828201905080821115612b0857612b07612986565b5b92915050565b6000612b19826123ed565b9150612b24836123ed565b9250828202612b32816123ed565b9150808214612b4457612b43612986565b5b5092915050565b6000612b56826123b4565b9150612b61836123b4565b9250828202612b6f816123b4565b91508282048414831517612b8657612b85612986565b5b5092915050565b7f4e487b7100000000000000000000000000000000000000000000000000000000600052603260045260246000fd5b7f45504f43485f49535f544f4f5f4f4c4400000000000000000000000000000000600082015250565b6000612bf26010836128e3565b9150612bfd82612bbc565b602082019050919050565b60006020820190508181036000830152612c2181612be5565b9050919050565b7f554e45585045435445445f45504f434800000000000000000000000000000000600082015250565b6000612c5e6010836128e3565b9150612c6982612c28565b602082019050919050565b60006020820190508181036000830152612c8d81612c51565b9050919050565b60006fffffffffffffffffffffffffffffffff82169050919050565b6000612cbb82612c94565b9150612cc683612c94565b9250828202612cd481612c94565b9150808214612ce657612ce5612986565b5b5092915050565b612cf681612c94565b82525050565b6000612d17612d12612d0d84612533565b612827565b612c94565b9050919050565b612d2781612cfc565b82525050565b6000612d48612d43612d3e846123ed565b612827565b612c94565b9050919050565b612d5881612d2d565b82525050565b600060a082019050612d7360008301886123be565b612d806020830187612ced565b612d8d6040830186612d1e565b612d9a6060830185612d4f565b612da760808301846126d8565b9695505050505050565b7f4d454d4245525f4e4f545f464f554e4400000000000000000000000000000000600082015250565b6000612de76010836128e3565b9150612df282612db1565b602082019050919050565b60006020820190508181036000830152612e1681612dda565b9050919050565b7f414c52454144595f5355424d4954544544000000000000000000000000000000600082015250565b6000612e536011836128e3565b9150612e5e82612e1d565b602082019050919050565b60006020820190508181036000830152612e8281612e46565b9050919050565b6000612e94826123b4565b91507fffffffffffffffffffffffffffffffffffffffffffffffffffffffffffffffff8203612ec657612ec5612986565b5b600182019050919050565b6000612edc82612552565b9150612ee783612552565b9250828201905061ffff811115612f0157612f00612986565b5b92915050565b7f4241445f415247554d454e540000000000000000000000000000000000000000600082015250565b6000612f3d600c836128e3565b9150612f4882612f07565b602082019050919050565b60006020820190508181036000830152612f6c81612f30565b9050919050565b7f4d454d4245525f45584953545300000000000000000000000000000000000000600082015250565b6000612fa9600d836128e3565b9150612fb482612f73565b602082019050919050565b60006020820190508181036000830152612fd881612f9c565b9050919050565b7f544f4f5f4d414e595f4d454d4245525300000000000000000000000000000000600082015250565b60006130156010836128e3565b915061302082612fdf565b602082019050919050565b6000602082019050818103600083015261304481613008565b9050919050565b7f51554f52554d5f574f4e545f42455f4d41444500000000000000000000000000600082015250565b60006130816013836128e3565b915061308c8261304b565b602082019050919050565b600060208201905081810360008301526130b081613074565b9050919050565b6000819050919050565b6130ca816130b7565b82525050565b60006020820190506130e560008301846130c1565b92915050565b6000815190506130fa816124cb565b92915050565b600060208284031215613116576131156123e8565b5b6000613124848285016130eb565b91505092915050565b7f4241445f45504f4348535f5045525f4652414d45000000000000000000000000600082015250565b60006131636014836128e3565b915061316e8261312d565b602082019050919050565b6000602082019050818103600083015261319281613156565b9050919050565b7f4241445f534c4f54535f5045525f45504f434800000000000000000000000000600082015250565b60006131cf6013836128e3565b91506131da82613199565b602082019050919050565b600060208201905081810360008301526131fe816131c2565b9050919050565b7f4241445f5345434f4e44535f5045525f534c4f54000000000000000000000000600082015250565b600061323b6014836128e3565b915061324682613205565b602082019050919050565b6000602082019050818103600083015261326a8161322e565b9050919050565b7f4241445f47454e455349535f54494d4500000000000000000000000000000000600082015250565b60006132a76010836128e3565b91506132b282613271565b602082019050919050565b600060208201905081810360008301526132d68161329a565b9050919050565b60006040820190506132f260008301856130c1565b6132ff60208301846123be565b9392505050565b7f4e487b7100000000000000000000000000000000000000000000000000000000600052601260045260246000fd5b6000613340826123b4565b915061334b836123b4565b92508261335b5761335a613306565b5b828204905092915050565b600060408201905061337b60008301856130c1565b61338860208301846126d8565b9392505050565b600060a0820190506133a460008301886123be565b6133b16020830187612ced565b6133be6040830186612ced565b6133cb6060830185612ced565b6133d86080830184612ced565b9695505050505050565b60006133fd6133f86133f384612c94565b612827565b6123b4565b9050919050565b61340d816133e2565b82525050565b600060a08201905061342860008301886123be565b6134356020830187613404565b6134426040830186613404565b61344f6060830185613404565b61345c6080830184613404565b9695505050505050565b600081905092915050565b7f636f6e74726163742e6164647265737300000000000000000000000000000000600082015250565b60006134a7601083613466565b91506134b282613471565b601082019050919050565b600081519050919050565b60005b838110156134e65780820151818401526020810190506134cb565b60008484015250505050565b60006134fd826134bd565b6135078185613466565b93506135178185602086016134c8565b80840191505092915050565b600061352e8261349a565b915061353a82846134f2565b915081905092915050565b7f436f6e7472616374206e6f7420666f756e640000000000000000000000000000600082015250565b600061357b6012836128e3565b915061358682613545565b602082019050919050565b600060208201905081810360008301526135aa8161356e565b905091905056fea2646970667358221220a5183aee763a1f124a1b66f592d9fef01f7be169281d159a4d8a399eb9431ac764736f6c63430008110033",
  "linkReferences": {},
  "deployedLinkReferences": {}
}