{
  "_format": "hh-sol-artifact-1",
  "contractName": "DawnDeposit",
  "sourceName": "contracts/core/DawnDeposit.sol",
  "abi": [
    {
      "inputs": [
        {
          "internalType": "contract IDawnStorageInterface",
          "name": "dawnStorageAddress",
          "type": "address"
        }
      ],
      "stateMutability": "nonpayable",
      "type": "constructor"
    },
    {
      "anonymous": false,
      "inputs": [
        {
          "indexed": true,
          "internalType": "address",
          "name": "owner",
          "type": "address"
        },
        {
          "indexed": true,
          "internalType": "address",
          "name": "spender",
          "type": "address"
        },
        {
          "indexed": false,
          "internalType": "uint256",
          "name": "value",
          "type": "uint256"
        }
      ],
      "name": "Approval",
      "type": "event"
    },
    {
      "anonymous": false,
      "inputs": [
        {
          "indexed": false,
          "internalType": "address",
          "name": "operator",
          "type": "address"
        },
        {
          "indexed": false,
          "internalType": "bytes",
          "name": "pubkey",
          "type": "bytes"
        },
        {
          "indexed": false,
          "internalType": "uint256",
          "name": "amount",
          "type": "uint256"
        }
      ],
      "name": "LogActivateValidator",
      "type": "event"
    },
    {
      "anonymous": false,
      "inputs": [
        {
          "indexed": false,
          "internalType": "address",
          "name": "operator",
          "type": "address"
        },
        {
          "indexed": false,
          "internalType": "bytes",
          "name": "pubkey",
          "type": "bytes"
        },
        {
          "indexed": false,
          "internalType": "uint256",
          "name": "amount",
          "type": "uint256"
        }
      ],
      "name": "LogPreActivateValidator",
      "type": "event"
    },
    {
      "anonymous": false,
      "inputs": [
        {
          "indexed": false,
          "internalType": "uint256",
          "name": "pEthAmount",
          "type": "uint256"
        }
      ],
      "name": "LogReceiveInsurance",
      "type": "event"
    },
    {
      "anonymous": false,
      "inputs": [
        {
          "indexed": false,
          "internalType": "uint256",
          "name": "ethAmount",
          "type": "uint256"
        }
      ],
      "name": "LogReceiveRewards",
      "type": "event"
    },
    {
      "anonymous": false,
      "inputs": [
        {
          "indexed": true,
          "internalType": "address",
          "name": "staker",
          "type": "address"
        },
        {
          "indexed": false,
          "internalType": "uint256",
          "name": "ethAmount",
          "type": "uint256"
        }
      ],
      "name": "LogStake",
      "type": "event"
    },
    {
      "anonymous": false,
      "inputs": [
        {
          "indexed": true,
          "internalType": "address",
          "name": "from",
          "type": "address"
        },
        {
          "indexed": true,
          "internalType": "address",
          "name": "to",
          "type": "address"
        },
        {
          "indexed": false,
          "internalType": "uint256",
          "name": "value",
          "type": "uint256"
        }
      ],
      "name": "Transfer",
      "type": "event"
    },
    {
      "inputs": [],
      "name": "DEPOSIT_VALUE_PER_VALIDATOR",
      "outputs": [
        {
          "internalType": "uint256",
          "name": "",
          "type": "uint256"
        }
      ],
      "stateMutability": "view",
      "type": "function"
    },
    {
      "inputs": [],
      "name": "DOMAIN_SEPARATOR",
      "outputs": [
        {
          "internalType": "bytes32",
          "name": "",
          "type": "bytes32"
        }
      ],
      "stateMutability": "view",
      "type": "function"
    },
    {
      "inputs": [],
      "name": "POST_DEPOSIT_VALUE",
      "outputs": [
        {
          "internalType": "uint256",
          "name": "",
          "type": "uint256"
        }
      ],
      "stateMutability": "view",
      "type": "function"
    },
    {
      "inputs": [],
      "name": "PRE_DEPOSIT_VALUE",
      "outputs": [
        {
          "internalType": "uint256",
          "name": "",
          "type": "uint256"
        }
      ],
      "stateMutability": "view",
      "type": "function"
    },
    {
      "inputs": [
        {
          "internalType": "address",
          "name": "operator",
          "type": "address"
        },
        {
          "internalType": "bytes",
          "name": "pubkey",
          "type": "bytes"
        },
        {
          "internalType": "bytes",
          "name": "signature",
          "type": "bytes"
        }
      ],
      "name": "activateValidator",
      "outputs": [],
      "stateMutability": "nonpayable",
      "type": "function"
    },
    {
      "inputs": [
        {
          "internalType": "address",
          "name": "owner",
          "type": "address"
        },
        {
          "internalType": "address",
          "name": "spender",
          "type": "address"
        }
      ],
      "name": "allowance",
      "outputs": [
        {
          "internalType": "uint256",
          "name": "",
          "type": "uint256"
        }
      ],
      "stateMutability": "view",
      "type": "function"
    },
    {
      "inputs": [
        {
          "internalType": "address",
          "name": "spender",
          "type": "address"
        },
        {
          "internalType": "uint256",
          "name": "amount",
          "type": "uint256"
        }
      ],
      "name": "approve",
      "outputs": [
        {
          "internalType": "bool",
          "name": "",
          "type": "bool"
        }
      ],
      "stateMutability": "nonpayable",
      "type": "function"
    },
    {
      "inputs": [
        {
          "internalType": "address",
          "name": "account",
          "type": "address"
        }
      ],
      "name": "balanceOf",
      "outputs": [
        {
          "internalType": "uint256",
          "name": "",
          "type": "uint256"
        }
      ],
      "stateMutability": "view",
      "type": "function"
    },
    {
      "inputs": [],
      "name": "decimals",
      "outputs": [
        {
          "internalType": "uint8",
          "name": "",
          "type": "uint8"
        }
      ],
      "stateMutability": "view",
      "type": "function"
    },
    {
      "inputs": [
        {
          "internalType": "address",
          "name": "spender",
          "type": "address"
        },
        {
          "internalType": "uint256",
          "name": "subtractedValue",
          "type": "uint256"
        }
      ],
      "name": "decreaseAllowance",
      "outputs": [
        {
          "internalType": "bool",
          "name": "",
          "type": "bool"
        }
      ],
      "stateMutability": "nonpayable",
      "type": "function"
    },
    {
      "inputs": [],
      "name": "getBeaconStat",
      "outputs": [
        {
          "internalType": "uint256",
          "name": "depositedValidators",
          "type": "uint256"
        },
        {
          "internalType": "uint256",
          "name": "beaconValidators",
          "type": "uint256"
        },
        {
          "internalType": "uint256",
          "name": "beaconBalance",
          "type": "uint256"
        }
      ],
      "stateMutability": "view",
      "type": "function"
    },
    {
      "inputs": [],
      "name": "getBufferedEther",
      "outputs": [
        {
          "internalType": "uint256",
          "name": "",
          "type": "uint256"
        }
      ],
      "stateMutability": "view",
      "type": "function"
    },
    {
      "inputs": [
        {
          "internalType": "uint256",
          "name": "pEthAmount",
          "type": "uint256"
        }
      ],
      "name": "getEtherByPEth",
      "outputs": [
        {
          "internalType": "uint256",
          "name": "",
          "type": "uint256"
        }
      ],
      "stateMutability": "view",
      "type": "function"
    },
    {
      "inputs": [
        {
          "internalType": "uint256",
          "name": "ethAmount",
          "type": "uint256"
        }
      ],
      "name": "getPEthByEther",
      "outputs": [
        {
          "internalType": "uint256",
          "name": "",
          "type": "uint256"
        }
      ],
      "stateMutability": "view",
      "type": "function"
    },
    {
      "inputs": [],
      "name": "getTotalPooledEther",
      "outputs": [
        {
          "internalType": "uint256",
          "name": "",
          "type": "uint256"
        }
      ],
      "stateMutability": "view",
      "type": "function"
    },
    {
      "inputs": [],
      "name": "getWithdrawalCredentials",
      "outputs": [
        {
          "internalType": "bytes32",
          "name": "",
          "type": "bytes32"
        }
      ],
      "stateMutability": "view",
      "type": "function"
    },
    {
      "inputs": [
        {
          "internalType": "uint256",
          "name": "epochId",
          "type": "uint256"
        },
        {
          "internalType": "uint256",
          "name": "beaconValidators",
          "type": "uint256"
        },
        {
          "internalType": "uint256",
          "name": "beaconBalance",
          "type": "uint256"
        },
        {
          "internalType": "uint256",
          "name": "availableRewards",
          "type": "uint256"
        },
        {
          "internalType": "uint256",
          "name": "exitedValidators",
          "type": "uint256"
        }
      ],
      "name": "handleOracleReport",
      "outputs": [],
      "stateMutability": "nonpayable",
      "type": "function"
    },
    {
      "inputs": [
        {
          "internalType": "address",
          "name": "spender",
          "type": "address"
        },
        {
          "internalType": "uint256",
          "name": "addedValue",
          "type": "uint256"
        }
      ],
      "name": "increaseAllowance",
      "outputs": [
        {
          "internalType": "bool",
          "name": "",
          "type": "bool"
        }
      ],
      "stateMutability": "nonpayable",
      "type": "function"
    },
    {
      "inputs": [],
      "name": "name",
      "outputs": [
        {
          "internalType": "string",
          "name": "",
          "type": "string"
        }
      ],
      "stateMutability": "view",
      "type": "function"
    },
    {
      "inputs": [
        {
          "internalType": "address",
          "name": "owner",
          "type": "address"
        }
      ],
      "name": "nonces",
      "outputs": [
        {
          "internalType": "uint256",
          "name": "",
          "type": "uint256"
        }
      ],
      "stateMutability": "view",
      "type": "function"
    },
    {
      "inputs": [
        {
          "internalType": "address",
          "name": "owner",
          "type": "address"
        },
        {
          "internalType": "address",
          "name": "spender",
          "type": "address"
        },
        {
          "internalType": "uint256",
          "name": "value",
          "type": "uint256"
        },
        {
          "internalType": "uint256",
          "name": "deadline",
          "type": "uint256"
        },
        {
          "internalType": "uint8",
          "name": "v",
          "type": "uint8"
        },
        {
          "internalType": "bytes32",
          "name": "r",
          "type": "bytes32"
        },
        {
          "internalType": "bytes32",
          "name": "s",
          "type": "bytes32"
        }
      ],
      "name": "permit",
      "outputs": [],
      "stateMutability": "nonpayable",
      "type": "function"
    },
    {
      "inputs": [
        {
          "internalType": "address",
          "name": "operator",
          "type": "address"
        },
        {
          "internalType": "bytes",
          "name": "pubkey",
          "type": "bytes"
        },
        {
          "internalType": "bytes",
          "name": "signature",
          "type": "bytes"
        }
      ],
      "name": "preActivateValidator",
      "outputs": [],
      "stateMutability": "nonpayable",
      "type": "function"
    },
    {
      "inputs": [
        {
          "internalType": "uint256",
          "name": "pEthAmount",
          "type": "uint256"
        }
      ],
      "name": "receiveFromInsurance",
      "outputs": [],
      "stateMutability": "nonpayable",
      "type": "function"
    },
    {
      "inputs": [],
      "name": "receiveRewards",
      "outputs": [],
      "stateMutability": "payable",
      "type": "function"
    },
    {
      "inputs": [],
      "name": "stake",
      "outputs": [
        {
          "internalType": "uint256",
          "name": "",
          "type": "uint256"
        }
      ],
      "stateMutability": "payable",
      "type": "function"
    },
    {
      "inputs": [],
      "name": "symbol",
      "outputs": [
        {
          "internalType": "string",
          "name": "",
          "type": "string"
        }
      ],
      "stateMutability": "view",
      "type": "function"
    },
    {
      "inputs": [],
      "name": "totalSupply",
      "outputs": [
        {
          "internalType": "uint256",
          "name": "",
          "type": "uint256"
        }
      ],
      "stateMutability": "view",
      "type": "function"
    },
    {
      "inputs": [
        {
          "internalType": "address",
          "name": "to",
          "type": "address"
        },
        {
          "internalType": "uint256",
          "name": "amount",
          "type": "uint256"
        }
      ],
      "name": "transfer",
      "outputs": [
        {
          "internalType": "bool",
          "name": "",
          "type": "bool"
        }
      ],
      "stateMutability": "nonpayable",
      "type": "function"
    },
    {
      "inputs": [
        {
          "internalType": "address",
          "name": "from",
          "type": "address"
        },
        {
          "internalType": "address",
          "name": "to",
          "type": "address"
        },
        {
          "internalType": "uint256",
          "name": "amount",
          "type": "uint256"
        }
      ],
      "name": "transferFrom",
      "outputs": [
        {
          "internalType": "bool",
          "name": "",
          "type": "bool"
        }
      ],
      "stateMutability": "nonpayable",
      "type": "function"
    },
    {
      "inputs": [
        {
          "internalType": "uint256",
          "name": "pEthAmount",
          "type": "uint256"
        }
      ],
      "name": "unstake",
      "outputs": [
        {
          "internalType": "uint256",
          "name": "",
          "type": "uint256"
        }
      ],
      "stateMutability": "nonpayable",
      "type": "function"
    },
    {
      "stateMutability": "payable",
      "type": "receive"
    }
  ],
  "bytecode": "0x6101406040526000600760006101000a81548173ffffffffffffffffffffffffffffffffffffffff021916908373ffffffffffffffffffffffffffffffffffffffff1602179055503480156200005457600080fd5b50604051620057be380380620057be83398181016040528101906200007a919062000330565b806040518060400160405280600481526020017f7045544800000000000000000000000000000000000000000000000000000000815250806040518060400160405280600181526020017f31000000000000000000000000000000000000000000000000000000000000008152506040518060400160405280600d81526020017f4461776e20506f6f6c20455448000000000000000000000000000000000000008152506040518060400160405280600481526020017f70455448000000000000000000000000000000000000000000000000000000008152508160039081620001659190620005dc565b508060049081620001779190620005dc565b50505060008280519060200120905060008280519060200120905060007f8b73c3c69bb8fe3d512ecc4cf759cc79239f7b179b0ffacaa9a75d522b39400f90508260e081815250508161010081815250504660a08181525050620001e38184846200027660201b60201c565b608081815250503073ffffffffffffffffffffffffffffffffffffffff1660c08173ffffffffffffffffffffffffffffffffffffffff168152505080610120818152505050505050505080600760006101000a81548173ffffffffffffffffffffffffffffffffffffffff021916908373ffffffffffffffffffffffffffffffffffffffff16021790555050506200075d565b600083838346306040516020016200029395949392919062000700565b6040516020818303038152906040528051906020012090509392505050565b600080fd5b600073ffffffffffffffffffffffffffffffffffffffff82169050919050565b6000620002e482620002b7565b9050919050565b6000620002f882620002d7565b9050919050565b6200030a81620002eb565b81146200031657600080fd5b50565b6000815190506200032a81620002ff565b92915050565b600060208284031215620003495762000348620002b2565b5b6000620003598482850162000319565b91505092915050565b600081519050919050565b7f4e487b7100000000000000000000000000000000000000000000000000000000600052604160045260246000fd5b7f4e487b7100000000000000000000000000000000000000000000000000000000600052602260045260246000fd5b60006002820490506001821680620003e457607f821691505b602082108103620003fa57620003f96200039c565b5b50919050565b60008190508160005260206000209050919050565b60006020601f8301049050919050565b600082821b905092915050565b600060088302620004647fffffffffffffffffffffffffffffffffffffffffffffffffffffffffffffffff8262000425565b62000470868362000425565b95508019841693508086168417925050509392505050565b6000819050919050565b6000819050919050565b6000620004bd620004b7620004b18462000488565b62000492565b62000488565b9050919050565b6000819050919050565b620004d9836200049c565b620004f1620004e882620004c4565b84845462000432565b825550505050565b600090565b62000508620004f9565b62000515818484620004ce565b505050565b5b818110156200053d5762000531600082620004fe565b6001810190506200051b565b5050565b601f8211156200058c57620005568162000400565b620005618462000415565b8101602085101562000571578190505b62000589620005808562000415565b8301826200051a565b50505b505050565b600082821c905092915050565b6000620005b16000198460080262000591565b1980831691505092915050565b6000620005cc83836200059e565b9150826002028217905092915050565b620005e78262000362565b67ffffffffffffffff8111156200060357620006026200036d565b5b6200060f8254620003cb565b6200061c82828562000541565b600060209050601f8311600181146200065457600084156200063f578287015190505b6200064b8582620005be565b865550620006bb565b601f198416620006648662000400565b60005b828110156200068e5784890151825560018201915060208501945060208101905062000667565b86831015620006ae5784890151620006aa601f8916826200059e565b8355505b6001600288020188555050505b505050505050565b6000819050919050565b620006d881620006c3565b82525050565b620006e98162000488565b82525050565b620006fa81620002d7565b82525050565b600060a082019050620007176000830188620006cd565b620007266020830187620006cd565b620007356040830186620006cd565b620007446060830185620006de565b620007536080830184620006ef565b9695505050505050565b60805160a05160c05160e0516101005161012051615011620007ad6000396000612374015260006123b601526000612395015260006122ca015260006123200152600061234901526150116000f3fe6080604052600436106101d15760003560e01c806356396715116100f7578063a457c2d711610095578063b6460fb511610064578063b6460fb5146106b1578063bd7ef16d146106ee578063d505accf14610719578063dd62ed3e14610742576101e0565b8063a457c2d7146105df578063a73a8e651461061c578063a9059cbb14610647578063ae2e353814610684576101e0565b806366f8cc62116100d157806366f8cc621461051157806370a082311461053a5780637ecebe001461057757806395d89b41146105b4576101e0565b806356396715146104b357806361d1266c146104de578063631cbe3c14610507576101e0565b80633644e5151161016f578063426030031161013e57806342603003146103f957806346ed58691461042257806347b714e01461044b5780634f5d126314610476576101e0565b80633644e5151461034857806337cfdaca14610373578063395093511461039e5780633a4b66f1146103db576101e0565b806323b872dd116101ab57806323b872dd146102785780632e17de78146102b5578063313ce567146102f2578063361b55d91461031d576101e0565b806306fdde03146101e5578063095ea7b31461021057806318160ddd1461024d576101e0565b366101e0576101de61077f565b005b600080fd5b3480156101f157600080fd5b506101fa610865565b6040516102079190613417565b60405180910390f35b34801561021c57600080fd5b50610237600480360381019061023291906134d7565b6108f7565b6040516102449190613532565b60405180910390f35b34801561025957600080fd5b5061026261091a565b60405161026f919061355c565b60405180910390f35b34801561028457600080fd5b5061029f600480360381019061029a9190613577565b610924565b6040516102ac9190613532565b60405180910390f35b3480156102c157600080fd5b506102dc60048036038101906102d791906135ca565b610953565b6040516102e9919061355c565b60405180910390f35b3480156102fe57600080fd5b5061030761095d565b6040516103149190613613565b60405180910390f35b34801561032957600080fd5b50610332610966565b60405161033f919061355c565b60405180910390f35b34801561035457600080fd5b5061035d610973565b60405161036a9190613647565b60405180910390f35b34801561037f57600080fd5b50610388610982565b604051610395919061355c565b60405180910390f35b3480156103aa57600080fd5b506103c560048036038101906103c091906134d7565b610ace565b6040516103d29190613532565b60405180910390f35b6103e3610b05565b6040516103f0919061355c565b60405180910390f35b34801561040557600080fd5b50610420600480360381019061041b91906135ca565b610b14565b005b34801561042e57600080fd5b5061044960048036038101906104449190613662565b610c40565b005b34801561045757600080fd5b5061046061114a565b60405161046d919061355c565b60405180910390f35b34801561048257600080fd5b5061049d600480360381019061049891906135ca565b61117a565b6040516104aa919061355c565b60405180910390f35b3480156104bf57600080fd5b506104c86111d4565b6040516104d59190613647565b60405180910390f35b3480156104ea57600080fd5b5061050560048036038101906105009190613742565b6111e3565b005b61050f611497565b005b34801561051d57600080fd5b5061053860048036038101906105339190613742565b6114fa565b005b34801561054657600080fd5b50610561600480360381019061055c91906137d7565b61177f565b60405161056e919061355c565b60405180910390f35b34801561058357600080fd5b5061059e600480360381019061059991906137d7565b6117c7565b6040516105ab919061355c565b60405180910390f35b3480156105c057600080fd5b506105c9611817565b6040516105d69190613417565b60405180910390f35b3480156105eb57600080fd5b50610606600480360381019061060191906134d7565b6118a9565b6040516106139190613532565b60405180910390f35b34801561062857600080fd5b50610631611920565b60405161063e919061355c565b60405180910390f35b34801561065357600080fd5b5061066e600480360381019061066991906134d7565b61192d565b60405161067b9190613532565b60405180910390f35b34801561069057600080fd5b50610699611950565b6040516106a893929190613804565b60405180910390f35b3480156106bd57600080fd5b506106d860048036038101906106d391906135ca565b6119db565b6040516106e5919061355c565b60405180910390f35b3480156106fa57600080fd5b50610703611a35565b604051610710919061355c565b60405180910390f35b34801561072557600080fd5b50610740600480360381019061073b9190613893565b611a41565b005b34801561074e57600080fd5b5061076960048036038101906107649190613935565b611b83565b604051610776919061355c565b60405180910390f35b60008034036107c3576040517f08c379a00000000000000000000000000000000000000000000000000000000081526004016107ba906139c1565b60405180910390fd5b60006107ce3461117a565b9050600081036107dc573490505b6107e63382611c0a565b6108107f341ddcafa8194c936a615f6da6d5b805b69e7968f858d37a246557ae89c0b10734611d60565b3373ffffffffffffffffffffffffffffffffffffffff167f3dbdcfd4c1f2e08931aae3d544e149a1e643143f5234d166fe3debb78338849534604051610856919061355c565b60405180910390a28091505090565b60606003805461087490613a10565b80601f01602080910402602001604051908101604052809291908181526020018280546108a090613a10565b80156108ed5780601f106108c2576101008083540402835291602001916108ed565b820191906000526020600020905b8154815290600101906020018083116108d057829003601f168201915b5050505050905090565b600080610902611df3565b905061090f818585611dfb565b600191505092915050565b6000600254905090565b60008061092f611df3565b905061093c858285611fc4565b610947858585612050565b60019150509392505050565b6000819050919050565b60006012905090565b6801ae361fc1451c000081565b600061097d6122c6565b905090565b6000610ac96109c9670de0b6b3a76400006109bb7e882f9dbc877242cea5e51b33b650bdc9bc6abdf4c3510a76084e9c3c033e786123e0565b61248590919063ffffffff16565b610abb610a4a6801bc16d674ec800000610a3c610a057f03c77f053088a575b9521a248e6981814a26c03c87460d925a0c240e5d2ef5a06123e0565b610a2e7f0904604e7b52344a1cae14966ec1b6b446e7e01bbd34ed33c4ad6a30d44ea51e6123e0565b61249b90919063ffffffff16565b61248590919063ffffffff16565b610aad610a767fbe8bf3644b3762cbffde125986a23a91ade7fddbc3442d865d5aaf508cda18c66123e0565b610a9f7f341ddcafa8194c936a615f6da6d5b805b69e7968f858d37a246557ae89c0b1076123e0565b6124b190919063ffffffff16565b6124b190919063ffffffff16565b6124b190919063ffffffff16565b905090565b600080610ad9611df3565b9050610afa818585610aeb8589611b83565b610af59190613a70565b611dfb565b600191505092915050565b6000610b0f61077f565b905090565b610b526040518060400160405280600d81526020017f4461776e496e737572616e6365000000000000000000000000000000000000008152506124c7565b73ffffffffffffffffffffffffffffffffffffffff163373ffffffffffffffffffffffffffffffffffffffff1614610bbf576040517f08c379a0000000000000000000000000000000000000000000000000000000008152600401610bb690613af0565b60405180910390fd5b610c06610c006040518060400160405280600d81526020017f4461776e496e737572616e6365000000000000000000000000000000000000008152506124c7565b82612573565b7f1fde49cb3db550a66f48bcd7c36f44448ed1a63a3ae9c4a9dffd4b1db607533081604051610c35919061355c565b60405180910390a150565b610c7e6040518060400160405280600e81526020017f4461776e506f6f6c4f7261636c650000000000000000000000000000000000008152506124c7565b73ffffffffffffffffffffffffffffffffffffffff163373ffffffffffffffffffffffffffffffffffffffff1614610ceb576040517f08c379a0000000000000000000000000000000000000000000000000000000008152600401610ce290613b5c565b60405180910390fd5b610d296040518060400160405280600c81526020017f526577617264735661756c7400000000000000000000000000000000000000008152506124c7565b73ffffffffffffffffffffffffffffffffffffffff1631821115610d82576040517f08c379a0000000000000000000000000000000000000000000000000000000008152600401610d7990613bee565b60405180910390fd5b610e24610ded6801bc16d674ec800000610ddf610dbe7f03c77f053088a575b9521a248e6981814a26c03c87460d925a0c240e5d2ef5a06123e0565b610dd1868a6124b190919063ffffffff16565b61249b90919063ffffffff16565b61248590919063ffffffff16565b610e167fbe8bf3644b3762cbffde125986a23a91ade7fddbc3442d865d5aaf508cda18c66123e0565b6124b190919063ffffffff16565b610e3783856124b190919063ffffffff16565b11610e77576040517f08c379a0000000000000000000000000000000000000000000000000000000008152600401610e6e90613c5a565b60405180910390fd5b6000610f3f610f1e610ee76801bc16d674ec800000610ed9610eb87f03c77f053088a575b9521a248e6981814a26c03c87460d925a0c240e5d2ef5a06123e0565b610ecb888c6124b190919063ffffffff16565b61249b90919063ffffffff16565b61248590919063ffffffff16565b610f107fbe8bf3644b3762cbffde125986a23a91ade7fddbc3442d865d5aaf508cda18c66123e0565b6124b190919063ffffffff16565b610f3185876124b190919063ffffffff16565b61249b90919063ffffffff16565b90506000610f4b610982565b90506000610f5761091a565b9050610f837f03c77f053088a575b9521a248e6981814a26c03c87460d925a0c240e5d2ef5a088612740565b610fad7fbe8bf3644b3762cbffde125986a23a91ade7fddbc3442d865d5aaf508cda18c687612740565b600085111561105f57610ff46040518060400160405280600c81526020017f526577617264735661756c7400000000000000000000000000000000000000008152506124c7565b73ffffffffffffffffffffffffffffffffffffffff16639342c8f4866040518263ffffffff1660e01b815260040161102c919061355c565b600060405180830381600087803b15801561104657600080fd5b505af115801561105a573d6000803e3d6000fd5b505050505b60006111346110d96110b66110a76110967f705fe20ed35e7cce1159f49c90f9dab5c5ed67a8790e40ec4869b3d6be323b2b6123e0565b61271061249b90919063ffffffff16565b8761248590919063ffffffff16565b6110cb6127108761248590919063ffffffff16565b6124b190919063ffffffff16565b6111266111057f705fe20ed35e7cce1159f49c90f9dab5c5ed67a8790e40ec4869b3d6be323b2b6123e0565b611118888761248590919063ffffffff16565b61248590919063ffffffff16565b6127d390919063ffffffff16565b905061113f816127e9565b505050505050505050565b60006111757f341ddcafa8194c936a615f6da6d5b805b69e7968f858d37a246557ae89c0b1076123e0565b905090565b600080611185610982565b9050600081036111995760009150506111cf565b60006111a361091a565b90506111ca826111bc868461248590919063ffffffff16565b6127d390919063ffffffff16565b925050505b919050565b60006111de612903565b905090565b846000806112256040518060400160405280601281526020017f4465706f7369744e6f64654d616e6167657200000000000000000000000000008152506124c7565b73ffffffffffffffffffffffffffffffffffffffff16630e2c0b10846040518263ffffffff1660e01b815260040161125d9190613c89565b6040805180830381865afa158015611279573d6000803e3d6000fd5b505050506040513d601f19601f8201168201806040525081019061129d9190613ce5565b915091508173ffffffffffffffffffffffffffffffffffffffff163373ffffffffffffffffffffffffffffffffffffffff161461130f576040517f08c379a000000000000000000000000000000000000000000000000000000000815260040161130690613d97565b60405180910390fd5b8061134f576040517f08c379a000000000000000000000000000000000000000000000000000000000815260040161134690613e03565b60405180910390fd5b6801ae361fc1451c000047101561139b576040517f08c379a000000000000000000000000000000000000000000000000000000000815260040161139290613e6f565b60405180910390fd5b60006113a5612903565b90506113be88888389896801ae361fc1451c0000612989565b6113e97f0904604e7b52344a1cae14966ec1b6b446e7e01bbd34ed33c4ad6a30d44ea51e6001611d60565b6114137e882f9dbc877242cea5e51b33b650bdc9bc6abdf4c3510a76084e9c3c033e786001612d98565b6114467f341ddcafa8194c936a615f6da6d5b805b69e7968f858d37a246557ae89c0b1076801ae361fc1451c0000612d98565b7fb629260c74cea5e1861205e59a2b203e2dc93870354ed627176fd86bc6e30d408989896801ae361fc1451c00006040516114849493929190613edc565b60405180910390a1505050505050505050565b6114c17f341ddcafa8194c936a615f6da6d5b805b69e7968f858d37a246557ae89c0b10734611d60565b7f0a54722b21b0f3a3bb18e77037f7705e2281aad44eef25231f961464cc619a6a346040516114f0919061355c565b60405180910390a1565b8460008061153c6040518060400160405280601281526020017f4465706f7369744e6f64654d616e6167657200000000000000000000000000008152506124c7565b73ffffffffffffffffffffffffffffffffffffffff16630e2c0b10846040518263ffffffff1660e01b81526004016115749190613c89565b6040805180830381865afa158015611590573d6000803e3d6000fd5b505050506040513d601f19601f820116820180604052508101906115b49190613ce5565b915091508173ffffffffffffffffffffffffffffffffffffffff163373ffffffffffffffffffffffffffffffffffffffff1614611626576040517f08c379a000000000000000000000000000000000000000000000000000000000815260040161161d90613d97565b60405180910390fd5b80611666576040517f08c379a000000000000000000000000000000000000000000000000000000000815260040161165d90613e03565b60405180910390fd5b670de0b6b3a76400004710156116b1576040517f08c379a00000000000000000000000000000000000000000000000000000000081526004016116a890613e6f565b60405180910390fd5b60006116bb612903565b90506116d38888838989670de0b6b3a7640000612989565b6116fd7e882f9dbc877242cea5e51b33b650bdc9bc6abdf4c3510a76084e9c3c033e786001611d60565b61172f7f341ddcafa8194c936a615f6da6d5b805b69e7968f858d37a246557ae89c0b107670de0b6b3a7640000612d98565b7f8ad7785cb6530f76bdd547c0d530e0129b62aa92411aa6825d4c560bfee1e3a3898989670de0b6b3a764000060405161176c9493929190613edc565b60405180910390a1505050505050505050565b60008060008373ffffffffffffffffffffffffffffffffffffffff1673ffffffffffffffffffffffffffffffffffffffff168152602001908152602001600020549050919050565b6000611810600560008473ffffffffffffffffffffffffffffffffffffffff1673ffffffffffffffffffffffffffffffffffffffff168152602001908152602001600020612e2b565b9050919050565b60606004805461182690613a10565b80601f016020809104026020016040519081016040528092919081815260200182805461185290613a10565b801561189f5780601f106118745761010080835404028352916020019161189f565b820191906000526020600020905b81548152906001019060200180831161188257829003601f168201915b5050505050905090565b6000806118b4611df3565b905060006118c28286611b83565b905083811015611907576040517f08c379a00000000000000000000000000000000000000000000000000000000081526004016118fe90613f8e565b60405180910390fd5b6119148286868403611dfb565b60019250505092915050565b6801bc16d674ec80000081565b600080611938611df3565b9050611945818585612050565b600191505092915050565b600080600061197e7f0904604e7b52344a1cae14966ec1b6b446e7e01bbd34ed33c4ad6a30d44ea51e6123e0565b92506119a97f03c77f053088a575b9521a248e6981814a26c03c87460d925a0c240e5d2ef5a06123e0565b91506119d47fbe8bf3644b3762cbffde125986a23a91ade7fddbc3442d865d5aaf508cda18c66123e0565b9050909192565b6000806119e661091a565b9050600081036119fa576000915050611a30565b6000611a04610982565b9050611a2b82611a1d868461248590919063ffffffff16565b6127d390919063ffffffff16565b925050505b919050565b670de0b6b3a764000081565b83421115611a84576040517f08c379a0000000000000000000000000000000000000000000000000000000008152600401611a7b90613ffa565b60405180910390fd5b60007f6e71edae12b1b97f4d1f60370fef10105fa2faae0126114a169c64845d6126c9888888611ab38c612e39565b89604051602001611ac99695949392919061401a565b6040516020818303038152906040528051906020012090506000611aec82612e97565b90506000611afc82878787612eb1565b90508973ffffffffffffffffffffffffffffffffffffffff168173ffffffffffffffffffffffffffffffffffffffff1614611b6c576040517f08c379a0000000000000000000000000000000000000000000000000000000008152600401611b63906140c7565b60405180910390fd5b611b778a8a8a611dfb565b50505050505050505050565b6000600160008473ffffffffffffffffffffffffffffffffffffffff1673ffffffffffffffffffffffffffffffffffffffff16815260200190815260200160002060008373ffffffffffffffffffffffffffffffffffffffff1673ffffffffffffffffffffffffffffffffffffffff16815260200190815260200160002054905092915050565b600073ffffffffffffffffffffffffffffffffffffffff168273ffffffffffffffffffffffffffffffffffffffff1603611c79576040517f08c379a0000000000000000000000000000000000000000000000000000000008152600401611c7090614133565b60405180910390fd5b611c8560008383612edc565b8060026000828254611c979190613a70565b92505081905550806000808473ffffffffffffffffffffffffffffffffffffffff1673ffffffffffffffffffffffffffffffffffffffff168152602001908152602001600020600082825401925050819055508173ffffffffffffffffffffffffffffffffffffffff16600073ffffffffffffffffffffffffffffffffffffffff167fddf252ad1be2c89b69c2b068fc378daa952ba7f163c4a11628f55a4df523b3ef83604051611d48919061355c565b60405180910390a3611d5c60008383612ee1565b5050565b600760009054906101000a900473ffffffffffffffffffffffffffffffffffffffff1673ffffffffffffffffffffffffffffffffffffffff1663adb353dc83836040518363ffffffff1660e01b8152600401611dbd929190614153565b600060405180830381600087803b158015611dd757600080fd5b505af1158015611deb573d6000803e3d6000fd5b505050505050565b600033905090565b600073ffffffffffffffffffffffffffffffffffffffff168373ffffffffffffffffffffffffffffffffffffffff1603611e6a576040517f08c379a0000000000000000000000000000000000000000000000000000000008152600401611e61906141ee565b60405180910390fd5b600073ffffffffffffffffffffffffffffffffffffffff168273ffffffffffffffffffffffffffffffffffffffff1603611ed9576040517f08c379a0000000000000000000000000000000000000000000000000000000008152600401611ed090614280565b60405180910390fd5b80600160008573ffffffffffffffffffffffffffffffffffffffff1673ffffffffffffffffffffffffffffffffffffffff16815260200190815260200160002060008473ffffffffffffffffffffffffffffffffffffffff1673ffffffffffffffffffffffffffffffffffffffff168152602001908152602001600020819055508173ffffffffffffffffffffffffffffffffffffffff168373ffffffffffffffffffffffffffffffffffffffff167f8c5be1e5ebec7d5bd14f71427d1e84f3dd0314c0f7b2291e5b200ac8c7c3b92583604051611fb7919061355c565b60405180910390a3505050565b6000611fd08484611b83565b90507fffffffffffffffffffffffffffffffffffffffffffffffffffffffffffffffff811461204a578181101561203c576040517f08c379a0000000000000000000000000000000000000000000000000000000008152600401612033906142ec565b60405180910390fd5b6120498484848403611dfb565b5b50505050565b600073ffffffffffffffffffffffffffffffffffffffff168373ffffffffffffffffffffffffffffffffffffffff16036120bf576040517f08c379a00000000000000000000000000000000000000000000000000000000081526004016120b69061437e565b60405180910390fd5b600073ffffffffffffffffffffffffffffffffffffffff168273ffffffffffffffffffffffffffffffffffffffff160361212e576040517f08c379a000000000000000000000000000000000000000000000000000000000815260040161212590614410565b60405180910390fd5b612139838383612edc565b60008060008573ffffffffffffffffffffffffffffffffffffffff1673ffffffffffffffffffffffffffffffffffffffff168152602001908152602001600020549050818110156121bf576040517f08c379a00000000000000000000000000000000000000000000000000000000081526004016121b6906144a2565b60405180910390fd5b8181036000808673ffffffffffffffffffffffffffffffffffffffff1673ffffffffffffffffffffffffffffffffffffffff16815260200190815260200160002081905550816000808573ffffffffffffffffffffffffffffffffffffffff1673ffffffffffffffffffffffffffffffffffffffff168152602001908152602001600020600082825401925050819055508273ffffffffffffffffffffffffffffffffffffffff168473ffffffffffffffffffffffffffffffffffffffff167fddf252ad1be2c89b69c2b068fc378daa952ba7f163c4a11628f55a4df523b3ef846040516122ad919061355c565b60405180910390a36122c0848484612ee1565b50505050565b60007f000000000000000000000000000000000000000000000000000000000000000073ffffffffffffffffffffffffffffffffffffffff163073ffffffffffffffffffffffffffffffffffffffff1614801561234257507f000000000000000000000000000000000000000000000000000000000000000046145b1561236f577f000000000000000000000000000000000000000000000000000000000000000090506123dd565b6123da7f00000000000000000000000000000000000000000000000000000000000000007f00000000000000000000000000000000000000000000000000000000000000007f0000000000000000000000000000000000000000000000000000000000000000612ee6565b90505b90565b6000600760009054906101000a900473ffffffffffffffffffffffffffffffffffffffff1673ffffffffffffffffffffffffffffffffffffffff1663bd02d0f5836040518263ffffffff1660e01b815260040161243d9190613647565b602060405180830381865afa15801561245a573d6000803e3d6000fd5b505050506040513d601f19601f8201168201806040525081019061247e91906144d7565b9050919050565b600081836124939190614504565b905092915050565b600081836124a99190614546565b905092915050565b600081836124bf9190613a70565b905092915050565b6000806124f9836040516020016124de9190614602565b60405160208183030381529060405280519060200120612f20565b9050600073ffffffffffffffffffffffffffffffffffffffff168173ffffffffffffffffffffffffffffffffffffffff160361256a576040517f08c379a000000000000000000000000000000000000000000000000000000000815260040161256190614670565b60405180910390fd5b80915050919050565b600073ffffffffffffffffffffffffffffffffffffffff168273ffffffffffffffffffffffffffffffffffffffff16036125e2576040517f08c379a00000000000000000000000000000000000000000000000000000000081526004016125d990614702565b60405180910390fd5b6125ee82600083612edc565b60008060008473ffffffffffffffffffffffffffffffffffffffff1673ffffffffffffffffffffffffffffffffffffffff16815260200190815260200160002054905081811015612674576040517f08c379a000000000000000000000000000000000000000000000000000000000815260040161266b90614794565b60405180910390fd5b8181036000808573ffffffffffffffffffffffffffffffffffffffff1673ffffffffffffffffffffffffffffffffffffffff1681526020019081526020016000208190555081600260008282540392505081905550600073ffffffffffffffffffffffffffffffffffffffff168373ffffffffffffffffffffffffffffffffffffffff167fddf252ad1be2c89b69c2b068fc378daa952ba7f163c4a11628f55a4df523b3ef84604051612727919061355c565b60405180910390a361273b83600084612ee1565b505050565b600760009054906101000a900473ffffffffffffffffffffffffffffffffffffffff1673ffffffffffffffffffffffffffffffffffffffff1663e2a4853a83836040518363ffffffff1660e01b815260040161279d929190614153565b600060405180830381600087803b1580156127b757600080fd5b505af11580156127cb573d6000803e3d6000fd5b505050505050565b600081836127e191906147e3565b905092915050565b60006128147f1d649dfd1ac2f55b17a0c168c704b9b3629d73ac6c6e8c97767d3085f9d56c986123e0565b905060006128417f893aa071fa7eec9b27e5269e98813b6730589d738b900aefadf4101e45600f686123e0565b9050600061286e7f4dbc752aaee941f10a8af495d9a572b807fb5d6d10ba310788b106444b4ee2c86123e0565b905061289f61289a61271061288c868861248590919063ffffffff16565b6127d390919063ffffffff16565b612fc5565b6128ce6128c96127106128bb858861248590919063ffffffff16565b6127d390919063ffffffff16565b61300f565b6128fd6128f86127106128ea848861248590919063ffffffff16565b6127d390919063ffffffff16565b613059565b50505050565b6000806129446040518060400160405280600c81526020017f526577617264735661756c7400000000000000000000000000000000000000008152506124c7565b90506b01000000000000000000000060a01b8160601b60405160200161296b9291906148ae565b60405160208183030381529060405261298390614917565b91505090565b6000633b9aca008261299b91906147e3565b9050600060028888600060801b6040516020016129ba939291906149fb565b6040516020818303038152906040526040516129d69190614a56565b602060405180830381855afa1580156129f3573d6000803e3d6000fd5b5050506040513d601f19601f82011682018060405250810190612a169190614a82565b905060006002808787600090604092612a3193929190614ab9565b604051602001612a42929190614af4565b604051602081830303815290604052604051612a5e9190614a56565b602060405180830381855afa158015612a7b573d6000803e3d6000fd5b5050506040513d601f19601f82011682018060405250810190612a9e9190614a82565b600288886040908092612ab393929190614ab9565b6000801b604051602001612ac993929190614b2e565b604051602081830303815290604052604051612ae59190614a56565b602060405180830381855afa158015612b02573d6000803e3d6000fd5b5050506040513d601f19601f82011682018060405250810190612b259190614a82565b604051602001612b36929190614b58565b604051602081830303815290604052604051612b529190614a56565b602060405180830381855afa158015612b6f573d6000803e3d6000fd5b5050506040513d601f19601f82011682018060405250810190612b929190614a82565b90506000600280848a604051602001612bac929190614b58565b604051602081830303815290604052604051612bc89190614a56565b602060405180830381855afa158015612be5573d6000803e3d6000fd5b5050506040513d601f19601f82011682018060405250810190612c089190614a82565b6002612c138761305c565b85604051602001612c25929190614ba5565b604051602081830303815290604052604051612c419190614a56565b602060405180830381855afa158015612c5e573d6000803e3d6000fd5b5050506040513d601f19601f82011682018060405250810190612c819190614a82565b604051602001612c92929190614b58565b604051602081830303815290604052604051612cae9190614a56565b602060405180830381855afa158015612ccb573d6000803e3d6000fd5b5050506040513d601f19601f82011682018060405250810190612cee9190614a82565b9050612cf86130b1565b73ffffffffffffffffffffffffffffffffffffffff166322895118868c8c8c604051602001612d279190614bd1565b6040516020818303038152906040528c8c886040518863ffffffff1660e01b8152600401612d5a96959493929190614c25565b6000604051808303818588803b158015612d7357600080fd5b505af1158015612d87573d6000803e3d6000fd5b505050505050505050505050505050565b600760009054906101000a900473ffffffffffffffffffffffffffffffffffffffff1673ffffffffffffffffffffffffffffffffffffffff1663ebb9d8c983836040518363ffffffff1660e01b8152600401612df5929190614153565b600060405180830381600087803b158015612e0f57600080fd5b505af1158015612e23573d6000803e3d6000fd5b505050505050565b600081600001549050919050565b600080600560008473ffffffffffffffffffffffffffffffffffffffff1673ffffffffffffffffffffffffffffffffffffffff1681526020019081526020016000209050612e8681612e2b565b9150612e91816130f6565b50919050565b6000612eaa612ea46122c6565b8361310c565b9050919050565b6000806000612ec28787878761313f565b91509150612ecf81613221565b8192505050949350505050565b505050565b505050565b60008383834630604051602001612f01959493929190614c83565b6040516020818303038152906040528051906020012090509392505050565b6000600760009054906101000a900473ffffffffffffffffffffffffffffffffffffffff1673ffffffffffffffffffffffffffffffffffffffff166321f8a721836040518263ffffffff1660e01b8152600401612f7d9190613647565b602060405180830381865afa158015612f9a573d6000803e3d6000fd5b505050506040513d601f19601f82011682018060405250810190612fbe9190614cd6565b9050919050565b61300c6130066040518060400160405280600d81526020017f4461776e496e737572616e6365000000000000000000000000000000000000008152506124c7565b82611c0a565b50565b6130566130506040518060400160405280600c81526020017f4461776e547265617375727900000000000000000000000000000000000000008152506124c7565b82611c0a565b50565b50565b60008082905060005b60088110156130925760ff8216600884901b179250600882901c91508061308b90614d03565b9050613065565b50806000146130a4576130a3614d4b565b5b60c082901b915050919050565b60006130f16040518060400160405280600f81526020017f4465706f736974436f6e747261637400000000000000000000000000000000008152506124c7565b905090565b6001816000016000828254019250508190555050565b60008282604051602001613121929190614dc6565b60405160208183030381529060405280519060200120905092915050565b6000807f7fffffffffffffffffffffffffffffff5d576e7357a4501ddfe92f46681b20a08360001c111561317a576000600391509150613218565b60006001878787876040516000815260200160405260405161319f9493929190614dfd565b6020604051602081039080840390855afa1580156131c1573d6000803e3d6000fd5b505050602060405103519050600073ffffffffffffffffffffffffffffffffffffffff168173ffffffffffffffffffffffffffffffffffffffff160361320f57600060019250925050613218565b80600092509250505b94509492505050565b6000600481111561323557613234614e42565b5b81600481111561324857613247614e42565b5b0315613384576001600481111561326257613261614e42565b5b81600481111561327557613274614e42565b5b036132b5576040517f08c379a00000000000000000000000000000000000000000000000000000000081526004016132ac90614ebd565b60405180910390fd5b600260048111156132c9576132c8614e42565b5b8160048111156132dc576132db614e42565b5b0361331c576040517f08c379a000000000000000000000000000000000000000000000000000000000815260040161331390614f29565b60405180910390fd5b600360048111156133305761332f614e42565b5b81600481111561334357613342614e42565b5b03613383576040517f08c379a000000000000000000000000000000000000000000000000000000000815260040161337a90614fbb565b60405180910390fd5b5b50565b600081519050919050565b600082825260208201905092915050565b60005b838110156133c15780820151818401526020810190506133a6565b60008484015250505050565b6000601f19601f8301169050919050565b60006133e982613387565b6133f38185613392565b93506134038185602086016133a3565b61340c816133cd565b840191505092915050565b6000602082019050818103600083015261343181846133de565b905092915050565b600080fd5b600080fd5b600073ffffffffffffffffffffffffffffffffffffffff82169050919050565b600061346e82613443565b9050919050565b61347e81613463565b811461348957600080fd5b50565b60008135905061349b81613475565b92915050565b6000819050919050565b6134b4816134a1565b81146134bf57600080fd5b50565b6000813590506134d1816134ab565b92915050565b600080604083850312156134ee576134ed613439565b5b60006134fc8582860161348c565b925050602061350d858286016134c2565b9150509250929050565b60008115159050919050565b61352c81613517565b82525050565b60006020820190506135476000830184613523565b92915050565b613556816134a1565b82525050565b6000602082019050613571600083018461354d565b92915050565b6000806000606084860312156135905761358f613439565b5b600061359e8682870161348c565b93505060206135af8682870161348c565b92505060406135c0868287016134c2565b9150509250925092565b6000602082840312156135e0576135df613439565b5b60006135ee848285016134c2565b91505092915050565b600060ff82169050919050565b61360d816135f7565b82525050565b60006020820190506136286000830184613604565b92915050565b6000819050919050565b6136418161362e565b82525050565b600060208201905061365c6000830184613638565b92915050565b600080600080600060a0868803121561367e5761367d613439565b5b600061368c888289016134c2565b955050602061369d888289016134c2565b94505060406136ae888289016134c2565b93505060606136bf888289016134c2565b92505060806136d0888289016134c2565b9150509295509295909350565b600080fd5b600080fd5b600080fd5b60008083601f840112613702576137016136dd565b5b8235905067ffffffffffffffff81111561371f5761371e6136e2565b5b60208301915083600182028301111561373b5761373a6136e7565b5b9250929050565b60008060008060006060868803121561375e5761375d613439565b5b600061376c8882890161348c565b955050602086013567ffffffffffffffff81111561378d5761378c61343e565b5b613799888289016136ec565b9450945050604086013567ffffffffffffffff8111156137bc576137bb61343e565b5b6137c8888289016136ec565b92509250509295509295909350565b6000602082840312156137ed576137ec613439565b5b60006137fb8482850161348c565b91505092915050565b6000606082019050613819600083018661354d565b613826602083018561354d565b613833604083018461354d565b949350505050565b613844816135f7565b811461384f57600080fd5b50565b6000813590506138618161383b565b92915050565b6138708161362e565b811461387b57600080fd5b50565b60008135905061388d81613867565b92915050565b600080600080600080600060e0888a0312156138b2576138b1613439565b5b60006138c08a828b0161348c565b97505060206138d18a828b0161348c565b96505060406138e28a828b016134c2565b95505060606138f38a828b016134c2565b94505060806139048a828b01613852565b93505060a06139158a828b0161387e565b92505060c06139268a828b0161387e565b91505092959891949750929550565b6000806040838503121561394c5761394b613439565b5b600061395a8582860161348c565b925050602061396b8582860161348c565b9150509250929050565b7f5354414b455f5a45524f5f455448455200000000000000000000000000000000600082015250565b60006139ab601083613392565b91506139b682613975565b602082019050919050565b600060208201905081810360008301526139da8161399e565b9050919050565b7f4e487b7100000000000000000000000000000000000000000000000000000000600052602260045260246000fd5b60006002820490506001821680613a2857607f821691505b602082108103613a3b57613a3a6139e1565b5b50919050565b7f4e487b7100000000000000000000000000000000000000000000000000000000600052601160045260246000fd5b6000613a7b826134a1565b9150613a86836134a1565b9250828201905080821115613a9e57613a9d613a41565b5b92915050565b7f72656365697665206e6f742066726f6d20696e737572616e6365000000000000600082015250565b6000613ada601a83613392565b9150613ae582613aa4565b602082019050919050565b60006020820190508181036000830152613b0981613acd565b9050919050565b7f6f6e6c792063616c6c206279204461776e506f6f6c4f7261636c650000000000600082015250565b6000613b46601b83613392565b9150613b5182613b10565b602082019050919050565b60006020820190508181036000830152613b7581613b39565b9050919050565b7f526577617264735661756c7420696e73756666696369656e742062616c616e6360008201527f6500000000000000000000000000000000000000000000000000000000000000602082015250565b6000613bd8602183613392565b9150613be382613b7c565b604082019050919050565b60006020820190508181036000830152613c0781613bcb565b9050919050565b7f756e70726f66697461626c650000000000000000000000000000000000000000600082015250565b6000613c44600c83613392565b9150613c4f82613c0e565b602082019050919050565b60006020820190508181036000830152613c7381613c37565b9050919050565b613c8381613463565b82525050565b6000602082019050613c9e6000830184613c7a565b92915050565b600081519050613cb381613475565b92915050565b613cc281613517565b8114613ccd57600080fd5b50565b600081519050613cdf81613cb9565b92915050565b60008060408385031215613cfc57613cfb613439565b5b6000613d0a85828601613ca4565b9250506020613d1b85828601613cd0565b9150509250929050565b7f4f6e6c79206e6f6465206f70657261746f722063616e2072656769737465722060008201527f76616c696461746f727321000000000000000000000000000000000000000000602082015250565b6000613d81602b83613392565b9150613d8c82613d25565b604082019050919050565b60006020820190508181036000830152613db081613d74565b9050919050565b7f4e6f6465206f70657261746f7220697320696e61637469766521000000000000600082015250565b6000613ded601a83613392565b9150613df882613db7565b602082019050919050565b60006020820190508181036000830152613e1c81613de0565b9050919050565b7f627566666572206574686572206e6f7420656e6f756768000000000000000000600082015250565b6000613e59601783613392565b9150613e6482613e23565b602082019050919050565b60006020820190508181036000830152613e8881613e4c565b9050919050565b600082825260208201905092915050565b82818337600083830152505050565b6000613ebb8385613e8f565b9350613ec8838584613ea0565b613ed1836133cd565b840190509392505050565b6000606082019050613ef16000830187613c7a565b8181036020830152613f04818587613eaf565b9050613f13604083018461354d565b95945050505050565b7f45524332303a2064656372656173656420616c6c6f77616e63652062656c6f7760008201527f207a65726f000000000000000000000000000000000000000000000000000000602082015250565b6000613f78602583613392565b9150613f8382613f1c565b604082019050919050565b60006020820190508181036000830152613fa781613f6b565b9050919050565b7f45524332305065726d69743a206578706972656420646561646c696e65000000600082015250565b6000613fe4601d83613392565b9150613fef82613fae565b602082019050919050565b6000602082019050818103600083015261401381613fd7565b9050919050565b600060c08201905061402f6000830189613638565b61403c6020830188613c7a565b6140496040830187613c7a565b614056606083018661354d565b614063608083018561354d565b61407060a083018461354d565b979650505050505050565b7f45524332305065726d69743a20696e76616c6964207369676e61747572650000600082015250565b60006140b1601e83613392565b91506140bc8261407b565b602082019050919050565b600060208201905081810360008301526140e0816140a4565b9050919050565b7f45524332303a206d696e7420746f20746865207a65726f206164647265737300600082015250565b600061411d601f83613392565b9150614128826140e7565b602082019050919050565b6000602082019050818103600083015261414c81614110565b9050919050565b60006040820190506141686000830185613638565b614175602083018461354d565b9392505050565b7f45524332303a20617070726f76652066726f6d20746865207a65726f2061646460008201527f7265737300000000000000000000000000000000000000000000000000000000602082015250565b60006141d8602483613392565b91506141e38261417c565b604082019050919050565b60006020820190508181036000830152614207816141cb565b9050919050565b7f45524332303a20617070726f766520746f20746865207a65726f20616464726560008201527f7373000000000000000000000000000000000000000000000000000000000000602082015250565b600061426a602283613392565b91506142758261420e565b604082019050919050565b600060208201905081810360008301526142998161425d565b9050919050565b7f45524332303a20696e73756666696369656e7420616c6c6f77616e6365000000600082015250565b60006142d6601d83613392565b91506142e1826142a0565b602082019050919050565b60006020820190508181036000830152614305816142c9565b9050919050565b7f45524332303a207472616e736665722066726f6d20746865207a65726f20616460008201527f6472657373000000000000000000000000000000000000000000000000000000602082015250565b6000614368602583613392565b91506143738261430c565b604082019050919050565b600060208201905081810360008301526143978161435b565b9050919050565b7f45524332303a207472616e7366657220746f20746865207a65726f206164647260008201527f6573730000000000000000000000000000000000000000000000000000000000602082015250565b60006143fa602383613392565b91506144058261439e565b604082019050919050565b60006020820190508181036000830152614429816143ed565b9050919050565b7f45524332303a207472616e7366657220616d6f756e742065786365656473206260008201527f616c616e63650000000000000000000000000000000000000000000000000000602082015250565b600061448c602683613392565b915061449782614430565b604082019050919050565b600060208201905081810360008301526144bb8161447f565b9050919050565b6000815190506144d1816134ab565b92915050565b6000602082840312156144ed576144ec613439565b5b60006144fb848285016144c2565b91505092915050565b600061450f826134a1565b915061451a836134a1565b9250828202614528816134a1565b9150828204841483151761453f5761453e613a41565b5b5092915050565b6000614551826134a1565b915061455c836134a1565b925082820390508181111561457457614573613a41565b5b92915050565b600081905092915050565b7f636f6e74726163742e6164647265737300000000000000000000000000000000600082015250565b60006145bb60108361457a565b91506145c682614585565b601082019050919050565b60006145dc82613387565b6145e6818561457a565b93506145f68185602086016133a3565b80840191505092915050565b600061460d826145ae565b915061461982846145d1565b915081905092915050565b7f436f6e7472616374206e6f7420666f756e640000000000000000000000000000600082015250565b600061465a601283613392565b915061466582614624565b602082019050919050565b600060208201905081810360008301526146898161464d565b9050919050565b7f45524332303a206275726e2066726f6d20746865207a65726f2061646472657360008201527f7300000000000000000000000000000000000000000000000000000000000000602082015250565b60006146ec602183613392565b91506146f782614690565b604082019050919050565b6000602082019050818103600083015261471b816146df565b9050919050565b7f45524332303a206275726e20616d6f756e7420657863656564732062616c616e60008201527f6365000000000000000000000000000000000000000000000000000000000000602082015250565b600061477e602283613392565b915061478982614722565b604082019050919050565b600060208201905081810360008301526147ad81614771565b9050919050565b7f4e487b7100000000000000000000000000000000000000000000000000000000600052601260045260246000fd5b60006147ee826134a1565b91506147f9836134a1565b925082614809576148086147b4565b5b828204905092915050565b60007fffffffffffffffffffffffff000000000000000000000000000000000000000082169050919050565b6000819050919050565b61485b61485682614814565b614840565b82525050565b60007fffffffffffffffffffffffffffffffffffffffff00000000000000000000000082169050919050565b6000819050919050565b6148a86148a382614861565b61488d565b82525050565b60006148ba828561484a565b600c820191506148ca8284614897565b6014820191508190509392505050565b600081519050919050565b6000819050602082019050919050565b6000614901825161362e565b80915050919050565b600082821b905092915050565b6000614922826148da565b8261492c846148e5565b9050614937816148f5565b92506020821015614977576149727fffffffffffffffffffffffffffffffffffffffffffffffffffffffffffffffff8360200360080261490a565b831692505b5050919050565b600081905092915050565b6000614995838561497e565b93506149a2838584613ea0565b82840190509392505050565b60007fffffffffffffffffffffffffffffffff0000000000000000000000000000000082169050919050565b6000819050919050565b6149f56149f0826149ae565b6149da565b82525050565b6000614a08828587614989565b9150614a1482846149e4565b601082019150819050949350505050565b6000614a30826148da565b614a3a818561497e565b9350614a4a8185602086016133a3565b80840191505092915050565b6000614a628284614a25565b915081905092915050565b600081519050614a7c81613867565b92915050565b600060208284031215614a9857614a97613439565b5b6000614aa684828501614a6d565b91505092915050565b600080fd5b600080fd5b60008085851115614acd57614acc614aaf565b5b83861115614ade57614add614ab4565b5b6001850283019150848603905094509492505050565b6000614b01828486614989565b91508190509392505050565b6000819050919050565b614b28614b238261362e565b614b0d565b82525050565b6000614b3b828587614989565b9150614b478284614b17565b602082019150819050949350505050565b6000614b648285614b17565b602082019150614b748284614b17565b6020820191508190509392505050565b6000819050919050565b614b9f614b9a826134a1565b614b84565b82525050565b6000614bb18285614b8e565b602082019150614bc18284614b17565b6020820191508190509392505050565b6000614bdd8284614b17565b60208201915081905092915050565b6000614bf7826148da565b614c018185613e8f565b9350614c118185602086016133a3565b614c1a816133cd565b840191505092915050565b60006080820190508181036000830152614c4081888a613eaf565b90508181036020830152614c548187614bec565b90508181036040830152614c69818587613eaf565b9050614c786060830184613638565b979650505050505050565b600060a082019050614c986000830188613638565b614ca56020830187613638565b614cb26040830186613638565b614cbf606083018561354d565b614ccc6080830184613c7a565b9695505050505050565b600060208284031215614cec57614ceb613439565b5b6000614cfa84828501613ca4565b91505092915050565b6000614d0e826134a1565b91507fffffffffffffffffffffffffffffffffffffffffffffffffffffffffffffffff8203614d4057614d3f613a41565b5b600182019050919050565b7f4e487b7100000000000000000000000000000000000000000000000000000000600052600160045260246000fd5b7f1901000000000000000000000000000000000000000000000000000000000000600082015250565b6000614db060028361457a565b9150614dbb82614d7a565b600282019050919050565b6000614dd182614da3565b9150614ddd8285614b17565b602082019150614ded8284614b17565b6020820191508190509392505050565b6000608082019050614e126000830187613638565b614e1f6020830186613604565b614e2c6040830185613638565b614e396060830184613638565b95945050505050565b7f4e487b7100000000000000000000000000000000000000000000000000000000600052602160045260246000fd5b7f45434453413a20696e76616c6964207369676e61747572650000000000000000600082015250565b6000614ea7601883613392565b9150614eb282614e71565b602082019050919050565b60006020820190508181036000830152614ed681614e9a565b9050919050565b7f45434453413a20696e76616c6964207369676e6174757265206c656e67746800600082015250565b6000614f13601f83613392565b9150614f1e82614edd565b602082019050919050565b60006020820190508181036000830152614f4281614f06565b9050919050565b7f45434453413a20696e76616c6964207369676e6174757265202773272076616c60008201527f7565000000000000000000000000000000000000000000000000000000000000602082015250565b6000614fa5602283613392565b9150614fb082614f49565b604082019050919050565b60006020820190508181036000830152614fd481614f98565b905091905056fea2646970667358221220be1bf1f3d508a94273929d7c6703cb32534c1c7cee9d409a13d613e21d4aecd864736f6c63430008110033",
  "linkReferences": {},
  "deployedLinkReferences": {}
}