{
  "_format": "hh-sol-artifact-1",
  "contractName": "DawnPoolOracle",
  "sourceName": "contracts/oracle/DawnPoolOracle.sol",
  "abi": [
    {
      "inputs": [
        {
          "internalType": "contract IDawnStorageInterface",
          "name": "dawnStorageAddress",
          "type": "address"
        }
      ],
      "stateMutability": "nonpayable",
      "type": "constructor"
    },
    {
      "anonymous": false,
      "inputs": [
        {
          "indexed": false,
          "internalType": "address",
          "name": "callback",
          "type": "address"
        }
      ],
      "name": "BeaconReportReceiverSet",
      "type": "event"
    },
    {
      "anonymous": false,
      "inputs": [
        {
          "indexed": false,
          "internalType": "uint256",
          "name": "epochId",
          "type": "uint256"
        },
        {
          "indexed": false,
          "internalType": "uint256",
          "name": "beaconBalance",
          "type": "uint256"
        },
        {
          "indexed": false,
          "internalType": "uint256",
          "name": "beaconValidators",
          "type": "uint256"
        },
        {
          "indexed": false,
          "internalType": "uint256",
          "name": "rewardsVaultBalance",
          "type": "uint256"
        },
        {
          "indexed": false,
          "internalType": "uint256",
          "name": "exitedValidators",
          "type": "uint256"
        },
        {
          "indexed": false,
          "internalType": "uint256",
          "name": "burnedPEthAmount",
          "type": "uint256"
        },
        {
          "indexed": false,
          "internalType": "uint256",
          "name": "lastRequestIdToBeFulfilled",
          "type": "uint256"
        },
        {
          "indexed": false,
          "internalType": "uint256",
          "name": "ethAmountToLock",
          "type": "uint256"
        },
        {
          "indexed": false,
          "internalType": "address",
          "name": "caller",
          "type": "address"
        }
      ],
      "name": "BeaconReported",
      "type": "event"
    },
    {
      "anonymous": false,
      "inputs": [
        {
          "indexed": false,
          "internalType": "uint64",
          "name": "epochsPerFrame",
          "type": "uint64"
        },
        {
          "indexed": false,
          "internalType": "uint64",
          "name": "slotsPerEpoch",
          "type": "uint64"
        },
        {
          "indexed": false,
          "internalType": "uint64",
          "name": "secondsPerSlot",
          "type": "uint64"
        },
        {
          "indexed": false,
          "internalType": "uint64",
          "name": "genesisTime",
          "type": "uint64"
        }
      ],
      "name": "BeaconSpecSet",
      "type": "event"
    },
    {
      "anonymous": false,
      "inputs": [
        {
          "indexed": false,
          "internalType": "uint256",
          "name": "epochId",
          "type": "uint256"
        },
        {
          "indexed": false,
          "internalType": "uint256",
          "name": "beaconBalance",
          "type": "uint256"
        },
        {
          "indexed": false,
          "internalType": "uint256",
          "name": "beaconValidators",
          "type": "uint256"
        },
        {
          "indexed": false,
          "internalType": "uint256",
          "name": "rewardsVaultBalance",
          "type": "uint256"
        },
        {
          "indexed": false,
          "internalType": "uint256",
          "name": "exitedValidators",
          "type": "uint256"
        },
        {
          "indexed": false,
          "internalType": "uint256",
          "name": "burnedPEthAmount",
          "type": "uint256"
        },
        {
          "indexed": false,
          "internalType": "uint256",
          "name": "lastRequestIdToBeFulfilled",
          "type": "uint256"
        },
        {
          "indexed": false,
          "internalType": "uint256",
          "name": "ethAmountToLock",
          "type": "uint256"
        }
      ],
      "name": "Completed",
      "type": "event"
    },
    {
      "anonymous": false,
      "inputs": [
        {
          "indexed": false,
          "internalType": "uint256",
          "name": "epochId",
          "type": "uint256"
        }
      ],
      "name": "ExpectedEpochIdUpdated",
      "type": "event"
    },
    {
      "anonymous": false,
      "inputs": [
        {
          "indexed": false,
          "internalType": "address",
          "name": "member",
          "type": "address"
        }
      ],
      "name": "MemberAdded",
      "type": "event"
    },
    {
      "anonymous": false,
      "inputs": [
        {
          "indexed": false,
          "internalType": "address",
          "name": "member",
          "type": "address"
        }
      ],
      "name": "MemberRemoved",
      "type": "event"
    },
    {
      "anonymous": false,
      "inputs": [
        {
          "indexed": false,
          "internalType": "uint256",
          "name": "quorum",
          "type": "uint256"
        }
      ],
      "name": "QuorumChanged",
      "type": "event"
    },
    {
      "inputs": [],
      "name": "MAX_MEMBERS",
      "outputs": [
        {
          "internalType": "uint256",
          "name": "",
          "type": "uint256"
        }
      ],
      "stateMutability": "view",
      "type": "function"
    },
    {
      "inputs": [
        {
          "internalType": "address",
          "name": "_member",
          "type": "address"
        }
      ],
      "name": "addOracleMember",
      "outputs": [],
      "stateMutability": "nonpayable",
      "type": "function"
    },
    {
      "inputs": [],
      "name": "getBeaconReportReceiver",
      "outputs": [
        {
          "internalType": "address",
          "name": "",
          "type": "address"
        }
      ],
      "stateMutability": "view",
      "type": "function"
    },
    {
      "inputs": [],
      "name": "getBeaconSpec",
      "outputs": [
        {
          "internalType": "uint64",
          "name": "epochsPerFrame",
          "type": "uint64"
        },
        {
          "internalType": "uint64",
          "name": "slotsPerEpoch",
          "type": "uint64"
        },
        {
          "internalType": "uint64",
          "name": "secondsPerSlot",
          "type": "uint64"
        },
        {
          "internalType": "uint64",
          "name": "genesisTime",
          "type": "uint64"
        }
      ],
      "stateMutability": "view",
      "type": "function"
    },
    {
      "inputs": [],
      "name": "getCurrentEpochId",
      "outputs": [
        {
          "internalType": "uint256",
          "name": "",
          "type": "uint256"
        }
      ],
      "stateMutability": "view",
      "type": "function"
    },
    {
      "inputs": [],
      "name": "getCurrentFrame",
      "outputs": [
        {
          "internalType": "uint256",
          "name": "frameEpochId",
          "type": "uint256"
        },
        {
          "internalType": "uint256",
          "name": "frameStartTime",
          "type": "uint256"
        },
        {
          "internalType": "uint256",
          "name": "frameEndTime",
          "type": "uint256"
        }
      ],
      "stateMutability": "view",
      "type": "function"
    },
    {
      "inputs": [],
      "name": "getCurrentOraclesReportStatus",
      "outputs": [
        {
          "internalType": "uint256",
          "name": "",
          "type": "uint256"
        }
      ],
      "stateMutability": "view",
      "type": "function"
    },
    {
      "inputs": [
        {
          "internalType": "uint256",
          "name": "_index",
          "type": "uint256"
        }
      ],
      "name": "getCurrentReportVariant",
      "outputs": [
        {
          "internalType": "uint64",
          "name": "beaconBalance",
          "type": "uint64"
        },
        {
          "internalType": "uint32",
          "name": "beaconValidators",
          "type": "uint32"
        },
        {
          "internalType": "uint16",
          "name": "count",
          "type": "uint16"
        }
      ],
      "stateMutability": "view",
      "type": "function"
    },
    {
      "inputs": [],
      "name": "getCurrentReportVariantsSize",
      "outputs": [
        {
          "internalType": "uint256",
          "name": "",
          "type": "uint256"
        }
      ],
      "stateMutability": "view",
      "type": "function"
    },
    {
      "inputs": [],
      "name": "getDawnDeposit",
      "outputs": [
        {
          "internalType": "contract IDawnDeposit",
          "name": "",
          "type": "address"
        }
      ],
      "stateMutability": "view",
      "type": "function"
    },
    {
      "inputs": [],
      "name": "getExpectedEpochId",
      "outputs": [
        {
          "internalType": "uint256",
          "name": "",
          "type": "uint256"
        }
      ],
      "stateMutability": "view",
      "type": "function"
    },
    {
      "inputs": [],
      "name": "getFrameFirstEpochId",
      "outputs": [
        {
          "internalType": "uint256",
          "name": "",
          "type": "uint256"
        }
      ],
      "stateMutability": "view",
      "type": "function"
    },
    {
      "inputs": [],
      "name": "getLastCompletedEpochId",
      "outputs": [
        {
          "internalType": "uint256",
          "name": "",
          "type": "uint256"
        }
      ],
      "stateMutability": "view",
      "type": "function"
    },
    {
      "inputs": [],
      "name": "getLastCompletedReportDelta",
      "outputs": [
        {
          "internalType": "uint256",
          "name": "postTotalPooledEther",
          "type": "uint256"
        },
        {
          "internalType": "uint256",
          "name": "preTotalPooledEther",
          "type": "uint256"
        },
        {
          "internalType": "uint256",
          "name": "timeElapsed",
          "type": "uint256"
        }
      ],
      "stateMutability": "view",
      "type": "function"
    },
    {
      "inputs": [],
      "name": "getOracleMembers",
      "outputs": [
        {
          "internalType": "address[]",
          "name": "",
          "type": "address[]"
        }
      ],
      "stateMutability": "view",
      "type": "function"
    },
    {
      "inputs": [],
      "name": "getQuorum",
      "outputs": [
        {
          "internalType": "uint256",
          "name": "",
          "type": "uint256"
        }
      ],
      "stateMutability": "view",
      "type": "function"
    },
    {
      "inputs": [
        {
          "internalType": "uint64",
          "name": "_epochsPerFrame",
          "type": "uint64"
        },
        {
          "internalType": "uint64",
          "name": "_slotsPerEpoch",
          "type": "uint64"
        },
        {
          "internalType": "uint64",
          "name": "_secondsPerSlot",
          "type": "uint64"
        },
        {
          "internalType": "uint64",
          "name": "_genesisTime",
          "type": "uint64"
        }
      ],
      "name": "initialize",
      "outputs": [],
      "stateMutability": "nonpayable",
      "type": "function"
    },
    {
      "inputs": [
        {
          "internalType": "address",
          "name": "_member",
          "type": "address"
        }
      ],
      "name": "removeOracleMember",
      "outputs": [],
      "stateMutability": "nonpayable",
      "type": "function"
    },
    {
      "inputs": [
        {
          "components": [
            {
              "internalType": "uint256",
              "name": "epochId",
              "type": "uint256"
            },
            {
              "internalType": "uint256",
              "name": "beaconBalance",
              "type": "uint256"
            },
            {
              "internalType": "uint256",
              "name": "beaconValidators",
              "type": "uint256"
            },
            {
              "internalType": "uint256",
              "name": "rewardsVaultBalance",
              "type": "uint256"
            },
            {
              "internalType": "uint256",
              "name": "exitedValidators",
              "type": "uint256"
            },
            {
              "internalType": "uint256",
              "name": "burnedPEthAmount",
              "type": "uint256"
            },
            {
              "internalType": "uint256",
              "name": "lastRequestIdToBeFulfilled",
              "type": "uint256"
            },
            {
              "internalType": "uint256",
              "name": "ethAmountToLock",
              "type": "uint256"
            }
          ],
          "internalType": "struct DawnPoolOracle.ReportData",
          "name": "data",
          "type": "tuple"
        }
      ],
      "name": "reportBeacon",
      "outputs": [],
      "stateMutability": "nonpayable",
      "type": "function"
    },
    {
      "inputs": [
        {
          "internalType": "address",
          "name": "_addr",
          "type": "address"
        }
      ],
      "name": "setBeaconReportReceiver",
      "outputs": [],
      "stateMutability": "nonpayable",
      "type": "function"
    },
    {
      "inputs": [
        {
          "internalType": "uint64",
          "name": "_epochsPerFrame",
          "type": "uint64"
        },
        {
          "internalType": "uint64",
          "name": "_slotsPerEpoch",
          "type": "uint64"
        },
        {
          "internalType": "uint64",
          "name": "_secondsPerSlot",
          "type": "uint64"
        },
        {
          "internalType": "uint64",
          "name": "_genesisTime",
          "type": "uint64"
        }
      ],
      "name": "setBeaconSpec",
      "outputs": [],
      "stateMutability": "nonpayable",
      "type": "function"
    },
    {
      "inputs": [
        {
          "internalType": "uint256",
          "name": "_quorum",
          "type": "uint256"
        }
      ],
      "name": "setQuorum",
      "outputs": [],
      "stateMutability": "nonpayable",
      "type": "function"
    }
  ],
  "bytecode": "0x6080604052600080546001600160a01b03191690553480156200002157600080fd5b50604051620029813803806200298183398101604081905262000044916200006a565b600080546001600160a01b0319166001600160a01b03929092169190911790556200009c565b6000602082840312156200007d57600080fd5b81516001600160a01b03811681146200009557600080fd5b9392505050565b6128d580620000ac6000396000f3fe608060405234801561001057600080fd5b50600436106101825760003560e01c8063b2480603116100d8578063e547c77c1161008c578063ed9767d911610066578063ed9767d914610332578063f78ddf641461033a578063f98fae811461034257600080fd5b8063e547c77c146102da578063e90b2da114610316578063ea0e35b11461032957600080fd5b8063c1ba4e59116100bd578063c1ba4e59146102aa578063c26c12eb146102bd578063dabb5757146102c557600080fd5b8063b248060314610275578063bb0cd4f6146102a257600080fd5b80637ffb14721161013a5780639a3cb2ca116101145780639a3cb2ca14610247578063a29a839f1461025a578063b164e4371461026257600080fd5b80637ffb1472146101ea57806389896aef1461022c578063973c7f4a1461023457600080fd5b80634b47b74f1161016b5780634b47b74f146101b7578063534649c4146101bf57806372f79b13146101e257600080fd5b806303cda963146101875780633366ff72146101a2575b600080fd5b61018f610355565b6040519081526020015b60405180910390f35b6101b56101b0366004612567565b610385565b005b61018f610696565b6101c76106c1565b60408051938452602084019290925290820152606001610199565b6101c761074c565b6101fd6101f83660046125bb565b610818565b6040805167ffffffffffffffff909416845263ffffffff909216602084015261ffff1690820152606001610199565b61018f61085a565b6101b56102423660046125d4565b610885565b6101b561025536600461260f565b610ccb565b61018f610e8b565b6101b561027036600461260f565b610ea7565b61027d611210565b60405173ffffffffffffffffffffffffffffffffffffffff9091168152602001610199565b61018f61123b565b6101b56102b83660046125bb565b61125a565b61018f6114b7565b6102cd6114e2565b604051610199919061262c565b6102e2611551565b6040805167ffffffffffffffff95861681529385166020850152918416918301919091529091166060820152608001610199565b6101b5610324366004612567565b611582565b61018f61010081565b60025461018f565b61027d6116d7565b6101b561035036600461260f565b611717565b60006103807f3e18ba9f3239b5baf31871b5bab37245b867892997bc1a7d20fcc53d1e3cbd7e611ab6565b905090565b60008054906101000a900473ffffffffffffffffffffffffffffffffffffffff1673ffffffffffffffffffffffffffffffffffffffff1663a75b87d26040518163ffffffff1660e01b8152600401602060405180830381865afa1580156103f0573d6000803e3d6000fd5b505050506040513d601f19601f820116820180604052508101906104149190612686565b73ffffffffffffffffffffffffffffffffffffffff163373ffffffffffffffffffffffffffffffffffffffff16146104d3576040517f08c379a000000000000000000000000000000000000000000000000000000000815260206004820152602360248201527f4163636f756e74206973206e6f7420612074656d706f7261727920677561726460448201527f69616e000000000000000000000000000000000000000000000000000000000060648201526084015b60405180910390fd5b6104e060016101006126d2565b6104ed60016101006126d2565b6001901b901c600114610502576105026126e5565b61052b7f2179f767b59758248e91b08444404b15efcb77cf4be2a83aaa5bacc558899e43611ab6565b15610592576040517f08c379a000000000000000000000000000000000000000000000000000000000815260206004820152601960248201527f424153455f56455253494f4e5f4d5553545f42455f5a45524f0000000000000060448201526064016104ca565b61059e84848484611b50565b6105c97ff064c3f7bf779563757f466db66f710c7c26c3fdf38640e2366054ebe9c04a736001611e10565b604051600181527f027863d12a407097e086a48e36475bfc859d0b200b7e6f65b5fd3b218e46632e9060200160405180910390a16000610607611ea0565b90506000816000015167ffffffffffffffff16610625600084611f1e565b61062f9190612714565b905061065b7fdf92ec5a9a3f0d7666614cf95b62dc5e6d84faf6ea6c51b46daf4745c19157e782611e10565b6040518181527fcdcd275f4d96ed683d684f3610a92beacdebcf1ee4d37e2df526fb9001e1ea639060200160405180910390a1505050505050565b60006103807fdf92ec5a9a3f0d7666614cf95b62dc5e6d84faf6ea6c51b46daf4745c19157e7611ab6565b60008060006106ef7fb00b17de64bf880ca052700092783fce3b2b366df602345fca58eeae7cbd0e01611ab6565b925061071a7fc8d2df748a367aa4c9ac5f3e989d6b5dd6d7c0649ac19632515e745b0129f46a611ab6565b91506107457f998b2bead010fe55ca216911156a5cb2f62c34408faae8abb2cc9c79575bdf19611ab6565b9050909192565b60008060008061075a611ea0565b905060008160600151905060008260200151836040015161077b9190612727565b905061078f61078984611f48565b84611f1e565b95508167ffffffffffffffff168167ffffffffffffffff16876107b29190612753565b6107bc9190612714565b945060018267ffffffffffffffff168267ffffffffffffffff16856000015167ffffffffffffffff16896107f09190612714565b6107fa9190612753565b6108049190612714565b61080e91906126d2565b9350505050909192565b600080600061084d600285815481106108335761083361276a565b9060005260206000200154603081901c91601082901c9190565b9250925092509193909250565b60006103807f122df10d0388c5ec1168daefbb923fa103af061f804bfa030e1dd064644ca039611ab6565b600061088f611ea0565b905060006108bc7fdf92ec5a9a3f0d7666614cf95b62dc5e6d84faf6ea6c51b46daf4745c19157e7611ab6565b90508235811115610929576040517f08c379a000000000000000000000000000000000000000000000000000000000815260206004820152601060248201527f45504f43485f49535f544f4f5f4f4c440000000000000000000000000000000060448201526064016104ca565b82358110156109b75761094461093e83611f48565b83611f1e565b8335146109ad576040517f08c379a000000000000000000000000000000000000000000000000000000000815260206004820152601060248201527f554e45585045435445445f45504f43480000000000000000000000000000000060448201526064016104ca565b6109b78335611f92565b6040805184358152602080860135908201528482013581830152606080860135908201526080808601359082015260a0808601359082015260c0808601359082015260e080860135908201523361010082015290517fb0931ee1cbd4e7fb9d9b31f072c3eb0210d069b43387a1e2786eb703295ad147918190036101200190a16000610a4233612023565b90507fffffffffffffffffffffffffffffffffffffffffffffffffffffffffffffffff8103610acd576040517f08c379a000000000000000000000000000000000000000000000000000000000815260206004820152601060248201527f4d454d4245525f4e4f545f464f554e440000000000000000000000000000000060448201526064016104ca565b6000610af87f3e18ba9f3239b5baf31871b5bab37245b867892997bc1a7d20fcc53d1e3cbd7e611ab6565b90506001821b80821615610b68576040517f08c379a000000000000000000000000000000000000000000000000000000000815260206004820152601160248201527f414c52454144595f5355424d495454454400000000000000000000000000000060448201526064016104ca565b610b947f3e18ba9f3239b5baf31871b5bab37245b867892997bc1a7d20fcc53d1e3cbd7e828417611e10565b602086013560301b604087013560101b176000610baf6114b7565b905060005b60025481108015610bf05750610bf08360028381548110610bd757610bd761276a565b90600052602060002001546120c490919063ffffffff16565b15610c0557610bfe81612799565b9050610bb4565b600254811015610c8a5781610c3460028381548110610c2657610c2661276a565b906000526020600020015490565b610c3f9060016127d1565b61ffff1610610c5757610c5289896120dc565b610cc0565b60028181548110610c6a57610c6a61276a565b9060005260206000200160008154610c8190612799565b90915550610cc0565b81600103610c9c57610c5289896120dc565b6002610ca9846001612714565b815460018101835560009283526020909220909101555b505050505050505050565b60008054906101000a900473ffffffffffffffffffffffffffffffffffffffff1673ffffffffffffffffffffffffffffffffffffffff1663a75b87d26040518163ffffffff1660e01b8152600401602060405180830381865afa158015610d36573d6000803e3d6000fd5b505050506040513d601f19601f82011682018060405250810190610d5a9190612686565b73ffffffffffffffffffffffffffffffffffffffff163373ffffffffffffffffffffffffffffffffffffffff1614610e14576040517f08c379a000000000000000000000000000000000000000000000000000000000815260206004820152602360248201527f4163636f756e74206973206e6f7420612074656d706f7261727920677561726460448201527f69616e000000000000000000000000000000000000000000000000000000000060648201526084016104ca565b610e3e7f4d639ef200ee89d5ca903f329a42ba6f7caff7cdcb7606d374eb43dcb267448f82612250565b60405173ffffffffffffffffffffffffffffffffffffffff821681527f10bdb8bba3913c9e1b7ffbf8759dfcf1c355d9796d58906b147ff0b4c3e31448906020015b60405180910390a150565b600080610e96611ea0565b9050610ea181611f48565b91505090565b60008054906101000a900473ffffffffffffffffffffffffffffffffffffffff1673ffffffffffffffffffffffffffffffffffffffff1663a75b87d26040518163ffffffff1660e01b8152600401602060405180830381865afa158015610f12573d6000803e3d6000fd5b505050506040513d601f19601f82011682018060405250810190610f369190612686565b73ffffffffffffffffffffffffffffffffffffffff163373ffffffffffffffffffffffffffffffffffffffff1614610ff0576040517f08c379a000000000000000000000000000000000000000000000000000000000815260206004820152602360248201527f4163636f756e74206973206e6f7420612074656d706f7261727920677561726460448201527f69616e000000000000000000000000000000000000000000000000000000000060648201526084016104ca565b73ffffffffffffffffffffffffffffffffffffffff8116600003611070576040517f08c379a000000000000000000000000000000000000000000000000000000000815260206004820152600c60248201527f4241445f415247554d454e54000000000000000000000000000000000000000060448201526064016104ca565b61107981612023565b7fffffffffffffffffffffffffffffffffffffffffffffffffffffffffffffffff14611101576040517f08c379a000000000000000000000000000000000000000000000000000000000815260206004820152600d60248201527f4d454d4245525f4558495354530000000000000000000000000000000000000060448201526064016104ca565b6001546101001161116e576040517f08c379a000000000000000000000000000000000000000000000000000000000815260206004820152601060248201527f544f4f5f4d414e595f4d454d424552530000000000000000000000000000000060448201526064016104ca565b6001805480820182556000919091527fb10e2d527612073b26eecdfd717e6a320cf44b4afac2b0732d9fcbe2b7fa0cf60180547fffffffffffffffffffffffff00000000000000000000000000000000000000001673ffffffffffffffffffffffffffffffffffffffff83169081179091556040519081527fb251eb052afc73ffd02ffe85ad79990a8b3fed60d76dbc2fa2fdd7123dffd91490602001610e80565b60006103807f4d639ef200ee89d5ca903f329a42ba6f7caff7cdcb7606d374eb43dcb267448f6122af565b600080611246611ea0565b9050610ea161125482611f48565b82611f1e565b60008054906101000a900473ffffffffffffffffffffffffffffffffffffffff1673ffffffffffffffffffffffffffffffffffffffff1663a75b87d26040518163ffffffff1660e01b8152600401602060405180830381865afa1580156112c5573d6000803e3d6000fd5b505050506040513d601f19601f820116820180604052508101906112e99190612686565b73ffffffffffffffffffffffffffffffffffffffff163373ffffffffffffffffffffffffffffffffffffffff16146113a3576040517f08c379a000000000000000000000000000000000000000000000000000000000815260206004820152602360248201527f4163636f756e74206973206e6f7420612074656d706f7261727920677561726460448201527f69616e000000000000000000000000000000000000000000000000000000000060648201526084016104ca565b8060000361140d576040517f08c379a000000000000000000000000000000000000000000000000000000000815260206004820152601360248201527f51554f52554d5f574f4e545f42455f4d4144450000000000000000000000000060448201526064016104ca565b60006114387ff064c3f7bf779563757f466db66f710c7c26c3fdf38640e2366054ebe9c04a73611ab6565b90506114647ff064c3f7bf779563757f466db66f710c7c26c3fdf38640e2366054ebe9c04a7383611e10565b6040518281527f027863d12a407097e086a48e36475bfc859d0b200b7e6f65b5fd3b218e46632e9060200160405180910390a1818111156114b3576000806114ab84612343565b915091505b50505b5050565b60006103807ff064c3f7bf779563757f466db66f710c7c26c3fdf38640e2366054ebe9c04a73611ab6565b6060600180548060200260200160405190810160405280929190818152602001828054801561154757602002820191906000526020600020905b815473ffffffffffffffffffffffffffffffffffffffff16815260019091019060200180831161151c575b5050505050905090565b6000806000806000611561611ea0565b80516020820151604083015160609093015191989097509195509350915050565b60008054906101000a900473ffffffffffffffffffffffffffffffffffffffff1673ffffffffffffffffffffffffffffffffffffffff1663a75b87d26040518163ffffffff1660e01b8152600401602060405180830381865afa1580156115ed573d6000803e3d6000fd5b505050506040513d601f19601f820116820180604052508101906116119190612686565b73ffffffffffffffffffffffffffffffffffffffff163373ffffffffffffffffffffffffffffffffffffffff16146116cb576040517f08c379a000000000000000000000000000000000000000000000000000000000815260206004820152602360248201527f4163636f756e74206973206e6f7420612074656d706f7261727920677561726460448201527f69616e000000000000000000000000000000000000000000000000000000000060648201526084016104ca565b6114b084848484611b50565b60006103806040518060400160405280600b81526020017f4461776e4465706f73697400000000000000000000000000000000000000000081525061245f565b60008054906101000a900473ffffffffffffffffffffffffffffffffffffffff1673ffffffffffffffffffffffffffffffffffffffff1663a75b87d26040518163ffffffff1660e01b8152600401602060405180830381865afa158015611782573d6000803e3d6000fd5b505050506040513d601f19601f820116820180604052508101906117a69190612686565b73ffffffffffffffffffffffffffffffffffffffff163373ffffffffffffffffffffffffffffffffffffffff1614611860576040517f08c379a000000000000000000000000000000000000000000000000000000000815260206004820152602360248201527f4163636f756e74206973206e6f7420612074656d706f7261727920677561726460448201527f69616e000000000000000000000000000000000000000000000000000000000060648201526084016104ca565b600061186b82612023565b90507fffffffffffffffffffffffffffffffffffffffffffffffffffffffffffffffff81036118f6576040517f08c379a000000000000000000000000000000000000000000000000000000000815260206004820152601060248201527f4d454d4245525f4e4f545f464f554e440000000000000000000000000000000060448201526064016104ca565b60018054600091611906916126d2565b90508082146119a457600181815481106119225761192261276a565b6000918252602090912001546001805473ffffffffffffffffffffffffffffffffffffffff909216918490811061195b5761195b61276a565b9060005260206000200160006101000a81548173ffffffffffffffffffffffffffffffffffffffff021916908373ffffffffffffffffffffffffffffffffffffffff1602179055505b600180546119b39082906126d2565b815481106119c3576119c361276a565b6000918252602090912001546001805473ffffffffffffffffffffffffffffffffffffffff90921691849081106119fc576119fc61276a565b60009182526020918290200180547fffffffffffffffffffffffff00000000000000000000000000000000000000001673ffffffffffffffffffffffffffffffffffffffff93841617905560405191851682527f6e76fb4c77256006d9c38ec7d82b45a8c8f3c27b1d6766fffc42dfb8de684492910160405180910390a1611aa57f3e18ba9f3239b5baf31871b5bab37245b867892997bc1a7d20fcc53d1e3cbd7e6000611e10565b611ab160026000612510565b505050565b600080546040517fbd02d0f50000000000000000000000000000000000000000000000000000000081526004810184905273ffffffffffffffffffffffffffffffffffffffff9091169063bd02d0f590602401602060405180830381865afa158015611b26573d6000803e3d6000fd5b505050506040513d601f19601f82011682018060405250810190611b4a91906127f3565b92915050565b60008467ffffffffffffffff1611611bc4576040517f08c379a000000000000000000000000000000000000000000000000000000000815260206004820152601460248201527f4241445f45504f4348535f5045525f4652414d4500000000000000000000000060448201526064016104ca565b60008367ffffffffffffffff1611611c38576040517f08c379a000000000000000000000000000000000000000000000000000000000815260206004820152601360248201527f4241445f534c4f54535f5045525f45504f43480000000000000000000000000060448201526064016104ca565b60008267ffffffffffffffff1611611cac576040517f08c379a000000000000000000000000000000000000000000000000000000000815260206004820152601460248201527f4241445f5345434f4e44535f5045525f534c4f5400000000000000000000000060448201526064016104ca565b60008167ffffffffffffffff1611611d20576040517f08c379a000000000000000000000000000000000000000000000000000000000815260206004820152601060248201527f4241445f47454e455349535f54494d450000000000000000000000000000000060448201526064016104ca565b7fffffffffffffffff00000000000000000000000000000000000000000000000060c085901b1677ffffffffffffffff00000000000000000000000000000000608085901b16176fffffffffffffffff0000000000000000604084901b161767ffffffffffffffff821617611db57fcacf9575a57eab4c3e647bf9a4b1b010d06742555a9b8cd57cd4a0adbb849a5b82611e10565b6040805167ffffffffffffffff87811682528681166020830152858116828401528416606082015290517fa15de8f88515e04da45ad2303c04e9f126945fd99e173d3d93ff6351e1f335ee9181900360800190a15050505050565b6000546040517fe2a4853a000000000000000000000000000000000000000000000000000000008152600481018490526024810183905273ffffffffffffffffffffffffffffffffffffffff9091169063e2a4853a906044015b600060405180830381600087803b158015611e8457600080fd5b505af1158015611e98573d6000803e3d6000fd5b505050505050565b604080516080810182526000808252602082018190529181018290526060810182905290611eed7fcacf9575a57eab4c3e647bf9a4b1b010d06742555a9b8cd57cd4a0adbb849a5b611ab6565b60c081901c835267ffffffffffffffff608082901c81166020850152604082811c8216908501521660608301525090565b805160009067ffffffffffffffff16611f37818561280c565b611f419190612753565b9392505050565b600081604001518260200151611f5e9190612727565b67ffffffffffffffff16826060015167ffffffffffffffff16611f7e4290565b611f8891906126d2565b611b4a919061280c565b611fbd7f3e18ba9f3239b5baf31871b5bab37245b867892997bc1a7d20fcc53d1e3cbd7e6000611e10565b611fe77fdf92ec5a9a3f0d7666614cf95b62dc5e6d84faf6ea6c51b46daf4745c19157e782611e10565b611ff360026000612510565b6040518181527fcdcd275f4d96ed683d684f3610a92beacdebcf1ee4d37e2df526fb9001e1ea6390602001610e80565b600154600090815b8181101561209b578373ffffffffffffffffffffffffffffffffffffffff166001828154811061205d5761205d61276a565b60009182526020909120015473ffffffffffffffffffffffffffffffffffffffff160361208b579392505050565b61209481612799565b905061202b565b507fffffffffffffffffffffffffffffffffffffffffffffffffffffffffffffffff9392505050565b6dffffffffffffffffffffffff000091909116141590565b60408051833581528382013560208083019190915284013581830152606080850135908201526080808501359082015260a0808501359082015260c0808501359082015260e0808501359082015290517fb97f799e4c53b16cb1052fcf6513b0b1a68ed372dc26ca2611e55b3d96660d85918190036101000190a18051612177906121729067ffffffffffffffff168435612714565b611f92565b60006121816116d7565b604080517fafe2621f0000000000000000000000000000000000000000000000000000000081528535600482015290850135602482015260208501356044820152606085013560648201526080850135608482015260a085013560a482015260c085013560c482015260e085013560e482015290915073ffffffffffffffffffffffffffffffffffffffff82169063afe2621f9061010401600060405180830381600087803b15801561223357600080fd5b505af1158015612247573d6000803e3d6000fd5b50505050505050565b6000546040517fca446dd90000000000000000000000000000000000000000000000000000000081526004810184905273ffffffffffffffffffffffffffffffffffffffff83811660248301529091169063ca446dd990604401611e6a565b600080546040517f21f8a7210000000000000000000000000000000000000000000000000000000081526004810184905273ffffffffffffffffffffffffffffffffffffffff909116906321f8a72190602401602060405180830381865afa15801561231f573d6000803e3d6000fd5b505050506040513d601f19601f82011682018060405250810190611b4a9190612686565b6002546000908190600103612398578261236a6002600081548110610c2657610c2661276a565b61ffff16101560026000815481106123845761238461276a565b906000526020600020015491509150915091565b6002546000036123ad57506000928392509050565b60008060008060005b600254811015612421576123d660028281548110610c2657610c2661276a565b91508261ffff168261ffff1610612411578261ffff168261ffff1603612406576123ff84612799565b9350612411565b809450819250600093505b61241a81612799565b90506123b6565b50868261ffff1610158015612434575082155b600285815481106124475761244761276a565b90600052602060002001549550955050505050915091565b600080612491836040516020016124769190612847565b604051602081830303815290604052805190602001206122af565b905073ffffffffffffffffffffffffffffffffffffffff8116611b4a576040517f08c379a000000000000000000000000000000000000000000000000000000000815260206004820152601260248201527f436f6e7472616374206e6f7420666f756e64000000000000000000000000000060448201526064016104ca565b508054600082559060005260206000209081019061252e9190612531565b50565b5b808211156125465760008155600101612532565b5090565b803567ffffffffffffffff8116811461256257600080fd5b919050565b6000806000806080858703121561257d57600080fd5b6125868561254a565b93506125946020860161254a565b92506125a26040860161254a565b91506125b06060860161254a565b905092959194509250565b6000602082840312156125cd57600080fd5b5035919050565b600061010082840312156125e757600080fd5b50919050565b73ffffffffffffffffffffffffffffffffffffffff8116811461252e57600080fd5b60006020828403121561262157600080fd5b8135611f41816125ed565b6020808252825182820181905260009190848201906040850190845b8181101561267a57835173ffffffffffffffffffffffffffffffffffffffff1683529284019291840191600101612648565b50909695505050505050565b60006020828403121561269857600080fd5b8151611f41816125ed565b7f4e487b7100000000000000000000000000000000000000000000000000000000600052601160045260246000fd5b81810381811115611b4a57611b4a6126a3565b7f4e487b7100000000000000000000000000000000000000000000000000000000600052600160045260246000fd5b80820180821115611b4a57611b4a6126a3565b67ffffffffffffffff81811683821602808216919082811461274b5761274b6126a3565b505092915050565b8082028115828204841417611b4a57611b4a6126a3565b7f4e487b7100000000000000000000000000000000000000000000000000000000600052603260045260246000fd5b60007fffffffffffffffffffffffffffffffffffffffffffffffffffffffffffffffff82036127ca576127ca6126a3565b5060010190565b61ffff8181168382160190808211156127ec576127ec6126a3565b5092915050565b60006020828403121561280557600080fd5b5051919050565b600082612842577f4e487b7100000000000000000000000000000000000000000000000000000000600052601260045260246000fd5b500490565b7f636f6e74726163742e616464726573730000000000000000000000000000000081526000825160005b8181101561288e5760208186018101516010868401015201612871565b50600092016010019182525091905056fea2646970667358221220988908bb06168a4afee6e70357cad565990de21f2bd59ee49913261eee72d31464736f6c63430008110033",
  "linkReferences": {},
  "deployedLinkReferences": {}
}