{
  "_format": "hh-sol-artifact-1",
  "contractName": "DepositNodeManager",
  "sourceName": "contracts/nos/DepositNodeManager.sol",
  "abi": [
    {
      "inputs": [
        {
          "internalType": "contract IDawnStorageInterface",
          "name": "dawnStorage",
          "type": "address"
        }
      ],
      "stateMutability": "nonpayable",
      "type": "constructor"
    },
    {
      "inputs": [],
      "name": "InactiveNodeOperator",
      "type": "error"
    },
    {
      "inputs": [
        {
          "internalType": "address",
          "name": "operator",
          "type": "address"
        },
        {
          "internalType": "address",
          "name": "required",
          "type": "address"
        },
        {
          "internalType": "address",
          "name": "caller",
          "type": "address"
        }
      ],
      "name": "InconsistentNodeOperatorAddress",
      "type": "error"
    },
    {
      "inputs": [
        {
          "internalType": "uint256",
          "name": "index",
          "type": "uint256"
        },
        {
          "internalType": "address",
          "name": "required",
          "type": "address"
        },
        {
          "internalType": "address",
          "name": "current",
          "type": "address"
        }
      ],
      "name": "InconsistentValidatorOperator",
      "type": "error"
    },
    {
      "inputs": [
        {
          "internalType": "uint256",
          "name": "index",
          "type": "uint256"
        },
        {
          "internalType": "uint256",
          "name": "required",
          "type": "uint256"
        },
        {
          "internalType": "uint256",
          "name": "current",
          "type": "uint256"
        }
      ],
      "name": "InconsistentValidatorStatus",
      "type": "error"
    },
    {
      "inputs": [],
      "name": "NotExistOperator",
      "type": "error"
    },
    {
      "inputs": [
        {
          "internalType": "uint256",
          "name": "required",
          "type": "uint256"
        },
        {
          "internalType": "uint256",
          "name": "current",
          "type": "uint256"
        }
      ],
      "name": "NotReceiveEnoughRewards",
      "type": "error"
    },
    {
      "inputs": [],
      "name": "OperatorAlreadyExist",
      "type": "error"
    },
    {
      "inputs": [],
      "name": "ZeroAddress",
      "type": "error"
    },
    {
      "anonymous": false,
      "inputs": [
        {
          "indexed": true,
          "internalType": "address",
          "name": "from",
          "type": "address"
        },
        {
          "indexed": false,
          "internalType": "uint256",
          "name": "amount",
          "type": "uint256"
        }
      ],
      "name": "MinOperatorStakingAmountSet",
      "type": "event"
    },
    {
      "anonymous": false,
      "inputs": [
        {
          "indexed": true,
          "internalType": "address",
          "name": "operator",
          "type": "address"
        },
        {
          "indexed": true,
          "internalType": "address",
          "name": "claimer",
          "type": "address"
        },
        {
          "indexed": true,
          "internalType": "address",
          "name": "withdrawAddress",
          "type": "address"
        },
        {
          "indexed": false,
          "internalType": "uint256",
          "name": "pethAmount",
          "type": "uint256"
        }
      ],
      "name": "NodeOperatorNodeRewardsClaimed",
      "type": "event"
    },
    {
      "anonymous": false,
      "inputs": [
        {
          "indexed": true,
          "internalType": "address",
          "name": "operator",
          "type": "address"
        },
        {
          "indexed": true,
          "internalType": "address",
          "name": "nodeAddress",
          "type": "address"
        }
      ],
      "name": "NodeOperatorRegistered",
      "type": "event"
    },
    {
      "anonymous": false,
      "inputs": [
        {
          "indexed": false,
          "internalType": "uint256",
          "name": "pethAmount",
          "type": "uint256"
        },
        {
          "indexed": false,
          "internalType": "uint256",
          "name": "rewardsAddedPerValidator",
          "type": "uint256"
        }
      ],
      "name": "NodeOperatorRewardsReceived",
      "type": "event"
    },
    {
      "anonymous": false,
      "inputs": [
        {
          "indexed": true,
          "internalType": "uint256",
          "name": "validatorId",
          "type": "uint256"
        },
        {
          "indexed": true,
          "internalType": "address",
          "name": "operator",
          "type": "address"
        },
        {
          "indexed": false,
          "internalType": "bytes",
          "name": "pubkey",
          "type": "bytes"
        }
      ],
      "name": "SigningKeyActivated",
      "type": "event"
    },
    {
      "anonymous": false,
      "inputs": [
        {
          "indexed": true,
          "internalType": "uint256",
          "name": "validatorId",
          "type": "uint256"
        },
        {
          "indexed": true,
          "internalType": "address",
          "name": "operator",
          "type": "address"
        },
        {
          "indexed": false,
          "internalType": "bytes",
          "name": "pubkey",
          "type": "bytes"
        }
      ],
      "name": "SigningKeyAdded",
      "type": "event"
    },
    {
      "anonymous": false,
      "inputs": [
        {
          "indexed": true,
          "internalType": "uint256",
          "name": "validatorId",
          "type": "uint256"
        },
        {
          "indexed": true,
          "internalType": "address",
          "name": "operator",
          "type": "address"
        },
        {
          "indexed": false,
          "internalType": "bytes",
          "name": "pubkey",
          "type": "bytes"
        }
      ],
      "name": "SigningKeyExiting",
      "type": "event"
    },
    {
      "anonymous": false,
      "inputs": [
        {
          "indexed": true,
          "internalType": "address",
          "name": "operator",
          "type": "address"
        },
        {
          "indexed": false,
          "internalType": "address",
          "name": "withdrawAddress",
          "type": "address"
        }
      ],
      "name": "WithdrawAddressSet",
      "type": "event"
    },
    {
      "inputs": [
        {
          "internalType": "uint256[]",
          "name": "indexes",
          "type": "uint256[]"
        }
      ],
      "name": "activateValidators",
      "outputs": [],
      "stateMutability": "nonpayable",
      "type": "function"
    },
    {
      "inputs": [
        {
          "internalType": "address",
          "name": "operator",
          "type": "address"
        }
      ],
      "name": "claimNodeRewards",
      "outputs": [],
      "stateMutability": "nonpayable",
      "type": "function"
    },
    {
      "inputs": [
        {
          "internalType": "uint256",
          "name": "pethAmount",
          "type": "uint256"
        }
      ],
      "name": "distributeNodeOperatorRewards",
      "outputs": [],
      "stateMutability": "nonpayable",
      "type": "function"
    },
    {
      "inputs": [
        {
          "internalType": "address",
          "name": "operator",
          "type": "address"
        }
      ],
      "name": "getClaimableNodeRewards",
      "outputs": [
        {
          "internalType": "uint256",
          "name": "",
          "type": "uint256"
        }
      ],
      "stateMutability": "view",
      "type": "function"
    },
    {
      "inputs": [],
      "name": "getMinOperatorStakingAmount",
      "outputs": [
        {
          "internalType": "uint256",
          "name": "",
          "type": "uint256"
        }
      ],
      "stateMutability": "view",
      "type": "function"
    },
    {
      "inputs": [
        {
          "internalType": "address",
          "name": "operator",
          "type": "address"
        }
      ],
      "name": "getNodeOperator",
      "outputs": [
        {
          "internalType": "address",
          "name": "nodeAddress",
          "type": "address"
        },
        {
          "internalType": "bool",
          "name": "isActive",
          "type": "bool"
        }
      ],
      "stateMutability": "view",
      "type": "function"
    },
    {
      "inputs": [
        {
          "internalType": "uint256",
          "name": "index",
          "type": "uint256"
        }
      ],
      "name": "getNodeValidator",
      "outputs": [
        {
          "internalType": "address",
          "name": "operator",
          "type": "address"
        },
        {
          "internalType": "bytes",
          "name": "pubkey",
          "type": "bytes"
        },
        {
          "internalType": "enum IDepositNodeManager.ValidatorStatus",
          "name": "status",
          "type": "uint8"
        }
      ],
      "stateMutability": "view",
      "type": "function"
    },
    {
      "inputs": [
        {
          "internalType": "uint256",
          "name": "startIndex",
          "type": "uint256"
        },
        {
          "internalType": "uint256",
          "name": "amount",
          "type": "uint256"
        }
      ],
      "name": "getNodeValidators",
      "outputs": [
        {
          "internalType": "address[]",
          "name": "operators",
          "type": "address[]"
        },
        {
          "internalType": "bytes[]",
          "name": "pubkeys",
          "type": "bytes[]"
        },
        {
          "internalType": "enum IDepositNodeManager.ValidatorStatus[]",
          "name": "statuses",
          "type": "uint8[]"
        }
      ],
      "stateMutability": "view",
      "type": "function"
    },
    {
      "inputs": [],
      "name": "getTotalActivatedValidatorsCount",
      "outputs": [
        {
          "internalType": "uint256",
          "name": "",
          "type": "uint256"
        }
      ],
      "stateMutability": "view",
      "type": "function"
    },
    {
      "inputs": [],
      "name": "getTotalValidatorsCount",
      "outputs": [
        {
          "internalType": "uint256",
          "name": "",
          "type": "uint256"
        }
      ],
      "stateMutability": "view",
      "type": "function"
    },
    {
      "inputs": [
        {
          "internalType": "address",
          "name": "operator",
          "type": "address"
        }
      ],
      "name": "getWithdrawAddress",
      "outputs": [
        {
          "internalType": "address",
          "name": "",
          "type": "address"
        }
      ],
      "stateMutability": "view",
      "type": "function"
    },
    {
      "inputs": [
        {
          "internalType": "address",
          "name": "operator",
          "type": "address"
        },
        {
          "internalType": "uint256[]",
          "name": "indexes",
          "type": "uint256[]"
        }
      ],
      "name": "operatorRequestToExitValidators",
      "outputs": [],
      "stateMutability": "nonpayable",
      "type": "function"
    },
    {
      "inputs": [
        {
          "internalType": "address",
          "name": "withdrawAddress",
          "type": "address"
        }
      ],
      "name": "registerNodeOperator",
      "outputs": [
        {
          "internalType": "address",
          "name": "",
          "type": "address"
        }
      ],
      "stateMutability": "nonpayable",
      "type": "function"
    },
    {
      "inputs": [
        {
          "internalType": "address",
          "name": "operator",
          "type": "address"
        },
        {
          "internalType": "bytes",
          "name": "pubkey",
          "type": "bytes"
        }
      ],
      "name": "registerValidator",
      "outputs": [
        {
          "internalType": "uint256",
          "name": "",
          "type": "uint256"
        }
      ],
      "stateMutability": "nonpayable",
      "type": "function"
    },
    {
      "inputs": [
        {
          "internalType": "uint256",
          "name": "minAmount",
          "type": "uint256"
        }
      ],
      "name": "setMinOperatorStakingAmount",
      "outputs": [],
      "stateMutability": "nonpayable",
      "type": "function"
    },
    {
      "inputs": [
        {
          "internalType": "uint256",
          "name": "index",
          "type": "uint256"
        },
        {
          "internalType": "uint256",
          "name": "slashAmount",
          "type": "uint256"
        }
      ],
      "name": "setValidatorExiting",
      "outputs": [],
      "stateMutability": "nonpayable",
      "type": "function"
    },
    {
      "inputs": [
        {
          "internalType": "uint256",
          "name": "index",
          "type": "uint256"
        },
        {
          "internalType": "uint256",
          "name": "slashAmount",
          "type": "uint256"
        }
      ],
      "name": "setValidatorUnsafe",
      "outputs": [],
      "stateMutability": "nonpayable",
      "type": "function"
    },
    {
      "inputs": [
        {
          "internalType": "address",
          "name": "withdrawAddress",
          "type": "address"
        }
      ],
      "name": "setWithdrawAddress",
      "outputs": [],
      "stateMutability": "nonpayable",
      "type": "function"
    },
    {
      "inputs": [
        {
          "internalType": "uint256",
          "name": "count",
          "type": "uint256"
        }
      ],
      "name": "updateValidatorsExiting",
      "outputs": [
        {
          "internalType": "uint256[]",
          "name": "indexes",
          "type": "uint256[]"
        }
      ],
      "stateMutability": "nonpayable",
      "type": "function"
    }
  ],
  "bytecode": "0x608060405260008060006101000a81548173ffffffffffffffffffffffffffffffffffffffff021916908373ffffffffffffffffffffffffffffffffffffffff1602179055503480156200005257600080fd5b5060405162003c3f38038062003c3f83398181016040528101906200007891906200013f565b80806000806101000a81548173ffffffffffffffffffffffffffffffffffffffff021916908373ffffffffffffffffffffffffffffffffffffffff160217905550505062000171565b600080fd5b600073ffffffffffffffffffffffffffffffffffffffff82169050919050565b6000620000f382620000c6565b9050919050565b60006200010782620000e6565b9050919050565b6200011981620000fa565b81146200012557600080fd5b50565b60008151905062000139816200010e565b92915050565b600060208284031215620001585762000157620000c1565b5b6000620001688482850162000128565b91505092915050565b613abe80620001816000396000f3fe608060405234801561001057600080fd5b50600436106101215760003560e01c80638f8e6bf6116100ad578063bb78cbe911610071578063bb78cbe91461032d578063d801f36d14610349578063f1f2bfd614610379578063f686e34114610397578063f8654982146103c957610121565b80638f8e6bf614610275578063983d52e7146102a55780639e76d0e8146102c3578063a6a13105146102e1578063afe46ea2146102fd57610121565b8063306fc307116100f4578063306fc307146101bf5780633a5b742c146101ef5780633ab1a4941461020b57806350d04f9a1461022757806372f7e73a1461025957610121565b806309b86159146101265780630e2c0b101461014257806311970d90146101735780631768c933146101a3575b600080fd5b610140600480360381019061013b919061260d565b6103e5565b005b61015c60048036038101906101579190612698565b6106ca565b60405161016a9291906126ef565b60405180910390f35b61018d60048036038101906101889190612698565b6106f6565b60405161019a9190612718565b60405180910390f35b6101bd60048036038101906101b89190612698565b6109a0565b005b6101d960048036038101906101d49190612698565b6109ac565b6040516101e69190612742565b60405180910390f35b610209600480360381019061020491906127c2565b6109f8565b005b61022560048036038101906102209190612698565b610c45565b005b610241600480360381019061023c919061260d565b610d8a565b60405161025093929190612929565b60405180910390f35b610273600480360381019061026e9190612967565b610dd7565b005b61028f600480360381019061028a919061260d565b6110f4565b60405161029c9190612a72565b60405180910390f35b6102ad61140c565b6040516102ba9190612742565b60405180910390f35b6102cb61143c565b6040516102d89190612742565b60405180910390f35b6102fb60048036038101906102f6919061260d565b61146c565b005b61031760048036038101906103129190612698565b6115e3565b6040516103249190612718565b60405180910390f35b61034760048036038101906103429190612a94565b6115fd565b005b610363600480360381019061035e9190612b2a565b6116fd565b6040516103709190612742565b60405180910390f35b6103816118f3565b60405161038e9190612742565b60405180910390f35b6103b160048036038101906103ac9190612a94565b611923565b6040516103c093929190612e12565b60405180910390f35b6103e360048036038101906103de9190612a94565b611b74565b005b6040518060400160405280600b81526020017f4461776e4465706f7369740000000000000000000000000000000000000000008152503361044b826040516020016104309190612ef1565b60405160208183030381529060405280519060200120611b78565b73ffffffffffffffffffffffffffffffffffffffff168173ffffffffffffffffffffffffffffffffffffffff16146104b8576040517f08c379a00000000000000000000000000000000000000000000000000000000081526004016104af90612f70565b60405180910390fd5b60006104e37fdf3d077074546f541532fe7e77eccba160f30e09959a3cb77fbc16a133247cf4611c1c565b905060006105256040518060400160405280600b81526020017f4461776e4465706f736974000000000000000000000000000000000000000000815250611cc0565b73ffffffffffffffffffffffffffffffffffffffff166370a08231306040518263ffffffff1660e01b815260040161055d9190612718565b602060405180830381865afa15801561057a573d6000803e3d6000fd5b505050506040513d601f19601f8201168201806040525081019061059e9190612fa5565b905084826105ac9190613001565b8110156105fd5784826105bf9190613001565b816040517fae855dac0000000000000000000000000000000000000000000000000000000081526004016105f4929190613035565b60405180910390fd5b60006106287f4390690dd5976d99db70b4fc5fc9e9ef820b58ea3135f3b949b09ed33d36a375611c1c565b86610633919061308d565b905061065f7f7855afc474fc840f74c76cc7469332d9d2d12015a702c35ed84effb5edeed30b82611cfd565b6106897fdf3d077074546f541532fe7e77eccba160f30e09959a3cb77fbc16a133247cf487611cfd565b7fc6c52a06d75d80871088bd52e070fdc49679ed66132431327545fb31efbf755386826040516106ba929190613035565b60405180910390a1505050505050565b60008060006106d884611d8e565b90506106e381611b78565b92506106ee81611dbe565b915050915091565b60008073ffffffffffffffffffffffffffffffffffffffff168273ffffffffffffffffffffffffffffffffffffffff160361075d576040517fd92e233d00000000000000000000000000000000000000000000000000000000815260040160405180910390fd5b600061076833611d8e565b9050600073ffffffffffffffffffffffffffffffffffffffff1661078b82611b78565b73ffffffffffffffffffffffffffffffffffffffff16146107d8576040517f2150a72300000000000000000000000000000000000000000000000000000000815260040160405180910390fd5b60006108186040518060400160405280601b81526020017f4465706f7369744e6f64654f70657261746f724465706c6f7965720000000000815250611cc0565b73ffffffffffffffffffffffffffffffffffffffff1663a2a27b7c336040518263ffffffff1660e01b81526004016108509190612718565b6020604051808303816000875af115801561086f573d6000803e3d6000fd5b505050506040513d601f19601f8201168201806040525081019061089391906130d3565b905061089f8282611e62565b6108aa826001611ef3565b6108dc6108b633611f84565b7fffffffffffffffffffffffffffffffffffffffffffffffffffffffffffffffff611fb4565b8073ffffffffffffffffffffffffffffffffffffffff163373ffffffffffffffffffffffffffffffffffffffff167f51713842c09963dd5b7c4afa5a8b66717d10aeb8bd8d4847e01057f7f631273760405160405180910390a361094861094233612045565b85611e62565b3373ffffffffffffffffffffffffffffffffffffffff167f81ef977572555fac5ac57a0e17fdf5feaf98f544e9af11713615da4e1f34ff0b8560405161098e9190612718565b60405180910390a28092505050919050565b6109a9816120bd565b50565b60006109f1826109c36109be85611f84565b611c1c565b6109ec7f7855afc474fc840f74c76cc7469332d9d2d12015a702c35ed84effb5edeed30b611c1c565b6122a6565b9050919050565b6000610a0b610a0685611d8e565b611b78565b90508073ffffffffffffffffffffffffffffffffffffffff163373ffffffffffffffffffffffffffffffffffffffff1614610a81578381336040517f04902074000000000000000000000000000000000000000000000000000000008152600401610a7893929190613100565b60405180910390fd5b610a8a846120bd565b600080600080600090505b86869050811015610bff57868682818110610ab357610ab2613137565b5b905060200201359350610ac5846122ea565b92508773ffffffffffffffffffffffffffffffffffffffff16610ae784611b78565b73ffffffffffffffffffffffffffffffffffffffff1614610b4b5783610b0c84611b78565b896040517fad73b14b000000000000000000000000000000000000000000000000000000008152600401610b4293929190613166565b60405180910390fd5b60026006811115610b5f57610b5e6128b2565b5b610b6884611c1c565b03610bee57610b8a8360036006811115610b8557610b846128b2565b5b611fb4565b8773ffffffffffffffffffffffffffffffffffffffff16847fbc19282098e9be1cfd8e3853f64f04d2beab5c2967237e99bd22d77ae04212c5610bcc8661231a565b604051610bd9919061319d565b60405180910390a381610beb906131bf565b91505b80610bf8906131bf565b9050610a95565b50610c12610c0c886123c2565b826123f2565b610c3c7f4390690dd5976d99db70b4fc5fc9e9ef820b58ea3135f3b949b09ed33d36a375826123f2565b50505050505050565b600073ffffffffffffffffffffffffffffffffffffffff168173ffffffffffffffffffffffffffffffffffffffff1603610cab576040517fd92e233d00000000000000000000000000000000000000000000000000000000815260040160405180910390fd5b6000610cbe610cb933611d8e565b611b78565b9050600073ffffffffffffffffffffffffffffffffffffffff168173ffffffffffffffffffffffffffffffffffffffff1603610d26576040517f53d0505500000000000000000000000000000000000000000000000000000000815260040160405180910390fd5b610d38610d3233612045565b83611e62565b3373ffffffffffffffffffffffffffffffffffffffff167f81ef977572555fac5ac57a0e17fdf5feaf98f544e9af11713615da4e1f34ff0b83604051610d7e9190612718565b60405180910390a25050565b60006060600080610d9a856122ea565b9050610da581611b78565b9350610db08161231a565b9250610dbb81611c1c565b6006811115610dcd57610dcc6128b2565b5b9150509193909250565b60008054906101000a900473ffffffffffffffffffffffffffffffffffffffff1673ffffffffffffffffffffffffffffffffffffffff1663a75b87d26040518163ffffffff1660e01b8152600401602060405180830381865afa158015610e42573d6000803e3d6000fd5b505050506040513d601f19601f82011682018060405250810190610e6691906130d3565b73ffffffffffffffffffffffffffffffffffffffff163373ffffffffffffffffffffffffffffffffffffffff1614610ed3576040517f08c379a0000000000000000000000000000000000000000000000000000000008152600401610eca90613279565b60405180910390fd5b60008060008060005b868690508110156110be57868682818110610efa57610ef9613137565b5b905060200201359150610f0c826122ea565b945060016006811115610f2257610f216128b2565b5b610f2b86611c1c565b14610f8c578160016006811115610f4557610f446128b2565b5b610f4e87611c1c565b6040517ffa44983a000000000000000000000000000000000000000000000000000000008152600401610f8393929190613299565b60405180910390fd5b6000610f978661231a565b9050610fa286611b78565b9450610fb5610fb086611d8e565b611b78565b93508373ffffffffffffffffffffffffffffffffffffffff1663a97d9ba784836040518363ffffffff1660e01b8152600401610ff29291906132d0565b600060405180830381600087803b15801561100c57600080fd5b505af1158015611020573d6000803e3d6000fd5b5050505061102d856120bd565b61104a8660026006811115611045576110446128b2565b5b611fb4565b61105d611056866123c2565b6001611cfd565b8473ffffffffffffffffffffffffffffffffffffffff16837fd33d337462164bee93fabcec5048a936056ade32fadb042d3565be192dcf9231836040516110a4919061319d565b60405180910390a350806110b7906131bf565b9050610edc565b506110ec7f4390690dd5976d99db70b4fc5fc9e9ef820b58ea3135f3b949b09ed33d36a37587879050611cfd565b505050505050565b60606040518060400160405280600b81526020017f4461776e4465706f7369740000000000000000000000000000000000000000008152503361115c826040516020016111419190612ef1565b60405160208183030381529060405280519060200120611b78565b73ffffffffffffffffffffffffffffffffffffffff168173ffffffffffffffffffffffffffffffffffffffff16146111c9576040517f08c379a00000000000000000000000000000000000000000000000000000000081526004016111c090612f70565b60405180910390fd5b6000806111f57f8e3e649180d6c0605015dba0b6df662eda0d3e98ae361d053f0c1aaff7f0806c611c1c565b905060006112227f5970c1010c0138d6164041632ef0123c4ffd54b8142ecade5c6894b00e1a8654611c1c565b90506000808867ffffffffffffffff81111561124157611240613300565b5b60405190808252806020026020018201604052801561126f5781602001602082028036833780820191505090505b5090505b888210801561128157508284105b1561130a5761128f846122ea565b9450600260068111156112a5576112a46128b2565b5b6112ae86611c1c565b146112c457836112bd906131bf565b9350611273565b6112cd84612483565b838183815181106112e1576112e0613137565b5b602002602001018181525050836112f7906131bf565b935081611303906131bf565b9150611273565b8167ffffffffffffffff81111561132457611323613300565b5b6040519080825280602002602001820160405280156113525781602001602082028036833780820191505090505b50975060005b828110156113ab5781818151811061137357611372613137565b5b602002602001015189828151811061138e5761138d613137565b5b602002602001018181525050806113a4906131bf565b9050611358565b506113d67f8e3e649180d6c0605015dba0b6df662eda0d3e98ae361d053f0c1aaff7f0806c85611fb4565b6114007f4390690dd5976d99db70b4fc5fc9e9ef820b58ea3135f3b949b09ed33d36a375836123f2565b50505050505050919050565b60006114377f5970c1010c0138d6164041632ef0123c4ffd54b8142ecade5c6894b00e1a8654611c1c565b905090565b60006114677f4390690dd5976d99db70b4fc5fc9e9ef820b58ea3135f3b949b09ed33d36a375611c1c565b905090565b60008054906101000a900473ffffffffffffffffffffffffffffffffffffffff1673ffffffffffffffffffffffffffffffffffffffff1663a75b87d26040518163ffffffff1660e01b8152600401602060405180830381865afa1580156114d7573d6000803e3d6000fd5b505050506040513d601f19601f820116820180604052508101906114fb91906130d3565b73ffffffffffffffffffffffffffffffffffffffff163373ffffffffffffffffffffffffffffffffffffffff1614611568576040517f08c379a000000000000000000000000000000000000000000000000000000000815260040161155f90613279565b60405180910390fd5b3373ffffffffffffffffffffffffffffffffffffffff167f7893ea8261e9cae01ebaefe252d1dc6c42c7cfa22dc397ba36195e949d0d29e7826040516115ae9190612742565b60405180910390a26115e07f0a47084fa5f3bf37e00e505e23cc07680269006f10b69f7f6473751c04e86e2a82611fb4565b50565b60006115f66115f183612045565b611b78565b9050919050565b60008054906101000a900473ffffffffffffffffffffffffffffffffffffffff1673ffffffffffffffffffffffffffffffffffffffff1663a75b87d26040518163ffffffff1660e01b8152600401602060405180830381865afa158015611668573d6000803e3d6000fd5b505050506040513d601f19601f8201168201806040525081019061168c91906130d3565b73ffffffffffffffffffffffffffffffffffffffff163373ffffffffffffffffffffffffffffffffffffffff16146116f9576040517f08c379a00000000000000000000000000000000000000000000000000000000081526004016116f090613279565b60405180910390fd5b5050565b600080600061170b866106ca565b915091508173ffffffffffffffffffffffffffffffffffffffff163373ffffffffffffffffffffffffffffffffffffffff1614611783578582336040517f0490207400000000000000000000000000000000000000000000000000000000815260040161177a93929190613100565b60405180910390fd5b806117ba576040517fc0ea1b0100000000000000000000000000000000000000000000000000000000815260040160405180910390fd5b60006117e57f5970c1010c0138d6164041632ef0123c4ffd54b8142ecade5c6894b00e1a8654611c1c565b905060006117f2826122ea565b90506117fe8189611e62565b61181b8160016006811115611816576118156128b2565b5b611fb4565b6118698188888080601f016020809104026020016040519081016040528093929190818152602001838380828437600081840152601f19601f82011690508083019250505050505050612532565b6118947f5970c1010c0138d6164041632ef0123c4ffd54b8142ecade5c6894b00e1a86546001611cfd565b8773ffffffffffffffffffffffffffffffffffffffff16827fc4dae530e187b46eb47d101a2f5e9a6b2fef1f28bd0123c6ff95328f4cd8925289896040516118dd92919061336b565b60405180910390a3819450505050509392505050565b600061191e7f0a47084fa5f3bf37e00e505e23cc07680269006f10b69f7f6473751c04e86e2a611c1c565b905090565b606080606060006119537f5970c1010c0138d6164041632ef0123c4ffd54b8142ecade5c6894b00e1a8654611c1c565b90508086106119625750611b6d565b6000851415801561197d575080858761197b9190613001565b105b1561199157848661198e9190613001565b90505b6000868261199f919061338f565b90508067ffffffffffffffff8111156119bb576119ba613300565b5b6040519080825280602002602001820160405280156119e95781602001602082028036833780820191505090505b5094508067ffffffffffffffff811115611a0657611a05613300565b5b604051908082528060200260200182016040528015611a3957816020015b6060815260200190600190039081611a245790505b5093508067ffffffffffffffff811115611a5657611a55613300565b5b604051908082528060200260200182016040528015611a845781602001602082028036833780820191505090505b5092506000808890505b83811015611b6857611a9f81610d8a565b898581518110611ab257611ab1613137565b5b60200260200101898681518110611acc57611acb613137565b5b60200260200101898781518110611ae657611ae5613137565b5b60200260200101836006811115611b0057611aff6128b2565b5b6006811115611b1257611b116128b2565b5b8152508390528373ffffffffffffffffffffffffffffffffffffffff1673ffffffffffffffffffffffffffffffffffffffff1681525050505081611b55906131bf565b915080611b61906131bf565b9050611a8e565b505050505b9250925092565b5050565b60008060009054906101000a900473ffffffffffffffffffffffffffffffffffffffff1673ffffffffffffffffffffffffffffffffffffffff166321f8a721836040518263ffffffff1660e01b8152600401611bd491906133dc565b602060405180830381865afa158015611bf1573d6000803e3d6000fd5b505050506040513d601f19601f82011682018060405250810190611c1591906130d3565b9050919050565b60008060009054906101000a900473ffffffffffffffffffffffffffffffffffffffff1673ffffffffffffffffffffffffffffffffffffffff1663bd02d0f5836040518263ffffffff1660e01b8152600401611c7891906133dc565b602060405180830381865afa158015611c95573d6000803e3d6000fd5b505050506040513d601f19601f82011682018060405250810190611cb99190612fa5565b9050919050565b600080611cf283604051602001611cd79190612ef1565b60405160208183030381529060405280519060200120611b78565b905080915050919050565b60008054906101000a900473ffffffffffffffffffffffffffffffffffffffff1673ffffffffffffffffffffffffffffffffffffffff1663adb353dc83836040518363ffffffff1660e01b8152600401611d589291906133f7565b600060405180830381600087803b158015611d7257600080fd5b505af1158015611d86573d6000803e3d6000fd5b505050505050565b600081604051602001611da191906134b4565b604051602081830303815290604052805190602001209050919050565b60008060009054906101000a900473ffffffffffffffffffffffffffffffffffffffff1673ffffffffffffffffffffffffffffffffffffffff16637ae1cfca836040518263ffffffff1660e01b8152600401611e1a91906133dc565b602060405180830381865afa158015611e37573d6000803e3d6000fd5b505050506040513d601f19601f82011682018060405250810190611e5b9190613506565b9050919050565b60008054906101000a900473ffffffffffffffffffffffffffffffffffffffff1673ffffffffffffffffffffffffffffffffffffffff1663ca446dd983836040518363ffffffff1660e01b8152600401611ebd929190613533565b600060405180830381600087803b158015611ed757600080fd5b505af1158015611eeb573d6000803e3d6000fd5b505050505050565b60008054906101000a900473ffffffffffffffffffffffffffffffffffffffff1673ffffffffffffffffffffffffffffffffffffffff1663abfdcced83836040518363ffffffff1660e01b8152600401611f4e92919061355c565b600060405180830381600087803b158015611f6857600080fd5b505af1158015611f7c573d6000803e3d6000fd5b505050505050565b600081604051602001611f9791906135f7565b604051602081830303815290604052805190602001209050919050565b60008054906101000a900473ffffffffffffffffffffffffffffffffffffffff1673ffffffffffffffffffffffffffffffffffffffff1663e2a4853a83836040518363ffffffff1660e01b815260040161200f9291906133f7565b600060405180830381600087803b15801561202957600080fd5b505af115801561203d573d6000803e3d6000fd5b505050505050565b600060028260405160200161205a919061368f565b60405160208183030381529060405260405161207691906136f1565b602060405180830381855afa158015612093573d6000803e3d6000fd5b5050506040513d601f19601f820116820180604052508101906120b69190613734565b9050919050565b60006120c882611f84565b905060006120d582611c1c565b905060006121027f7855afc474fc840f74c76cc7469332d9d2d12015a702c35ed84effb5edeed30b611c1c565b905060006121118584846122a6565b9050600081111561228d576000612127866115e3565b90506121676040518060400160405280600b81526020017f4461776e4465706f736974000000000000000000000000000000000000000000815250611cc0565b73ffffffffffffffffffffffffffffffffffffffff1663a9059cbb82846040518363ffffffff1660e01b81526004016121a1929190613761565b6020604051808303816000875af11580156121c0573d6000803e3d6000fd5b505050506040513d601f19601f820116820180604052508101906121e49190613506565b5061220f7fdf3d077074546f541532fe7e77eccba160f30e09959a3cb77fbc16a133247cf4836123f2565b8073ffffffffffffffffffffffffffffffffffffffff163373ffffffffffffffffffffffffffffffffffffffff168773ffffffffffffffffffffffffffffffffffffffff167fd89ff2236e432f602217776b8bb5727bb67dac8d11b300be480b6c6e5ac01551856040516122839190612742565b60405180910390a4505b81831461229f5761229e8483611fb4565b5b5050505050565b6000818310156122de576122c16122bc856123c2565b611c1c565b83836122cd919061338f565b6122d7919061378a565b90506122e3565b600090505b9392505050565b6000816040516020016122fd919061385f565b604051602081830303815290604052805190602001209050919050565b606060008054906101000a900473ffffffffffffffffffffffffffffffffffffffff1673ffffffffffffffffffffffffffffffffffffffff1663c031a180836040518263ffffffff1660e01b815260040161237591906133dc565b600060405180830381865afa158015612392573d6000803e3d6000fd5b505050506040513d6000823e3d601f19601f820116820180604052508101906123bb9190613977565b9050919050565b6000816040516020016123d59190613a32565b604051602081830303815290604052805190602001209050919050565b60008054906101000a900473ffffffffffffffffffffffffffffffffffffffff1673ffffffffffffffffffffffffffffffffffffffff1663ebb9d8c983836040518363ffffffff1660e01b815260040161244d9291906133f7565b600060405180830381600087803b15801561246757600080fd5b505af115801561247b573d6000803e3d6000fd5b505050505050565b600061248e826122ea565b9050600061249b82611b78565b90506124a6816120bd565b6124c382600360068111156124be576124bd6128b2565b5b611fb4565b6124d66124cf826123c2565b60016123f2565b8073ffffffffffffffffffffffffffffffffffffffff16837fbc19282098e9be1cfd8e3853f64f04d2beab5c2967237e99bd22d77ae04212c56125188561231a565b604051612525919061319d565b60405180910390a3505050565b60008054906101000a900473ffffffffffffffffffffffffffffffffffffffff1673ffffffffffffffffffffffffffffffffffffffff16632e28d08483836040518363ffffffff1660e01b815260040161258d929190613a58565b600060405180830381600087803b1580156125a757600080fd5b505af11580156125bb573d6000803e3d6000fd5b505050505050565b6000604051905090565b600080fd5b600080fd5b6000819050919050565b6125ea816125d7565b81146125f557600080fd5b50565b600081359050612607816125e1565b92915050565b600060208284031215612623576126226125cd565b5b6000612631848285016125f8565b91505092915050565b600073ffffffffffffffffffffffffffffffffffffffff82169050919050565b60006126658261263a565b9050919050565b6126758161265a565b811461268057600080fd5b50565b6000813590506126928161266c565b92915050565b6000602082840312156126ae576126ad6125cd565b5b60006126bc84828501612683565b91505092915050565b6126ce8161265a565b82525050565b60008115159050919050565b6126e9816126d4565b82525050565b600060408201905061270460008301856126c5565b61271160208301846126e0565b9392505050565b600060208201905061272d60008301846126c5565b92915050565b61273c816125d7565b82525050565b60006020820190506127576000830184612733565b92915050565b600080fd5b600080fd5b600080fd5b60008083601f8401126127825761278161275d565b5b8235905067ffffffffffffffff81111561279f5761279e612762565b5b6020830191508360208202830111156127bb576127ba612767565b5b9250929050565b6000806000604084860312156127db576127da6125cd565b5b60006127e986828701612683565b935050602084013567ffffffffffffffff81111561280a576128096125d2565b5b6128168682870161276c565b92509250509250925092565b600081519050919050565b600082825260208201905092915050565b60005b8381101561285c578082015181840152602081019050612841565b60008484015250505050565b6000601f19601f8301169050919050565b600061288482612822565b61288e818561282d565b935061289e81856020860161283e565b6128a781612868565b840191505092915050565b7f4e487b7100000000000000000000000000000000000000000000000000000000600052602160045260246000fd5b600781106128f2576128f16128b2565b5b50565b6000819050612903826128e1565b919050565b6000612913826128f5565b9050919050565b61292381612908565b82525050565b600060608201905061293e60008301866126c5565b81810360208301526129508185612879565b905061295f604083018461291a565b949350505050565b6000806020838503121561297e5761297d6125cd565b5b600083013567ffffffffffffffff81111561299c5761299b6125d2565b5b6129a88582860161276c565b92509250509250929050565b600081519050919050565b600082825260208201905092915050565b6000819050602082019050919050565b6129e9816125d7565b82525050565b60006129fb83836129e0565b60208301905092915050565b6000602082019050919050565b6000612a1f826129b4565b612a2981856129bf565b9350612a34836129d0565b8060005b83811015612a65578151612a4c88826129ef565b9750612a5783612a07565b925050600181019050612a38565b5085935050505092915050565b60006020820190508181036000830152612a8c8184612a14565b905092915050565b60008060408385031215612aab57612aaa6125cd565b5b6000612ab9858286016125f8565b9250506020612aca858286016125f8565b9150509250929050565b60008083601f840112612aea57612ae961275d565b5b8235905067ffffffffffffffff811115612b0757612b06612762565b5b602083019150836001820283011115612b2357612b22612767565b5b9250929050565b600080600060408486031215612b4357612b426125cd565b5b6000612b5186828701612683565b935050602084013567ffffffffffffffff811115612b7257612b716125d2565b5b612b7e86828701612ad4565b92509250509250925092565b600081519050919050565b600082825260208201905092915050565b6000819050602082019050919050565b612bbf8161265a565b82525050565b6000612bd18383612bb6565b60208301905092915050565b6000602082019050919050565b6000612bf582612b8a565b612bff8185612b95565b9350612c0a83612ba6565b8060005b83811015612c3b578151612c228882612bc5565b9750612c2d83612bdd565b925050600181019050612c0e565b5085935050505092915050565b600081519050919050565b600082825260208201905092915050565b6000819050602082019050919050565b600082825260208201905092915050565b6000612c9082612822565b612c9a8185612c74565b9350612caa81856020860161283e565b612cb381612868565b840191505092915050565b6000612cca8383612c85565b905092915050565b6000602082019050919050565b6000612cea82612c48565b612cf48185612c53565b935083602082028501612d0685612c64565b8060005b85811015612d425784840389528151612d238582612cbe565b9450612d2e83612cd2565b925060208a01995050600181019050612d0a565b50829750879550505050505092915050565b600081519050919050565b600082825260208201905092915050565b6000819050602082019050919050565b612d8981612908565b82525050565b6000612d9b8383612d80565b60208301905092915050565b6000602082019050919050565b6000612dbf82612d54565b612dc98185612d5f565b9350612dd483612d70565b8060005b83811015612e05578151612dec8882612d8f565b9750612df783612da7565b925050600181019050612dd8565b5085935050505092915050565b60006060820190508181036000830152612e2c8186612bea565b90508181036020830152612e408185612cdf565b90508181036040830152612e548184612db4565b9050949350505050565b600081905092915050565b7f636f6e74726163742e6164647265737300000000000000000000000000000000600082015250565b6000612e9f601083612e5e565b9150612eaa82612e69565b601082019050919050565b600081519050919050565b6000612ecb82612eb5565b612ed58185612e5e565b9350612ee581856020860161283e565b80840191505092915050565b6000612efc82612e92565b9150612f088284612ec0565b915081905092915050565b600082825260208201905092915050565b7f496e76616c6964206f72206f7574646174656420636f6e747261637400000000600082015250565b6000612f5a601c83612f13565b9150612f6582612f24565b602082019050919050565b60006020820190508181036000830152612f8981612f4d565b9050919050565b600081519050612f9f816125e1565b92915050565b600060208284031215612fbb57612fba6125cd565b5b6000612fc984828501612f90565b91505092915050565b7f4e487b7100000000000000000000000000000000000000000000000000000000600052601160045260246000fd5b600061300c826125d7565b9150613017836125d7565b925082820190508082111561302f5761302e612fd2565b5b92915050565b600060408201905061304a6000830185612733565b6130576020830184612733565b9392505050565b7f4e487b7100000000000000000000000000000000000000000000000000000000600052601260045260246000fd5b6000613098826125d7565b91506130a3836125d7565b9250826130b3576130b261305e565b5b828204905092915050565b6000815190506130cd8161266c565b92915050565b6000602082840312156130e9576130e86125cd565b5b60006130f7848285016130be565b91505092915050565b600060608201905061311560008301866126c5565b61312260208301856126c5565b61312f60408301846126c5565b949350505050565b7f4e487b7100000000000000000000000000000000000000000000000000000000600052603260045260246000fd5b600060608201905061317b6000830186612733565b61318860208301856126c5565b61319560408301846126c5565b949350505050565b600060208201905081810360008301526131b78184612879565b905092915050565b60006131ca826125d7565b91507fffffffffffffffffffffffffffffffffffffffffffffffffffffffffffffffff82036131fc576131fb612fd2565b5b600182019050919050565b7f4163636f756e74206973206e6f7420612074656d706f7261727920677561726460008201527f69616e0000000000000000000000000000000000000000000000000000000000602082015250565b6000613263602383612f13565b915061326e82613207565b604082019050919050565b6000602082019050818103600083015261329281613256565b9050919050565b60006060820190506132ae6000830186612733565b6132bb6020830185612733565b6132c86040830184612733565b949350505050565b60006040820190506132e56000830185612733565b81810360208301526132f78184612879565b90509392505050565b7f4e487b7100000000000000000000000000000000000000000000000000000000600052604160045260246000fd5b82818337600083830152505050565b600061334a838561282d565b935061335783858461332f565b61336083612868565b840190509392505050565b6000602082019050818103600083015261338681848661333e565b90509392505050565b600061339a826125d7565b91506133a5836125d7565b92508282039050818111156133bd576133bc612fd2565b5b92915050565b6000819050919050565b6133d6816133c3565b82525050565b60006020820190506133f160008301846133cd565b92915050565b600060408201905061340c60008301856133cd565b6134196020830184612733565b9392505050565b7f4465706f7369744e6f64654d616e616765722e6f70657261746f720000000000600082015250565b6000613456601b83612e5e565b915061346182613420565b601b82019050919050565b60008160601b9050919050565b60006134848261346c565b9050919050565b600061349682613479565b9050919050565b6134ae6134a98261265a565b61348b565b82525050565b60006134bf82613449565b91506134cb828461349d565b60148201915081905092915050565b6134e3816126d4565b81146134ee57600080fd5b50565b600081519050613500816134da565b92915050565b60006020828403121561351c5761351b6125cd565b5b600061352a848285016134f1565b91505092915050565b600060408201905061354860008301856133cd565b61355560208301846126c5565b9392505050565b600060408201905061357160008301856133cd565b61357e60208301846126e0565b9392505050565b7f4465706f7369744e6f64654d616e616765722e636c61696d656452657761726460008201527f7350657256616c696461746f7200000000000000000000000000000000000000602082015250565b60006135e1602d83612e5e565b91506135ec82613585565b602d82019050919050565b6000613602826135d4565b915061360e828461349d565b60148201915081905092915050565b7f4465706f7369744e6f64654d616e616765722e6f70657261746f72576974686460008201527f7261774164647265737300000000000000000000000000000000000000000000602082015250565b6000613679602a83612e5e565b91506136848261361d565b602a82019050919050565b600061369a8261366c565b91506136a6828461349d565b60148201915081905092915050565b600081905092915050565b60006136cb82612822565b6136d581856136b5565b93506136e581856020860161283e565b80840191505092915050565b60006136fd82846136c0565b915081905092915050565b613711816133c3565b811461371c57600080fd5b50565b60008151905061372e81613708565b92915050565b60006020828403121561374a576137496125cd565b5b60006137588482850161371f565b91505092915050565b600060408201905061377660008301856126c5565b6137836020830184612733565b9392505050565b6000613795826125d7565b91506137a0836125d7565b92508282026137ae816125d7565b915082820484148315176137c5576137c4612fd2565b5b5092915050565b7f4465706f7369744e6f64654d616e616765722e76616c696461746f72496e646560008201527f7800000000000000000000000000000000000000000000000000000000000000602082015250565b6000613828602183612e5e565b9150613833826137cc565b602182019050919050565b6000819050919050565b613859613854826125d7565b61383e565b82525050565b600061386a8261381b565b91506138768284613848565b60208201915081905092915050565b600080fd5b61389382612868565b810181811067ffffffffffffffff821117156138b2576138b1613300565b5b80604052505050565b60006138c56125c3565b90506138d1828261388a565b919050565b600067ffffffffffffffff8211156138f1576138f0613300565b5b6138fa82612868565b9050602081019050919050565b600061391a613915846138d6565b6138bb565b90508281526020810184848401111561393657613935613885565b5b61394184828561283e565b509392505050565b600082601f83011261395e5761395d61275d565b5b815161396e848260208601613907565b91505092915050565b60006020828403121561398d5761398c6125cd565b5b600082015167ffffffffffffffff8111156139ab576139aa6125d2565b5b6139b784828501613949565b91505092915050565b7f4465706f7369744e6f64654d616e616765722e76616c69646174696e6756616c60008201527f696461746f7273436f756e740000000000000000000000000000000000000000602082015250565b6000613a1c602c83612e5e565b9150613a27826139c0565b602c82019050919050565b6000613a3d82613a0f565b9150613a49828461349d565b60148201915081905092915050565b6000604082019050613a6d60008301856133cd565b8181036020830152613a7f8184612879565b9050939250505056fea26469706673582212201edbeef0509a8e8fb69847d63f4ece60199a03ac440f785ddcb00d207d743eaa64736f6c63430008110033",
  "linkReferences": {},
  "deployedLinkReferences": {}
}