{
  "_format": "hh-sol-artifact-1",
  "contractName": "DepositNodeManager",
  "sourceName": "contracts/nos/DepositNodeManager.sol",
  "abi": [
    {
      "inputs": [
        {
          "internalType": "contract IDawnStorageInterface",
          "name": "dawnStorage",
          "type": "address"
        }
      ],
      "stateMutability": "nonpayable",
      "type": "constructor"
    },
    {
      "inputs": [
        {
          "internalType": "address",
          "name": "operator",
          "type": "address"
        }
      ],
      "name": "InactiveNodeOperator",
      "type": "error"
    },
    {
      "inputs": [
        {
          "internalType": "address",
          "name": "operator",
          "type": "address"
        },
        {
          "internalType": "address",
          "name": "required",
          "type": "address"
        },
        {
          "internalType": "address",
          "name": "caller",
          "type": "address"
        }
      ],
      "name": "InconsistentNodeOperatorAddress",
      "type": "error"
    },
    {
      "inputs": [
        {
          "internalType": "uint256",
          "name": "index",
          "type": "uint256"
        },
        {
          "internalType": "address",
          "name": "required",
          "type": "address"
        },
        {
          "internalType": "address",
          "name": "current",
          "type": "address"
        }
      ],
      "name": "InconsistentValidatorOperator",
      "type": "error"
    },
    {
      "inputs": [
        {
          "internalType": "uint256",
          "name": "index",
          "type": "uint256"
        },
        {
          "internalType": "uint256",
          "name": "required",
          "type": "uint256"
        },
        {
          "internalType": "uint256",
          "name": "current",
          "type": "uint256"
        }
      ],
      "name": "InconsistentValidatorStatus",
      "type": "error"
    },
    {
      "inputs": [],
      "name": "NotExistOperator",
      "type": "error"
    },
    {
      "inputs": [
        {
          "internalType": "uint256",
          "name": "required",
          "type": "uint256"
        },
        {
          "internalType": "uint256",
          "name": "current",
          "type": "uint256"
        }
      ],
      "name": "NotReceiveEnoughRewards",
      "type": "error"
    },
    {
      "inputs": [],
      "name": "OperatorAlreadyExist",
      "type": "error"
    },
    {
      "inputs": [],
      "name": "PubkeyAlreadyExist",
      "type": "error"
    },
    {
      "inputs": [],
      "name": "ZeroAddress",
      "type": "error"
    },
    {
      "anonymous": false,
      "inputs": [
        {
          "indexed": true,
          "internalType": "address",
          "name": "from",
          "type": "address"
        },
        {
          "indexed": false,
          "internalType": "uint256",
          "name": "amount",
          "type": "uint256"
        }
      ],
      "name": "MinOperatorStakingAmountSet",
      "type": "event"
    },
    {
      "anonymous": false,
      "inputs": [
        {
          "indexed": true,
          "internalType": "address",
          "name": "operator",
          "type": "address"
        },
        {
          "indexed": true,
          "internalType": "address",
          "name": "claimer",
          "type": "address"
        },
        {
          "indexed": true,
          "internalType": "address",
          "name": "withdrawAddress",
          "type": "address"
        },
        {
          "indexed": false,
          "internalType": "uint256",
          "name": "pethAmount",
          "type": "uint256"
        }
      ],
      "name": "NodeOperatorNodeRewardsClaimed",
      "type": "event"
    },
    {
      "anonymous": false,
      "inputs": [
        {
          "indexed": true,
          "internalType": "address",
          "name": "operator",
          "type": "address"
        },
        {
          "indexed": true,
          "internalType": "address",
          "name": "nodeAddress",
          "type": "address"
        }
      ],
      "name": "NodeOperatorRegistered",
      "type": "event"
    },
    {
      "anonymous": false,
      "inputs": [
        {
          "indexed": false,
          "internalType": "uint256",
          "name": "pethAmount",
          "type": "uint256"
        },
        {
          "indexed": false,
          "internalType": "uint256",
          "name": "rewardsAddedPerValidator",
          "type": "uint256"
        }
      ],
      "name": "NodeOperatorRewardsReceived",
      "type": "event"
    },
    {
      "anonymous": false,
      "inputs": [
        {
          "indexed": true,
          "internalType": "uint256",
          "name": "index",
          "type": "uint256"
        },
        {
          "indexed": true,
          "internalType": "address",
          "name": "operator",
          "type": "address"
        },
        {
          "indexed": false,
          "internalType": "bytes",
          "name": "pubkey",
          "type": "bytes"
        }
      ],
      "name": "SigningKeyActivated",
      "type": "event"
    },
    {
      "anonymous": false,
      "inputs": [
        {
          "indexed": true,
          "internalType": "uint256",
          "name": "index",
          "type": "uint256"
        },
        {
          "indexed": true,
          "internalType": "address",
          "name": "operator",
          "type": "address"
        },
        {
          "indexed": false,
          "internalType": "bytes",
          "name": "pubkey",
          "type": "bytes"
        }
      ],
      "name": "SigningKeyAdded",
      "type": "event"
    },
    {
      "anonymous": false,
      "inputs": [
        {
          "indexed": true,
          "internalType": "uint256",
          "name": "index",
          "type": "uint256"
        },
        {
          "indexed": true,
          "internalType": "address",
          "name": "operator",
          "type": "address"
        },
        {
          "indexed": false,
          "internalType": "bytes",
          "name": "pubkey",
          "type": "bytes"
        }
      ],
      "name": "SigningKeyExit",
      "type": "event"
    },
    {
      "anonymous": false,
      "inputs": [
        {
          "indexed": true,
          "internalType": "uint256",
          "name": "index",
          "type": "uint256"
        },
        {
          "indexed": true,
          "internalType": "address",
          "name": "operator",
          "type": "address"
        },
        {
          "indexed": false,
          "internalType": "bytes",
          "name": "pubkey",
          "type": "bytes"
        },
        {
          "indexed": false,
          "internalType": "address",
          "name": "nodeAddress",
          "type": "address"
        },
        {
          "indexed": false,
          "internalType": "uint256",
          "name": "slashedPethAmount",
          "type": "uint256"
        },
        {
          "indexed": false,
          "internalType": "bytes",
          "name": "reason",
          "type": "bytes"
        }
      ],
      "name": "SigningKeyPunished",
      "type": "event"
    },
    {
      "anonymous": false,
      "inputs": [
        {
          "indexed": true,
          "internalType": "uint256",
          "name": "index",
          "type": "uint256"
        },
        {
          "indexed": true,
          "internalType": "address",
          "name": "operator",
          "type": "address"
        },
        {
          "indexed": false,
          "internalType": "bytes",
          "name": "pubkey",
          "type": "bytes"
        },
        {
          "indexed": false,
          "internalType": "address",
          "name": "nodeAddress",
          "type": "address"
        },
        {
          "indexed": false,
          "internalType": "uint256",
          "name": "slashedPethAmount",
          "type": "uint256"
        }
      ],
      "name": "SigningKeySlashing",
      "type": "event"
    },
    {
      "anonymous": false,
      "inputs": [
        {
          "indexed": true,
          "internalType": "uint256",
          "name": "index",
          "type": "uint256"
        },
        {
          "indexed": true,
          "internalType": "address",
          "name": "operator",
          "type": "address"
        },
        {
          "indexed": false,
          "internalType": "bytes",
          "name": "pubkey",
          "type": "bytes"
        },
        {
          "indexed": false,
          "internalType": "address",
          "name": "nodeAddress",
          "type": "address"
        },
        {
          "indexed": false,
          "internalType": "uint256",
          "name": "slashedPethAmount",
          "type": "uint256"
        }
      ],
      "name": "SigningKeyUnsafe",
      "type": "event"
    },
    {
      "anonymous": false,
      "inputs": [
        {
          "indexed": true,
          "internalType": "address",
          "name": "operator",
          "type": "address"
        },
        {
          "indexed": false,
          "internalType": "address",
          "name": "withdrawAddress",
          "type": "address"
        }
      ],
      "name": "WithdrawAddressSet",
      "type": "event"
    },
    {
      "inputs": [
        {
          "internalType": "uint256[]",
          "name": "indexes",
          "type": "uint256[]"
        }
      ],
      "name": "activateValidators",
      "outputs": [],
      "stateMutability": "nonpayable",
      "type": "function"
    },
    {
      "inputs": [
        {
          "internalType": "address",
          "name": "operator",
          "type": "address"
        }
      ],
      "name": "claimNodeRewards",
      "outputs": [],
      "stateMutability": "nonpayable",
      "type": "function"
    },
    {
      "inputs": [
        {
          "internalType": "uint256",
          "name": "pethAmount",
          "type": "uint256"
        }
      ],
      "name": "distributeNodeOperatorRewards",
      "outputs": [],
      "stateMutability": "nonpayable",
      "type": "function"
    },
    {
      "inputs": [
        {
          "internalType": "address",
          "name": "operator",
          "type": "address"
        }
      ],
      "name": "getClaimableNodeRewards",
      "outputs": [
        {
          "internalType": "uint256",
          "name": "",
          "type": "uint256"
        }
      ],
      "stateMutability": "view",
      "type": "function"
    },
    {
      "inputs": [],
      "name": "getMinOperatorStakingAmount",
      "outputs": [
        {
          "internalType": "uint256",
          "name": "",
          "type": "uint256"
        }
      ],
      "stateMutability": "view",
      "type": "function"
    },
    {
      "inputs": [
        {
          "internalType": "address",
          "name": "operator",
          "type": "address"
        }
      ],
      "name": "getNodeOperator",
      "outputs": [
        {
          "internalType": "address",
          "name": "nodeAddress",
          "type": "address"
        },
        {
          "internalType": "bool",
          "name": "isActive",
          "type": "bool"
        }
      ],
      "stateMutability": "view",
      "type": "function"
    },
    {
      "inputs": [
        {
          "internalType": "uint256",
          "name": "index",
          "type": "uint256"
        }
      ],
      "name": "getNodeValidator",
      "outputs": [
        {
          "internalType": "address",
          "name": "operator",
          "type": "address"
        },
        {
          "internalType": "bytes",
          "name": "pubkey",
          "type": "bytes"
        },
        {
          "internalType": "enum IDepositNodeManager.ValidatorStatus",
          "name": "status",
          "type": "uint8"
        }
      ],
      "stateMutability": "view",
      "type": "function"
    },
    {
      "inputs": [
        {
          "internalType": "bytes",
          "name": "pubkey",
          "type": "bytes"
        }
      ],
      "name": "getNodeValidator",
      "outputs": [
        {
          "internalType": "uint256",
          "name": "index",
          "type": "uint256"
        },
        {
          "internalType": "address",
          "name": "operator",
          "type": "address"
        },
        {
          "internalType": "enum IDepositNodeManager.ValidatorStatus",
          "name": "status",
          "type": "uint8"
        }
      ],
      "stateMutability": "view",
      "type": "function"
    },
    {
      "inputs": [
        {
          "internalType": "uint256",
          "name": "startIndex",
          "type": "uint256"
        },
        {
          "internalType": "uint256",
          "name": "amount",
          "type": "uint256"
        }
      ],
      "name": "getNodeValidators",
      "outputs": [
        {
          "internalType": "address[]",
          "name": "operators",
          "type": "address[]"
        },
        {
          "internalType": "bytes[]",
          "name": "pubkeys",
          "type": "bytes[]"
        },
        {
          "internalType": "enum IDepositNodeManager.ValidatorStatus[]",
          "name": "statuses",
          "type": "uint8[]"
        }
      ],
      "stateMutability": "view",
      "type": "function"
    },
    {
      "inputs": [],
      "name": "getTotalActivatedValidatorsCount",
      "outputs": [
        {
          "internalType": "uint256",
          "name": "",
          "type": "uint256"
        }
      ],
      "stateMutability": "view",
      "type": "function"
    },
    {
      "inputs": [],
      "name": "getTotalValidatorsCount",
      "outputs": [
        {
          "internalType": "uint256",
          "name": "",
          "type": "uint256"
        }
      ],
      "stateMutability": "view",
      "type": "function"
    },
    {
      "inputs": [
        {
          "internalType": "address",
          "name": "operator",
          "type": "address"
        }
      ],
      "name": "getWithdrawAddress",
      "outputs": [
        {
          "internalType": "address",
          "name": "",
          "type": "address"
        }
      ],
      "stateMutability": "view",
      "type": "function"
    },
    {
      "inputs": [
        {
          "internalType": "address",
          "name": "operator",
          "type": "address"
        },
        {
          "internalType": "uint256[]",
          "name": "indexes",
          "type": "uint256[]"
        }
      ],
      "name": "operatorRequestToExitValidators",
      "outputs": [],
      "stateMutability": "nonpayable",
      "type": "function"
    },
    {
      "inputs": [
        {
          "internalType": "uint256",
          "name": "index",
          "type": "uint256"
        },
        {
          "internalType": "uint256",
          "name": "slashedPethAmount",
          "type": "uint256"
        },
        {
          "internalType": "bytes",
          "name": "reason",
          "type": "bytes"
        }
      ],
      "name": "punishOneValidator",
      "outputs": [],
      "stateMutability": "nonpayable",
      "type": "function"
    },
    {
      "inputs": [
        {
          "internalType": "address",
          "name": "withdrawAddress",
          "type": "address"
        }
      ],
      "name": "registerNodeOperator",
      "outputs": [
        {
          "internalType": "address",
          "name": "",
          "type": "address"
        }
      ],
      "stateMutability": "nonpayable",
      "type": "function"
    },
    {
      "inputs": [
        {
          "internalType": "address",
          "name": "operator",
          "type": "address"
        },
        {
          "internalType": "bytes",
          "name": "pubkey",
          "type": "bytes"
        }
      ],
      "name": "registerValidator",
      "outputs": [
        {
          "internalType": "uint256",
          "name": "",
          "type": "uint256"
        }
      ],
      "stateMutability": "nonpayable",
      "type": "function"
    },
    {
      "inputs": [
        {
          "internalType": "uint256",
          "name": "minAmount",
          "type": "uint256"
        }
      ],
      "name": "setMinOperatorStakingAmount",
      "outputs": [],
      "stateMutability": "nonpayable",
      "type": "function"
    },
    {
      "inputs": [
        {
          "internalType": "uint256",
          "name": "index",
          "type": "uint256"
        }
      ],
      "name": "setValidatorExit",
      "outputs": [],
      "stateMutability": "nonpayable",
      "type": "function"
    },
    {
      "inputs": [
        {
          "internalType": "uint256",
          "name": "index",
          "type": "uint256"
        },
        {
          "internalType": "uint256",
          "name": "slashedPethAmount",
          "type": "uint256"
        },
        {
          "internalType": "bool",
          "name": "slashFinished",
          "type": "bool"
        }
      ],
      "name": "setValidatorSlashing",
      "outputs": [],
      "stateMutability": "nonpayable",
      "type": "function"
    },
    {
      "inputs": [
        {
          "internalType": "uint256",
          "name": "index",
          "type": "uint256"
        },
        {
          "internalType": "uint256",
          "name": "slashedPethAmount",
          "type": "uint256"
        }
      ],
      "name": "setValidatorUnsafe",
      "outputs": [],
      "stateMutability": "nonpayable",
      "type": "function"
    },
    {
      "inputs": [
        {
          "internalType": "address",
          "name": "withdrawAddress",
          "type": "address"
        }
      ],
      "name": "setWithdrawAddress",
      "outputs": [],
      "stateMutability": "nonpayable",
      "type": "function"
    },
    {
      "inputs": [
        {
          "internalType": "uint256",
          "name": "count",
          "type": "uint256"
        }
      ],
      "name": "updateValidatorsExit",
      "outputs": [
        {
          "internalType": "uint256[]",
          "name": "indexes",
          "type": "uint256[]"
        }
      ],
      "stateMutability": "nonpayable",
      "type": "function"
    }
  ],
  "bytecode": "0x6080604052600080546001600160a01b03191690553480156200002157600080fd5b5060405162003c3338038062003c3383398101604081905262000044916200006a565b600080546001600160a01b0319166001600160a01b03929092169190911790556200009c565b6000602082840312156200007d57600080fd5b81516001600160a01b03811681146200009557600080fd5b9392505050565b613b8780620000ac6000396000f3fe608060405234801561001057600080fd5b50600436106101825760003560e01c806381e6f103116100d8578063bb78cbe91161008c578063f1f2bfd611610066578063f1f2bfd61461036b578063f686e34114610373578063fa6654aa1461039557600080fd5b8063bb78cbe914610325578063d801f36d14610338578063df54866c1461034b57600080fd5b80639e76d0e8116100bd5780639e76d0e8146102f7578063a6a13105146102ff578063afe46ea21461031257600080fd5b806381e6f103146102dc578063983d52e7146102ef57600080fd5b80633a5b742c1161013a5780635b5c8dc3116101145780635b5c8dc3146102945780636dd87fe5146102a757806372f7e73a146102c957600080fd5b80633a5b742c1461024c5780633ab1a4941461025f57806350d04f9a1461027257600080fd5b806311970d901161016b57806311970d90146101e05780631768c93314610218578063306fc3071461022b57600080fd5b806309b86159146101875780630e2c0b101461019c575b600080fd5b61019a6101953660046131b4565b6103a8565b005b6101af6101aa3660046131ef565b610694565b6040805173ffffffffffffffffffffffffffffffffffffffff90931683529015156020830152015b60405180910390f35b6101f36101ee3660046131ef565b6106c0565b60405173ffffffffffffffffffffffffffffffffffffffff90911681526020016101d7565b61019a6102263660046131ef565b610904565b61023e6102393660046131ef565b610910565b6040519081526020016101d7565b61019a61025a366004613258565b61095b565b61019a61026d3660046131ef565b610be4565b6102856102803660046131b4565b610cef565b6040516101d793929190613385565b61019a6102a23660046133d9565b610d3a565b6102ba6102b5366004613454565b61108c565b6040516101d793929190613496565b61019a6102d73660046134c6565b6110ff565b61019a6102ea3660046131b4565b611447565b61023e6115f3565b61023e611623565b61019a61030d3660046131b4565b61164e565b6101f36103203660046131ef565b6117f6565b61019a6103333660046134fc565b611804565b61023e61034636600461351e565b611ac2565b61035e6103593660046131b4565b611d2f565b6040516101d79190613566565b61023e61202d565b6103866103813660046134fc565b612058565b6040516101d7939291906135ec565b61019a6103a33660046136cb565b612272565b6040518060400160405280600b81526020017f4461776e4465706f7369740000000000000000000000000000000000000000008152503361040e826040516020016103f3919061371e565b6040516020818303038152906040528051906020012061245a565b73ffffffffffffffffffffffffffffffffffffffff168173ffffffffffffffffffffffffffffffffffffffff16146104a7576040517f08c379a000000000000000000000000000000000000000000000000000000000815260206004820152601c60248201527f496e76616c6964206f72206f7574646174656420636f6e74726163740000000060448201526064015b60405180910390fd5b60006104d27fdf3d077074546f541532fe7e77eccba160f30e09959a3cb77fbc16a133247cf46124ee565b905060006104de612582565b6040517f70a0823100000000000000000000000000000000000000000000000000000000815230600482015273ffffffffffffffffffffffffffffffffffffffff91909116906370a0823190602401602060405180830381865afa15801561054a573d6000803e3d6000fd5b505050506040513d601f19601f8201168201806040525081019061056e9190613763565b905061057a85836137ab565b8110156105c85761058b85836137ab565b6040517fae855dac00000000000000000000000000000000000000000000000000000000815260048101919091526024810182905260440161049e565b60006105f37f4390690dd5976d99db70b4fc5fc9e9ef820b58ea3135f3b949b09ed33d36a3756124ee565b6105fd90876137be565b90506106297f7855afc474fc840f74c76cc7469332d9d2d12015a702c35ed84effb5edeed30b826125c2565b6106537fdf3d077074546f541532fe7e77eccba160f30e09959a3cb77fbc16a133247cf4876125c2565b60408051878152602081018390527fc6c52a06d75d80871088bd52e070fdc49679ed66132431327545fb31efbf7553910160405180910390a1505050505050565b60008060006106a28461264a565b90506106ad8161245a565b92506106b8816126c3565b915050915091565b600073ffffffffffffffffffffffffffffffffffffffff821661070f576040517fd92e233d00000000000000000000000000000000000000000000000000000000815260040160405180910390fd5b600061071a3361264a565b905060006107278261245a565b73ffffffffffffffffffffffffffffffffffffffff1614610774576040517f2150a72300000000000000000000000000000000000000000000000000000000815260040160405180910390fd5b60006107b46040518060400160405280601b81526020017f4465706f7369744e6f64654f70657261746f724465706c6f7965720000000000815250612757565b6040517fa2a27b7c00000000000000000000000000000000000000000000000000000000815233600482015273ffffffffffffffffffffffffffffffffffffffff919091169063a2a27b7c906024016020604051808303816000875af1158015610822573d6000803e3d6000fd5b505050506040513d601f19601f8201168201806040525081019061084691906137f9565b9050610852828261276e565b61085d8260016127cd565b60405173ffffffffffffffffffffffffffffffffffffffff82169033907f51713842c09963dd5b7c4afa5a8b66717d10aeb8bd8d4847e01057f7f631273790600090a36108b26108ac3361282c565b8561276e565b60405173ffffffffffffffffffffffffffffffffffffffff8516815233907f81ef977572555fac5ac57a0e17fdf5feaf98f544e9af11713615da4e1f34ff0b9060200160405180910390a29392505050565b61090d81612930565b50565b60006109558261092761092285612aff565b6124ee565b6109507f7855afc474fc840f74c76cc7469332d9d2d12015a702c35ed84effb5edeed30b6124ee565b612b89565b92915050565b600061096e6109698561264a565b61245a565b90503373ffffffffffffffffffffffffffffffffffffffff8216146109e5576040517f0490207400000000000000000000000000000000000000000000000000000000815273ffffffffffffffffffffffffffffffffffffffff80861660048301528216602482015233604482015260640161049e565b6109ee84612930565b60008080805b85811015610b9e57868682818110610a0e57610a0e613816565b905060200201359350610a2084612bc4565b92508773ffffffffffffffffffffffffffffffffffffffff16610a428461245a565b73ffffffffffffffffffffffffffffffffffffffff1614610ac15783610a678461245a565b6040517fad73b14b000000000000000000000000000000000000000000000000000000008152600481019290925273ffffffffffffffffffffffffffffffffffffffff90811660248301528916604482015260640161049e565b6002610acc846124ee565b14610b21578360025b610ade856124ee565b6040517ffa44983a00000000000000000000000000000000000000000000000000000000815260048101939093526024830191909152604482015260640161049e565b610b2c836003612c29565b8773ffffffffffffffffffffffffffffffffffffffff16847faa365b81a8320a41ca99087da795ca7f2e80fd27145de499138a282b29df47f4610b6e86612c87565b604051610b7b9190613845565b60405180910390a3610b8c82613858565b9150610b9781613858565b90506109f4565b50610bb1610bab88612d3d565b82612dc7565b610bdb7f4390690dd5976d99db70b4fc5fc9e9ef820b58ea3135f3b949b09ed33d36a37582612dc7565b50505050505050565b73ffffffffffffffffffffffffffffffffffffffff8116610c31576040517fd92e233d00000000000000000000000000000000000000000000000000000000815260040160405180910390fd5b6000610c3f6109693361264a565b905073ffffffffffffffffffffffffffffffffffffffff8116610c8e576040517f53d0505500000000000000000000000000000000000000000000000000000000815260040160405180910390fd5b610ca0610c9a3361282c565b8361276e565b60405173ffffffffffffffffffffffffffffffffffffffff8316815233907f81ef977572555fac5ac57a0e17fdf5feaf98f544e9af11713615da4e1f34ff0b9060200160405180910390a25050565b60006060600080610cff85612bc4565b9050610d0a8161245a565b9350610d1581612c87565b9250610d20816124ee565b6005811115610d3157610d3161331b565b93959294505050565b60008054906101000a900473ffffffffffffffffffffffffffffffffffffffff1673ffffffffffffffffffffffffffffffffffffffff1663a75b87d26040518163ffffffff1660e01b8152600401602060405180830381865afa158015610da5573d6000803e3d6000fd5b505050506040513d601f19601f82011682018060405250810190610dc991906137f9565b73ffffffffffffffffffffffffffffffffffffffff163373ffffffffffffffffffffffffffffffffffffffff1614610e83576040517f08c379a000000000000000000000000000000000000000000000000000000000815260206004820152602360248201527f4163636f756e74206973206e6f7420612074656d706f7261727920677561726460448201527f69616e0000000000000000000000000000000000000000000000000000000000606482015260840161049e565b6000610e8e84612bc4565b90506000610e9b8261245a565b90506000610eab6109698361264a565b9050610eb981866000612e25565b508173ffffffffffffffffffffffffffffffffffffffff16867f85ae012bf257b2372f9b1a5ff5a37e2261aaa5eae584c2f2f6b10ce79b5e48be610efc86612c87565b8489604051610f0d93929190613890565b60405180910390a3831561101a576004610f26846124ee565b14610f3357856004610ad5565b610f3e836003612c29565b8173ffffffffffffffffffffffffffffffffffffffff16867faa365b81a8320a41ca99087da795ca7f2e80fd27145de499138a282b29df47f4610f8086612c87565b604051610f8d9190613845565b60405180910390a36040517f9c6f40b10000000000000000000000000000000000000000000000000000000081526001600482015273ffffffffffffffffffffffffffffffffffffffff821690639c6f40b190602401600060405180830381600087803b158015610ffd57600080fd5b505af1158015611011573d6000803e3d6000fd5b50505050611084565b6002611025846124ee565b1461103257856002610ad5565b61103b82612930565b611046836004612c29565b61105961105283612d3d565b6001612dc7565b6110847f4390690dd5976d99db70b4fc5fc9e9ef820b58ea3135f3b949b09ed33d36a3756001612dc7565b505050505050565b60008060008061109c868661301b565b90506110a7816124ee565b935060008411806110bc57506110bc816126c3565b156110f75760006110cc85612bc4565b90506110d78161245a565b93506110e2816124ee565b60058111156110f3576110f361331b565b9250505b509250925092565b60008054906101000a900473ffffffffffffffffffffffffffffffffffffffff1673ffffffffffffffffffffffffffffffffffffffff1663a75b87d26040518163ffffffff1660e01b8152600401602060405180830381865afa15801561116a573d6000803e3d6000fd5b505050506040513d601f19601f8201168201806040525081019061118e91906137f9565b73ffffffffffffffffffffffffffffffffffffffff163373ffffffffffffffffffffffffffffffffffffffff1614611248576040517f08c379a000000000000000000000000000000000000000000000000000000000815260206004820152602360248201527f4163636f756e74206973206e6f7420612074656d706f7261727920677561726460448201527f69616e0000000000000000000000000000000000000000000000000000000000606482015260840161049e565b600080808080805b8681101561141c5787878281811061126a5761126a613816565b90506020020135925061127c83612bc4565b95506001611289876124ee565b1461129a57826001610ade886124ee565b60006112a587612c87565b90506112b08761245a565b95506112bb86610694565b90955092508261130f576040517f4b7a113b00000000000000000000000000000000000000000000000000000000815273ffffffffffffffffffffffffffffffffffffffff8716600482015260240161049e565b6040517fa97d9ba700000000000000000000000000000000000000000000000000000000815273ffffffffffffffffffffffffffffffffffffffff86169063a97d9ba79061136390879085906004016138cb565b600060405180830381600087803b15801561137d57600080fd5b505af1158015611391573d6000803e3d6000fd5b5050505061139e86612930565b6113a9876002612c29565b6113bc6113b587612d3d565b60016125c2565b8573ffffffffffffffffffffffffffffffffffffffff16847fd33d337462164bee93fabcec5048a936056ade32fadb042d3565be192dcf9231836040516114039190613845565b60405180910390a35061141581613858565b9050611250565b50610bdb7f4390690dd5976d99db70b4fc5fc9e9ef820b58ea3135f3b949b09ed33d36a375876125c2565b60008054906101000a900473ffffffffffffffffffffffffffffffffffffffff1673ffffffffffffffffffffffffffffffffffffffff1663a75b87d26040518163ffffffff1660e01b8152600401602060405180830381865afa1580156114b2573d6000803e3d6000fd5b505050506040513d601f19601f820116820180604052508101906114d691906137f9565b73ffffffffffffffffffffffffffffffffffffffff163373ffffffffffffffffffffffffffffffffffffffff1614611590576040517f08c379a000000000000000000000000000000000000000000000000000000000815260206004820152602360248201527f4163636f756e74206973206e6f7420612074656d706f7261727920677561726460448201527f69616e0000000000000000000000000000000000000000000000000000000000606482015260840161049e565b600061159b82612bc4565b905060026115a8826124ee565b146115ba578160025b610ade836124ee565b6115c4828261304e565b6115ef7f4390690dd5976d99db70b4fc5fc9e9ef820b58ea3135f3b949b09ed33d36a3756001612dc7565b5050565b600061161e7f5970c1010c0138d6164041632ef0123c4ffd54b8142ecade5c6894b00e1a86546124ee565b905090565b600061161e7f4390690dd5976d99db70b4fc5fc9e9ef820b58ea3135f3b949b09ed33d36a3756124ee565b60008054906101000a900473ffffffffffffffffffffffffffffffffffffffff1673ffffffffffffffffffffffffffffffffffffffff1663a75b87d26040518163ffffffff1660e01b8152600401602060405180830381865afa1580156116b9573d6000803e3d6000fd5b505050506040513d601f19601f820116820180604052508101906116dd91906137f9565b73ffffffffffffffffffffffffffffffffffffffff163373ffffffffffffffffffffffffffffffffffffffff1614611797576040517f08c379a000000000000000000000000000000000000000000000000000000000815260206004820152602360248201527f4163636f756e74206973206e6f7420612074656d706f7261727920677561726460448201527f69616e0000000000000000000000000000000000000000000000000000000000606482015260840161049e565b60405181815233907f7893ea8261e9cae01ebaefe252d1dc6c42c7cfa22dc397ba36195e949d0d29e79060200160405180910390a261090d7f0a47084fa5f3bf37e00e505e23cc07680269006f10b69f7f6473751c04e86e2a82612c29565b60006109556109698361282c565b60008054906101000a900473ffffffffffffffffffffffffffffffffffffffff1673ffffffffffffffffffffffffffffffffffffffff1663a75b87d26040518163ffffffff1660e01b8152600401602060405180830381865afa15801561186f573d6000803e3d6000fd5b505050506040513d601f19601f8201168201806040525081019061189391906137f9565b73ffffffffffffffffffffffffffffffffffffffff163373ffffffffffffffffffffffffffffffffffffffff161461194d576040517f08c379a000000000000000000000000000000000000000000000000000000000815260206004820152602360248201527f4163636f756e74206973206e6f7420612074656d706f7261727920677561726460448201527f69616e0000000000000000000000000000000000000000000000000000000000606482015260840161049e565b600061195883612bc4565b90506001611965826124ee565b14611972578260016115b1565b61197d816005612c29565b60006119888261245a565b905060006119958261264a565b90506119a0816126c3565b156119b0576119b08160006127cd565b60006119bb8261245a565b90506119d08186670de0b6b3a7640000612e25565b506119dd6109698461264a565b6040517f9c6f40b10000000000000000000000000000000000000000000000000000000081526001600482015273ffffffffffffffffffffffffffffffffffffffff9190911690639c6f40b190602401600060405180830381600087803b158015611a4757600080fd5b505af1158015611a5b573d6000803e3d6000fd5b505050508273ffffffffffffffffffffffffffffffffffffffff16867fe71d3957fc2280a3774ffffd1a2001dd61e862d5b0fde85611403fd7b948dd2c611aa187612c87565b8489604051611ab293929190613890565b60405180910390a3505050505050565b6000806000611ad086610694565b90925090503373ffffffffffffffffffffffffffffffffffffffff831614611b4a576040517f0490207400000000000000000000000000000000000000000000000000000000815273ffffffffffffffffffffffffffffffffffffffff80881660048301528316602482015233604482015260640161049e565b80611b99576040517f4b7a113b00000000000000000000000000000000000000000000000000000000815273ffffffffffffffffffffffffffffffffffffffff8716600482015260240161049e565b6000611ba5868661301b565b90506000611bb2826124ee565b1180611bc25750611bc2816126c3565b15611bf9576040517fc7de6d2b00000000000000000000000000000000000000000000000000000000815260040160405180910390fd5b6000611c247f5970c1010c0138d6164041632ef0123c4ffd54b8142ecade5c6894b00e1a86546124ee565b90506000611c3182612bc4565b9050611c3d818a61276e565b611c48816001612c29565b611c888189898080601f01602080910402602001604051908101604052809392919081815260200183838082843760009201919091525061315c92505050565b611c928383612c29565b81600003611ca557611ca58360016127cd565b611cd07f5970c1010c0138d6164041632ef0123c4ffd54b8142ecade5c6894b00e1a865460016125c2565b8873ffffffffffffffffffffffffffffffffffffffff16827fc4dae530e187b46eb47d101a2f5e9a6b2fef1f28bd0123c6ff95328f4cd892528a8a604051611d1992919061392d565b60405180910390a35093505050505b9392505050565b60606040518060400160405280601781526020017f56616c696461746f7273457869744275734f7261636c6500000000000000000081525033611d7c826040516020016103f3919061371e565b73ffffffffffffffffffffffffffffffffffffffff168173ffffffffffffffffffffffffffffffffffffffff1614611e10576040517f08c379a000000000000000000000000000000000000000000000000000000000815260206004820152601c60248201527f496e76616c6964206f72206f7574646174656420636f6e747261637400000000604482015260640161049e565b600080611e3c7f7ec76db8606a2510142cf0faba170a13c7fe94e55999a1bfdecee38eacce29166124ee565b90506000611e697f5970c1010c0138d6164041632ef0123c4ffd54b8142ecade5c6894b00e1a86546124ee565b90506000808867ffffffffffffffff811115611e8757611e87613941565b604051908082528060200260200182016040528015611eb0578160200160208202803683370190505b5090505b8882108015611ec257508284105b15611f3557611ed084612bc4565b94506002611edd866124ee565b14611ef257611eeb84613858565b9350611eb4565b611efc848661304e565b83818381518110611f0f57611f0f613816565b6020908102919091010152611f2384613858565b9350611f2e82613858565b9150611eb4565b8167ffffffffffffffff811115611f4e57611f4e613941565b604051908082528060200260200182016040528015611f77578160200160208202803683370190505b50975060005b82811015611fcc57818181518110611f9757611f97613816565b6020026020010151898281518110611fb157611fb1613816565b6020908102919091010152611fc581613858565b9050611f7d565b50611ff77f7ec76db8606a2510142cf0faba170a13c7fe94e55999a1bfdecee38eacce291685612c29565b6120217f4390690dd5976d99db70b4fc5fc9e9ef820b58ea3135f3b949b09ed33d36a37583612dc7565b50505050505050919050565b600061161e7f0a47084fa5f3bf37e00e505e23cc07680269006f10b69f7f6473751c04e86e2a6124ee565b606080606060006120887f5970c1010c0138d6164041632ef0123c4ffd54b8142ecade5c6894b00e1a86546124ee565b9050808610612097575061226b565b84158015906120ae5750806120ac86886137ab565b105b156120c0576120bd85876137ab565b90505b60006120cc8783613970565b90508067ffffffffffffffff8111156120e7576120e7613941565b604051908082528060200260200182016040528015612110578160200160208202803683370190505b5094508067ffffffffffffffff81111561212c5761212c613941565b60405190808252806020026020018201604052801561215f57816020015b606081526020019060019003908161214a5790505b5093508067ffffffffffffffff81111561217b5761217b613941565b6040519080825280602002602001820160405280156121a4578160200160208202803683370190505b5092506000875b83811015612266576121bc81610cef565b8985815181106121ce576121ce613816565b602002602001018986815181106121e7576121e7613816565b6020026020010189878151811061220057612200613816565b602002602001018360058111156122195761221961331b565b600581111561222a5761222a61331b565b9052929092525073ffffffffffffffffffffffffffffffffffffffff909116905261225482613858565b915061225f81613858565b90506121ab565b505050505b9250925092565b60008054906101000a900473ffffffffffffffffffffffffffffffffffffffff1673ffffffffffffffffffffffffffffffffffffffff1663a75b87d26040518163ffffffff1660e01b8152600401602060405180830381865afa1580156122dd573d6000803e3d6000fd5b505050506040513d601f19601f8201168201806040525081019061230191906137f9565b73ffffffffffffffffffffffffffffffffffffffff163373ffffffffffffffffffffffffffffffffffffffff16146123bb576040517f08c379a000000000000000000000000000000000000000000000000000000000815260206004820152602360248201527f4163636f756e74206973206e6f7420612074656d706f7261727920677561726460448201527f69616e0000000000000000000000000000000000000000000000000000000000606482015260840161049e565b60006123c685612bc4565b905060006123d38261245a565b905060006123e36109698361264a565b90506123f181876000612e25565b508173ffffffffffffffffffffffffffffffffffffffff16877f771cd9e37c2287a42e2cf1ab5e2d7d10794e81491bc467e7e95ea6c141d259e261243486612c87565b848a8a8a604051612449959493929190613983565b60405180910390a350505050505050565b600080546040517f21f8a7210000000000000000000000000000000000000000000000000000000081526004810184905273ffffffffffffffffffffffffffffffffffffffff909116906321f8a72190602401602060405180830381865afa1580156124ca573d6000803e3d6000fd5b505050506040513d601f19601f8201168201806040525081019061095591906137f9565b600080546040517fbd02d0f50000000000000000000000000000000000000000000000000000000081526004810184905273ffffffffffffffffffffffffffffffffffffffff9091169063bd02d0f590602401602060405180830381865afa15801561255e573d6000803e3d6000fd5b505050506040513d601f19601f820116820180604052508101906109559190613763565b600061161e6040518060400160405280600b81526020017f4461776e4465706f736974000000000000000000000000000000000000000000815250612757565b6000546040517fadb353dc000000000000000000000000000000000000000000000000000000008152600481018490526024810183905273ffffffffffffffffffffffffffffffffffffffff9091169063adb353dc906044015b600060405180830381600087803b15801561263657600080fd5b505af1158015611084573d6000803e3d6000fd5b6040517f4465706f7369744e6f64654d616e616765722e6f70657261746f72000000000060208201527fffffffffffffffffffffffffffffffffffffffff000000000000000000000000606083901b16603b820152600090604f015b604051602081830303815290604052805190602001209050919050565b600080546040517f7ae1cfca0000000000000000000000000000000000000000000000000000000081526004810184905273ffffffffffffffffffffffffffffffffffffffff90911690637ae1cfca90602401602060405180830381865afa158015612733573d6000803e3d6000fd5b505050506040513d601f19601f8201168201806040525081019061095591906139d7565b600080611d28836040516020016103f3919061371e565b6000546040517fca446dd90000000000000000000000000000000000000000000000000000000081526004810184905273ffffffffffffffffffffffffffffffffffffffff83811660248301529091169063ca446dd99060440161261c565b6000546040517fabfdcced00000000000000000000000000000000000000000000000000000000815260048101849052821515602482015273ffffffffffffffffffffffffffffffffffffffff9091169063abfdcced9060440161261c565b60006002826040516020016128b891907f4465706f7369744e6f64654d616e616765722e6f70657261746f72576974686481527f7261774164647265737300000000000000000000000000000000000000000000602082015260609190911b7fffffffffffffffffffffffffffffffffffffffff00000000000000000000000016602a820152603e0190565b604080517fffffffffffffffffffffffffffffffffffffffffffffffffffffffffffffffe0818403018152908290526128f0916139f4565b602060405180830381855afa15801561290d573d6000803e3d6000fd5b5050506040513d601f19601f820116820180604052508101906109559190613763565b600061293b82612aff565b90506000612948826124ee565b905060006129757f7855afc474fc840f74c76cc7469332d9d2d12015a702c35ed84effb5edeed30b6124ee565b90506000612984858484612b89565b90508015612ae7576000612997866117f6565b90506129a1612582565b6040517fa9059cbb00000000000000000000000000000000000000000000000000000000815273ffffffffffffffffffffffffffffffffffffffff838116600483015260248201859052919091169063a9059cbb906044016020604051808303816000875af1158015612a18573d6000803e3d6000fd5b505050506040513d601f19601f82011682018060405250810190612a3c91906139d7565b50612a677fdf3d077074546f541532fe7e77eccba160f30e09959a3cb77fbc16a133247cf483612dc7565b8073ffffffffffffffffffffffffffffffffffffffff163373ffffffffffffffffffffffffffffffffffffffff168773ffffffffffffffffffffffffffffffffffffffff167fd89ff2236e432f602217776b8bb5727bb67dac8d11b300be480b6c6e5ac0155185604051612add91815260200190565b60405180910390a4505b818314612af857612af88483612c29565b5050505050565b6000816040516020016126a691907f4465706f7369744e6f64654d616e616765722e636c61696d656452657761726481527f7350657256616c696461746f7200000000000000000000000000000000000000602082015260609190911b7fffffffffffffffffffffffffffffffffffffffff00000000000000000000000016602d82015260410190565b600081831015612bba57612b9f61092285612d3d565b612ba98484613970565b612bb39190613a10565b9050611d28565b5060009392505050565b6000816040516020016126a691907f4465706f7369744e6f64654d616e616765722e76616c696461746f72496e646581527f78000000000000000000000000000000000000000000000000000000000000006020820152602181019190915260410190565b6000546040517fe2a4853a000000000000000000000000000000000000000000000000000000008152600481018490526024810183905273ffffffffffffffffffffffffffffffffffffffff9091169063e2a4853a9060440161261c565b6000546040517fc031a1800000000000000000000000000000000000000000000000000000000081526004810183905260609173ffffffffffffffffffffffffffffffffffffffff169063c031a18090602401600060405180830381865afa158015612cf7573d6000803e3d6000fd5b505050506040513d6000823e601f3d9081017fffffffffffffffffffffffffffffffffffffffffffffffffffffffffffffffe01682016040526109559190810190613a27565b6000816040516020016126a691907f4465706f7369744e6f64654d616e616765722e76616c69646174696e6756616c81527f696461746f7273436f756e740000000000000000000000000000000000000000602082015260609190911b7fffffffffffffffffffffffffffffffffffffffff00000000000000000000000016602c82015260400190565b6000546040517febb9d8c9000000000000000000000000000000000000000000000000000000008152600481018490526024810183905273ffffffffffffffffffffffffffffffffffffffff9091169063ebb9d8c99060440161261c565b600080612e30612582565b6040517f70a0823100000000000000000000000000000000000000000000000000000000815273ffffffffffffffffffffffffffffffffffffffff87811660048301529192506000918316906370a0823190602401602060405180830381865afa158015612ea2573d6000803e3d6000fd5b505050506040513d601f19601f82011682018060405250810190612ec69190613763565b905080851115612ed65780612ed8565b845b945084600003612eec578492505050611d28565b83600003612f81576040517fd8e423b200000000000000000000000000000000000000000000000000000000815273ffffffffffffffffffffffffffffffffffffffff87811660048301526024820187905283169063d8e423b290604401600060405180830381600087803b158015612f6457600080fd5b505af1158015612f78573d6000803e3d6000fd5b50505050613011565b6040517f130b73bf00000000000000000000000000000000000000000000000000000000815273ffffffffffffffffffffffffffffffffffffffff8781166004830152602482018790526044820186905283169063130b73bf90606401600060405180830381600087803b158015612ff857600080fd5b505af115801561300c573d6000803e3d6000fd5b505050505b5092949350505050565b60008282604051602001613030929190613af2565b60405160208183030381529060405280519060200120905092915050565b60006130598261245a565b905061306481612930565b61306f826003612c29565b61307b61105282612d3d565b8073ffffffffffffffffffffffffffffffffffffffff16837faa365b81a8320a41ca99087da795ca7f2e80fd27145de499138a282b29df47f46130bd85612c87565b6040516130ca9190613845565b60405180910390a36130de6109698261264a565b6040517f9c6f40b10000000000000000000000000000000000000000000000000000000081526001600482015273ffffffffffffffffffffffffffffffffffffffff9190911690639c6f40b190602401600060405180830381600087803b15801561314857600080fd5b505af1158015610bdb573d6000803e3d6000fd5b6000546040517f2e28d08400000000000000000000000000000000000000000000000000000000815273ffffffffffffffffffffffffffffffffffffffff90911690632e28d0849061261c90859085906004016138cb565b6000602082840312156131c657600080fd5b5035919050565b73ffffffffffffffffffffffffffffffffffffffff8116811461090d57600080fd5b60006020828403121561320157600080fd5b8135611d28816131cd565b60008083601f84011261321e57600080fd5b50813567ffffffffffffffff81111561323657600080fd5b6020830191508360208260051b850101111561325157600080fd5b9250929050565b60008060006040848603121561326d57600080fd5b8335613278816131cd565b9250602084013567ffffffffffffffff81111561329457600080fd5b6132a08682870161320c565b9497909650939450505050565b60005b838110156132c85781810151838201526020016132b0565b50506000910152565b600081518084526132e98160208601602086016132ad565b601f017fffffffffffffffffffffffffffffffffffffffffffffffffffffffffffffffe0169290920160200192915050565b7f4e487b7100000000000000000000000000000000000000000000000000000000600052602160045260246000fd5b60068110613381577f4e487b7100000000000000000000000000000000000000000000000000000000600052602160045260246000fd5b9052565b73ffffffffffffffffffffffffffffffffffffffff841681526060602082015260006133b460608301856132d1565b90506133c3604083018461334a565b949350505050565b801515811461090d57600080fd5b6000806000606084860312156133ee57600080fd5b83359250602084013591506040840135613407816133cb565b809150509250925092565b60008083601f84011261342457600080fd5b50813567ffffffffffffffff81111561343c57600080fd5b60208301915083602082850101111561325157600080fd5b6000806020838503121561346757600080fd5b823567ffffffffffffffff81111561347e57600080fd5b61348a85828601613412565b90969095509350505050565b83815273ffffffffffffffffffffffffffffffffffffffff83166020820152606081016133c3604083018461334a565b600080602083850312156134d957600080fd5b823567ffffffffffffffff8111156134f057600080fd5b61348a8582860161320c565b6000806040838503121561350f57600080fd5b50508035926020909101359150565b60008060006040848603121561353357600080fd5b833561353e816131cd565b9250602084013567ffffffffffffffff81111561355a57600080fd5b6132a086828701613412565b6020808252825182820181905260009190848201906040850190845b8181101561359e57835183529284019291840191600101613582565b50909695505050505050565b600081518084526020808501945080840160005b838110156135e1576135d187835161334a565b95820195908201906001016135be565b509495945050505050565b606080825284519082018190526000906020906080840190828801845b8281101561363b57815173ffffffffffffffffffffffffffffffffffffffff1684529284019290840190600101613609565b50505083810382850152855180825282820190600581901b8301840188850160005b838110156136a9577fffffffffffffffffffffffffffffffffffffffffffffffffffffffffffffffe08684030185526136978383516132d1565b9487019492509086019060010161365d565b505086810360408801526136bd81896135aa565b9a9950505050505050505050565b600080600080606085870312156136e157600080fd5b8435935060208501359250604085013567ffffffffffffffff81111561370657600080fd5b61371287828801613412565b95989497509550505050565b7f636f6e74726163742e61646472657373000000000000000000000000000000008152600082516137568160108501602087016132ad565b9190910160100192915050565b60006020828403121561377557600080fd5b5051919050565b7f4e487b7100000000000000000000000000000000000000000000000000000000600052601160045260246000fd5b808201808211156109555761095561377c565b6000826137f4577f4e487b7100000000000000000000000000000000000000000000000000000000600052601260045260246000fd5b500490565b60006020828403121561380b57600080fd5b8151611d28816131cd565b7f4e487b7100000000000000000000000000000000000000000000000000000000600052603260045260246000fd5b602081526000611d2860208301846132d1565b60007fffffffffffffffffffffffffffffffffffffffffffffffffffffffffffffffff82036138895761388961377c565b5060010190565b6060815260006138a360608301866132d1565b73ffffffffffffffffffffffffffffffffffffffff9490941660208301525060400152919050565b8281526040602082015260006133c360408301846132d1565b8183528181602085013750600060208284010152600060207fffffffffffffffffffffffffffffffffffffffffffffffffffffffffffffffe0601f840116840101905092915050565b6020815260006133c36020830184866138e4565b7f4e487b7100000000000000000000000000000000000000000000000000000000600052604160045260246000fd5b818103818111156109555761095561377c565b60808152600061399660808301886132d1565b73ffffffffffffffffffffffffffffffffffffffff8716602084015285604084015282810360608401526139cb8185876138e4565b98975050505050505050565b6000602082840312156139e957600080fd5b8151611d28816133cb565b60008251613a068184602087016132ad565b9190910192915050565b80820281158282048414176109555761095561377c565b600060208284031215613a3957600080fd5b815167ffffffffffffffff80821115613a5157600080fd5b818401915084601f830112613a6557600080fd5b815181811115613a7757613a77613941565b604051601f82017fffffffffffffffffffffffffffffffffffffffffffffffffffffffffffffffe0908116603f01168101908382118183101715613abd57613abd613941565b81604052828152876020848701011115613ad657600080fd5b613ae78360208301602088016132ad565b979650505050505050565b7f4465706f7369744e6f64654d616e616765722e76616c696461746f725075626b81527f65790000000000000000000000000000000000000000000000000000000000006020820152818360228301376000910160220190815291905056fea2646970667358221220bf58608ebe0f159fdffb4a796c29cd1c984a0cc886ea389b3652dd56c3d880e064736f6c63430008110033",
  "linkReferences": {},
  "deployedLinkReferences": {}
}