{
  "_format": "hh-sol-artifact-1",
  "contractName": "DepositNodeManager",
  "sourceName": "contracts/nos/DepositNodeManager.sol",
  "abi": [
    {
      "inputs": [
        {
          "internalType": "contract IDawnStorageInterface",
          "name": "dawnStorage",
          "type": "address"
        }
      ],
      "stateMutability": "nonpayable",
      "type": "constructor"
    },
    {
      "inputs": [],
      "name": "InactiveNodeOperator",
      "type": "error"
    },
    {
      "inputs": [
        {
          "internalType": "address",
          "name": "operator",
          "type": "address"
        },
        {
          "internalType": "address",
          "name": "required",
          "type": "address"
        },
        {
          "internalType": "address",
          "name": "caller",
          "type": "address"
        }
      ],
      "name": "InconsistentNodeOperatorAddress",
      "type": "error"
    },
    {
      "inputs": [
        {
          "internalType": "uint256",
          "name": "index",
          "type": "uint256"
        },
        {
          "internalType": "address",
          "name": "required",
          "type": "address"
        },
        {
          "internalType": "address",
          "name": "current",
          "type": "address"
        }
      ],
      "name": "InconsistentValidatorOperator",
      "type": "error"
    },
    {
      "inputs": [
        {
          "internalType": "uint256",
          "name": "index",
          "type": "uint256"
        },
        {
          "internalType": "uint256",
          "name": "required",
          "type": "uint256"
        },
        {
          "internalType": "uint256",
          "name": "current",
          "type": "uint256"
        }
      ],
      "name": "InconsistentValidatorStatus",
      "type": "error"
    },
    {
      "inputs": [],
      "name": "NotExistOperator",
      "type": "error"
    },
    {
      "inputs": [
        {
          "internalType": "uint256",
          "name": "required",
          "type": "uint256"
        },
        {
          "internalType": "uint256",
          "name": "current",
          "type": "uint256"
        }
      ],
      "name": "NotReceiveEnoughRewards",
      "type": "error"
    },
    {
      "inputs": [],
      "name": "OperatorAlreadyExist",
      "type": "error"
    },
    {
      "inputs": [],
      "name": "ZeroAddress",
      "type": "error"
    },
    {
      "anonymous": false,
      "inputs": [
        {
          "indexed": true,
          "internalType": "address",
          "name": "from",
          "type": "address"
        },
        {
          "indexed": false,
          "internalType": "uint256",
          "name": "amount",
          "type": "uint256"
        }
      ],
      "name": "MinOperatorStakingAmountSet",
      "type": "event"
    },
    {
      "anonymous": false,
      "inputs": [
        {
          "indexed": true,
          "internalType": "address",
          "name": "operator",
          "type": "address"
        },
        {
          "indexed": true,
          "internalType": "address",
          "name": "claimer",
          "type": "address"
        },
        {
          "indexed": true,
          "internalType": "address",
          "name": "withdrawAddress",
          "type": "address"
        },
        {
          "indexed": false,
          "internalType": "uint256",
          "name": "pethAmount",
          "type": "uint256"
        }
      ],
      "name": "NodeOperatorNodeRewardsClaimed",
      "type": "event"
    },
    {
      "anonymous": false,
      "inputs": [
        {
          "indexed": true,
          "internalType": "address",
          "name": "operator",
          "type": "address"
        },
        {
          "indexed": true,
          "internalType": "address",
          "name": "nodeAddress",
          "type": "address"
        }
      ],
      "name": "NodeOperatorRegistered",
      "type": "event"
    },
    {
      "anonymous": false,
      "inputs": [
        {
          "indexed": false,
          "internalType": "uint256",
          "name": "pethAmount",
          "type": "uint256"
        },
        {
          "indexed": false,
          "internalType": "uint256",
          "name": "rewardsAddedPerValidator",
          "type": "uint256"
        }
      ],
      "name": "NodeOperatorRewardsReceived",
      "type": "event"
    },
    {
      "anonymous": false,
      "inputs": [
        {
          "indexed": true,
          "internalType": "uint256",
          "name": "validatorId",
          "type": "uint256"
        },
        {
          "indexed": true,
          "internalType": "address",
          "name": "operator",
          "type": "address"
        },
        {
          "indexed": false,
          "internalType": "bytes",
          "name": "pubkey",
          "type": "bytes"
        }
      ],
      "name": "SigningKeyActivated",
      "type": "event"
    },
    {
      "anonymous": false,
      "inputs": [
        {
          "indexed": true,
          "internalType": "uint256",
          "name": "validatorId",
          "type": "uint256"
        },
        {
          "indexed": true,
          "internalType": "address",
          "name": "operator",
          "type": "address"
        },
        {
          "indexed": false,
          "internalType": "bytes",
          "name": "pubkey",
          "type": "bytes"
        }
      ],
      "name": "SigningKeyAdded",
      "type": "event"
    },
    {
      "anonymous": false,
      "inputs": [
        {
          "indexed": true,
          "internalType": "uint256",
          "name": "validatorId",
          "type": "uint256"
        },
        {
          "indexed": true,
          "internalType": "address",
          "name": "operator",
          "type": "address"
        },
        {
          "indexed": false,
          "internalType": "bytes",
          "name": "pubkey",
          "type": "bytes"
        }
      ],
      "name": "SigningKeyExiting",
      "type": "event"
    },
    {
      "anonymous": false,
      "inputs": [
        {
          "indexed": true,
          "internalType": "address",
          "name": "operator",
          "type": "address"
        },
        {
          "indexed": false,
          "internalType": "address",
          "name": "withdrawAddress",
          "type": "address"
        }
      ],
      "name": "WithdrawAddressSet",
      "type": "event"
    },
    {
      "inputs": [
        {
          "internalType": "uint256[]",
          "name": "indexes",
          "type": "uint256[]"
        }
      ],
      "name": "activateValidators",
      "outputs": [],
      "stateMutability": "nonpayable",
      "type": "function"
    },
    {
      "inputs": [
        {
          "internalType": "address",
          "name": "operator",
          "type": "address"
        }
      ],
      "name": "claimNodeRewards",
      "outputs": [],
      "stateMutability": "nonpayable",
      "type": "function"
    },
    {
      "inputs": [
        {
          "internalType": "uint256",
          "name": "pethAmount",
          "type": "uint256"
        }
      ],
      "name": "distributeNodeOperatorRewards",
      "outputs": [],
      "stateMutability": "nonpayable",
      "type": "function"
    },
    {
      "inputs": [
        {
          "internalType": "address",
          "name": "operator",
          "type": "address"
        }
      ],
      "name": "getClaimableNodeRewards",
      "outputs": [
        {
          "internalType": "uint256",
          "name": "",
          "type": "uint256"
        }
      ],
      "stateMutability": "view",
      "type": "function"
    },
    {
      "inputs": [],
      "name": "getMinOperatorStakingAmount",
      "outputs": [
        {
          "internalType": "uint256",
          "name": "",
          "type": "uint256"
        }
      ],
      "stateMutability": "view",
      "type": "function"
    },
    {
      "inputs": [
        {
          "internalType": "address",
          "name": "operator",
          "type": "address"
        }
      ],
      "name": "getNodeOperator",
      "outputs": [
        {
          "internalType": "address",
          "name": "nodeAddress",
          "type": "address"
        },
        {
          "internalType": "bool",
          "name": "isActive",
          "type": "bool"
        }
      ],
      "stateMutability": "view",
      "type": "function"
    },
    {
      "inputs": [
        {
          "internalType": "uint256",
          "name": "index",
          "type": "uint256"
        }
      ],
      "name": "getNodeValidator",
      "outputs": [
        {
          "internalType": "address",
          "name": "operator",
          "type": "address"
        },
        {
          "internalType": "bytes",
          "name": "pubkey",
          "type": "bytes"
        },
        {
          "internalType": "enum IDepositNodeManager.ValidatorStatus",
          "name": "status",
          "type": "uint8"
        }
      ],
      "stateMutability": "view",
      "type": "function"
    },
    {
      "inputs": [
        {
          "internalType": "uint256",
          "name": "startIndex",
          "type": "uint256"
        },
        {
          "internalType": "uint256",
          "name": "amount",
          "type": "uint256"
        }
      ],
      "name": "getNodeValidators",
      "outputs": [
        {
          "internalType": "address[]",
          "name": "operators",
          "type": "address[]"
        },
        {
          "internalType": "bytes[]",
          "name": "pubkeys",
          "type": "bytes[]"
        },
        {
          "internalType": "enum IDepositNodeManager.ValidatorStatus[]",
          "name": "statuses",
          "type": "uint8[]"
        }
      ],
      "stateMutability": "view",
      "type": "function"
    },
    {
      "inputs": [],
      "name": "getTotalActivatedValidatorsCount",
      "outputs": [
        {
          "internalType": "uint256",
          "name": "",
          "type": "uint256"
        }
      ],
      "stateMutability": "view",
      "type": "function"
    },
    {
      "inputs": [],
      "name": "getTotalValidatorsCount",
      "outputs": [
        {
          "internalType": "uint256",
          "name": "",
          "type": "uint256"
        }
      ],
      "stateMutability": "view",
      "type": "function"
    },
    {
      "inputs": [
        {
          "internalType": "address",
          "name": "operator",
          "type": "address"
        }
      ],
      "name": "getWithdrawAddress",
      "outputs": [
        {
          "internalType": "address",
          "name": "",
          "type": "address"
        }
      ],
      "stateMutability": "view",
      "type": "function"
    },
    {
      "inputs": [
        {
          "internalType": "address",
          "name": "operator",
          "type": "address"
        },
        {
          "internalType": "uint256[]",
          "name": "indexes",
          "type": "uint256[]"
        }
      ],
      "name": "operatorRequestToExitValidators",
      "outputs": [],
      "stateMutability": "nonpayable",
      "type": "function"
    },
    {
      "inputs": [
        {
          "internalType": "address",
          "name": "withdrawAddress",
          "type": "address"
        }
      ],
      "name": "registerNodeOperator",
      "outputs": [
        {
          "internalType": "address",
          "name": "",
          "type": "address"
        }
      ],
      "stateMutability": "nonpayable",
      "type": "function"
    },
    {
      "inputs": [
        {
          "internalType": "address",
          "name": "operator",
          "type": "address"
        },
        {
          "internalType": "bytes",
          "name": "pubkey",
          "type": "bytes"
        }
      ],
      "name": "registerValidator",
      "outputs": [
        {
          "internalType": "uint256",
          "name": "",
          "type": "uint256"
        }
      ],
      "stateMutability": "nonpayable",
      "type": "function"
    },
    {
      "inputs": [
        {
          "internalType": "uint256",
          "name": "minAmount",
          "type": "uint256"
        }
      ],
      "name": "setMinOperatorStakingAmount",
      "outputs": [],
      "stateMutability": "nonpayable",
      "type": "function"
    },
    {
      "inputs": [
        {
          "internalType": "uint256",
          "name": "index",
          "type": "uint256"
        },
        {
          "internalType": "uint256",
          "name": "slashAmount",
          "type": "uint256"
        }
      ],
      "name": "setValidatorExiting",
      "outputs": [],
      "stateMutability": "nonpayable",
      "type": "function"
    },
    {
      "inputs": [
        {
          "internalType": "uint256",
          "name": "index",
          "type": "uint256"
        },
        {
          "internalType": "uint256",
          "name": "slashAmount",
          "type": "uint256"
        }
      ],
      "name": "setValidatorUnsafe",
      "outputs": [],
      "stateMutability": "nonpayable",
      "type": "function"
    },
    {
      "inputs": [
        {
          "internalType": "address",
          "name": "withdrawAddress",
          "type": "address"
        }
      ],
      "name": "setWithdrawAddress",
      "outputs": [],
      "stateMutability": "nonpayable",
      "type": "function"
    },
    {
      "inputs": [
        {
          "internalType": "uint256",
          "name": "count",
          "type": "uint256"
        }
      ],
      "name": "updateValidatorsExiting",
      "outputs": [
        {
          "internalType": "uint256[]",
          "name": "indexes",
          "type": "uint256[]"
        }
      ],
      "stateMutability": "nonpayable",
      "type": "function"
    }
  ],
  "bytecode": "0x6080604052600080546001600160a01b03191690553480156200002157600080fd5b5060405162002dc938038062002dc983398101604081905262000044916200006a565b600080546001600160a01b0319166001600160a01b03929092169190911790556200009c565b6000602082840312156200007d57600080fd5b81516001600160a01b03811681146200009557600080fd5b9392505050565b612d1d80620000ac6000396000f3fe608060405234801561001057600080fd5b50600436106101515760003560e01c80638f8e6bf6116100cd578063bb78cbe911610081578063f1f2bfd611610066578063f1f2bfd6146102f2578063f686e341146102fa578063f86549821461031c57600080fd5b8063bb78cbe9146102cc578063d801f36d146102df57600080fd5b80639e76d0e8116100b25780639e76d0e81461029e578063a6a13105146102a6578063afe46ea2146102b957600080fd5b80638f8e6bf614610276578063983d52e71461029657600080fd5b8063306fc307116101245780633ab1a494116101095780633ab1a4941461022e57806350d04f9a1461024157806372f7e73a1461026357600080fd5b8063306fc307146101fa5780633a5b742c1461021b57600080fd5b806309b86159146101565780630e2c0b101461016b57806311970d90146101af5780631768c933146101e7575b600080fd5b610169610164366004612548565b61032e565b005b61017e610179366004612583565b610650565b6040805173ffffffffffffffffffffffffffffffffffffffff90931683529015156020830152015b60405180910390f35b6101c26101bd366004612583565b61067c565b60405173ffffffffffffffffffffffffffffffffffffffff90911681526020016101a6565b6101696101f5366004612583565b6108f2565b61020d610208366004612583565b6108fe565b6040519081526020016101a6565b6101696102293660046125ec565b610949565b61016961023c366004612583565b610b83565b61025461024f366004612548565b610c8e565b6040516101a693929190612719565b61016961027136600461275f565b610cd9565b610289610284366004612548565b61101f565b6040516101a691906127a1565b61020d61131c565b61020d61134c565b6101696102b4366004612548565b611377565b6101c26102c7366004612583565b61151f565b6101696102da3660046127e5565b61152d565b61020d6102ed366004612807565b611676565b61020d61184d565b61030d6103083660046127e5565b611878565b6040516101a6939291906128ce565b61016961032a3660046127e5565b5050565b6040518060400160405280600b81526020017f4461776e4465706f736974000000000000000000000000000000000000000000815250336103948260405160200161037991906129ad565b60405160208183030381529060405280519060200120611a92565b73ffffffffffffffffffffffffffffffffffffffff168173ffffffffffffffffffffffffffffffffffffffff161461042d576040517f08c379a000000000000000000000000000000000000000000000000000000000815260206004820152601c60248201527f496e76616c6964206f72206f7574646174656420636f6e74726163740000000060448201526064015b60405180910390fd5b60006104587fdf3d077074546f541532fe7e77eccba160f30e09959a3cb77fbc16a133247cf4611b26565b9050600061049a6040518060400160405280600b81526020017f4461776e4465706f736974000000000000000000000000000000000000000000815250611bba565b6040517f70a0823100000000000000000000000000000000000000000000000000000000815230600482015273ffffffffffffffffffffffffffffffffffffffff91909116906370a0823190602401602060405180830381865afa158015610506573d6000803e3d6000fd5b505050506040513d601f19601f8201168201806040525081019061052a91906129f2565b90506105368583612a3a565b811015610584576105478583612a3a565b6040517fae855dac000000000000000000000000000000000000000000000000000000008152600481019190915260248101829052604401610424565b60006105af7f4390690dd5976d99db70b4fc5fc9e9ef820b58ea3135f3b949b09ed33d36a375611b26565b6105b99087612a4d565b90506105e57f7855afc474fc840f74c76cc7469332d9d2d12015a702c35ed84effb5edeed30b82611bd1565b61060f7fdf3d077074546f541532fe7e77eccba160f30e09959a3cb77fbc16a133247cf487611bd1565b60408051878152602081018390527fc6c52a06d75d80871088bd52e070fdc49679ed66132431327545fb31efbf7553910160405180910390a1505050505050565b600080600061065e84611c59565b905061066981611a92565b925061067481611cd2565b915050915091565b600073ffffffffffffffffffffffffffffffffffffffff82166106cb576040517fd92e233d00000000000000000000000000000000000000000000000000000000815260040160405180910390fd5b60006106d633611c59565b905060006106e382611a92565b73ffffffffffffffffffffffffffffffffffffffff1614610730576040517f2150a72300000000000000000000000000000000000000000000000000000000815260040160405180910390fd5b60006107706040518060400160405280601b81526020017f4465706f7369744e6f64654f70657261746f724465706c6f7965720000000000815250611bba565b6040517fa2a27b7c00000000000000000000000000000000000000000000000000000000815233600482015273ffffffffffffffffffffffffffffffffffffffff919091169063a2a27b7c906024016020604051808303816000875af11580156107de573d6000803e3d6000fd5b505050506040513d601f19601f820116820180604052508101906108029190612a88565b905061080e8282611d66565b610819826001611dc5565b61084b61082533611e24565b7fffffffffffffffffffffffffffffffffffffffffffffffffffffffffffffffff611eae565b60405173ffffffffffffffffffffffffffffffffffffffff82169033907f51713842c09963dd5b7c4afa5a8b66717d10aeb8bd8d4847e01057f7f631273790600090a36108a061089a33611f0c565b85611d66565b60405173ffffffffffffffffffffffffffffffffffffffff8516815233907f81ef977572555fac5ac57a0e17fdf5feaf98f544e9af11713615da4e1f34ff0b9060200160405180910390a29392505050565b6108fb81612010565b50565b60006109438261091561091085611e24565b611b26565b61093e7f7855afc474fc840f74c76cc7469332d9d2d12015a702c35ed84effb5edeed30b611b26565b612215565b92915050565b600061095c61095785611c59565b611a92565b90503373ffffffffffffffffffffffffffffffffffffffff8216146109d3576040517f0490207400000000000000000000000000000000000000000000000000000000815273ffffffffffffffffffffffffffffffffffffffff808616600483015282166024820152336044820152606401610424565b6109dc84612010565b60008080805b85811015610b3d578686828181106109fc576109fc612aa5565b905060200201359350610a0e84612250565b92508773ffffffffffffffffffffffffffffffffffffffff16610a3084611a92565b73ffffffffffffffffffffffffffffffffffffffff1614610aaf5783610a5584611a92565b6040517fad73b14b000000000000000000000000000000000000000000000000000000008152600481019290925273ffffffffffffffffffffffffffffffffffffffff908116602483015289166044820152606401610424565b6002610aba84611b26565b03610b2d57610aca836003611eae565b8773ffffffffffffffffffffffffffffffffffffffff16847fbc19282098e9be1cfd8e3853f64f04d2beab5c2967237e99bd22d77ae04212c5610b0c866122b5565b604051610b199190612ad4565b60405180910390a3610b2a82612ae7565b91505b610b3681612ae7565b90506109e2565b50610b50610b4a8861236b565b826123f5565b610b7a7f4390690dd5976d99db70b4fc5fc9e9ef820b58ea3135f3b949b09ed33d36a375826123f5565b50505050505050565b73ffffffffffffffffffffffffffffffffffffffff8116610bd0576040517fd92e233d00000000000000000000000000000000000000000000000000000000815260040160405180910390fd5b6000610bde61095733611c59565b905073ffffffffffffffffffffffffffffffffffffffff8116610c2d576040517f53d0505500000000000000000000000000000000000000000000000000000000815260040160405180910390fd5b610c3f610c3933611f0c565b83611d66565b60405173ffffffffffffffffffffffffffffffffffffffff8316815233907f81ef977572555fac5ac57a0e17fdf5feaf98f544e9af11713615da4e1f34ff0b9060200160405180910390a25050565b60006060600080610c9e85612250565b9050610ca981611a92565b9350610cb4816122b5565b9250610cbf81611b26565b6006811115610cd057610cd06126af565b93959294505050565b60008054906101000a900473ffffffffffffffffffffffffffffffffffffffff1673ffffffffffffffffffffffffffffffffffffffff1663a75b87d26040518163ffffffff1660e01b8152600401602060405180830381865afa158015610d44573d6000803e3d6000fd5b505050506040513d601f19601f82011682018060405250810190610d689190612a88565b73ffffffffffffffffffffffffffffffffffffffff163373ffffffffffffffffffffffffffffffffffffffff1614610e22576040517f08c379a000000000000000000000000000000000000000000000000000000000815260206004820152602360248201527f4163636f756e74206973206e6f7420612074656d706f7261727920677561726460448201527f69616e00000000000000000000000000000000000000000000000000000000006064820152608401610424565b60008060008060005b85811015610fec57868682818110610e4557610e45612aa5565b905060200201359150610e5782612250565b94506001610e6486611b26565b14610eb857816001610e7587611b26565b6040517ffa44983a000000000000000000000000000000000000000000000000000000008152600481019390935260248301919091526044820152606401610424565b6000610ec3866122b5565b9050610ece86611a92565b9450610edc61095786611c59565b6040517fa97d9ba700000000000000000000000000000000000000000000000000000000815290945073ffffffffffffffffffffffffffffffffffffffff85169063a97d9ba790610f339086908590600401612b1f565b600060405180830381600087803b158015610f4d57600080fd5b505af1158015610f61573d6000803e3d6000fd5b50505050610f6e85612010565b610f79866002611eae565b610f8c610f858661236b565b6001611bd1565b8473ffffffffffffffffffffffffffffffffffffffff16837fd33d337462164bee93fabcec5048a936056ade32fadb042d3565be192dcf923183604051610fd39190612ad4565b60405180910390a350610fe581612ae7565b9050610e2b565b506110177f4390690dd5976d99db70b4fc5fc9e9ef820b58ea3135f3b949b09ed33d36a37586611bd1565b505050505050565b60606040518060400160405280600b81526020017f4461776e4465706f7369740000000000000000000000000000000000000000008152503361106c8260405160200161037991906129ad565b73ffffffffffffffffffffffffffffffffffffffff168173ffffffffffffffffffffffffffffffffffffffff1614611100576040517f08c379a000000000000000000000000000000000000000000000000000000000815260206004820152601c60248201527f496e76616c6964206f72206f7574646174656420636f6e7472616374000000006044820152606401610424565b60008061112c7f8e3e649180d6c0605015dba0b6df662eda0d3e98ae361d053f0c1aaff7f0806c611b26565b905060006111597f5970c1010c0138d6164041632ef0123c4ffd54b8142ecade5c6894b00e1a8654611b26565b90506000808867ffffffffffffffff81111561117757611177612b38565b6040519080825280602002602001820160405280156111a0578160200160208202803683370190505b5090505b88821080156111b257508284105b15611224576111c084612250565b945060026111cd86611b26565b146111e2576111db84612ae7565b93506111a4565b6111eb84612453565b838183815181106111fe576111fe612aa5565b602090810291909101015261121284612ae7565b935061121d82612ae7565b91506111a4565b8167ffffffffffffffff81111561123d5761123d612b38565b604051908082528060200260200182016040528015611266578160200160208202803683370190505b50975060005b828110156112bb5781818151811061128657611286612aa5565b60200260200101518982815181106112a0576112a0612aa5565b60209081029190910101526112b481612ae7565b905061126c565b506112e67f8e3e649180d6c0605015dba0b6df662eda0d3e98ae361d053f0c1aaff7f0806c85611eae565b6113107f4390690dd5976d99db70b4fc5fc9e9ef820b58ea3135f3b949b09ed33d36a375836123f5565b50505050505050919050565b60006113477f5970c1010c0138d6164041632ef0123c4ffd54b8142ecade5c6894b00e1a8654611b26565b905090565b60006113477f4390690dd5976d99db70b4fc5fc9e9ef820b58ea3135f3b949b09ed33d36a375611b26565b60008054906101000a900473ffffffffffffffffffffffffffffffffffffffff1673ffffffffffffffffffffffffffffffffffffffff1663a75b87d26040518163ffffffff1660e01b8152600401602060405180830381865afa1580156113e2573d6000803e3d6000fd5b505050506040513d601f19601f820116820180604052508101906114069190612a88565b73ffffffffffffffffffffffffffffffffffffffff163373ffffffffffffffffffffffffffffffffffffffff16146114c0576040517f08c379a000000000000000000000000000000000000000000000000000000000815260206004820152602360248201527f4163636f756e74206973206e6f7420612074656d706f7261727920677561726460448201527f69616e00000000000000000000000000000000000000000000000000000000006064820152608401610424565b60405181815233907f7893ea8261e9cae01ebaefe252d1dc6c42c7cfa22dc397ba36195e949d0d29e79060200160405180910390a26108fb7f0a47084fa5f3bf37e00e505e23cc07680269006f10b69f7f6473751c04e86e2a82611eae565b600061094361095783611f0c565b60008054906101000a900473ffffffffffffffffffffffffffffffffffffffff1673ffffffffffffffffffffffffffffffffffffffff1663a75b87d26040518163ffffffff1660e01b8152600401602060405180830381865afa158015611598573d6000803e3d6000fd5b505050506040513d601f19601f820116820180604052508101906115bc9190612a88565b73ffffffffffffffffffffffffffffffffffffffff163373ffffffffffffffffffffffffffffffffffffffff161461032a576040517f08c379a000000000000000000000000000000000000000000000000000000000815260206004820152602360248201527f4163636f756e74206973206e6f7420612074656d706f7261727920677561726460448201527f69616e00000000000000000000000000000000000000000000000000000000006064820152608401610424565b600080600061168486610650565b90925090503373ffffffffffffffffffffffffffffffffffffffff8316146116fe576040517f0490207400000000000000000000000000000000000000000000000000000000815273ffffffffffffffffffffffffffffffffffffffff808816600483015283166024820152336044820152606401610424565b80611735576040517fc0ea1b0100000000000000000000000000000000000000000000000000000000815260040160405180910390fd5b60006117607f5970c1010c0138d6164041632ef0123c4ffd54b8142ecade5c6894b00e1a8654611b26565b9050600061176d82612250565b90506117798189611d66565b611784816001611eae565b6117c48188888080601f0160208091040260200160405190810160405280939291908181526020018383808284376000920191909152506124f092505050565b6117ef7f5970c1010c0138d6164041632ef0123c4ffd54b8142ecade5c6894b00e1a86546001611bd1565b8773ffffffffffffffffffffffffffffffffffffffff16827fc4dae530e187b46eb47d101a2f5e9a6b2fef1f28bd0123c6ff95328f4cd892528989604051611838929190612b67565b60405180910390a350925050505b9392505050565b60006113477f0a47084fa5f3bf37e00e505e23cc07680269006f10b69f7f6473751c04e86e2a611b26565b606080606060006118a87f5970c1010c0138d6164041632ef0123c4ffd54b8142ecade5c6894b00e1a8654611b26565b90508086106118b75750611a8b565b84158015906118ce5750806118cc8688612a3a565b105b156118e0576118dd8587612a3a565b90505b60006118ec8783612bb4565b90508067ffffffffffffffff81111561190757611907612b38565b604051908082528060200260200182016040528015611930578160200160208202803683370190505b5094508067ffffffffffffffff81111561194c5761194c612b38565b60405190808252806020026020018201604052801561197f57816020015b606081526020019060019003908161196a5790505b5093508067ffffffffffffffff81111561199b5761199b612b38565b6040519080825280602002602001820160405280156119c4578160200160208202803683370190505b5092506000875b83811015611a86576119dc81610c8e565b8985815181106119ee576119ee612aa5565b60200260200101898681518110611a0757611a07612aa5565b60200260200101898781518110611a2057611a20612aa5565b60200260200101836006811115611a3957611a396126af565b6006811115611a4a57611a4a6126af565b9052929092525073ffffffffffffffffffffffffffffffffffffffff9091169052611a7482612ae7565b9150611a7f81612ae7565b90506119cb565b505050505b9250925092565b600080546040517f21f8a7210000000000000000000000000000000000000000000000000000000081526004810184905273ffffffffffffffffffffffffffffffffffffffff909116906321f8a72190602401602060405180830381865afa158015611b02573d6000803e3d6000fd5b505050506040513d601f19601f820116820180604052508101906109439190612a88565b600080546040517fbd02d0f50000000000000000000000000000000000000000000000000000000081526004810184905273ffffffffffffffffffffffffffffffffffffffff9091169063bd02d0f590602401602060405180830381865afa158015611b96573d6000803e3d6000fd5b505050506040513d601f19601f8201168201806040525081019061094391906129f2565b6000806118468360405160200161037991906129ad565b6000546040517fadb353dc000000000000000000000000000000000000000000000000000000008152600481018490526024810183905273ffffffffffffffffffffffffffffffffffffffff9091169063adb353dc906044015b600060405180830381600087803b158015611c4557600080fd5b505af1158015611017573d6000803e3d6000fd5b6040517f4465706f7369744e6f64654d616e616765722e6f70657261746f72000000000060208201527fffffffffffffffffffffffffffffffffffffffff000000000000000000000000606083901b16603b820152600090604f015b604051602081830303815290604052805190602001209050919050565b600080546040517f7ae1cfca0000000000000000000000000000000000000000000000000000000081526004810184905273ffffffffffffffffffffffffffffffffffffffff90911690637ae1cfca90602401602060405180830381865afa158015611d42573d6000803e3d6000fd5b505050506040513d601f19601f820116820180604052508101906109439190612bc7565b6000546040517fca446dd90000000000000000000000000000000000000000000000000000000081526004810184905273ffffffffffffffffffffffffffffffffffffffff83811660248301529091169063ca446dd990604401611c2b565b6000546040517fabfdcced00000000000000000000000000000000000000000000000000000000815260048101849052821515602482015273ffffffffffffffffffffffffffffffffffffffff9091169063abfdcced90604401611c2b565b600081604051602001611cb591907f4465706f7369744e6f64654d616e616765722e636c61696d656452657761726481527f7350657256616c696461746f7200000000000000000000000000000000000000602082015260609190911b7fffffffffffffffffffffffffffffffffffffffff00000000000000000000000016602d82015260410190565b6000546040517fe2a4853a000000000000000000000000000000000000000000000000000000008152600481018490526024810183905273ffffffffffffffffffffffffffffffffffffffff9091169063e2a4853a90604401611c2b565b6000600282604051602001611f9891907f4465706f7369744e6f64654d616e616765722e6f70657261746f72576974686481527f7261774164647265737300000000000000000000000000000000000000000000602082015260609190911b7fffffffffffffffffffffffffffffffffffffffff00000000000000000000000016602a820152603e0190565b604080517fffffffffffffffffffffffffffffffffffffffffffffffffffffffffffffffe081840301815290829052611fd091612be9565b602060405180830381855afa158015611fed573d6000803e3d6000fd5b5050506040513d601f19601f8201168201806040525081019061094391906129f2565b600061201b82611e24565b9050600061202882611b26565b905060006120557f7855afc474fc840f74c76cc7469332d9d2d12015a702c35ed84effb5edeed30b611b26565b90506000612064858484612215565b905080156121fd5760006120778661151f565b90506120b76040518060400160405280600b81526020017f4461776e4465706f736974000000000000000000000000000000000000000000815250611bba565b6040517fa9059cbb00000000000000000000000000000000000000000000000000000000815273ffffffffffffffffffffffffffffffffffffffff838116600483015260248201859052919091169063a9059cbb906044016020604051808303816000875af115801561212e573d6000803e3d6000fd5b505050506040513d601f19601f820116820180604052508101906121529190612bc7565b5061217d7fdf3d077074546f541532fe7e77eccba160f30e09959a3cb77fbc16a133247cf4836123f5565b8073ffffffffffffffffffffffffffffffffffffffff163373ffffffffffffffffffffffffffffffffffffffff168773ffffffffffffffffffffffffffffffffffffffff167fd89ff2236e432f602217776b8bb5727bb67dac8d11b300be480b6c6e5ac01551856040516121f391815260200190565b60405180910390a4505b81831461220e5761220e8483611eae565b5050505050565b6000818310156122465761222b6109108561236b565b6122358484612bb4565b61223f9190612c05565b9050611846565b5060009392505050565b600081604051602001611cb591907f4465706f7369744e6f64654d616e616765722e76616c696461746f72496e646581527f78000000000000000000000000000000000000000000000000000000000000006020820152602181019190915260410190565b6000546040517fc031a1800000000000000000000000000000000000000000000000000000000081526004810183905260609173ffffffffffffffffffffffffffffffffffffffff169063c031a18090602401600060405180830381865afa158015612325573d6000803e3d6000fd5b505050506040513d6000823e601f3d9081017fffffffffffffffffffffffffffffffffffffffffffffffffffffffffffffffe01682016040526109439190810190612c1c565b600081604051602001611cb591907f4465706f7369744e6f64654d616e616765722e76616c69646174696e6756616c81527f696461746f7273436f756e740000000000000000000000000000000000000000602082015260609190911b7fffffffffffffffffffffffffffffffffffffffff00000000000000000000000016602c82015260400190565b6000546040517febb9d8c9000000000000000000000000000000000000000000000000000000008152600481018490526024810183905273ffffffffffffffffffffffffffffffffffffffff9091169063ebb9d8c990604401611c2b565b600061245e82612250565b9050600061246b82611a92565b905061247681612010565b612481826003611eae565b61249461248d8261236b565b60016123f5565b8073ffffffffffffffffffffffffffffffffffffffff16837fbc19282098e9be1cfd8e3853f64f04d2beab5c2967237e99bd22d77ae04212c56124d6856122b5565b6040516124e39190612ad4565b60405180910390a3505050565b6000546040517f2e28d08400000000000000000000000000000000000000000000000000000000815273ffffffffffffffffffffffffffffffffffffffff90911690632e28d08490611c2b9085908590600401612b1f565b60006020828403121561255a57600080fd5b5035919050565b73ffffffffffffffffffffffffffffffffffffffff811681146108fb57600080fd5b60006020828403121561259557600080fd5b813561184681612561565b60008083601f8401126125b257600080fd5b50813567ffffffffffffffff8111156125ca57600080fd5b6020830191508360208260051b85010111156125e557600080fd5b9250929050565b60008060006040848603121561260157600080fd5b833561260c81612561565b9250602084013567ffffffffffffffff81111561262857600080fd5b612634868287016125a0565b9497909650939450505050565b60005b8381101561265c578181015183820152602001612644565b50506000910152565b6000815180845261267d816020860160208601612641565b601f017fffffffffffffffffffffffffffffffffffffffffffffffffffffffffffffffe0169290920160200192915050565b7f4e487b7100000000000000000000000000000000000000000000000000000000600052602160045260246000fd5b60078110612715577f4e487b7100000000000000000000000000000000000000000000000000000000600052602160045260246000fd5b9052565b73ffffffffffffffffffffffffffffffffffffffff841681526060602082015260006127486060830185612665565b905061275760408301846126de565b949350505050565b6000806020838503121561277257600080fd5b823567ffffffffffffffff81111561278957600080fd5b612795858286016125a0565b90969095509350505050565b6020808252825182820181905260009190848201906040850190845b818110156127d9578351835292840192918401916001016127bd565b50909695505050505050565b600080604083850312156127f857600080fd5b50508035926020909101359150565b60008060006040848603121561281c57600080fd5b833561282781612561565b9250602084013567ffffffffffffffff8082111561284457600080fd5b818601915086601f83011261285857600080fd5b81358181111561286757600080fd5b87602082850101111561287957600080fd5b6020830194508093505050509250925092565b600081518084526020808501945080840160005b838110156128c3576128b38783516126de565b95820195908201906001016128a0565b509495945050505050565b606080825284519082018190526000906020906080840190828801845b8281101561291d57815173ffffffffffffffffffffffffffffffffffffffff16845292840192908401906001016128eb565b50505083810382850152855180825282820190600581901b8301840188850160005b8381101561298b577fffffffffffffffffffffffffffffffffffffffffffffffffffffffffffffffe0868403018552612979838351612665565b9487019492509086019060010161293f565b5050868103604088015261299f818961288c565b9a9950505050505050505050565b7f636f6e74726163742e61646472657373000000000000000000000000000000008152600082516129e5816010850160208701612641565b9190910160100192915050565b600060208284031215612a0457600080fd5b5051919050565b7f4e487b7100000000000000000000000000000000000000000000000000000000600052601160045260246000fd5b8082018082111561094357610943612a0b565b600082612a83577f4e487b7100000000000000000000000000000000000000000000000000000000600052601260045260246000fd5b500490565b600060208284031215612a9a57600080fd5b815161184681612561565b7f4e487b7100000000000000000000000000000000000000000000000000000000600052603260045260246000fd5b6020815260006118466020830184612665565b60007fffffffffffffffffffffffffffffffffffffffffffffffffffffffffffffffff8203612b1857612b18612a0b565b5060010190565b8281526040602082015260006127576040830184612665565b7f4e487b7100000000000000000000000000000000000000000000000000000000600052604160045260246000fd5b60208152816020820152818360408301376000818301604090810191909152601f9092017fffffffffffffffffffffffffffffffffffffffffffffffffffffffffffffffe0160101919050565b8181038181111561094357610943612a0b565b600060208284031215612bd957600080fd5b8151801515811461184657600080fd5b60008251612bfb818460208701612641565b9190910192915050565b808202811582820484141761094357610943612a0b565b600060208284031215612c2e57600080fd5b815167ffffffffffffffff80821115612c4657600080fd5b818401915084601f830112612c5a57600080fd5b815181811115612c6c57612c6c612b38565b604051601f82017fffffffffffffffffffffffffffffffffffffffffffffffffffffffffffffffe0908116603f01168101908382118183101715612cb257612cb2612b38565b81604052828152876020848701011115612ccb57600080fd5b612cdc836020830160208801612641565b97965050505050505056fea2646970667358221220730ed169682d29003e1fd070f95bb523cc30705cbba4555a85c7f1cb8ea9fb7f64736f6c63430008110033",
  "linkReferences": {},
  "deployedLinkReferences": {}
}